{"contracts/SupplyChainTracking.sol":{"SupplyChainTracking":{"abi":[{"inputs":[],"name":"AccessControlBadConfirmation","type":"error"},{"inputs":[{"internalType":"address","name":"account","type":"address"},{"internalType":"bytes32","name":"neededRole","type":"bytes32"}],"name":"AccessControlUnauthorizedAccount","type":"error"},{"inputs":[{"internalType":"address","name":"target","type":"address"}],"name":"AddressEmptyCode","type":"error"},{"inputs":[{"internalType":"address","name":"implementation","type":"address"}],"name":"ERC1967InvalidImplementation","type":"error"},{"inputs":[],"name":"ERC1967NonPayable","type":"error"},{"inputs":[],"name":"FailedCall","type":"error"},{"inputs":[],"name":"InvalidInitialization","type":"error"},{"inputs":[],"name":"NotInitializing","type":"error"},{"inputs":[],"name":"UUPSUnauthorizedCallContext","type":"error"},{"inputs":[{"internalType":"bytes32","name":"slot","type":"bytes32"}],"name":"UUPSUnsupportedProxiableUUID","type":"error"},{"anonymous":false,"inputs":[{"indexed":true,"internalType":"bytes32","name":"itemId","type":"bytes32"},{"indexed":false,"internalType":"string","name":"certName","type":"string"},{"indexed":false,"internalType":"string","name":"certIssuer","type":"string"}],"name":"CertificateAdded","type":"event"},{"anonymous":false,"inputs":[{"indexed":true,"internalType":"address","name":"collectorAddress","type":"address"}],"name":"FeeCollectorAddressSet","type":"event"},{"anonymous":false,"inputs":[{"indexed":false,"internalType":"uint64","name":"version","type":"uint64"}],"name":"Initialized","type":"event"},{"anonymous":false,"inputs":[{"indexed":true,"internalType":"bytes32","name":"itemId","type":"bytes32"},{"indexed":false,"internalType":"string","name":"name","type":"string"},{"indexed":true,"internalType":"address","name":"owner","type":"address"},{"indexed":false,"internalType":"uint256","name":"costPrice","type":"uint256"},{"indexed":false,"internalType":"uint256","name":"sellingPrice","type":"uint256"}],"name":"ItemCreated","type":"event"},{"anonymous":false,"inputs":[{"indexed":true,"internalType":"bytes32","name":"itemId","type":"bytes32"},{"indexed":false,"internalType":"uint256","name":"newSellingPrice","type":"uint256"},{"indexed":true,"internalType":"address","name":"updater","type":"address"}],"name":"ItemSellingPriceUpdated","type":"event"},{"anonymous":false,"inputs":[{"indexed":true,"internalType":"bytes32","name":"itemId","type":"bytes32"},{"indexed":true,"internalType":"address","name":"retailer","type":"address"},{"indexed":true,"internalType":"address","name":"customer","type":"address"}],"name":"ItemSoldToCustomer","type":"event"},{"anonymous":false,"inputs":[{"indexed":true,"internalType":"bytes32","name":"itemId","type":"bytes32"},{"indexed":false,"internalType":"enum SupplyChainTracking.State","name":"newState","type":"uint8"},{"indexed":false,"internalType":"string","name":"note","type":"string"}],"name":"ItemStateUpdated","type":"event"},{"anonymous":false,"inputs":[{"indexed":true,"internalType":"bytes32","name":"itemId","type":"bytes32"},{"indexed":true,"internalType":"address","name":"payer","type":"address"},{"indexed":true,"internalType":"address","name":"payee","type":"address"},{"indexed":false,"internalType":"uint256","name":"amount","type":"uint256"},{"indexed":false,"internalType":"string","name":"reason","type":"string"}],"name":"PaymentTransferred","type":"event"},{"anonymous":false,"inputs":[{"indexed":true,"internalType":"bytes32","name":"role","type":"bytes32"},{"indexed":true,"internalType":"bytes32","name":"previousAdminRole","type":"bytes32"},{"indexed":true,"internalType":"bytes32","name":"newAdminRole","type":"bytes32"}],"name":"RoleAdminChanged","type":"event"},{"anonymous":false,"inputs":[{"indexed":true,"internalType":"bytes32","name":"role","type":"bytes32"},{"indexed":true,"internalType":"address","name":"account","type":"address"},{"indexed":true,"internalType":"address","name":"sender","type":"address"}],"name":"RoleGranted","type":"event"},{"anonymous":false,"inputs":[{"indexed":true,"internalType":"bytes32","name":"role","type":"bytes32"},{"indexed":true,"internalType":"address","name":"account","type":"address"},{"indexed":true,"internalType":"address","name":"sender","type":"address"}],"name":"RoleRevoked","type":"event"},{"anonymous":false,"inputs":[{"indexed":true,"internalType":"address","name":"tokenAddress","type":"address"}],"name":"TokenContractAddressSet","type":"event"},{"anonymous":false,"inputs":[{"indexed":true,"internalType":"bytes32","name":"itemId","type":"bytes32"},{"indexed":true,"internalType":"address","name":"confirmer","type":"address"},{"indexed":false,"internalType":"uint256","name":"amountPaidToPreviousOwner","type":"uint256"}],"name":"TransferConfirmed","type":"event"},{"anonymous":false,"inputs":[{"indexed":true,"internalType":"bytes32","name":"itemId","type":"bytes32"},{"indexed":true,"internalType":"address","name":"from","type":"address"},{"indexed":true,"internalType":"address","name":"to","type":"address"}],"name":"TransferInitiated","type":"event"},{"anonymous":false,"inputs":[{"indexed":true,"internalType":"address","name":"implementation","type":"address"}],"name":"Upgraded","type":"event"},{"inputs":[],"name":"ADMIN_ROLE","outputs":[{"internalType":"bytes32","name":"","type":"bytes32"}],"stateMutability":"view","type":"function"},{"inputs":[],"name":"DEFAULT_ADMIN_ROLE","outputs":[{"internalType":"bytes32","name":"","type":"bytes32"}],"stateMutability":"view","type":"function"},{"inputs":[],"name":"DISTRIBUTOR_ROLE","outputs":[{"internalType":"bytes32","name":"","type":"bytes32"}],"stateMutability":"view","type":"function"},{"inputs":[],"name":"PRODUCER_ROLE","outputs":[{"internalType":"bytes32","name":"","type":"bytes32"}],"stateMutability":"view","type":"function"},{"inputs":[],"name":"RETAILER_ROLE","outputs":[{"internalType":"bytes32","name":"","type":"bytes32"}],"stateMutability":"view","type":"function"},{"inputs":[],"name":"TRANSPORTER_ROLE","outputs":[{"internalType":"bytes32","name":"","type":"bytes32"}],"stateMutability":"view","type":"function"},{"inputs":[],"name":"UPGRADE_INTERFACE_VERSION","outputs":[{"internalType":"string","name":"","type":"string"}],"stateMutability":"view","type":"function"},{"inputs":[{"internalType":"bytes32","name":"_itemId","type":"bytes32"},{"internalType":"string","name":"_certName","type":"string"},{"internalType":"string","name":"_certIssuer","type":"string"}],"name":"addCertificate","outputs":[],"stateMutability":"nonpayable","type":"function"},{"inputs":[{"internalType":"bytes32","name":"_itemId","type":"bytes32"}],"name":"confirmTransfer","outputs":[],"stateMutability":"nonpayable","type":"function"},{"inputs":[{"internalType":"bytes32","name":"_itemId","type":"bytes32"},{"internalType":"string","name":"_name","type":"string"},{"internalType":"string","name":"_description","type":"string"},{"internalType":"uint256","name":"_plannedDeliveryTime","type":"uint256"},{"internalType":"uint256","name":"_costPrice","type":"uint256"},{"internalType":"uint256","name":"_sellingPrice","type":"uint256"}],"name":"createItem","outputs":[],"stateMutability":"nonpayable","type":"function"},{"inputs":[],"name":"feeCollector","outputs":[{"internalType":"address","name":"","type":"address"}],"stateMutability":"view","type":"function"},{"inputs":[{"internalType":"bytes32","name":"_itemId","type":"bytes32"}],"name":"getCertificates","outputs":[{"components":[{"internalType":"string","name":"certName","type":"string"},{"internalType":"string","name":"certIssuer","type":"string"},{"internalType":"uint256","name":"issueDate","type":"uint256"}],"internalType":"struct SupplyChainTracking.Certificate[]","name":"","type":"tuple[]"}],"stateMutability":"view","type":"function"},{"inputs":[{"internalType":"bytes32","name":"_itemId","type":"bytes32"}],"name":"getItemDetail","outputs":[{"components":[{"internalType":"bytes32","name":"id","type":"bytes32"},{"internalType":"string","name":"name","type":"string"},{"internalType":"string","name":"description","type":"string"},{"internalType":"address","name":"currentOwner","type":"address"},{"internalType":"enum SupplyChainTracking.State","name":"currentState","type":"uint8"},{"internalType":"bool","name":"exists","type":"bool"},{"internalType":"uint256","name":"plannedDeliveryTime","type":"uint256"},{"internalType":"uint256","name":"costPrice","type":"uint256"},{"internalType":"uint256","name":"sellingPrice","type":"uint256"}],"internalType":"struct SupplyChainTracking.Item","name":"","type":"tuple"}],"stateMutability":"view","type":"function"},{"inputs":[{"internalType":"bytes32","name":"_itemId","type":"bytes32"}],"name":"getItemHistory","outputs":[{"components":[{"internalType":"enum SupplyChainTracking.State","name":"state","type":"uint8"},{"internalType":"address","name":"actor","type":"address"},{"internalType":"uint256","name":"timestamp","type":"uint256"},{"internalType":"string","name":"note","type":"string"}],"internalType":"struct SupplyChainTracking.History[]","name":"","type":"tuple[]"}],"stateMutability":"view","type":"function"},{"inputs":[{"internalType":"bytes32","name":"_itemId","type":"bytes32"}],"name":"getItemOwner","outputs":[{"internalType":"address","name":"","type":"address"}],"stateMutability":"view","type":"function"},{"inputs":[{"internalType":"bytes32","name":"_itemId","type":"bytes32"}],"name":"getItemState","outputs":[{"internalType":"enum SupplyChainTracking.State","name":"","type":"uint8"}],"stateMutability":"view","type":"function"},{"inputs":[{"internalType":"bytes32","name":"role","type":"bytes32"}],"name":"getRoleAdmin","outputs":[{"internalType":"bytes32","name":"","type":"bytes32"}],"stateMutability":"view","type":"function"},{"inputs":[{"internalType":"bytes32","name":"role","type":"bytes32"},{"internalType":"address","name":"account","type":"address"}],"name":"grantAccess","outputs":[],"stateMutability":"nonpayable","type":"function"},{"inputs":[{"internalType":"bytes32","name":"role","type":"bytes32"},{"internalType":"address","name":"account","type":"address"}],"name":"grantRole","outputs":[],"stateMutability":"nonpayable","type":"function"},{"inputs":[{"internalType":"bytes32","name":"role","type":"bytes32"},{"internalType":"address","name":"account","type":"address"}],"name":"hasRole","outputs":[{"internalType":"bool","name":"","type":"bool"}],"stateMutability":"view","type":"function"},{"inputs":[],"name":"initialize","outputs":[],"stateMutability":"nonpayable","type":"function"},{"inputs":[{"internalType":"bytes32","name":"_itemId","type":"bytes32"},{"internalType":"address","name":"_to","type":"address"}],"name":"initiateTransfer","outputs":[],"stateMutability":"nonpayable","type":"function"},{"inputs":[{"internalType":"bytes32","name":"","type":"bytes32"},{"internalType":"uint256","name":"","type":"uint256"}],"name":"itemCertificates","outputs":[{"internalType":"string","name":"certName","type":"string"},{"internalType":"string","name":"certIssuer","type":"string"},{"internalType":"uint256","name":"issueDate","type":"uint256"}],"stateMutability":"view","type":"function"},{"inputs":[{"internalType":"bytes32","name":"","type":"bytes32"},{"internalType":"uint256","name":"","type":"uint256"}],"name":"itemHistories","outputs":[{"internalType":"enum SupplyChainTracking.State","name":"state","type":"uint8"},{"internalType":"address","name":"actor","type":"address"},{"internalType":"uint256","name":"timestamp","type":"uint256"},{"internalType":"string","name":"note","type":"string"}],"stateMutability":"view","type":"function"},{"inputs":[{"internalType":"bytes32","name":"","type":"bytes32"}],"name":"items","outputs":[{"internalType":"bytes32","name":"id","type":"bytes32"},{"internalType":"string","name":"name","type":"string"},{"internalType":"string","name":"description","type":"string"},{"internalType":"address","name":"currentOwner","type":"address"},{"internalType":"enum SupplyChainTracking.State","name":"currentState","type":"uint8"},{"internalType":"bool","name":"exists","type":"bool"},{"internalType":"uint256","name":"plannedDeliveryTime","type":"uint256"},{"internalType":"uint256","name":"costPrice","type":"uint256"},{"internalType":"uint256","name":"sellingPrice","type":"uint256"}],"stateMutability":"view","type":"function"},{"inputs":[{"internalType":"bytes32","name":"_itemId","type":"bytes32"}],"name":"markAsReceived","outputs":[],"stateMutability":"nonpayable","type":"function"},{"inputs":[{"internalType":"bytes32","name":"_itemId","type":"bytes32"},{"internalType":"address","name":"_customerAddress","type":"address"}],"name":"markAsSold","outputs":[],"stateMutability":"nonpayable","type":"function"},{"inputs":[{"internalType":"bytes32","name":"","type":"bytes32"}],"name":"pendingTransfers","outputs":[{"internalType":"address","name":"from","type":"address"},{"internalType":"address","name":"to","type":"address"},{"internalType":"bool","name":"fromConfirmed","type":"bool"},{"internalType":"bool","name":"toConfirmed","type":"bool"}],"stateMutability":"view","type":"function"},{"inputs":[],"name":"proxiableUUID","outputs":[{"internalType":"bytes32","name":"","type":"bytes32"}],"stateMutability":"view","type":"function"},{"inputs":[{"internalType":"bytes32","name":"role","type":"bytes32"},{"internalType":"address","name":"callerConfirmation","type":"address"}],"name":"renounceRole","outputs":[],"stateMutability":"nonpayable","type":"function"},{"inputs":[{"internalType":"bytes32","name":"_itemId","type":"bytes32"},{"internalType":"string","name":"_reason","type":"string"}],"name":"reportDamage","outputs":[],"stateMutability":"nonpayable","type":"function"},{"inputs":[{"internalType":"bytes32","name":"_itemId","type":"bytes32"},{"internalType":"string","name":"_reason","type":"string"}],"name":"reportDamageAtDistributor","outputs":[],"stateMutability":"nonpayable","type":"function"},{"inputs":[{"internalType":"bytes32","name":"_itemId","type":"bytes32"},{"internalType":"string","name":"_reason","type":"string"}],"name":"reportLost","outputs":[],"stateMutability":"nonpayable","type":"function"},{"inputs":[{"internalType":"bytes32","name":"_itemId","type":"bytes32"},{"internalType":"string","name":"_reason","type":"string"}],"name":"reportLostAtDistributor","outputs":[],"stateMutability":"nonpayable","type":"function"},{"inputs":[{"internalType":"bytes32","name":"role","type":"bytes32"},{"internalType":"address","name":"account","type":"address"}],"name":"revokeAccess","outputs":[],"stateMutability":"nonpayable","type":"function"},{"inputs":[{"internalType":"bytes32","name":"role","type":"bytes32"},{"internalType":"address","name":"account","type":"address"}],"name":"revokeRole","outputs":[],"stateMutability":"nonpayable","type":"function"},{"inputs":[{"internalType":"address","name":"_tokenAddress","type":"address"}],"name":"setTokenContractAddress","outputs":[],"stateMutability":"nonpayable","type":"function"},{"inputs":[{"internalType":"bytes4","name":"interfaceId","type":"bytes4"}],"name":"supportsInterface","outputs":[{"internalType":"bool","name":"","type":"bool"}],"stateMutability":"view","type":"function"},{"inputs":[],"name":"tokenContract","outputs":[{"internalType":"contract IERC20","name":"","type":"address"}],"stateMutability":"view","type":"function"},{"inputs":[{"internalType":"bytes32","name":"_itemId","type":"bytes32"},{"internalType":"uint256","name":"_newSellingPrice","type":"uint256"}],"name":"updateSellingPrice","outputs":[],"stateMutability":"nonpayable","type":"function"},{"inputs":[{"internalType":"address","name":"newImplementation","type":"address"},{"internalType":"bytes","name":"data","type":"bytes"}],"name":"upgradeToAndCall","outputs":[],"stateMutability":"payable","type":"function"}],"evm":{"bytecode":{"linkReferences":{},"object":"60a060405230608052348015601357600080fd5b50608051613f7c61003d6000396000818161312a0152818161315301526132990152613f7c6000f3fe6080604052600436106102465760003560e01c806375b238fc11610139578063a217fddf116100b6578063cb3e1fe71161007a578063cb3e1fe7146107f5578063d547741f14610829578063d7787eeb14610849578063e78aa8d514610869578063ed76863d14610889578063f0bd87cc146108a957600080fd5b8063a217fddf14610742578063ad3cb1cc14610757578063ad4ec78714610795578063b23d4854146107b5578063c415b95c146107d557600080fd5b80638d4ab2c0116100fd5780638d4ab2c01461061f5780638d53b208146106a95780638fbd1ce1146106c957806391d14854146107025780639f02d3ec1461072257600080fd5b806375b238fc14610576578063771c72fb146105aa57806378fd4e7e146105ca5780637e84eb4b146105ea5780638129fc1c1461060a57600080fd5b806340554c3a116101c757806352b0cb201161018b57806352b0cb201461049257806352d1902d146104b257806355a373d6146104c75780636a079ce2146104ff578063731404091461052f57600080fd5b806340554c3a146103db57806348292cbd146103fb57806348f343f3146104285780634eabbe771461045d5780634f1ef2861461047f57600080fd5b8063248a9ca31161020e578063248a9ca31461033957806329349148146103595780632f2ff15d1461037b57806336568abe1461039b57806336a55b38146103bb57600080fd5b806301ffc9a71461024b5780631395f14a1461028057806314ca631b146102ad57806315459471146102dc5780632115e7bf14610309575b600080fd5b34801561025757600080fd5b5061026b610266366004613558565b6108cb565b60405190151581526020015b60405180910390f35b34801561028c57600080fd5b506102a061029b366004613582565b610902565b6040516102779190613623565b3480156102b957600080fd5b506102cd6102c83660046136d2565b610b24565b604051610277939291906136f4565b3480156102e857600080fd5b506102fc6102f7366004613582565b610c7b565b604051610277919061372a565b34801561031557600080fd5b5061032b600080516020613ec783398151915281565b604051908152602001610277565b34801561034557600080fd5b5061032b610354366004613582565b610dce565b34801561036557600080fd5b50610379610374366004613879565b610df0565b005b34801561038757600080fd5b506103796103963660046138dc565b610f40565b3480156103a757600080fd5b506103796103b63660046138dc565b610f62565b3480156103c757600080fd5b506103796103d6366004613582565b610f9a565b3480156103e757600080fd5b506103796103f63660046138dc565b611701565b34801561040757600080fd5b5061041b610416366004613582565b61170c565b6040516102779190613908565b34801561043457600080fd5b50610448610443366004613582565b6118a1565b60405161027799989796959493929190613993565b34801561046957600080fd5b5061032b600080516020613e8783398151915281565b61037961048d366004613a08565b611a0c565b34801561049e57600080fd5b506103796104ad366004613879565b611a2b565b3480156104be57600080fd5b5061032b611b69565b3480156104d357600080fd5b506000546104e7906001600160a01b031681565b6040516001600160a01b039091168152602001610277565b34801561050b57600080fd5b5061051f61051a3660046136d2565b611b86565b6040516102779493929190613a60565b34801561053b57600080fd5b5061056961054a366004613582565b600090815260026020526040902060030154600160a01b900460ff1690565b6040516102779190613a9e565b34801561058257600080fd5b5061032b7fa49807205ce4d355092ef5a8a18f56e8913cf4a201fbe287825b095693c2177581565b3480156105b657600080fd5b506103796105c5366004613aac565b611c65565b3480156105d657600080fd5b506103796105e5366004613879565b61222e565b3480156105f657600080fd5b506103796106053660046138dc565b612246565b34801561061657600080fd5b50610379612546565b34801561062b57600080fd5b5061067661063a366004613582565b600560205260009081526040902080546001909101546001600160a01b039182169181169060ff600160a01b8204811691600160a81b90041684565b604080516001600160a01b0395861681529490931660208501529015159183019190915215156060820152608001610277565b3480156106b557600080fd5b506103796106c43660046138dc565b612666565b3480156106d557600080fd5b506104e76106e4366004613582565b6000908152600260205260409020600301546001600160a01b031690565b34801561070e57600080fd5b5061026b61071d3660046138dc565b61267b565b34801561072e57600080fd5b5061037961073d3660046136d2565b6126b3565b34801561074e57600080fd5b5061032b600081565b34801561076357600080fd5b50610788604051806040016040528060058152602001640352e302e360dc1b81525081565b6040516102779190613b3a565b3480156107a157600080fd5b506103796107b0366004613879565b61279f565b3480156107c157600080fd5b506103796107d0366004613b4d565b6127b7565b3480156107e157600080fd5b506001546104e7906001600160a01b031681565b34801561080157600080fd5b5061032b7f8eb467f061ca67f42a2d2ca4a346fc9fb645efc0ba75056ee9f71c3a0ccc10a881565b34801561083557600080fd5b506103796108443660046138dc565b612861565b34801561085557600080fd5b50610379610864366004613b68565b612873565b34801561087557600080fd5b50610379610884366004613582565b612987565b34801561089557600080fd5b506103796108a43660046138dc565b612bb2565b3480156108b557600080fd5b5061032b600080516020613ea783398151915281565b60006001600160e01b03198216637965db0b60e01b14806108fc57506301ffc9a760e01b6001600160e01b03198316145b92915050565b6109546040805161012081018252600080825260606020830181905292820183905291810182905290608082019081526020016000151581526020016000815260200160008152602001600081525090565b60026000838152602001908152602001600020604051806101200160405290816000820154815260200160018201805461098d90613bda565b80601f01602080910402602001604051908101604052809291908181526020018280546109b990613bda565b8015610a065780601f106109db57610100808354040283529160200191610a06565b820191906000526020600020905b8154815290600101906020018083116109e957829003601f168201915b50505050508152602001600282018054610a1f90613bda565b80601f0160208091040260200160405190810160405280929190818152602001828054610a4b90613bda565b8015610a985780601f10610a6d57610100808354040283529160200191610a98565b820191906000526020600020905b815481529060010190602001808311610a7b57829003601f168201915b505050918352505060038201546001600160a01b0381166020830152604090910190600160a01b900460ff166008811115610ad557610ad56135eb565b6008811115610ae657610ae66135eb565b81526003820154600160a81b900460ff1615156020820152600482015460408201526005820154606082015260069091015460809091015292915050565b60046020528160005260406000208181548110610b4057600080fd5b906000526020600020906003020160009150915050806000018054610b6490613bda565b80601f0160208091040260200160405190810160405280929190818152602001828054610b9090613bda565b8015610bdd5780601f10610bb257610100808354040283529160200191610bdd565b820191906000526020600020905b815481529060010190602001808311610bc057829003601f168201915b505050505090806001018054610bf290613bda565b80601f0160208091040260200160405190810160405280929190818152602001828054610c1e90613bda565b8015610c6b5780601f10610c4057610100808354040283529160200191610c6b565b820191906000526020600020905b815481529060010190602001808311610c4e57829003601f168201915b5050505050908060020154905083565b606060036000838152602001908152602001600020805480602002602001604051908101604052809291908181526020016000905b82821015610dc3576000848152602090206040805160808101909152600384029091018054829060ff166008811115610ceb57610ceb6135eb565b6008811115610cfc57610cfc6135eb565b8152815461010090046001600160a01b0316602082015260018201546040820152600282018054606090920191610d3290613bda565b80601f0160208091040260200160405190810160405280929190818152602001828054610d5e90613bda565b8015610dab5780601f10610d8057610100808354040283529160200191610dab565b820191906000526020600020905b815481529060010190602001808311610d8e57829003601f168201915b50505050508152505081526020019060010190610cb0565b505050509050919050565b6000908152600080516020613f27833981519152602052604090206001015490565b600080516020613e87833981519152610e0881612ff1565b60008381526002602052604090206003810154600160a81b900460ff16610e4a5760405162461bcd60e51b8152600401610e4190613c14565b60405180910390fd5b6003818101805460ff60a01b1916600760a01b17905560008581526020828152604080832081516080810183526007815233818501524292810192909252606082018890528054600181810183559185529290932081519290940290930180549092839160ff191690836008811115610ec557610ec56135eb565b0217905550602082015181546001600160a01b0390911661010002610100600160a81b03199091161781556040820151600182015560608201516002820190610f0e9082613c88565b50505083600080516020613ee7833981519152600785604051610f32929190613d47565b60405180910390a250505050565b610f4982610dce565b610f5281612ff1565b610f5c8383612ffe565b50505050565b6001600160a01b0381163314610f8b5760405163334bd91960e11b815260040160405180910390fd5b610f9582826130a3565b505050565b600081815260056020908152604080832060029092529091206003810154600160a81b900460ff16610fde5760405162461bcd60e51b8152600401610e4190613c14565b60018201546001600160a01b031633146110455760405162461bcd60e51b815260206004820152602260248201527f4f6e6c792072656365697665722063616e20636f6e6669726d207472616e736660448201526132b960f11b6064820152608401610e41565b6001820154600160a01b900460ff166110ac5760405162461bcd60e51b815260206004820152602360248201527f53656e646572206d75737420696e697469617465207472616e736665722066696044820152621c9cdd60ea1b6064820152608401610e41565b6001820154600160a81b900460ff16156111175760405162461bcd60e51b815260206004820152602660248201527f5472616e7366657220616c726561647920636f6e6669726d656420627920726560448201526531b2b4bb32b960d11b6064820152608401610e41565b6006810154600090156113df576000546001600160a01b031661117c5760405162461bcd60e51b815260206004820152601e60248201527f546f6b656e20636f6e74726163742061646472657373206e6f742073657400006044820152606401610e41565b600080546001600160a01b031663dd62ed3e336040516001600160e01b031960e084901b1681526001600160a01b039091166004820152306024820152604401602060405180830381865afa1580156111d9573d6000803e3d6000fd5b505050506040513d601f19601f820116820180604052508101906111fd9190613d6f565b9050826006015481101561126a5760405162461bcd60e51b815260206004820152602e60248201527f496e73756666696369656e7420746f6b656e20616c6c6f77616e636520666f7260448201526d2073656c6c696e6720707269636560901b6064820152608401610e41565b600080546001600160a01b03166323b872dd338754600688015460405160e085901b6001600160e01b03191681526001600160a01b03938416600482015292909116602483015260448201526064016020604051808303816000875af11580156112d8573d6000803e3d6000fd5b505050506040513d601f19601f820116820180604052508101906112fc9190613d88565b9050806113575760405162461bcd60e51b815260206004820152602360248201527f53656c6c696e6720707269636520746f6b656e207472616e73666572206661696044820152621b195960ea1b6064820152608401610e41565b600684015485549093506001600160a01b0316336001600160a01b0316877f9688cb9d5126d389af6cc829498ad77cffd361f01a6e97e9c404812e0763998787600601546040516113d4918152604060208201819052601290820152714974656d2053656c6c696e6720507269636560701b606082015260800190565b60405180910390a450505b60018301805460ff60a81b1916600160a81b1790556113fb3390565b6003830180546001600160a01b0319166001600160a01b0392909216919091179055611435600080516020613e878339815191523361267b565b1561145c576003820180546001919060ff60a01b1916600160a01b835b021790555061154b565b611474600080516020613ea78339815191523361267b565b15611495576003820180546002919060ff60a01b1916600160a01b83611452565b6114ad600080516020613ec78339815191523361267b565b156114ce576003820180546004919060ff60a01b1916600160a01b83611452565b60405162461bcd60e51b815260206004820152604660248201527f436f6e6669726d657220646f6573206e6f74206861766520612076616c69642060448201527f7061727469636970616e7420726f6c6520696e2074686973207472616e73666560648201526507220737465760d41b608482015260a401610e41565b60408051808201909152601181527044656c697665726564206f6e2074696d6560781b602082015260048301544211156115a7575060408051808201909152600f81526e44656c697665726564206c6174652160881b60208201525b6003600086815260200190815260200160002060405180608001604052808560030160149054906101000a900460ff1660088111156115e8576115e86135eb565b815233602080830191909152426040830152606090910184905282546001808201855560009485529190932082516003909402018054929390929091839160ff19169083600881111561163d5761163d6135eb565b0217905550602082015181546001600160a01b0390911661010002610100600160a81b031990911617815560408201516001820155606082015160028201906116869082613c88565b505050600085815260056020526040902080546001600160a01b031916815560010180546001600160b01b0319169055336001600160a01b0316857f088c474e55a390f3d615704787d6b2fb7f0f3c31d954fa34f812d542226715ab846040516116f291815260200190565b60405180910390a35050505050565b6000610f5281612ff1565b606060046000838152602001908152602001600020805480602002602001604051908101604052809291908181526020016000905b82821015610dc3578382906000526020600020906003020160405180606001604052908160008201805461177490613bda565b80601f01602080910402602001604051908101604052809291908181526020018280546117a090613bda565b80156117ed5780601f106117c2576101008083540402835291602001916117ed565b820191906000526020600020905b8154815290600101906020018083116117d057829003601f168201915b5050505050815260200160018201805461180690613bda565b80601f016020809104026020016040519081016040528092919081815260200182805461183290613bda565b801561187f5780601f106118545761010080835404028352916020019161187f565b820191906000526020600020905b81548152906001019060200180831161186257829003601f168201915b5050505050815260200160028201548152505081526020019060010190611741565b600260205260009081526040902080546001820180549192916118c390613bda565b80601f01602080910402602001604051908101604052809291908181526020018280546118ef90613bda565b801561193c5780601f106119115761010080835404028352916020019161193c565b820191906000526020600020905b81548152906001019060200180831161191f57829003601f168201915b50505050509080600201805461195190613bda565b80601f016020809104026020016040519081016040528092919081815260200182805461197d90613bda565b80156119ca5780601f1061199f576101008083540402835291602001916119ca565b820191906000526020600020905b8154815290600101906020018083116119ad57829003601f168201915b5050505060038301546004840154600585015460069095015493946001600160a01b0383169460ff600160a01b850481169550600160a81b9094049093169289565b611a1461311f565b611a1d826131c6565b611a2782826131d1565b5050565b600080516020613e87833981519152611a4381612ff1565b60008381526002602052604090206003810154600160a81b900460ff16611a7c5760405162461bcd60e51b8152600401610e4190613c14565b6003818101805460ff60a01b1916600160a31b17905560008581526020828152604080832081516080810183526008808252338286015242938201939093526060810189905281546001818101845592865293909420845193909502909401805493949093849260ff1990911691908490811115611afc57611afc6135eb565b0217905550602082015181546001600160a01b0390911661010002610100600160a81b03199091161781556040820151600182015560608201516002820190611b459082613c88565b50505083600080516020613ee7833981519152600885604051610f32929190613d47565b6000611b7361328e565b50600080516020613f0783398151915290565b60036020528160005260406000208181548110611ba257600080fd5b600091825260209091206003909102018054600182015460028301805460ff841696506101009093046001600160a01b03169450909291611be290613bda565b80601f0160208091040260200160405190810160405280929190818152602001828054611c0e90613bda565b8015611c5b5780601f10611c3057610100808354040283529160200191611c5b565b820191906000526020600020905b815481529060010190602001808311611c3e57829003601f168201915b5050505050905084565b7f8eb467f061ca67f42a2d2ca4a346fc9fb645efc0ba75056ee9f71c3a0ccc10a8611c8f81612ff1565b600087815260026020526040902060030154600160a81b900460ff1615611cee5760405162461bcd60e51b81526020600482015260136024820152724974656d20616c72656164792065786973747360681b6044820152606401610e41565b6000546001600160a01b0316611d465760405162461bcd60e51b815260206004820152601e60248201527f546f6b656e20636f6e74726163742061646472657373206e6f742073657400006044820152606401610e41565b6001546001600160a01b0316611d9e5760405162461bcd60e51b815260206004820152601d60248201527f46656520636f6c6c6563746f722061646472657373206e6f74207365740000006044820152606401610e41565b8215611fe257600080546001600160a01b031663dd62ed3e336040516001600160e01b031960e084901b1681526001600160a01b039091166004820152306024820152604401602060405180830381865afa158015611e01573d6000803e3d6000fd5b505050506040513d601f19601f82011682018060405250810190611e259190613d6f565b905083811015611e8b5760405162461bcd60e51b815260206004820152602b60248201527f496e73756666696369656e7420746f6b656e20616c6c6f77616e636520666f7260448201526a20636f737420707269636560a81b6064820152608401610e41565b600080546001600160a01b03166323b872dd3360015460405160e084901b6001600160e01b03191681526001600160a01b03928316600482015291166024820152604481018890526064016020604051808303816000875af1158015611ef5573d6000803e3d6000fd5b505050506040513d601f19601f82011682018060405250810190611f199190613d88565b905080611f685760405162461bcd60e51b815260206004820181905260248201527f436f737420707269636520746f6b656e207472616e73666572206661696c65646044820152606401610e41565b6001546001600160a01b0316336001600160a01b03168a7f9688cb9d5126d389af6cc829498ad77cffd361f01a6e97e9c404812e0763998788604051611fd7918152604060208201819052600f908201526e4974656d20436f737420507269636560881b606082015260800190565b60405180910390a450505b6040518061012001604052808881526020018781526020018681526020016120073390565b6001600160a01b031681526020016000815260016020808301829052604080840189905260608401889052608090930186905260008b8152600282529290922083518155918301519082019061205d9082613c88565b50604082015160028201906120729082613c88565b5060608201516003820180546001600160a01b039092166001600160a01b03198316811782556080850151926001600160a81b03191617600160a01b8360088111156120c0576120c06135eb565b021790555060a082015160038281018054921515600160a81b0260ff60a81b199093169290921790915560c0830151600483015560e08301516005830155610100909201516006909101556000888152602082815260408083208151608081018352848152338185015242818401528251808401909352600c83526b125d195b4818dc99585d195960a21b8385015260608101929092528054600181810183559185529290932081519290940290930180549092839160ff19169083600881111561218d5761218d6135eb565b0217905550602082015181546001600160a01b0390911661010002610100600160a81b031990911617815560408201516001820155606082015160028201906121d69082613c88565b5050506121e03390565b6001600160a01b0316877fb807465cfb39005ec617112ed4e6a3cbf71bd2cd6e1aba7f831594df4f3784aa88868660405161221d93929190613daa565b60405180910390a350505050505050565b600080516020613ea7833981519152610e0881612ff1565b600080516020613ec783398151915261225e81612ff1565b60008381526002602052604090206003810154600160a81b900460ff166122975760405162461bcd60e51b8152600401610e4190613c14565b60038101546001600160a01b031633146123075760405162461bcd60e51b815260206004820152602b60248201527f4f6e6c792063757272656e74206f776e6572202852657461696c65722920636160448201526a1b881b585c9ac81cdbdb1960aa1b6064820152608401610e41565b6001600160a01b03831661235d5760405162461bcd60e51b815260206004820152601f60248201527f437573746f6d657220616464726573732063616e6e6f74206265207a65726f006044820152606401610e41565b60056003820154600160a01b900460ff16600881111561237f5761237f6135eb565b146123e35760405162461bcd60e51b815260206004820152602e60248201527f4974656d206d75737420626520696e205265636569766564207374617465207460448201526d1bc81b585c9ac8185cc81cdbdb1960921b6064820152608401610e41565b60038181018054600360a11b6001600160a81b03199091166001600160a01b03871617179055600085815260208281526040808320815160808101835260068152338185015242818401528251808401909352601583527424ba32b69039b7b632103a379031bab9ba37b6b2b960591b8385015260608101929092528054600181810183559185529290932081519290940290930180549092839160ff191690836008811115612495576124956135eb565b0217905550602082015181546001600160a01b0390911661010002610100600160a81b031990911617815560408201516001820155606082015160028201906124de9082613c88565b50505083600080516020613ee783398151915260066040516125009190613dcf565b60405180910390a26040516001600160a01b03841690339086907f0353d877cb0f02e37caebcb7e28a31233e54f70864290af7c59f6076588d714990600090a450505050565b60006125506132d7565b805490915060ff600160401b820416159067ffffffffffffffff166000811580156125785750825b905060008267ffffffffffffffff1660011480156125955750303b155b9050811580156125a3575080155b156125c15760405163f92ee8a960e01b815260040160405180910390fd5b845467ffffffffffffffff1916600117855583156125eb57845460ff60401b1916600160401b1785555b6125f3613300565b6125fb613300565b612606600033612ffe565b50600180546001600160a01b03191633179055831561265f57845460ff60401b19168555604051600181527fc7f505b2f371ae2175ee4913f4499e1f2633a7b5936321eed1cdaeb6115181d29060200160405180910390a15b5050505050565b600061267181612ff1565b610f5c83836130a3565b6000918252600080516020613f27833981519152602090815260408084206001600160a01b0393909316845291905290205460ff1690565b60008281526002602052604090206003810154600160a81b900460ff166126ec5760405162461bcd60e51b8152600401610e4190613c14565b60038101546001600160a01b0316331461275c5760405162461bcd60e51b815260206004820152602b60248201527f4f6e6c792063757272656e74206f776e65722063616e2075706461746520736560448201526a6c6c696e6720707269636560a81b6064820152608401610e41565b60068101829055604051828152339084907f352687963b7c2914def1f529082034cb0c8f9a432ee3f60afd889daae83aa96a9060200160405180910390a3505050565b600080516020613ea7833981519152611a4381612ff1565b60006127c281612ff1565b6001600160a01b0382166128185760405162461bcd60e51b815260206004820152601c60248201527f546f6b656e20616464726573732063616e6e6f74206265207a65726f000000006044820152606401610e41565b600080546001600160a01b0319166001600160a01b038416908117825560405190917f284bbd60459a4c88dcceeca2cdf83cd4d5e796c4f3dfe0eff9baa7a06a40dab691a25050565b61286a82610dce565b61267181612ff1565b7f8eb467f061ca67f42a2d2ca4a346fc9fb645efc0ba75056ee9f71c3a0ccc10a861289d81612ff1565b60008481526002602052604090206003810154600160a81b900460ff166128d65760405162461bcd60e51b8152600401610e4190613c14565b60008581526004602090815260408083208151606081018352888152808401889052429281019290925280546001810182559084529190922082516003909202019081906129249082613c88565b50602082015160018201906129399082613c88565b50604082015181600201555050847f990abeb86e6cfb21342f48fb558b6178010aa5e52bb9881a06312ae9923288398585604051612978929190613e02565b60405180910390a25050505050565b600080516020613ec783398151915261299f81612ff1565b600082815260026020526040902060038101546001600160a01b03163314612a095760405162461bcd60e51b815260206004820152601c60248201527f4f6e6c79206f776e65722063616e206d61726b207265636569766564000000006044820152606401610e41565b60046003820154600160a01b900460ff166008811115612a2b57612a2b6135eb565b14612a945760405162461bcd60e51b815260206004820152603360248201527f4974656d206d75737420626520696e2044656c697665726564207374617465206044820152721d1bc81b585c9ac8185cc81c9958d95a5d9959606a1b6064820152608401610e41565b6003818101805460ff60a01b1916600560a01b179055600084815260208281526040808320815160808101835260058152338185015242818401528251808401909352601983527824ba32b6903932b1b2b4bb32b21030ba103932ba30b4b632b960391b8385015260608101929092528054600181810183559185529290932081519290940290930180549092839160ff191690836008811115612b3a57612b3a6135eb565b0217905550602082015181546001600160a01b0390911661010002610100600160a81b03199091161781556040820151600182015560608201516002820190612b839082613c88565b50505082600080516020613ee78339815191526005604051612ba59190613e27565b60405180910390a2505050565b60008281526002602052604090206003810154600160a81b900460ff16612beb5760405162461bcd60e51b8152600401610e4190613c14565b60038101546001600160a01b03163314612c585760405162461bcd60e51b815260206004820152602860248201527f4f6e6c792063757272656e74206f776e65722063616e20696e697469617465206044820152673a3930b739b332b960c11b6064820152608401610e41565b612c70600080516020613e878339815191528361267b565b80612c8e5750612c8e600080516020613ea78339815191528361267b565b80612cac5750612cac600080516020613ec78339815191528361267b565b612cf05760405162461bcd60e51b8152602060048201526015602482015274496e76616c696420726563656976657220726f6c6560581b6044820152606401610e41565b6000838152600560205260409020546001600160a01b031615612d655760405162461bcd60e51b815260206004820152602760248201527f4578697374696e67207472616e736665722070656e64696e6720666f722074686044820152666973206974656d60c81b6064820152608401610e41565b6040518060800160405280612d773390565b6001600160a01b039081168252848116602080840191909152600160408085018290526000606095860181905289815260058452819020865181549086166001600160a01b0319909116178155928601519290910180549186015195909401511515600160a81b0260ff60a81b19951515600160a01b026001600160a81b031990921692909316919091171792909216919091179055612e25600080516020613e878339815191528361267b565b80612e435750612e43600080516020613ea78339815191528361267b565b15612e625760038101805460ff60a01b1916600160a01b179055612e95565b612e7a600080516020613ec78339815191528361267b565b15612e955760038101805460ff60a01b1916600360a01b1790555b6003600084815260200190815260200160002060405180608001604052808360030160149054906101000a900460ff166008811115612ed657612ed66135eb565b8152602001336001600160a01b03168152426020808301919091526040805180820182526012815271151c985b9cd9995c881a5b9a5d1a585d195960721b8184015292019190915282546001818101855560009485529190932082516003909402018054929390929091839160ff191690836008811115612f5957612f596135eb565b0217905550602082015181546001600160a01b0390911661010002610100600160a81b03199091161781556040820151600182015560608201516002820190612fa29082613c88565b505050816001600160a01b0316612fb63390565b6001600160a01b0316847f342d38e01a2764dde5384ce69df459bf7c7cd213cf5c4531154cdffc612d818c60405160405180910390a4505050565b612ffb8133613308565b50565b6000600080516020613f27833981519152613019848461267b565b613099576000848152602082815260408083206001600160a01b03871684529091529020805460ff1916600117905561304f3390565b6001600160a01b0316836001600160a01b0316857f2f8788117e7eff1d82e926ec794901d17c78024a50270940304540a733656f0d60405160405180910390a460019150506108fc565b60009150506108fc565b6000600080516020613f278339815191526130be848461267b565b15613099576000848152602082815260408083206001600160a01b0387168085529252808320805460ff1916905551339287917ff6391f5c32d9c69d2a47ea670b442974b53935d1edc7fd64eb21e047a839171b9190a460019150506108fc565b306001600160a01b037f00000000000000000000000000000000000000000000000000000000000000001614806131a657507f00000000000000000000000000000000000000000000000000000000000000006001600160a01b031661319a600080516020613f07833981519152546001600160a01b031690565b6001600160a01b031614155b156131c45760405163703e46dd60e11b815260040160405180910390fd5b565b6000611a2781612ff1565b816001600160a01b03166352d1902d6040518163ffffffff1660e01b8152600401602060405180830381865afa92505050801561322b575060408051601f3d908101601f1916820190925261322891810190613d6f565b60015b61325357604051634c9c8ce360e01b81526001600160a01b0383166004820152602401610e41565b600080516020613f07833981519152811461328457604051632a87526960e21b815260048101829052602401610e41565b610f958383613341565b306001600160a01b037f000000000000000000000000000000000000000000000000000000000000000016146131c45760405163703e46dd60e11b815260040160405180910390fd5b6000807ff0c57e16840df040f15088dc2f81fe391c3923bec73e23a9662efc9c229c6a006108fc565b6131c4613397565b613312828261267b565b611a275760405163e2517d3f60e01b81526001600160a01b038216600482015260248101839052604401610e41565b61334a826133bc565b6040516001600160a01b038316907fbc7cd75a20ee27fd9adebab32041f755214dbc6bffa90cc0225b39da2e5c2d3b90600090a280511561338f57610f958282613421565b611a27613497565b61339f6134b6565b6131c457604051631afcd79f60e31b815260040160405180910390fd5b806001600160a01b03163b6000036133f257604051634c9c8ce360e01b81526001600160a01b0382166004820152602401610e41565b600080516020613f0783398151915280546001600160a01b0319166001600160a01b0392909216919091179055565b6060600080846001600160a01b03168460405161343e9190613e6a565b600060405180830381855af49150503d8060008114613479576040519150601f19603f3d011682016040523d82523d6000602084013e61347e565b606091505b509150915061348e8583836134d0565b95945050505050565b34156131c45760405163b398979f60e01b815260040160405180910390fd5b60006134c06132d7565b54600160401b900460ff16919050565b6060826134e5576134e08261352f565b613528565b81511580156134fc57506001600160a01b0384163b155b1561352557604051639996b31560e01b81526001600160a01b0385166004820152602401610e41565b50805b9392505050565b80511561353f5780518082602001fd5b60405163d6bda27560e01b815260040160405180910390fd5b60006020828403121561356a57600080fd5b81356001600160e01b03198116811461352857600080fd5b60006020828403121561359457600080fd5b5035919050565b60005b838110156135b657818101518382015260200161359e565b50506000910152565b600081518084526135d781602086016020860161359b565b601f01601f19169290920160200192915050565b634e487b7160e01b600052602160045260246000fd5b6009811061361f57634e487b7160e01b600052602160045260246000fd5b9052565b602081528151602082015260006020830151610120604084015261364b6101408401826135bf565b90506040840151601f1984830301606085015261366882826135bf565b915050606084015161368560808501826001600160a01b03169052565b50608084015161369860a0850182613601565b5060a084015180151560c08501525060c084015160e084015260e08401516101008401526101008401516101208401528091505092915050565b600080604083850312156136e557600080fd5b50508035926020909101359150565b60608152600061370760608301866135bf565b828103602084015261371981866135bf565b915050826040830152949350505050565b6000602082016020835280845180835260408501915060408160051b86010192506020860160005b828110156137bd57603f198786030184528151613770868251613601565b60018060a01b0360208201511660208701526040810151604087015260608101519050608060608701526137a760808701826135bf565b9550506020938401939190910190600101613752565b50929695505050505050565b634e487b7160e01b600052604160045260246000fd5b60008067ffffffffffffffff8411156137fa576137fa6137c9565b50604051601f19601f85018116603f0116810181811067ffffffffffffffff82111715613829576138296137c9565b60405283815290508082840185101561384157600080fd5b83836020830137600060208583010152509392505050565b600082601f83011261386a57600080fd5b613528838335602085016137df565b6000806040838503121561388c57600080fd5b82359150602083013567ffffffffffffffff8111156138aa57600080fd5b6138b685828601613859565b9150509250929050565b80356001600160a01b03811681146138d757600080fd5b919050565b600080604083850312156138ef57600080fd5b823591506138ff602084016138c0565b90509250929050565b6000602082016020835280845180835260408501915060408160051b86010192506020860160005b828110156137bd57603f19878603018452815180516060875261395660608801826135bf565b90506020820151878203602089015261396f82826135bf565b60409384015198909301979097525094506020938401939190910190600101613930565b898152610120602082015260006139ae61012083018b6135bf565b82810360408401526139c0818b6135bf565b6001600160a01b038a16606085015291506139e090506080830188613601565b94151560a082015260c081019390935260e08301919091526101009091015295945050505050565b60008060408385031215613a1b57600080fd5b613a24836138c0565b9150602083013567ffffffffffffffff811115613a4057600080fd5b8301601f81018513613a5157600080fd5b6138b6858235602084016137df565b613a6a8186613601565b60018060a01b0384166020820152826040820152608060608201526000613a9460808301846135bf565b9695505050505050565b602081016108fc8284613601565b60008060008060008060c08789031215613ac557600080fd5b86359550602087013567ffffffffffffffff811115613ae357600080fd5b613aef89828a01613859565b955050604087013567ffffffffffffffff811115613b0c57600080fd5b613b1889828a01613859565b969995985095966060810135965060808101359560a090910135945092505050565b60208152600061352860208301846135bf565b600060208284031215613b5f57600080fd5b613528826138c0565b600080600060608486031215613b7d57600080fd5b83359250602084013567ffffffffffffffff811115613b9b57600080fd5b613ba786828701613859565b925050604084013567ffffffffffffffff811115613bc457600080fd5b613bd086828701613859565b9150509250925092565b600181811c90821680613bee57607f821691505b602082108103613c0e57634e487b7160e01b600052602260045260246000fd5b50919050565b602080825260139082015272125d195b48191bd95cc81b9bdd08195e1a5cdd606a1b604082015260600190565b601f821115610f9557806000526020600020601f840160051c81016020851015613c685750805b601f840160051c820191505b8181101561265f5760008155600101613c74565b815167ffffffffffffffff811115613ca257613ca26137c9565b613cb681613cb08454613bda565b84613c41565b6020601f821160018114613cea5760008315613cd25750848201515b600019600385901b1c1916600184901b17845561265f565b600084815260208120601f198516915b82811015613d1a5787850151825560209485019460019092019101613cfa565b5084821015613d385786840151600019600387901b60f8161c191681555b50505050600190811b01905550565b613d518184613601565b604060208201526000613d6760408301846135bf565b949350505050565b600060208284031215613d8157600080fd5b5051919050565b600060208284031215613d9a57600080fd5b8151801515811461352857600080fd5b606081526000613dbd60608301866135bf565b60208301949094525060400152919050565b613dd98183613601565b60406020820181905260099082015268125d195b481cdbdb1960ba1b6060820152608001919050565b604081526000613e1560408301856135bf565b828103602084015261348e81856135bf565b613e318183613601565b6040602082018190526019908201527824ba32b6903932b1b2b4bb32b21030ba103932ba30b4b632b960391b6060820152608001919050565b60008251613e7c81846020870161359b565b919091019291505056feddaa901e2fe3bda354fe0ede2785152d5c109282a613fe024a056a3e66c41bb3fbd454f36a7e1a388bd6fc3ab10d434aa4578f811acbbcf33afb1c697486313c2a5f906c256a5d799494fcd066e1f6c077689de1cdb65052a1624de4bace99bf0c75017800f18fe8aa79d2d17f80214b1730a14d8170d048f00e4e5b53cc1bb6360894a13ba1a3210667c828492db98dca3e2076cc3735a920a3ca505d382bbc02dd7bc7dec4dceedda775e58dd541e08a116c6c53815c0bd028192f7b626800a26469706673582212203e30975df91fff7950c9373e9a7b8854be0740557e5f2aa793c8171e9dd5385c64736f6c634300081c0033","opcodes":"PUSH1 0xA0 PUSH1 0x40 MSTORE ADDRESS PUSH1 0x80 MSTORE CALLVALUE DUP1 ISZERO PUSH1 0x13 JUMPI PUSH1 0x0 DUP1 REVERT JUMPDEST POP PUSH1 0x80 MLOAD PUSH2 0x3F7C PUSH2 0x3D PUSH1 0x0 CODECOPY PUSH1 0x0 DUP2 DUP2 PUSH2 0x312A ADD MSTORE DUP2 DUP2 PUSH2 0x3153 ADD MSTORE PUSH2 0x3299 ADD MSTORE PUSH2 0x3F7C PUSH1 0x0 RETURN INVALID PUSH1 0x80 PUSH1 0x40 MSTORE PUSH1 0x4 CALLDATASIZE LT PUSH2 0x246 JUMPI PUSH1 0x0 CALLDATALOAD PUSH1 0xE0 SHR DUP1 PUSH4 0x75B238FC GT PUSH2 0x139 JUMPI DUP1 PUSH4 0xA217FDDF GT PUSH2 0xB6 JUMPI DUP1 PUSH4 0xCB3E1FE7 GT PUSH2 0x7A JUMPI DUP1 PUSH4 0xCB3E1FE7 EQ PUSH2 0x7F5 JUMPI DUP1 PUSH4 0xD547741F EQ PUSH2 0x829 JUMPI DUP1 PUSH4 0xD7787EEB EQ PUSH2 0x849 JUMPI DUP1 PUSH4 0xE78AA8D5 EQ PUSH2 0x869 JUMPI DUP1 PUSH4 0xED76863D EQ PUSH2 0x889 JUMPI DUP1 PUSH4 0xF0BD87CC EQ PUSH2 0x8A9 JUMPI PUSH1 0x0 DUP1 REVERT JUMPDEST DUP1 PUSH4 0xA217FDDF EQ PUSH2 0x742 JUMPI DUP1 PUSH4 0xAD3CB1CC EQ PUSH2 0x757 JUMPI DUP1 PUSH4 0xAD4EC787 EQ PUSH2 0x795 JUMPI DUP1 PUSH4 0xB23D4854 EQ PUSH2 0x7B5 JUMPI DUP1 PUSH4 0xC415B95C EQ PUSH2 0x7D5 JUMPI PUSH1 0x0 DUP1 REVERT JUMPDEST DUP1 PUSH4 0x8D4AB2C0 GT PUSH2 0xFD JUMPI DUP1 PUSH4 0x8D4AB2C0 EQ PUSH2 0x61F JUMPI DUP1 PUSH4 0x8D53B208 EQ PUSH2 0x6A9 JUMPI DUP1 PUSH4 0x8FBD1CE1 EQ PUSH2 0x6C9 JUMPI DUP1 PUSH4 0x91D14854 EQ PUSH2 0x702 JUMPI DUP1 PUSH4 0x9F02D3EC EQ PUSH2 0x722 JUMPI PUSH1 0x0 DUP1 REVERT JUMPDEST DUP1 PUSH4 0x75B238FC EQ PUSH2 0x576 JUMPI DUP1 PUSH4 0x771C72FB EQ PUSH2 0x5AA JUMPI DUP1 PUSH4 0x78FD4E7E EQ PUSH2 0x5CA JUMPI DUP1 PUSH4 0x7E84EB4B EQ PUSH2 0x5EA JUMPI DUP1 PUSH4 0x8129FC1C EQ PUSH2 0x60A JUMPI PUSH1 0x0 DUP1 REVERT JUMPDEST DUP1 PUSH4 0x40554C3A GT PUSH2 0x1C7 JUMPI DUP1 PUSH4 0x52B0CB20 GT PUSH2 0x18B JUMPI DUP1 PUSH4 0x52B0CB20 EQ PUSH2 0x492 JUMPI DUP1 PUSH4 0x52D1902D EQ PUSH2 0x4B2 JUMPI DUP1 PUSH4 0x55A373D6 EQ PUSH2 0x4C7 JUMPI DUP1 PUSH4 0x6A079CE2 EQ PUSH2 0x4FF JUMPI DUP1 PUSH4 0x73140409 EQ PUSH2 0x52F JUMPI PUSH1 0x0 DUP1 REVERT JUMPDEST DUP1 PUSH4 0x40554C3A EQ PUSH2 0x3DB JUMPI DUP1 PUSH4 0x48292CBD EQ PUSH2 0x3FB JUMPI DUP1 PUSH4 0x48F343F3 EQ PUSH2 0x428 JUMPI DUP1 PUSH4 0x4EABBE77 EQ PUSH2 0x45D JUMPI DUP1 PUSH4 0x4F1EF286 EQ PUSH2 0x47F JUMPI PUSH1 0x0 DUP1 REVERT JUMPDEST DUP1 PUSH4 0x248A9CA3 GT PUSH2 0x20E JUMPI DUP1 PUSH4 0x248A9CA3 EQ PUSH2 0x339 JUMPI DUP1 PUSH4 0x29349148 EQ PUSH2 0x359 JUMPI DUP1 PUSH4 0x2F2FF15D EQ PUSH2 0x37B JUMPI DUP1 PUSH4 0x36568ABE EQ PUSH2 0x39B JUMPI DUP1 PUSH4 0x36A55B38 EQ PUSH2 0x3BB JUMPI PUSH1 0x0 DUP1 REVERT JUMPDEST DUP1 PUSH4 0x1FFC9A7 EQ PUSH2 0x24B JUMPI DUP1 PUSH4 0x1395F14A EQ PUSH2 0x280 JUMPI DUP1 PUSH4 0x14CA631B EQ PUSH2 0x2AD JUMPI DUP1 PUSH4 0x15459471 EQ PUSH2 0x2DC JUMPI DUP1 PUSH4 0x2115E7BF EQ PUSH2 0x309 JUMPI JUMPDEST PUSH1 0x0 DUP1 REVERT JUMPDEST CALLVALUE DUP1 ISZERO PUSH2 0x257 JUMPI PUSH1 0x0 DUP1 REVERT JUMPDEST POP PUSH2 0x26B PUSH2 0x266 CALLDATASIZE PUSH1 0x4 PUSH2 0x3558 JUMP JUMPDEST PUSH2 0x8CB JUMP JUMPDEST PUSH1 0x40 MLOAD SWAP1 ISZERO ISZERO DUP2 MSTORE PUSH1 0x20 ADD JUMPDEST PUSH1 0x40 MLOAD DUP1 SWAP2 SUB SWAP1 RETURN JUMPDEST CALLVALUE DUP1 ISZERO PUSH2 0x28C JUMPI PUSH1 0x0 DUP1 REVERT JUMPDEST POP PUSH2 0x2A0 PUSH2 0x29B CALLDATASIZE PUSH1 0x4 PUSH2 0x3582 JUMP JUMPDEST PUSH2 0x902 JUMP JUMPDEST PUSH1 0x40 MLOAD PUSH2 0x277 SWAP2 SWAP1 PUSH2 0x3623 JUMP JUMPDEST CALLVALUE DUP1 ISZERO PUSH2 0x2B9 JUMPI PUSH1 0x0 DUP1 REVERT JUMPDEST POP PUSH2 0x2CD PUSH2 0x2C8 CALLDATASIZE PUSH1 0x4 PUSH2 0x36D2 JUMP JUMPDEST PUSH2 0xB24 JUMP JUMPDEST PUSH1 0x40 MLOAD PUSH2 0x277 SWAP4 SWAP3 SWAP2 SWAP1 PUSH2 0x36F4 JUMP JUMPDEST CALLVALUE DUP1 ISZERO PUSH2 0x2E8 JUMPI PUSH1 0x0 DUP1 REVERT JUMPDEST POP PUSH2 0x2FC PUSH2 0x2F7 CALLDATASIZE PUSH1 0x4 PUSH2 0x3582 JUMP JUMPDEST PUSH2 0xC7B JUMP JUMPDEST PUSH1 0x40 MLOAD PUSH2 0x277 SWAP2 SWAP1 PUSH2 0x372A JUMP JUMPDEST CALLVALUE DUP1 ISZERO PUSH2 0x315 JUMPI PUSH1 0x0 DUP1 REVERT JUMPDEST POP PUSH2 0x32B PUSH1 0x0 DUP1 MLOAD PUSH1 0x20 PUSH2 0x3EC7 DUP4 CODECOPY DUP2 MLOAD SWAP2 MSTORE DUP2 JUMP JUMPDEST PUSH1 0x40 MLOAD SWAP1 DUP2 MSTORE PUSH1 0x20 ADD PUSH2 0x277 JUMP JUMPDEST CALLVALUE DUP1 ISZERO PUSH2 0x345 JUMPI PUSH1 0x0 DUP1 REVERT JUMPDEST POP PUSH2 0x32B PUSH2 0x354 CALLDATASIZE PUSH1 0x4 PUSH2 0x3582 JUMP JUMPDEST PUSH2 0xDCE JUMP JUMPDEST CALLVALUE DUP1 ISZERO PUSH2 0x365 JUMPI PUSH1 0x0 DUP1 REVERT JUMPDEST POP PUSH2 0x379 PUSH2 0x374 CALLDATASIZE PUSH1 0x4 PUSH2 0x3879 JUMP JUMPDEST PUSH2 0xDF0 JUMP JUMPDEST STOP JUMPDEST CALLVALUE DUP1 ISZERO PUSH2 0x387 JUMPI PUSH1 0x0 DUP1 REVERT JUMPDEST POP PUSH2 0x379 PUSH2 0x396 CALLDATASIZE PUSH1 0x4 PUSH2 0x38DC JUMP JUMPDEST PUSH2 0xF40 JUMP JUMPDEST CALLVALUE DUP1 ISZERO PUSH2 0x3A7 JUMPI PUSH1 0x0 DUP1 REVERT JUMPDEST POP PUSH2 0x379 PUSH2 0x3B6 CALLDATASIZE PUSH1 0x4 PUSH2 0x38DC JUMP JUMPDEST PUSH2 0xF62 JUMP JUMPDEST CALLVALUE DUP1 ISZERO PUSH2 0x3C7 JUMPI PUSH1 0x0 DUP1 REVERT JUMPDEST POP PUSH2 0x379 PUSH2 0x3D6 CALLDATASIZE PUSH1 0x4 PUSH2 0x3582 JUMP JUMPDEST PUSH2 0xF9A JUMP JUMPDEST CALLVALUE DUP1 ISZERO PUSH2 0x3E7 JUMPI PUSH1 0x0 DUP1 REVERT JUMPDEST POP PUSH2 0x379 PUSH2 0x3F6 CALLDATASIZE PUSH1 0x4 PUSH2 0x38DC JUMP JUMPDEST PUSH2 0x1701 JUMP JUMPDEST CALLVALUE DUP1 ISZERO PUSH2 0x407 JUMPI PUSH1 0x0 DUP1 REVERT JUMPDEST POP PUSH2 0x41B PUSH2 0x416 CALLDATASIZE PUSH1 0x4 PUSH2 0x3582 JUMP JUMPDEST PUSH2 0x170C JUMP JUMPDEST PUSH1 0x40 MLOAD PUSH2 0x277 SWAP2 SWAP1 PUSH2 0x3908 JUMP JUMPDEST CALLVALUE DUP1 ISZERO PUSH2 0x434 JUMPI PUSH1 0x0 DUP1 REVERT JUMPDEST POP PUSH2 0x448 PUSH2 0x443 CALLDATASIZE PUSH1 0x4 PUSH2 0x3582 JUMP JUMPDEST PUSH2 0x18A1 JUMP JUMPDEST PUSH1 0x40 MLOAD PUSH2 0x277 SWAP10 SWAP9 SWAP8 SWAP7 SWAP6 SWAP5 SWAP4 SWAP3 SWAP2 SWAP1 PUSH2 0x3993 JUMP JUMPDEST CALLVALUE DUP1 ISZERO PUSH2 0x469 JUMPI PUSH1 0x0 DUP1 REVERT JUMPDEST POP PUSH2 0x32B PUSH1 0x0 DUP1 MLOAD PUSH1 0x20 PUSH2 0x3E87 DUP4 CODECOPY DUP2 MLOAD SWAP2 MSTORE DUP2 JUMP JUMPDEST PUSH2 0x379 PUSH2 0x48D CALLDATASIZE PUSH1 0x4 PUSH2 0x3A08 JUMP JUMPDEST PUSH2 0x1A0C JUMP JUMPDEST CALLVALUE DUP1 ISZERO PUSH2 0x49E JUMPI PUSH1 0x0 DUP1 REVERT JUMPDEST POP PUSH2 0x379 PUSH2 0x4AD CALLDATASIZE PUSH1 0x4 PUSH2 0x3879 JUMP JUMPDEST PUSH2 0x1A2B JUMP JUMPDEST CALLVALUE DUP1 ISZERO PUSH2 0x4BE JUMPI PUSH1 0x0 DUP1 REVERT JUMPDEST POP PUSH2 0x32B PUSH2 0x1B69 JUMP JUMPDEST CALLVALUE DUP1 ISZERO PUSH2 0x4D3 JUMPI PUSH1 0x0 DUP1 REVERT JUMPDEST POP PUSH1 0x0 SLOAD PUSH2 0x4E7 SWAP1 PUSH1 0x1 PUSH1 0x1 PUSH1 0xA0 SHL SUB AND DUP2 JUMP JUMPDEST PUSH1 0x40 MLOAD PUSH1 0x1 PUSH1 0x1 PUSH1 0xA0 SHL SUB SWAP1 SWAP2 AND DUP2 MSTORE PUSH1 0x20 ADD PUSH2 0x277 JUMP JUMPDEST CALLVALUE DUP1 ISZERO PUSH2 0x50B JUMPI PUSH1 0x0 DUP1 REVERT JUMPDEST POP PUSH2 0x51F PUSH2 0x51A CALLDATASIZE PUSH1 0x4 PUSH2 0x36D2 JUMP JUMPDEST PUSH2 0x1B86 JUMP JUMPDEST PUSH1 0x40 MLOAD PUSH2 0x277 SWAP5 SWAP4 SWAP3 SWAP2 SWAP1 PUSH2 0x3A60 JUMP JUMPDEST CALLVALUE DUP1 ISZERO PUSH2 0x53B JUMPI PUSH1 0x0 DUP1 REVERT JUMPDEST POP PUSH2 0x569 PUSH2 0x54A CALLDATASIZE PUSH1 0x4 PUSH2 0x3582 JUMP JUMPDEST PUSH1 0x0 SWAP1 DUP2 MSTORE PUSH1 0x2 PUSH1 0x20 MSTORE PUSH1 0x40 SWAP1 KECCAK256 PUSH1 0x3 ADD SLOAD PUSH1 0x1 PUSH1 0xA0 SHL SWAP1 DIV PUSH1 0xFF AND SWAP1 JUMP JUMPDEST PUSH1 0x40 MLOAD PUSH2 0x277 SWAP2 SWAP1 PUSH2 0x3A9E JUMP JUMPDEST CALLVALUE DUP1 ISZERO PUSH2 0x582 JUMPI PUSH1 0x0 DUP1 REVERT JUMPDEST POP PUSH2 0x32B PUSH32 0xA49807205CE4D355092EF5A8A18F56E8913CF4A201FBE287825B095693C21775 DUP2 JUMP JUMPDEST CALLVALUE DUP1 ISZERO PUSH2 0x5B6 JUMPI PUSH1 0x0 DUP1 REVERT JUMPDEST POP PUSH2 0x379 PUSH2 0x5C5 CALLDATASIZE PUSH1 0x4 PUSH2 0x3AAC JUMP JUMPDEST PUSH2 0x1C65 JUMP JUMPDEST CALLVALUE DUP1 ISZERO PUSH2 0x5D6 JUMPI PUSH1 0x0 DUP1 REVERT JUMPDEST POP PUSH2 0x379 PUSH2 0x5E5 CALLDATASIZE PUSH1 0x4 PUSH2 0x3879 JUMP JUMPDEST PUSH2 0x222E JUMP JUMPDEST CALLVALUE DUP1 ISZERO PUSH2 0x5F6 JUMPI PUSH1 0x0 DUP1 REVERT JUMPDEST POP PUSH2 0x379 PUSH2 0x605 CALLDATASIZE PUSH1 0x4 PUSH2 0x38DC JUMP JUMPDEST PUSH2 0x2246 JUMP JUMPDEST CALLVALUE DUP1 ISZERO PUSH2 0x616 JUMPI PUSH1 0x0 DUP1 REVERT JUMPDEST POP PUSH2 0x379 PUSH2 0x2546 JUMP JUMPDEST CALLVALUE DUP1 ISZERO PUSH2 0x62B JUMPI PUSH1 0x0 DUP1 REVERT JUMPDEST POP PUSH2 0x676 PUSH2 0x63A CALLDATASIZE PUSH1 0x4 PUSH2 0x3582 JUMP JUMPDEST PUSH1 0x5 PUSH1 0x20 MSTORE PUSH1 0x0 SWAP1 DUP2 MSTORE PUSH1 0x40 SWAP1 KECCAK256 DUP1 SLOAD PUSH1 0x1 SWAP1 SWAP2 ADD SLOAD PUSH1 0x1 PUSH1 0x1 PUSH1 0xA0 SHL SUB SWAP2 DUP3 AND SWAP2 DUP2 AND SWAP1 PUSH1 0xFF PUSH1 0x1 PUSH1 0xA0 SHL DUP3 DIV DUP2 AND SWAP2 PUSH1 0x1 PUSH1 0xA8 SHL SWAP1 DIV AND DUP5 JUMP JUMPDEST PUSH1 0x40 DUP1 MLOAD PUSH1 0x1 PUSH1 0x1 PUSH1 0xA0 SHL SUB SWAP6 DUP7 AND DUP2 MSTORE SWAP5 SWAP1 SWAP4 AND PUSH1 0x20 DUP6 ADD MSTORE SWAP1 ISZERO ISZERO SWAP2 DUP4 ADD SWAP2 SWAP1 SWAP2 MSTORE ISZERO ISZERO PUSH1 0x60 DUP3 ADD MSTORE PUSH1 0x80 ADD PUSH2 0x277 JUMP JUMPDEST CALLVALUE DUP1 ISZERO PUSH2 0x6B5 JUMPI PUSH1 0x0 DUP1 REVERT JUMPDEST POP PUSH2 0x379 PUSH2 0x6C4 CALLDATASIZE PUSH1 0x4 PUSH2 0x38DC JUMP JUMPDEST PUSH2 0x2666 JUMP JUMPDEST CALLVALUE DUP1 ISZERO PUSH2 0x6D5 JUMPI PUSH1 0x0 DUP1 REVERT JUMPDEST POP PUSH2 0x4E7 PUSH2 0x6E4 CALLDATASIZE PUSH1 0x4 PUSH2 0x3582 JUMP JUMPDEST PUSH1 0x0 SWAP1 DUP2 MSTORE PUSH1 0x2 PUSH1 0x20 MSTORE PUSH1 0x40 SWAP1 KECCAK256 PUSH1 0x3 ADD SLOAD PUSH1 0x1 PUSH1 0x1 PUSH1 0xA0 SHL SUB AND SWAP1 JUMP JUMPDEST CALLVALUE DUP1 ISZERO PUSH2 0x70E JUMPI PUSH1 0x0 DUP1 REVERT JUMPDEST POP PUSH2 0x26B PUSH2 0x71D CALLDATASIZE PUSH1 0x4 PUSH2 0x38DC JUMP JUMPDEST PUSH2 0x267B JUMP JUMPDEST CALLVALUE DUP1 ISZERO PUSH2 0x72E JUMPI PUSH1 0x0 DUP1 REVERT JUMPDEST POP PUSH2 0x379 PUSH2 0x73D CALLDATASIZE PUSH1 0x4 PUSH2 0x36D2 JUMP JUMPDEST PUSH2 0x26B3 JUMP JUMPDEST CALLVALUE DUP1 ISZERO PUSH2 0x74E JUMPI PUSH1 0x0 DUP1 REVERT JUMPDEST POP PUSH2 0x32B PUSH1 0x0 DUP2 JUMP JUMPDEST CALLVALUE DUP1 ISZERO PUSH2 0x763 JUMPI PUSH1 0x0 DUP1 REVERT JUMPDEST POP PUSH2 0x788 PUSH1 0x40 MLOAD DUP1 PUSH1 0x40 ADD PUSH1 0x40 MSTORE DUP1 PUSH1 0x5 DUP2 MSTORE PUSH1 0x20 ADD PUSH5 0x352E302E3 PUSH1 0xDC SHL DUP2 MSTORE POP DUP2 JUMP JUMPDEST PUSH1 0x40 MLOAD PUSH2 0x277 SWAP2 SWAP1 PUSH2 0x3B3A JUMP JUMPDEST CALLVALUE DUP1 ISZERO PUSH2 0x7A1 JUMPI PUSH1 0x0 DUP1 REVERT JUMPDEST POP PUSH2 0x379 PUSH2 0x7B0 CALLDATASIZE PUSH1 0x4 PUSH2 0x3879 JUMP JUMPDEST PUSH2 0x279F JUMP JUMPDEST CALLVALUE DUP1 ISZERO PUSH2 0x7C1 JUMPI PUSH1 0x0 DUP1 REVERT JUMPDEST POP PUSH2 0x379 PUSH2 0x7D0 CALLDATASIZE PUSH1 0x4 PUSH2 0x3B4D JUMP JUMPDEST PUSH2 0x27B7 JUMP JUMPDEST CALLVALUE DUP1 ISZERO PUSH2 0x7E1 JUMPI PUSH1 0x0 DUP1 REVERT JUMPDEST POP PUSH1 0x1 SLOAD PUSH2 0x4E7 SWAP1 PUSH1 0x1 PUSH1 0x1 PUSH1 0xA0 SHL SUB AND DUP2 JUMP JUMPDEST CALLVALUE DUP1 ISZERO PUSH2 0x801 JUMPI PUSH1 0x0 DUP1 REVERT JUMPDEST POP PUSH2 0x32B PUSH32 0x8EB467F061CA67F42A2D2CA4A346FC9FB645EFC0BA75056EE9F71C3A0CCC10A8 DUP2 JUMP JUMPDEST CALLVALUE DUP1 ISZERO PUSH2 0x835 JUMPI PUSH1 0x0 DUP1 REVERT JUMPDEST POP PUSH2 0x379 PUSH2 0x844 CALLDATASIZE PUSH1 0x4 PUSH2 0x38DC JUMP JUMPDEST PUSH2 0x2861 JUMP JUMPDEST CALLVALUE DUP1 ISZERO PUSH2 0x855 JUMPI PUSH1 0x0 DUP1 REVERT JUMPDEST POP PUSH2 0x379 PUSH2 0x864 CALLDATASIZE PUSH1 0x4 PUSH2 0x3B68 JUMP JUMPDEST PUSH2 0x2873 JUMP JUMPDEST CALLVALUE DUP1 ISZERO PUSH2 0x875 JUMPI PUSH1 0x0 DUP1 REVERT JUMPDEST POP PUSH2 0x379 PUSH2 0x884 CALLDATASIZE PUSH1 0x4 PUSH2 0x3582 JUMP JUMPDEST PUSH2 0x2987 JUMP JUMPDEST CALLVALUE DUP1 ISZERO PUSH2 0x895 JUMPI PUSH1 0x0 DUP1 REVERT JUMPDEST POP PUSH2 0x379 PUSH2 0x8A4 CALLDATASIZE PUSH1 0x4 PUSH2 0x38DC JUMP JUMPDEST PUSH2 0x2BB2 JUMP JUMPDEST CALLVALUE DUP1 ISZERO PUSH2 0x8B5 JUMPI PUSH1 0x0 DUP1 REVERT JUMPDEST POP PUSH2 0x32B PUSH1 0x0 DUP1 MLOAD PUSH1 0x20 PUSH2 0x3EA7 DUP4 CODECOPY DUP2 MLOAD SWAP2 MSTORE DUP2 JUMP JUMPDEST PUSH1 0x0 PUSH1 0x1 PUSH1 0x1 PUSH1 0xE0 SHL SUB NOT DUP3 AND PUSH4 0x7965DB0B PUSH1 0xE0 SHL EQ DUP1 PUSH2 0x8FC JUMPI POP PUSH4 0x1FFC9A7 PUSH1 0xE0 SHL PUSH1 0x1 PUSH1 0x1 PUSH1 0xE0 SHL SUB NOT DUP4 AND EQ JUMPDEST SWAP3 SWAP2 POP POP JUMP JUMPDEST PUSH2 0x954 PUSH1 0x40 DUP1 MLOAD PUSH2 0x120 DUP2 ADD DUP3 MSTORE PUSH1 0x0 DUP1 DUP3 MSTORE PUSH1 0x60 PUSH1 0x20 DUP4 ADD DUP2 SWAP1 MSTORE SWAP3 DUP3 ADD DUP4 SWAP1 MSTORE SWAP2 DUP2 ADD DUP3 SWAP1 MSTORE SWAP1 PUSH1 0x80 DUP3 ADD SWAP1 DUP2 MSTORE PUSH1 0x20 ADD PUSH1 0x0 ISZERO ISZERO DUP2 MSTORE PUSH1 0x20 ADD PUSH1 0x0 DUP2 MSTORE PUSH1 0x20 ADD PUSH1 0x0 DUP2 MSTORE PUSH1 0x20 ADD PUSH1 0x0 DUP2 MSTORE POP SWAP1 JUMP JUMPDEST PUSH1 0x2 PUSH1 0x0 DUP4 DUP2 MSTORE PUSH1 0x20 ADD SWAP1 DUP2 MSTORE PUSH1 0x20 ADD PUSH1 0x0 KECCAK256 PUSH1 0x40 MLOAD DUP1 PUSH2 0x120 ADD PUSH1 0x40 MSTORE SWAP1 DUP2 PUSH1 0x0 DUP3 ADD SLOAD DUP2 MSTORE PUSH1 0x20 ADD PUSH1 0x1 DUP3 ADD DUP1 SLOAD PUSH2 0x98D SWAP1 PUSH2 0x3BDA JUMP JUMPDEST DUP1 PUSH1 0x1F ADD PUSH1 0x20 DUP1 SWAP2 DIV MUL PUSH1 0x20 ADD PUSH1 0x40 MLOAD SWAP1 DUP2 ADD PUSH1 0x40 MSTORE DUP1 SWAP3 SWAP2 SWAP1 DUP2 DUP2 MSTORE PUSH1 0x20 ADD DUP3 DUP1 SLOAD PUSH2 0x9B9 SWAP1 PUSH2 0x3BDA JUMP JUMPDEST DUP1 ISZERO PUSH2 0xA06 JUMPI DUP1 PUSH1 0x1F LT PUSH2 0x9DB JUMPI PUSH2 0x100 DUP1 DUP4 SLOAD DIV MUL DUP4 MSTORE SWAP2 PUSH1 0x20 ADD SWAP2 PUSH2 0xA06 JUMP JUMPDEST DUP3 ADD SWAP2 SWAP1 PUSH1 0x0 MSTORE PUSH1 0x20 PUSH1 0x0 KECCAK256 SWAP1 JUMPDEST DUP2 SLOAD DUP2 MSTORE SWAP1 PUSH1 0x1 ADD SWAP1 PUSH1 0x20 ADD DUP1 DUP4 GT PUSH2 0x9E9 JUMPI DUP3 SWAP1 SUB PUSH1 0x1F AND DUP3 ADD SWAP2 JUMPDEST POP POP POP POP POP DUP2 MSTORE PUSH1 0x20 ADD PUSH1 0x2 DUP3 ADD DUP1 SLOAD PUSH2 0xA1F SWAP1 PUSH2 0x3BDA JUMP JUMPDEST DUP1 PUSH1 0x1F ADD PUSH1 0x20 DUP1 SWAP2 DIV MUL PUSH1 0x20 ADD PUSH1 0x40 MLOAD SWAP1 DUP2 ADD PUSH1 0x40 MSTORE DUP1 SWAP3 SWAP2 SWAP1 DUP2 DUP2 MSTORE PUSH1 0x20 ADD DUP3 DUP1 SLOAD PUSH2 0xA4B SWAP1 PUSH2 0x3BDA JUMP JUMPDEST DUP1 ISZERO PUSH2 0xA98 JUMPI DUP1 PUSH1 0x1F LT PUSH2 0xA6D JUMPI PUSH2 0x100 DUP1 DUP4 SLOAD DIV MUL DUP4 MSTORE SWAP2 PUSH1 0x20 ADD SWAP2 PUSH2 0xA98 JUMP JUMPDEST DUP3 ADD SWAP2 SWAP1 PUSH1 0x0 MSTORE PUSH1 0x20 PUSH1 0x0 KECCAK256 SWAP1 JUMPDEST DUP2 SLOAD DUP2 MSTORE SWAP1 PUSH1 0x1 ADD SWAP1 PUSH1 0x20 ADD DUP1 DUP4 GT PUSH2 0xA7B JUMPI DUP3 SWAP1 SUB PUSH1 0x1F AND DUP3 ADD SWAP2 JUMPDEST POP POP POP SWAP2 DUP4 MSTORE POP POP PUSH1 0x3 DUP3 ADD SLOAD PUSH1 0x1 PUSH1 0x1 PUSH1 0xA0 SHL SUB DUP2 AND PUSH1 0x20 DUP4 ADD MSTORE PUSH1 0x40 SWAP1 SWAP2 ADD SWAP1 PUSH1 0x1 PUSH1 0xA0 SHL SWAP1 DIV PUSH1 0xFF AND PUSH1 0x8 DUP2 GT ISZERO PUSH2 0xAD5 JUMPI PUSH2 0xAD5 PUSH2 0x35EB JUMP JUMPDEST PUSH1 0x8 DUP2 GT ISZERO PUSH2 0xAE6 JUMPI PUSH2 0xAE6 PUSH2 0x35EB JUMP JUMPDEST DUP2 MSTORE PUSH1 0x3 DUP3 ADD SLOAD PUSH1 0x1 PUSH1 0xA8 SHL SWAP1 DIV PUSH1 0xFF AND ISZERO ISZERO PUSH1 0x20 DUP3 ADD MSTORE PUSH1 0x4 DUP3 ADD SLOAD PUSH1 0x40 DUP3 ADD MSTORE PUSH1 0x5 DUP3 ADD SLOAD PUSH1 0x60 DUP3 ADD MSTORE PUSH1 0x6 SWAP1 SWAP2 ADD SLOAD PUSH1 0x80 SWAP1 SWAP2 ADD MSTORE SWAP3 SWAP2 POP POP JUMP JUMPDEST PUSH1 0x4 PUSH1 0x20 MSTORE DUP2 PUSH1 0x0 MSTORE PUSH1 0x40 PUSH1 0x0 KECCAK256 DUP2 DUP2 SLOAD DUP2 LT PUSH2 0xB40 JUMPI PUSH1 0x0 DUP1 REVERT JUMPDEST SWAP1 PUSH1 0x0 MSTORE PUSH1 0x20 PUSH1 0x0 KECCAK256 SWAP1 PUSH1 0x3 MUL ADD PUSH1 0x0 SWAP2 POP SWAP2 POP POP DUP1 PUSH1 0x0 ADD DUP1 SLOAD PUSH2 0xB64 SWAP1 PUSH2 0x3BDA JUMP JUMPDEST DUP1 PUSH1 0x1F ADD PUSH1 0x20 DUP1 SWAP2 DIV MUL PUSH1 0x20 ADD PUSH1 0x40 MLOAD SWAP1 DUP2 ADD PUSH1 0x40 MSTORE DUP1 SWAP3 SWAP2 SWAP1 DUP2 DUP2 MSTORE PUSH1 0x20 ADD DUP3 DUP1 SLOAD PUSH2 0xB90 SWAP1 PUSH2 0x3BDA JUMP JUMPDEST DUP1 ISZERO PUSH2 0xBDD JUMPI DUP1 PUSH1 0x1F LT PUSH2 0xBB2 JUMPI PUSH2 0x100 DUP1 DUP4 SLOAD DIV MUL DUP4 MSTORE SWAP2 PUSH1 0x20 ADD SWAP2 PUSH2 0xBDD JUMP JUMPDEST DUP3 ADD SWAP2 SWAP1 PUSH1 0x0 MSTORE PUSH1 0x20 PUSH1 0x0 KECCAK256 SWAP1 JUMPDEST DUP2 SLOAD DUP2 MSTORE SWAP1 PUSH1 0x1 ADD SWAP1 PUSH1 0x20 ADD DUP1 DUP4 GT PUSH2 0xBC0 JUMPI DUP3 SWAP1 SUB PUSH1 0x1F AND DUP3 ADD SWAP2 JUMPDEST POP POP POP POP POP SWAP1 DUP1 PUSH1 0x1 ADD DUP1 SLOAD PUSH2 0xBF2 SWAP1 PUSH2 0x3BDA JUMP JUMPDEST DUP1 PUSH1 0x1F ADD PUSH1 0x20 DUP1 SWAP2 DIV MUL PUSH1 0x20 ADD PUSH1 0x40 MLOAD SWAP1 DUP2 ADD PUSH1 0x40 MSTORE DUP1 SWAP3 SWAP2 SWAP1 DUP2 DUP2 MSTORE PUSH1 0x20 ADD DUP3 DUP1 SLOAD PUSH2 0xC1E SWAP1 PUSH2 0x3BDA JUMP JUMPDEST DUP1 ISZERO PUSH2 0xC6B JUMPI DUP1 PUSH1 0x1F LT PUSH2 0xC40 JUMPI PUSH2 0x100 DUP1 DUP4 SLOAD DIV MUL DUP4 MSTORE SWAP2 PUSH1 0x20 ADD SWAP2 PUSH2 0xC6B JUMP JUMPDEST DUP3 ADD SWAP2 SWAP1 PUSH1 0x0 MSTORE PUSH1 0x20 PUSH1 0x0 KECCAK256 SWAP1 JUMPDEST DUP2 SLOAD DUP2 MSTORE SWAP1 PUSH1 0x1 ADD SWAP1 PUSH1 0x20 ADD DUP1 DUP4 GT PUSH2 0xC4E JUMPI DUP3 SWAP1 SUB PUSH1 0x1F AND DUP3 ADD SWAP2 JUMPDEST POP POP POP POP POP SWAP1 DUP1 PUSH1 0x2 ADD SLOAD SWAP1 POP DUP4 JUMP JUMPDEST PUSH1 0x60 PUSH1 0x3 PUSH1 0x0 DUP4 DUP2 MSTORE PUSH1 0x20 ADD SWAP1 DUP2 MSTORE PUSH1 0x20 ADD PUSH1 0x0 KECCAK256 DUP1 SLOAD DUP1 PUSH1 0x20 MUL PUSH1 0x20 ADD PUSH1 0x40 MLOAD SWAP1 DUP2 ADD PUSH1 0x40 MSTORE DUP1 SWAP3 SWAP2 SWAP1 DUP2 DUP2 MSTORE PUSH1 0x20 ADD PUSH1 0x0 SWAP1 JUMPDEST DUP3 DUP3 LT ISZERO PUSH2 0xDC3 JUMPI PUSH1 0x0 DUP5 DUP2 MSTORE PUSH1 0x20 SWAP1 KECCAK256 PUSH1 0x40 DUP1 MLOAD PUSH1 0x80 DUP2 ADD SWAP1 SWAP2 MSTORE PUSH1 0x3 DUP5 MUL SWAP1 SWAP2 ADD DUP1 SLOAD DUP3 SWAP1 PUSH1 0xFF AND PUSH1 0x8 DUP2 GT ISZERO PUSH2 0xCEB JUMPI PUSH2 0xCEB PUSH2 0x35EB JUMP JUMPDEST PUSH1 0x8 DUP2 GT ISZERO PUSH2 0xCFC JUMPI PUSH2 0xCFC PUSH2 0x35EB JUMP JUMPDEST DUP2 MSTORE DUP2 SLOAD PUSH2 0x100 SWAP1 DIV PUSH1 0x1 PUSH1 0x1 PUSH1 0xA0 SHL SUB AND PUSH1 0x20 DUP3 ADD MSTORE PUSH1 0x1 DUP3 ADD SLOAD PUSH1 0x40 DUP3 ADD MSTORE PUSH1 0x2 DUP3 ADD DUP1 SLOAD PUSH1 0x60 SWAP1 SWAP3 ADD SWAP2 PUSH2 0xD32 SWAP1 PUSH2 0x3BDA JUMP JUMPDEST DUP1 PUSH1 0x1F ADD PUSH1 0x20 DUP1 SWAP2 DIV MUL PUSH1 0x20 ADD PUSH1 0x40 MLOAD SWAP1 DUP2 ADD PUSH1 0x40 MSTORE DUP1 SWAP3 SWAP2 SWAP1 DUP2 DUP2 MSTORE PUSH1 0x20 ADD DUP3 DUP1 SLOAD PUSH2 0xD5E SWAP1 PUSH2 0x3BDA JUMP JUMPDEST DUP1 ISZERO PUSH2 0xDAB JUMPI DUP1 PUSH1 0x1F LT PUSH2 0xD80 JUMPI PUSH2 0x100 DUP1 DUP4 SLOAD DIV MUL DUP4 MSTORE SWAP2 PUSH1 0x20 ADD SWAP2 PUSH2 0xDAB JUMP JUMPDEST DUP3 ADD SWAP2 SWAP1 PUSH1 0x0 MSTORE PUSH1 0x20 PUSH1 0x0 KECCAK256 SWAP1 JUMPDEST DUP2 SLOAD DUP2 MSTORE SWAP1 PUSH1 0x1 ADD SWAP1 PUSH1 0x20 ADD DUP1 DUP4 GT PUSH2 0xD8E JUMPI DUP3 SWAP1 SUB PUSH1 0x1F AND DUP3 ADD SWAP2 JUMPDEST POP POP POP POP POP DUP2 MSTORE POP POP DUP2 MSTORE PUSH1 0x20 ADD SWAP1 PUSH1 0x1 ADD SWAP1 PUSH2 0xCB0 JUMP JUMPDEST POP POP POP POP SWAP1 POP SWAP2 SWAP1 POP JUMP JUMPDEST PUSH1 0x0 SWAP1 DUP2 MSTORE PUSH1 0x0 DUP1 MLOAD PUSH1 0x20 PUSH2 0x3F27 DUP4 CODECOPY DUP2 MLOAD SWAP2 MSTORE PUSH1 0x20 MSTORE PUSH1 0x40 SWAP1 KECCAK256 PUSH1 0x1 ADD SLOAD SWAP1 JUMP JUMPDEST PUSH1 0x0 DUP1 MLOAD PUSH1 0x20 PUSH2 0x3E87 DUP4 CODECOPY DUP2 MLOAD SWAP2 MSTORE PUSH2 0xE08 DUP2 PUSH2 0x2FF1 JUMP JUMPDEST PUSH1 0x0 DUP4 DUP2 MSTORE PUSH1 0x2 PUSH1 0x20 MSTORE PUSH1 0x40 SWAP1 KECCAK256 PUSH1 0x3 DUP2 ADD SLOAD PUSH1 0x1 PUSH1 0xA8 SHL SWAP1 DIV PUSH1 0xFF AND PUSH2 0xE4A JUMPI PUSH1 0x40 MLOAD PUSH3 0x461BCD PUSH1 0xE5 SHL DUP2 MSTORE PUSH1 0x4 ADD PUSH2 0xE41 SWAP1 PUSH2 0x3C14 JUMP JUMPDEST PUSH1 0x40 MLOAD DUP1 SWAP2 SUB SWAP1 REVERT JUMPDEST PUSH1 0x3 DUP2 DUP2 ADD DUP1 SLOAD PUSH1 0xFF PUSH1 0xA0 SHL NOT AND PUSH1 0x7 PUSH1 0xA0 SHL OR SWAP1 SSTORE PUSH1 0x0 DUP6 DUP2 MSTORE PUSH1 0x20 DUP3 DUP2 MSTORE PUSH1 0x40 DUP1 DUP4 KECCAK256 DUP2 MLOAD PUSH1 0x80 DUP2 ADD DUP4 MSTORE PUSH1 0x7 DUP2 MSTORE CALLER DUP2 DUP6 ADD MSTORE TIMESTAMP SWAP3 DUP2 ADD SWAP3 SWAP1 SWAP3 MSTORE PUSH1 0x60 DUP3 ADD DUP9 SWAP1 MSTORE DUP1 SLOAD PUSH1 0x1 DUP2 DUP2 ADD DUP4 SSTORE SWAP2 DUP6 MSTORE SWAP3 SWAP1 SWAP4 KECCAK256 DUP2 MLOAD SWAP3 SWAP1 SWAP5 MUL SWAP1 SWAP4 ADD DUP1 SLOAD SWAP1 SWAP3 DUP4 SWAP2 PUSH1 0xFF NOT AND SWAP1 DUP4 PUSH1 0x8 DUP2 GT ISZERO PUSH2 0xEC5 JUMPI PUSH2 0xEC5 PUSH2 0x35EB JUMP JUMPDEST MUL OR SWAP1 SSTORE POP PUSH1 0x20 DUP3 ADD MLOAD DUP2 SLOAD PUSH1 0x1 PUSH1 0x1 PUSH1 0xA0 SHL SUB SWAP1 SWAP2 AND PUSH2 0x100 MUL PUSH2 0x100 PUSH1 0x1 PUSH1 0xA8 SHL SUB NOT SWAP1 SWAP2 AND OR DUP2 SSTORE PUSH1 0x40 DUP3 ADD MLOAD PUSH1 0x1 DUP3 ADD SSTORE PUSH1 0x60 DUP3 ADD MLOAD PUSH1 0x2 DUP3 ADD SWAP1 PUSH2 0xF0E SWAP1 DUP3 PUSH2 0x3C88 JUMP JUMPDEST POP POP POP DUP4 PUSH1 0x0 DUP1 MLOAD PUSH1 0x20 PUSH2 0x3EE7 DUP4 CODECOPY DUP2 MLOAD SWAP2 MSTORE PUSH1 0x7 DUP6 PUSH1 0x40 MLOAD PUSH2 0xF32 SWAP3 SWAP2 SWAP1 PUSH2 0x3D47 JUMP JUMPDEST PUSH1 0x40 MLOAD DUP1 SWAP2 SUB SWAP1 LOG2 POP POP POP POP JUMP JUMPDEST PUSH2 0xF49 DUP3 PUSH2 0xDCE JUMP JUMPDEST PUSH2 0xF52 DUP2 PUSH2 0x2FF1 JUMP JUMPDEST PUSH2 0xF5C DUP4 DUP4 PUSH2 0x2FFE JUMP JUMPDEST POP POP POP POP JUMP JUMPDEST PUSH1 0x1 PUSH1 0x1 PUSH1 0xA0 SHL SUB DUP2 AND CALLER EQ PUSH2 0xF8B JUMPI PUSH1 0x40 MLOAD PUSH4 0x334BD919 PUSH1 0xE1 SHL DUP2 MSTORE PUSH1 0x4 ADD PUSH1 0x40 MLOAD DUP1 SWAP2 SUB SWAP1 REVERT JUMPDEST PUSH2 0xF95 DUP3 DUP3 PUSH2 0x30A3 JUMP JUMPDEST POP POP POP JUMP JUMPDEST PUSH1 0x0 DUP2 DUP2 MSTORE PUSH1 0x5 PUSH1 0x20 SWAP1 DUP2 MSTORE PUSH1 0x40 DUP1 DUP4 KECCAK256 PUSH1 0x2 SWAP1 SWAP3 MSTORE SWAP1 SWAP2 KECCAK256 PUSH1 0x3 DUP2 ADD SLOAD PUSH1 0x1 PUSH1 0xA8 SHL SWAP1 DIV PUSH1 0xFF AND PUSH2 0xFDE JUMPI PUSH1 0x40 MLOAD PUSH3 0x461BCD PUSH1 0xE5 SHL DUP2 MSTORE PUSH1 0x4 ADD PUSH2 0xE41 SWAP1 PUSH2 0x3C14 JUMP JUMPDEST PUSH1 0x1 DUP3 ADD SLOAD PUSH1 0x1 PUSH1 0x1 PUSH1 0xA0 SHL SUB AND CALLER EQ PUSH2 0x1045 JUMPI PUSH1 0x40 MLOAD PUSH3 0x461BCD PUSH1 0xE5 SHL DUP2 MSTORE PUSH1 0x20 PUSH1 0x4 DUP3 ADD MSTORE PUSH1 0x22 PUSH1 0x24 DUP3 ADD MSTORE PUSH32 0x4F6E6C792072656365697665722063616E20636F6E6669726D207472616E7366 PUSH1 0x44 DUP3 ADD MSTORE PUSH2 0x32B9 PUSH1 0xF1 SHL PUSH1 0x64 DUP3 ADD MSTORE PUSH1 0x84 ADD PUSH2 0xE41 JUMP JUMPDEST PUSH1 0x1 DUP3 ADD SLOAD PUSH1 0x1 PUSH1 0xA0 SHL SWAP1 DIV PUSH1 0xFF AND PUSH2 0x10AC JUMPI PUSH1 0x40 MLOAD PUSH3 0x461BCD PUSH1 0xE5 SHL DUP2 MSTORE PUSH1 0x20 PUSH1 0x4 DUP3 ADD MSTORE PUSH1 0x23 PUSH1 0x24 DUP3 ADD MSTORE PUSH32 0x53656E646572206D75737420696E697469617465207472616E73666572206669 PUSH1 0x44 DUP3 ADD MSTORE PUSH3 0x1C9CDD PUSH1 0xEA SHL PUSH1 0x64 DUP3 ADD MSTORE PUSH1 0x84 ADD PUSH2 0xE41 JUMP JUMPDEST PUSH1 0x1 DUP3 ADD SLOAD PUSH1 0x1 PUSH1 0xA8 SHL SWAP1 DIV PUSH1 0xFF AND ISZERO PUSH2 0x1117 JUMPI PUSH1 0x40 MLOAD PUSH3 0x461BCD PUSH1 0xE5 SHL DUP2 MSTORE PUSH1 0x20 PUSH1 0x4 DUP3 ADD MSTORE PUSH1 0x26 PUSH1 0x24 DUP3 ADD MSTORE PUSH32 0x5472616E7366657220616C726561647920636F6E6669726D6564206279207265 PUSH1 0x44 DUP3 ADD MSTORE PUSH6 0x31B2B4BB32B9 PUSH1 0xD1 SHL PUSH1 0x64 DUP3 ADD MSTORE PUSH1 0x84 ADD PUSH2 0xE41 JUMP JUMPDEST PUSH1 0x6 DUP2 ADD SLOAD PUSH1 0x0 SWAP1 ISZERO PUSH2 0x13DF JUMPI PUSH1 0x0 SLOAD PUSH1 0x1 PUSH1 0x1 PUSH1 0xA0 SHL SUB AND PUSH2 0x117C JUMPI PUSH1 0x40 MLOAD PUSH3 0x461BCD PUSH1 0xE5 SHL DUP2 MSTORE PUSH1 0x20 PUSH1 0x4 DUP3 ADD MSTORE PUSH1 0x1E PUSH1 0x24 DUP3 ADD MSTORE PUSH32 0x546F6B656E20636F6E74726163742061646472657373206E6F74207365740000 PUSH1 0x44 DUP3 ADD MSTORE PUSH1 0x64 ADD PUSH2 0xE41 JUMP JUMPDEST PUSH1 0x0 DUP1 SLOAD PUSH1 0x1 PUSH1 0x1 PUSH1 0xA0 SHL SUB AND PUSH4 0xDD62ED3E CALLER PUSH1 0x40 MLOAD PUSH1 0x1 PUSH1 0x1 PUSH1 0xE0 SHL SUB NOT PUSH1 0xE0 DUP5 SWAP1 SHL AND DUP2 MSTORE PUSH1 0x1 PUSH1 0x1 PUSH1 0xA0 SHL SUB SWAP1 SWAP2 AND PUSH1 0x4 DUP3 ADD MSTORE ADDRESS PUSH1 0x24 DUP3 ADD MSTORE PUSH1 0x44 ADD PUSH1 0x20 PUSH1 0x40 MLOAD DUP1 DUP4 SUB DUP2 DUP7 GAS STATICCALL ISZERO DUP1 ISZERO PUSH2 0x11D9 JUMPI RETURNDATASIZE PUSH1 0x0 DUP1 RETURNDATACOPY RETURNDATASIZE PUSH1 0x0 REVERT JUMPDEST POP POP POP POP PUSH1 0x40 MLOAD RETURNDATASIZE PUSH1 0x1F NOT PUSH1 0x1F DUP3 ADD AND DUP3 ADD DUP1 PUSH1 0x40 MSTORE POP DUP2 ADD SWAP1 PUSH2 0x11FD SWAP2 SWAP1 PUSH2 0x3D6F JUMP JUMPDEST SWAP1 POP DUP3 PUSH1 0x6 ADD SLOAD DUP2 LT ISZERO PUSH2 0x126A JUMPI PUSH1 0x40 MLOAD PUSH3 0x461BCD PUSH1 0xE5 SHL DUP2 MSTORE PUSH1 0x20 PUSH1 0x4 DUP3 ADD MSTORE PUSH1 0x2E PUSH1 0x24 DUP3 ADD MSTORE PUSH32 0x496E73756666696369656E7420746F6B656E20616C6C6F77616E636520666F72 PUSH1 0x44 DUP3 ADD MSTORE PUSH14 0x2073656C6C696E67207072696365 PUSH1 0x90 SHL PUSH1 0x64 DUP3 ADD MSTORE PUSH1 0x84 ADD PUSH2 0xE41 JUMP JUMPDEST PUSH1 0x0 DUP1 SLOAD PUSH1 0x1 PUSH1 0x1 PUSH1 0xA0 SHL SUB AND PUSH4 0x23B872DD CALLER DUP8 SLOAD PUSH1 0x6 DUP9 ADD SLOAD PUSH1 0x40 MLOAD PUSH1 0xE0 DUP6 SWAP1 SHL PUSH1 0x1 PUSH1 0x1 PUSH1 0xE0 SHL SUB NOT AND DUP2 MSTORE PUSH1 0x1 PUSH1 0x1 PUSH1 0xA0 SHL SUB SWAP4 DUP5 AND PUSH1 0x4 DUP3 ADD MSTORE SWAP3 SWAP1 SWAP2 AND PUSH1 0x24 DUP4 ADD MSTORE PUSH1 0x44 DUP3 ADD MSTORE PUSH1 0x64 ADD PUSH1 0x20 PUSH1 0x40 MLOAD DUP1 DUP4 SUB DUP2 PUSH1 0x0 DUP8 GAS CALL ISZERO DUP1 ISZERO PUSH2 0x12D8 JUMPI RETURNDATASIZE PUSH1 0x0 DUP1 RETURNDATACOPY RETURNDATASIZE PUSH1 0x0 REVERT JUMPDEST POP POP POP POP PUSH1 0x40 MLOAD RETURNDATASIZE PUSH1 0x1F NOT PUSH1 0x1F DUP3 ADD AND DUP3 ADD DUP1 PUSH1 0x40 MSTORE POP DUP2 ADD SWAP1 PUSH2 0x12FC SWAP2 SWAP1 PUSH2 0x3D88 JUMP JUMPDEST SWAP1 POP DUP1 PUSH2 0x1357 JUMPI PUSH1 0x40 MLOAD PUSH3 0x461BCD PUSH1 0xE5 SHL DUP2 MSTORE PUSH1 0x20 PUSH1 0x4 DUP3 ADD MSTORE PUSH1 0x23 PUSH1 0x24 DUP3 ADD MSTORE PUSH32 0x53656C6C696E6720707269636520746F6B656E207472616E7366657220666169 PUSH1 0x44 DUP3 ADD MSTORE PUSH3 0x1B1959 PUSH1 0xEA SHL PUSH1 0x64 DUP3 ADD MSTORE PUSH1 0x84 ADD PUSH2 0xE41 JUMP JUMPDEST PUSH1 0x6 DUP5 ADD SLOAD DUP6 SLOAD SWAP1 SWAP4 POP PUSH1 0x1 PUSH1 0x1 PUSH1 0xA0 SHL SUB AND CALLER PUSH1 0x1 PUSH1 0x1 PUSH1 0xA0 SHL SUB AND DUP8 PUSH32 0x9688CB9D5126D389AF6CC829498AD77CFFD361F01A6E97E9C404812E07639987 DUP8 PUSH1 0x6 ADD SLOAD PUSH1 0x40 MLOAD PUSH2 0x13D4 SWAP2 DUP2 MSTORE PUSH1 0x40 PUSH1 0x20 DUP3 ADD DUP2 SWAP1 MSTORE PUSH1 0x12 SWAP1 DUP3 ADD MSTORE PUSH18 0x4974656D2053656C6C696E67205072696365 PUSH1 0x70 SHL PUSH1 0x60 DUP3 ADD MSTORE PUSH1 0x80 ADD SWAP1 JUMP JUMPDEST PUSH1 0x40 MLOAD DUP1 SWAP2 SUB SWAP1 LOG4 POP POP JUMPDEST PUSH1 0x1 DUP4 ADD DUP1 SLOAD PUSH1 0xFF PUSH1 0xA8 SHL NOT AND PUSH1 0x1 PUSH1 0xA8 SHL OR SWAP1 SSTORE PUSH2 0x13FB CALLER SWAP1 JUMP JUMPDEST PUSH1 0x3 DUP4 ADD DUP1 SLOAD PUSH1 0x1 PUSH1 0x1 PUSH1 0xA0 SHL SUB NOT AND PUSH1 0x1 PUSH1 0x1 PUSH1 0xA0 SHL SUB SWAP3 SWAP1 SWAP3 AND SWAP2 SWAP1 SWAP2 OR SWAP1 SSTORE PUSH2 0x1435 PUSH1 0x0 DUP1 MLOAD PUSH1 0x20 PUSH2 0x3E87 DUP4 CODECOPY DUP2 MLOAD SWAP2 MSTORE CALLER PUSH2 0x267B JUMP JUMPDEST ISZERO PUSH2 0x145C JUMPI PUSH1 0x3 DUP3 ADD DUP1 SLOAD PUSH1 0x1 SWAP2 SWAP1 PUSH1 0xFF PUSH1 0xA0 SHL NOT AND PUSH1 0x1 PUSH1 0xA0 SHL DUP4 JUMPDEST MUL OR SWAP1 SSTORE POP PUSH2 0x154B JUMP JUMPDEST PUSH2 0x1474 PUSH1 0x0 DUP1 MLOAD PUSH1 0x20 PUSH2 0x3EA7 DUP4 CODECOPY DUP2 MLOAD SWAP2 MSTORE CALLER PUSH2 0x267B JUMP JUMPDEST ISZERO PUSH2 0x1495 JUMPI PUSH1 0x3 DUP3 ADD DUP1 SLOAD PUSH1 0x2 SWAP2 SWAP1 PUSH1 0xFF PUSH1 0xA0 SHL NOT AND PUSH1 0x1 PUSH1 0xA0 SHL DUP4 PUSH2 0x1452 JUMP JUMPDEST PUSH2 0x14AD PUSH1 0x0 DUP1 MLOAD PUSH1 0x20 PUSH2 0x3EC7 DUP4 CODECOPY DUP2 MLOAD SWAP2 MSTORE CALLER PUSH2 0x267B JUMP JUMPDEST ISZERO PUSH2 0x14CE JUMPI PUSH1 0x3 DUP3 ADD DUP1 SLOAD PUSH1 0x4 SWAP2 SWAP1 PUSH1 0xFF PUSH1 0xA0 SHL NOT AND PUSH1 0x1 PUSH1 0xA0 SHL DUP4 PUSH2 0x1452 JUMP JUMPDEST PUSH1 0x40 MLOAD PUSH3 0x461BCD PUSH1 0xE5 SHL DUP2 MSTORE PUSH1 0x20 PUSH1 0x4 DUP3 ADD MSTORE PUSH1 0x46 PUSH1 0x24 DUP3 ADD MSTORE PUSH32 0x436F6E6669726D657220646F6573206E6F74206861766520612076616C696420 PUSH1 0x44 DUP3 ADD MSTORE PUSH32 0x7061727469636970616E7420726F6C6520696E2074686973207472616E736665 PUSH1 0x64 DUP3 ADD MSTORE PUSH6 0x72207374657 PUSH1 0xD4 SHL PUSH1 0x84 DUP3 ADD MSTORE PUSH1 0xA4 ADD PUSH2 0xE41 JUMP JUMPDEST PUSH1 0x40 DUP1 MLOAD DUP1 DUP3 ADD SWAP1 SWAP2 MSTORE PUSH1 0x11 DUP2 MSTORE PUSH17 0x44656C697665726564206F6E2074696D65 PUSH1 0x78 SHL PUSH1 0x20 DUP3 ADD MSTORE PUSH1 0x4 DUP4 ADD SLOAD TIMESTAMP GT ISZERO PUSH2 0x15A7 JUMPI POP PUSH1 0x40 DUP1 MLOAD DUP1 DUP3 ADD SWAP1 SWAP2 MSTORE PUSH1 0xF DUP2 MSTORE PUSH15 0x44656C697665726564206C61746521 PUSH1 0x88 SHL PUSH1 0x20 DUP3 ADD MSTORE JUMPDEST PUSH1 0x3 PUSH1 0x0 DUP7 DUP2 MSTORE PUSH1 0x20 ADD SWAP1 DUP2 MSTORE PUSH1 0x20 ADD PUSH1 0x0 KECCAK256 PUSH1 0x40 MLOAD DUP1 PUSH1 0x80 ADD PUSH1 0x40 MSTORE DUP1 DUP6 PUSH1 0x3 ADD PUSH1 0x14 SWAP1 SLOAD SWAP1 PUSH2 0x100 EXP SWAP1 DIV PUSH1 0xFF AND PUSH1 0x8 DUP2 GT ISZERO PUSH2 0x15E8 JUMPI PUSH2 0x15E8 PUSH2 0x35EB JUMP JUMPDEST DUP2 MSTORE CALLER PUSH1 0x20 DUP1 DUP4 ADD SWAP2 SWAP1 SWAP2 MSTORE TIMESTAMP PUSH1 0x40 DUP4 ADD MSTORE PUSH1 0x60 SWAP1 SWAP2 ADD DUP5 SWAP1 MSTORE DUP3 SLOAD PUSH1 0x1 DUP1 DUP3 ADD DUP6 SSTORE PUSH1 0x0 SWAP5 DUP6 MSTORE SWAP2 SWAP1 SWAP4 KECCAK256 DUP3 MLOAD PUSH1 0x3 SWAP1 SWAP5 MUL ADD DUP1 SLOAD SWAP3 SWAP4 SWAP1 SWAP3 SWAP1 SWAP2 DUP4 SWAP2 PUSH1 0xFF NOT AND SWAP1 DUP4 PUSH1 0x8 DUP2 GT ISZERO PUSH2 0x163D JUMPI PUSH2 0x163D PUSH2 0x35EB JUMP JUMPDEST MUL OR SWAP1 SSTORE POP PUSH1 0x20 DUP3 ADD MLOAD DUP2 SLOAD PUSH1 0x1 PUSH1 0x1 PUSH1 0xA0 SHL SUB SWAP1 SWAP2 AND PUSH2 0x100 MUL PUSH2 0x100 PUSH1 0x1 PUSH1 0xA8 SHL SUB NOT SWAP1 SWAP2 AND OR DUP2 SSTORE PUSH1 0x40 DUP3 ADD MLOAD PUSH1 0x1 DUP3 ADD SSTORE PUSH1 0x60 DUP3 ADD MLOAD PUSH1 0x2 DUP3 ADD SWAP1 PUSH2 0x1686 SWAP1 DUP3 PUSH2 0x3C88 JUMP JUMPDEST POP POP POP PUSH1 0x0 DUP6 DUP2 MSTORE PUSH1 0x5 PUSH1 0x20 MSTORE PUSH1 0x40 SWAP1 KECCAK256 DUP1 SLOAD PUSH1 0x1 PUSH1 0x1 PUSH1 0xA0 SHL SUB NOT AND DUP2 SSTORE PUSH1 0x1 ADD DUP1 SLOAD PUSH1 0x1 PUSH1 0x1 PUSH1 0xB0 SHL SUB NOT AND SWAP1 SSTORE CALLER PUSH1 0x1 PUSH1 0x1 PUSH1 0xA0 SHL SUB AND DUP6 PUSH32 0x88C474E55A390F3D615704787D6B2FB7F0F3C31D954FA34F812D542226715AB DUP5 PUSH1 0x40 MLOAD PUSH2 0x16F2 SWAP2 DUP2 MSTORE PUSH1 0x20 ADD SWAP1 JUMP JUMPDEST PUSH1 0x40 MLOAD DUP1 SWAP2 SUB SWAP1 LOG3 POP POP POP POP POP JUMP JUMPDEST PUSH1 0x0 PUSH2 0xF52 DUP2 PUSH2 0x2FF1 JUMP JUMPDEST PUSH1 0x60 PUSH1 0x4 PUSH1 0x0 DUP4 DUP2 MSTORE PUSH1 0x20 ADD SWAP1 DUP2 MSTORE PUSH1 0x20 ADD PUSH1 0x0 KECCAK256 DUP1 SLOAD DUP1 PUSH1 0x20 MUL PUSH1 0x20 ADD PUSH1 0x40 MLOAD SWAP1 DUP2 ADD PUSH1 0x40 MSTORE DUP1 SWAP3 SWAP2 SWAP1 DUP2 DUP2 MSTORE PUSH1 0x20 ADD PUSH1 0x0 SWAP1 JUMPDEST DUP3 DUP3 LT ISZERO PUSH2 0xDC3 JUMPI DUP4 DUP3 SWAP1 PUSH1 0x0 MSTORE PUSH1 0x20 PUSH1 0x0 KECCAK256 SWAP1 PUSH1 0x3 MUL ADD PUSH1 0x40 MLOAD DUP1 PUSH1 0x60 ADD PUSH1 0x40 MSTORE SWAP1 DUP2 PUSH1 0x0 DUP3 ADD DUP1 SLOAD PUSH2 0x1774 SWAP1 PUSH2 0x3BDA JUMP JUMPDEST DUP1 PUSH1 0x1F ADD PUSH1 0x20 DUP1 SWAP2 DIV MUL PUSH1 0x20 ADD PUSH1 0x40 MLOAD SWAP1 DUP2 ADD PUSH1 0x40 MSTORE DUP1 SWAP3 SWAP2 SWAP1 DUP2 DUP2 MSTORE PUSH1 0x20 ADD DUP3 DUP1 SLOAD PUSH2 0x17A0 SWAP1 PUSH2 0x3BDA JUMP JUMPDEST DUP1 ISZERO PUSH2 0x17ED JUMPI DUP1 PUSH1 0x1F LT PUSH2 0x17C2 JUMPI PUSH2 0x100 DUP1 DUP4 SLOAD DIV MUL DUP4 MSTORE SWAP2 PUSH1 0x20 ADD SWAP2 PUSH2 0x17ED JUMP JUMPDEST DUP3 ADD SWAP2 SWAP1 PUSH1 0x0 MSTORE PUSH1 0x20 PUSH1 0x0 KECCAK256 SWAP1 JUMPDEST DUP2 SLOAD DUP2 MSTORE SWAP1 PUSH1 0x1 ADD SWAP1 PUSH1 0x20 ADD DUP1 DUP4 GT PUSH2 0x17D0 JUMPI DUP3 SWAP1 SUB PUSH1 0x1F AND DUP3 ADD SWAP2 JUMPDEST POP POP POP POP POP DUP2 MSTORE PUSH1 0x20 ADD PUSH1 0x1 DUP3 ADD DUP1 SLOAD PUSH2 0x1806 SWAP1 PUSH2 0x3BDA JUMP JUMPDEST DUP1 PUSH1 0x1F ADD PUSH1 0x20 DUP1 SWAP2 DIV MUL PUSH1 0x20 ADD PUSH1 0x40 MLOAD SWAP1 DUP2 ADD PUSH1 0x40 MSTORE DUP1 SWAP3 SWAP2 SWAP1 DUP2 DUP2 MSTORE PUSH1 0x20 ADD DUP3 DUP1 SLOAD PUSH2 0x1832 SWAP1 PUSH2 0x3BDA JUMP JUMPDEST DUP1 ISZERO PUSH2 0x187F JUMPI DUP1 PUSH1 0x1F LT PUSH2 0x1854 JUMPI PUSH2 0x100 DUP1 DUP4 SLOAD DIV MUL DUP4 MSTORE SWAP2 PUSH1 0x20 ADD SWAP2 PUSH2 0x187F JUMP JUMPDEST DUP3 ADD SWAP2 SWAP1 PUSH1 0x0 MSTORE PUSH1 0x20 PUSH1 0x0 KECCAK256 SWAP1 JUMPDEST DUP2 SLOAD DUP2 MSTORE SWAP1 PUSH1 0x1 ADD SWAP1 PUSH1 0x20 ADD DUP1 DUP4 GT PUSH2 0x1862 JUMPI DUP3 SWAP1 SUB PUSH1 0x1F AND DUP3 ADD SWAP2 JUMPDEST POP POP POP POP POP DUP2 MSTORE PUSH1 0x20 ADD PUSH1 0x2 DUP3 ADD SLOAD DUP2 MSTORE POP POP DUP2 MSTORE PUSH1 0x20 ADD SWAP1 PUSH1 0x1 ADD SWAP1 PUSH2 0x1741 JUMP JUMPDEST PUSH1 0x2 PUSH1 0x20 MSTORE PUSH1 0x0 SWAP1 DUP2 MSTORE PUSH1 0x40 SWAP1 KECCAK256 DUP1 SLOAD PUSH1 0x1 DUP3 ADD DUP1 SLOAD SWAP2 SWAP3 SWAP2 PUSH2 0x18C3 SWAP1 PUSH2 0x3BDA JUMP JUMPDEST DUP1 PUSH1 0x1F ADD PUSH1 0x20 DUP1 SWAP2 DIV MUL PUSH1 0x20 ADD PUSH1 0x40 MLOAD SWAP1 DUP2 ADD PUSH1 0x40 MSTORE DUP1 SWAP3 SWAP2 SWAP1 DUP2 DUP2 MSTORE PUSH1 0x20 ADD DUP3 DUP1 SLOAD PUSH2 0x18EF SWAP1 PUSH2 0x3BDA JUMP JUMPDEST DUP1 ISZERO PUSH2 0x193C JUMPI DUP1 PUSH1 0x1F LT PUSH2 0x1911 JUMPI PUSH2 0x100 DUP1 DUP4 SLOAD DIV MUL DUP4 MSTORE SWAP2 PUSH1 0x20 ADD SWAP2 PUSH2 0x193C JUMP JUMPDEST DUP3 ADD SWAP2 SWAP1 PUSH1 0x0 MSTORE PUSH1 0x20 PUSH1 0x0 KECCAK256 SWAP1 JUMPDEST DUP2 SLOAD DUP2 MSTORE SWAP1 PUSH1 0x1 ADD SWAP1 PUSH1 0x20 ADD DUP1 DUP4 GT PUSH2 0x191F JUMPI DUP3 SWAP1 SUB PUSH1 0x1F AND DUP3 ADD SWAP2 JUMPDEST POP POP POP POP POP SWAP1 DUP1 PUSH1 0x2 ADD DUP1 SLOAD PUSH2 0x1951 SWAP1 PUSH2 0x3BDA JUMP JUMPDEST DUP1 PUSH1 0x1F ADD PUSH1 0x20 DUP1 SWAP2 DIV MUL PUSH1 0x20 ADD PUSH1 0x40 MLOAD SWAP1 DUP2 ADD PUSH1 0x40 MSTORE DUP1 SWAP3 SWAP2 SWAP1 DUP2 DUP2 MSTORE PUSH1 0x20 ADD DUP3 DUP1 SLOAD PUSH2 0x197D SWAP1 PUSH2 0x3BDA JUMP JUMPDEST DUP1 ISZERO PUSH2 0x19CA JUMPI DUP1 PUSH1 0x1F LT PUSH2 0x199F JUMPI PUSH2 0x100 DUP1 DUP4 SLOAD DIV MUL DUP4 MSTORE SWAP2 PUSH1 0x20 ADD SWAP2 PUSH2 0x19CA JUMP JUMPDEST DUP3 ADD SWAP2 SWAP1 PUSH1 0x0 MSTORE PUSH1 0x20 PUSH1 0x0 KECCAK256 SWAP1 JUMPDEST DUP2 SLOAD DUP2 MSTORE SWAP1 PUSH1 0x1 ADD SWAP1 PUSH1 0x20 ADD DUP1 DUP4 GT PUSH2 0x19AD JUMPI DUP3 SWAP1 SUB PUSH1 0x1F AND DUP3 ADD SWAP2 JUMPDEST POP POP POP POP PUSH1 0x3 DUP4 ADD SLOAD PUSH1 0x4 DUP5 ADD SLOAD PUSH1 0x5 DUP6 ADD SLOAD PUSH1 0x6 SWAP1 SWAP6 ADD SLOAD SWAP4 SWAP5 PUSH1 0x1 PUSH1 0x1 PUSH1 0xA0 SHL SUB DUP4 AND SWAP5 PUSH1 0xFF PUSH1 0x1 PUSH1 0xA0 SHL DUP6 DIV DUP2 AND SWAP6 POP PUSH1 0x1 PUSH1 0xA8 SHL SWAP1 SWAP5 DIV SWAP1 SWAP4 AND SWAP3 DUP10 JUMP JUMPDEST PUSH2 0x1A14 PUSH2 0x311F JUMP JUMPDEST PUSH2 0x1A1D DUP3 PUSH2 0x31C6 JUMP JUMPDEST PUSH2 0x1A27 DUP3 DUP3 PUSH2 0x31D1 JUMP JUMPDEST POP POP JUMP JUMPDEST PUSH1 0x0 DUP1 MLOAD PUSH1 0x20 PUSH2 0x3E87 DUP4 CODECOPY DUP2 MLOAD SWAP2 MSTORE PUSH2 0x1A43 DUP2 PUSH2 0x2FF1 JUMP JUMPDEST PUSH1 0x0 DUP4 DUP2 MSTORE PUSH1 0x2 PUSH1 0x20 MSTORE PUSH1 0x40 SWAP1 KECCAK256 PUSH1 0x3 DUP2 ADD SLOAD PUSH1 0x1 PUSH1 0xA8 SHL SWAP1 DIV PUSH1 0xFF AND PUSH2 0x1A7C JUMPI PUSH1 0x40 MLOAD PUSH3 0x461BCD PUSH1 0xE5 SHL DUP2 MSTORE PUSH1 0x4 ADD PUSH2 0xE41 SWAP1 PUSH2 0x3C14 JUMP JUMPDEST PUSH1 0x3 DUP2 DUP2 ADD DUP1 SLOAD PUSH1 0xFF PUSH1 0xA0 SHL NOT AND PUSH1 0x1 PUSH1 0xA3 SHL OR SWAP1 SSTORE PUSH1 0x0 DUP6 DUP2 MSTORE PUSH1 0x20 DUP3 DUP2 MSTORE PUSH1 0x40 DUP1 DUP4 KECCAK256 DUP2 MLOAD PUSH1 0x80 DUP2 ADD DUP4 MSTORE PUSH1 0x8 DUP1 DUP3 MSTORE CALLER DUP3 DUP7 ADD MSTORE TIMESTAMP SWAP4 DUP3 ADD SWAP4 SWAP1 SWAP4 MSTORE PUSH1 0x60 DUP2 ADD DUP10 SWAP1 MSTORE DUP2 SLOAD PUSH1 0x1 DUP2 DUP2 ADD DUP5 SSTORE SWAP3 DUP7 MSTORE SWAP4 SWAP1 SWAP5 KECCAK256 DUP5 MLOAD SWAP4 SWAP1 SWAP6 MUL SWAP1 SWAP5 ADD DUP1 SLOAD SWAP4 SWAP5 SWAP1 SWAP4 DUP5 SWAP3 PUSH1 0xFF NOT SWAP1 SWAP2 AND SWAP2 SWAP1 DUP5 SWAP1 DUP2 GT ISZERO PUSH2 0x1AFC JUMPI PUSH2 0x1AFC PUSH2 0x35EB JUMP JUMPDEST MUL OR SWAP1 SSTORE POP PUSH1 0x20 DUP3 ADD MLOAD DUP2 SLOAD PUSH1 0x1 PUSH1 0x1 PUSH1 0xA0 SHL SUB SWAP1 SWAP2 AND PUSH2 0x100 MUL PUSH2 0x100 PUSH1 0x1 PUSH1 0xA8 SHL SUB NOT SWAP1 SWAP2 AND OR DUP2 SSTORE PUSH1 0x40 DUP3 ADD MLOAD PUSH1 0x1 DUP3 ADD SSTORE PUSH1 0x60 DUP3 ADD MLOAD PUSH1 0x2 DUP3 ADD SWAP1 PUSH2 0x1B45 SWAP1 DUP3 PUSH2 0x3C88 JUMP JUMPDEST POP POP POP DUP4 PUSH1 0x0 DUP1 MLOAD PUSH1 0x20 PUSH2 0x3EE7 DUP4 CODECOPY DUP2 MLOAD SWAP2 MSTORE PUSH1 0x8 DUP6 PUSH1 0x40 MLOAD PUSH2 0xF32 SWAP3 SWAP2 SWAP1 PUSH2 0x3D47 JUMP JUMPDEST PUSH1 0x0 PUSH2 0x1B73 PUSH2 0x328E JUMP JUMPDEST POP PUSH1 0x0 DUP1 MLOAD PUSH1 0x20 PUSH2 0x3F07 DUP4 CODECOPY DUP2 MLOAD SWAP2 MSTORE SWAP1 JUMP JUMPDEST PUSH1 0x3 PUSH1 0x20 MSTORE DUP2 PUSH1 0x0 MSTORE PUSH1 0x40 PUSH1 0x0 KECCAK256 DUP2 DUP2 SLOAD DUP2 LT PUSH2 0x1BA2 JUMPI PUSH1 0x0 DUP1 REVERT JUMPDEST PUSH1 0x0 SWAP2 DUP3 MSTORE PUSH1 0x20 SWAP1 SWAP2 KECCAK256 PUSH1 0x3 SWAP1 SWAP2 MUL ADD DUP1 SLOAD PUSH1 0x1 DUP3 ADD SLOAD PUSH1 0x2 DUP4 ADD DUP1 SLOAD PUSH1 0xFF DUP5 AND SWAP7 POP PUSH2 0x100 SWAP1 SWAP4 DIV PUSH1 0x1 PUSH1 0x1 PUSH1 0xA0 SHL SUB AND SWAP5 POP SWAP1 SWAP3 SWAP2 PUSH2 0x1BE2 SWAP1 PUSH2 0x3BDA JUMP JUMPDEST DUP1 PUSH1 0x1F ADD PUSH1 0x20 DUP1 SWAP2 DIV MUL PUSH1 0x20 ADD PUSH1 0x40 MLOAD SWAP1 DUP2 ADD PUSH1 0x40 MSTORE DUP1 SWAP3 SWAP2 SWAP1 DUP2 DUP2 MSTORE PUSH1 0x20 ADD DUP3 DUP1 SLOAD PUSH2 0x1C0E SWAP1 PUSH2 0x3BDA JUMP JUMPDEST DUP1 ISZERO PUSH2 0x1C5B JUMPI DUP1 PUSH1 0x1F LT PUSH2 0x1C30 JUMPI PUSH2 0x100 DUP1 DUP4 SLOAD DIV MUL DUP4 MSTORE SWAP2 PUSH1 0x20 ADD SWAP2 PUSH2 0x1C5B JUMP JUMPDEST DUP3 ADD SWAP2 SWAP1 PUSH1 0x0 MSTORE PUSH1 0x20 PUSH1 0x0 KECCAK256 SWAP1 JUMPDEST DUP2 SLOAD DUP2 MSTORE SWAP1 PUSH1 0x1 ADD SWAP1 PUSH1 0x20 ADD DUP1 DUP4 GT PUSH2 0x1C3E JUMPI DUP3 SWAP1 SUB PUSH1 0x1F AND DUP3 ADD SWAP2 JUMPDEST POP POP POP POP POP SWAP1 POP DUP5 JUMP JUMPDEST PUSH32 0x8EB467F061CA67F42A2D2CA4A346FC9FB645EFC0BA75056EE9F71C3A0CCC10A8 PUSH2 0x1C8F DUP2 PUSH2 0x2FF1 JUMP JUMPDEST PUSH1 0x0 DUP8 DUP2 MSTORE PUSH1 0x2 PUSH1 0x20 MSTORE PUSH1 0x40 SWAP1 KECCAK256 PUSH1 0x3 ADD SLOAD PUSH1 0x1 PUSH1 0xA8 SHL SWAP1 DIV PUSH1 0xFF AND ISZERO PUSH2 0x1CEE JUMPI PUSH1 0x40 MLOAD PUSH3 0x461BCD PUSH1 0xE5 SHL DUP2 MSTORE PUSH1 0x20 PUSH1 0x4 DUP3 ADD MSTORE PUSH1 0x13 PUSH1 0x24 DUP3 ADD MSTORE PUSH19 0x4974656D20616C726561647920657869737473 PUSH1 0x68 SHL PUSH1 0x44 DUP3 ADD MSTORE PUSH1 0x64 ADD PUSH2 0xE41 JUMP JUMPDEST PUSH1 0x0 SLOAD PUSH1 0x1 PUSH1 0x1 PUSH1 0xA0 SHL SUB AND PUSH2 0x1D46 JUMPI PUSH1 0x40 MLOAD PUSH3 0x461BCD PUSH1 0xE5 SHL DUP2 MSTORE PUSH1 0x20 PUSH1 0x4 DUP3 ADD MSTORE PUSH1 0x1E PUSH1 0x24 DUP3 ADD MSTORE PUSH32 0x546F6B656E20636F6E74726163742061646472657373206E6F74207365740000 PUSH1 0x44 DUP3 ADD MSTORE PUSH1 0x64 ADD PUSH2 0xE41 JUMP JUMPDEST PUSH1 0x1 SLOAD PUSH1 0x1 PUSH1 0x1 PUSH1 0xA0 SHL SUB AND PUSH2 0x1D9E JUMPI PUSH1 0x40 MLOAD PUSH3 0x461BCD PUSH1 0xE5 SHL DUP2 MSTORE PUSH1 0x20 PUSH1 0x4 DUP3 ADD MSTORE PUSH1 0x1D PUSH1 0x24 DUP3 ADD MSTORE PUSH32 0x46656520636F6C6C6563746F722061646472657373206E6F7420736574000000 PUSH1 0x44 DUP3 ADD MSTORE PUSH1 0x64 ADD PUSH2 0xE41 JUMP JUMPDEST DUP3 ISZERO PUSH2 0x1FE2 JUMPI PUSH1 0x0 DUP1 SLOAD PUSH1 0x1 PUSH1 0x1 PUSH1 0xA0 SHL SUB AND PUSH4 0xDD62ED3E CALLER PUSH1 0x40 MLOAD PUSH1 0x1 PUSH1 0x1 PUSH1 0xE0 SHL SUB NOT PUSH1 0xE0 DUP5 SWAP1 SHL AND DUP2 MSTORE PUSH1 0x1 PUSH1 0x1 PUSH1 0xA0 SHL SUB SWAP1 SWAP2 AND PUSH1 0x4 DUP3 ADD MSTORE ADDRESS PUSH1 0x24 DUP3 ADD MSTORE PUSH1 0x44 ADD PUSH1 0x20 PUSH1 0x40 MLOAD DUP1 DUP4 SUB DUP2 DUP7 GAS STATICCALL ISZERO DUP1 ISZERO PUSH2 0x1E01 JUMPI RETURNDATASIZE PUSH1 0x0 DUP1 RETURNDATACOPY RETURNDATASIZE PUSH1 0x0 REVERT JUMPDEST POP POP POP POP PUSH1 0x40 MLOAD RETURNDATASIZE PUSH1 0x1F NOT PUSH1 0x1F DUP3 ADD AND DUP3 ADD DUP1 PUSH1 0x40 MSTORE POP DUP2 ADD SWAP1 PUSH2 0x1E25 SWAP2 SWAP1 PUSH2 0x3D6F JUMP JUMPDEST SWAP1 POP DUP4 DUP2 LT ISZERO PUSH2 0x1E8B JUMPI PUSH1 0x40 MLOAD PUSH3 0x461BCD PUSH1 0xE5 SHL DUP2 MSTORE PUSH1 0x20 PUSH1 0x4 DUP3 ADD MSTORE PUSH1 0x2B PUSH1 0x24 DUP3 ADD MSTORE PUSH32 0x496E73756666696369656E7420746F6B656E20616C6C6F77616E636520666F72 PUSH1 0x44 DUP3 ADD MSTORE PUSH11 0x20636F7374207072696365 PUSH1 0xA8 SHL PUSH1 0x64 DUP3 ADD MSTORE PUSH1 0x84 ADD PUSH2 0xE41 JUMP JUMPDEST PUSH1 0x0 DUP1 SLOAD PUSH1 0x1 PUSH1 0x1 PUSH1 0xA0 SHL SUB AND PUSH4 0x23B872DD CALLER PUSH1 0x1 SLOAD PUSH1 0x40 MLOAD PUSH1 0xE0 DUP5 SWAP1 SHL PUSH1 0x1 PUSH1 0x1 PUSH1 0xE0 SHL SUB NOT AND DUP2 MSTORE PUSH1 0x1 PUSH1 0x1 PUSH1 0xA0 SHL SUB SWAP3 DUP4 AND PUSH1 0x4 DUP3 ADD MSTORE SWAP2 AND PUSH1 0x24 DUP3 ADD MSTORE PUSH1 0x44 DUP2 ADD DUP9 SWAP1 MSTORE PUSH1 0x64 ADD PUSH1 0x20 PUSH1 0x40 MLOAD DUP1 DUP4 SUB DUP2 PUSH1 0x0 DUP8 GAS CALL ISZERO DUP1 ISZERO PUSH2 0x1EF5 JUMPI RETURNDATASIZE PUSH1 0x0 DUP1 RETURNDATACOPY RETURNDATASIZE PUSH1 0x0 REVERT JUMPDEST POP POP POP POP PUSH1 0x40 MLOAD RETURNDATASIZE PUSH1 0x1F NOT PUSH1 0x1F DUP3 ADD AND DUP3 ADD DUP1 PUSH1 0x40 MSTORE POP DUP2 ADD SWAP1 PUSH2 0x1F19 SWAP2 SWAP1 PUSH2 0x3D88 JUMP JUMPDEST SWAP1 POP DUP1 PUSH2 0x1F68 JUMPI PUSH1 0x40 MLOAD PUSH3 0x461BCD PUSH1 0xE5 SHL DUP2 MSTORE PUSH1 0x20 PUSH1 0x4 DUP3 ADD DUP2 SWAP1 MSTORE PUSH1 0x24 DUP3 ADD MSTORE PUSH32 0x436F737420707269636520746F6B656E207472616E73666572206661696C6564 PUSH1 0x44 DUP3 ADD MSTORE PUSH1 0x64 ADD PUSH2 0xE41 JUMP JUMPDEST PUSH1 0x1 SLOAD PUSH1 0x1 PUSH1 0x1 PUSH1 0xA0 SHL SUB AND CALLER PUSH1 0x1 PUSH1 0x1 PUSH1 0xA0 SHL SUB AND DUP11 PUSH32 0x9688CB9D5126D389AF6CC829498AD77CFFD361F01A6E97E9C404812E07639987 DUP9 PUSH1 0x40 MLOAD PUSH2 0x1FD7 SWAP2 DUP2 MSTORE PUSH1 0x40 PUSH1 0x20 DUP3 ADD DUP2 SWAP1 MSTORE PUSH1 0xF SWAP1 DUP3 ADD MSTORE PUSH15 0x4974656D20436F7374205072696365 PUSH1 0x88 SHL PUSH1 0x60 DUP3 ADD MSTORE PUSH1 0x80 ADD SWAP1 JUMP JUMPDEST PUSH1 0x40 MLOAD DUP1 SWAP2 SUB SWAP1 LOG4 POP POP JUMPDEST PUSH1 0x40 MLOAD DUP1 PUSH2 0x120 ADD PUSH1 0x40 MSTORE DUP1 DUP9 DUP2 MSTORE PUSH1 0x20 ADD DUP8 DUP2 MSTORE PUSH1 0x20 ADD DUP7 DUP2 MSTORE PUSH1 0x20 ADD PUSH2 0x2007 CALLER SWAP1 JUMP JUMPDEST PUSH1 0x1 PUSH1 0x1 PUSH1 0xA0 SHL SUB AND DUP2 MSTORE PUSH1 0x20 ADD PUSH1 0x0 DUP2 MSTORE PUSH1 0x1 PUSH1 0x20 DUP1 DUP4 ADD DUP3 SWAP1 MSTORE PUSH1 0x40 DUP1 DUP5 ADD DUP10 SWAP1 MSTORE PUSH1 0x60 DUP5 ADD DUP9 SWAP1 MSTORE PUSH1 0x80 SWAP1 SWAP4 ADD DUP7 SWAP1 MSTORE PUSH1 0x0 DUP12 DUP2 MSTORE PUSH1 0x2 DUP3 MSTORE SWAP3 SWAP1 SWAP3 KECCAK256 DUP4 MLOAD DUP2 SSTORE SWAP2 DUP4 ADD MLOAD SWAP1 DUP3 ADD SWAP1 PUSH2 0x205D SWAP1 DUP3 PUSH2 0x3C88 JUMP JUMPDEST POP PUSH1 0x40 DUP3 ADD MLOAD PUSH1 0x2 DUP3 ADD SWAP1 PUSH2 0x2072 SWAP1 DUP3 PUSH2 0x3C88 JUMP JUMPDEST POP PUSH1 0x60 DUP3 ADD MLOAD PUSH1 0x3 DUP3 ADD DUP1 SLOAD PUSH1 0x1 PUSH1 0x1 PUSH1 0xA0 SHL SUB SWAP1 SWAP3 AND PUSH1 0x1 PUSH1 0x1 PUSH1 0xA0 SHL SUB NOT DUP4 AND DUP2 OR DUP3 SSTORE PUSH1 0x80 DUP6 ADD MLOAD SWAP3 PUSH1 0x1 PUSH1 0x1 PUSH1 0xA8 SHL SUB NOT AND OR PUSH1 0x1 PUSH1 0xA0 SHL DUP4 PUSH1 0x8 DUP2 GT ISZERO PUSH2 0x20C0 JUMPI PUSH2 0x20C0 PUSH2 0x35EB JUMP JUMPDEST MUL OR SWAP1 SSTORE POP PUSH1 0xA0 DUP3 ADD MLOAD PUSH1 0x3 DUP3 DUP2 ADD DUP1 SLOAD SWAP3 ISZERO ISZERO PUSH1 0x1 PUSH1 0xA8 SHL MUL PUSH1 0xFF PUSH1 0xA8 SHL NOT SWAP1 SWAP4 AND SWAP3 SWAP1 SWAP3 OR SWAP1 SWAP2 SSTORE PUSH1 0xC0 DUP4 ADD MLOAD PUSH1 0x4 DUP4 ADD SSTORE PUSH1 0xE0 DUP4 ADD MLOAD PUSH1 0x5 DUP4 ADD SSTORE PUSH2 0x100 SWAP1 SWAP3 ADD MLOAD PUSH1 0x6 SWAP1 SWAP2 ADD SSTORE PUSH1 0x0 DUP9 DUP2 MSTORE PUSH1 0x20 DUP3 DUP2 MSTORE PUSH1 0x40 DUP1 DUP4 KECCAK256 DUP2 MLOAD PUSH1 0x80 DUP2 ADD DUP4 MSTORE DUP5 DUP2 MSTORE CALLER DUP2 DUP6 ADD MSTORE TIMESTAMP DUP2 DUP5 ADD MSTORE DUP3 MLOAD DUP1 DUP5 ADD SWAP1 SWAP4 MSTORE PUSH1 0xC DUP4 MSTORE PUSH12 0x125D195B4818DC99585D1959 PUSH1 0xA2 SHL DUP4 DUP6 ADD MSTORE PUSH1 0x60 DUP2 ADD SWAP3 SWAP1 SWAP3 MSTORE DUP1 SLOAD PUSH1 0x1 DUP2 DUP2 ADD DUP4 SSTORE SWAP2 DUP6 MSTORE SWAP3 SWAP1 SWAP4 KECCAK256 DUP2 MLOAD SWAP3 SWAP1 SWAP5 MUL SWAP1 SWAP4 ADD DUP1 SLOAD SWAP1 SWAP3 DUP4 SWAP2 PUSH1 0xFF NOT AND SWAP1 DUP4 PUSH1 0x8 DUP2 GT ISZERO PUSH2 0x218D JUMPI PUSH2 0x218D PUSH2 0x35EB JUMP JUMPDEST MUL OR SWAP1 SSTORE POP PUSH1 0x20 DUP3 ADD MLOAD DUP2 SLOAD PUSH1 0x1 PUSH1 0x1 PUSH1 0xA0 SHL SUB SWAP1 SWAP2 AND PUSH2 0x100 MUL PUSH2 0x100 PUSH1 0x1 PUSH1 0xA8 SHL SUB NOT SWAP1 SWAP2 AND OR DUP2 SSTORE PUSH1 0x40 DUP3 ADD MLOAD PUSH1 0x1 DUP3 ADD SSTORE PUSH1 0x60 DUP3 ADD MLOAD PUSH1 0x2 DUP3 ADD SWAP1 PUSH2 0x21D6 SWAP1 DUP3 PUSH2 0x3C88 JUMP JUMPDEST POP POP POP PUSH2 0x21E0 CALLER SWAP1 JUMP JUMPDEST PUSH1 0x1 PUSH1 0x1 PUSH1 0xA0 SHL SUB AND DUP8 PUSH32 0xB807465CFB39005EC617112ED4E6A3CBF71BD2CD6E1ABA7F831594DF4F3784AA DUP9 DUP7 DUP7 PUSH1 0x40 MLOAD PUSH2 0x221D SWAP4 SWAP3 SWAP2 SWAP1 PUSH2 0x3DAA JUMP JUMPDEST PUSH1 0x40 MLOAD DUP1 SWAP2 SUB SWAP1 LOG3 POP POP POP POP POP POP POP JUMP JUMPDEST PUSH1 0x0 DUP1 MLOAD PUSH1 0x20 PUSH2 0x3EA7 DUP4 CODECOPY DUP2 MLOAD SWAP2 MSTORE PUSH2 0xE08 DUP2 PUSH2 0x2FF1 JUMP JUMPDEST PUSH1 0x0 DUP1 MLOAD PUSH1 0x20 PUSH2 0x3EC7 DUP4 CODECOPY DUP2 MLOAD SWAP2 MSTORE PUSH2 0x225E DUP2 PUSH2 0x2FF1 JUMP JUMPDEST PUSH1 0x0 DUP4 DUP2 MSTORE PUSH1 0x2 PUSH1 0x20 MSTORE PUSH1 0x40 SWAP1 KECCAK256 PUSH1 0x3 DUP2 ADD SLOAD PUSH1 0x1 PUSH1 0xA8 SHL SWAP1 DIV PUSH1 0xFF AND PUSH2 0x2297 JUMPI PUSH1 0x40 MLOAD PUSH3 0x461BCD PUSH1 0xE5 SHL DUP2 MSTORE PUSH1 0x4 ADD PUSH2 0xE41 SWAP1 PUSH2 0x3C14 JUMP JUMPDEST PUSH1 0x3 DUP2 ADD SLOAD PUSH1 0x1 PUSH1 0x1 PUSH1 0xA0 SHL SUB AND CALLER EQ PUSH2 0x2307 JUMPI PUSH1 0x40 MLOAD PUSH3 0x461BCD PUSH1 0xE5 SHL DUP2 MSTORE PUSH1 0x20 PUSH1 0x4 DUP3 ADD MSTORE PUSH1 0x2B PUSH1 0x24 DUP3 ADD MSTORE PUSH32 0x4F6E6C792063757272656E74206F776E6572202852657461696C657229206361 PUSH1 0x44 DUP3 ADD MSTORE PUSH11 0x1B881B585C9AC81CDBDB19 PUSH1 0xAA SHL PUSH1 0x64 DUP3 ADD MSTORE PUSH1 0x84 ADD PUSH2 0xE41 JUMP JUMPDEST PUSH1 0x1 PUSH1 0x1 PUSH1 0xA0 SHL SUB DUP4 AND PUSH2 0x235D JUMPI PUSH1 0x40 MLOAD PUSH3 0x461BCD PUSH1 0xE5 SHL DUP2 MSTORE PUSH1 0x20 PUSH1 0x4 DUP3 ADD MSTORE PUSH1 0x1F PUSH1 0x24 DUP3 ADD MSTORE PUSH32 0x437573746F6D657220616464726573732063616E6E6F74206265207A65726F00 PUSH1 0x44 DUP3 ADD MSTORE PUSH1 0x64 ADD PUSH2 0xE41 JUMP JUMPDEST PUSH1 0x5 PUSH1 0x3 DUP3 ADD SLOAD PUSH1 0x1 PUSH1 0xA0 SHL SWAP1 DIV PUSH1 0xFF AND PUSH1 0x8 DUP2 GT ISZERO PUSH2 0x237F JUMPI PUSH2 0x237F PUSH2 0x35EB JUMP JUMPDEST EQ PUSH2 0x23E3 JUMPI PUSH1 0x40 MLOAD PUSH3 0x461BCD PUSH1 0xE5 SHL DUP2 MSTORE PUSH1 0x20 PUSH1 0x4 DUP3 ADD MSTORE PUSH1 0x2E PUSH1 0x24 DUP3 ADD MSTORE PUSH32 0x4974656D206D75737420626520696E2052656365697665642073746174652074 PUSH1 0x44 DUP3 ADD MSTORE PUSH14 0x1BC81B585C9AC8185CC81CDBDB19 PUSH1 0x92 SHL PUSH1 0x64 DUP3 ADD MSTORE PUSH1 0x84 ADD PUSH2 0xE41 JUMP JUMPDEST PUSH1 0x3 DUP2 DUP2 ADD DUP1 SLOAD PUSH1 0x3 PUSH1 0xA1 SHL PUSH1 0x1 PUSH1 0x1 PUSH1 0xA8 SHL SUB NOT SWAP1 SWAP2 AND PUSH1 0x1 PUSH1 0x1 PUSH1 0xA0 SHL SUB DUP8 AND OR OR SWAP1 SSTORE PUSH1 0x0 DUP6 DUP2 MSTORE PUSH1 0x20 DUP3 DUP2 MSTORE PUSH1 0x40 DUP1 DUP4 KECCAK256 DUP2 MLOAD PUSH1 0x80 DUP2 ADD DUP4 MSTORE PUSH1 0x6 DUP2 MSTORE CALLER DUP2 DUP6 ADD MSTORE TIMESTAMP DUP2 DUP5 ADD MSTORE DUP3 MLOAD DUP1 DUP5 ADD SWAP1 SWAP4 MSTORE PUSH1 0x15 DUP4 MSTORE PUSH21 0x24BA32B69039B7B632103A379031BAB9BA37B6B2B9 PUSH1 0x59 SHL DUP4 DUP6 ADD MSTORE PUSH1 0x60 DUP2 ADD SWAP3 SWAP1 SWAP3 MSTORE DUP1 SLOAD PUSH1 0x1 DUP2 DUP2 ADD DUP4 SSTORE SWAP2 DUP6 MSTORE SWAP3 SWAP1 SWAP4 KECCAK256 DUP2 MLOAD SWAP3 SWAP1 SWAP5 MUL SWAP1 SWAP4 ADD DUP1 SLOAD SWAP1 SWAP3 DUP4 SWAP2 PUSH1 0xFF NOT AND SWAP1 DUP4 PUSH1 0x8 DUP2 GT ISZERO PUSH2 0x2495 JUMPI PUSH2 0x2495 PUSH2 0x35EB JUMP JUMPDEST MUL OR SWAP1 SSTORE POP PUSH1 0x20 DUP3 ADD MLOAD DUP2 SLOAD PUSH1 0x1 PUSH1 0x1 PUSH1 0xA0 SHL SUB SWAP1 SWAP2 AND PUSH2 0x100 MUL PUSH2 0x100 PUSH1 0x1 PUSH1 0xA8 SHL SUB NOT SWAP1 SWAP2 AND OR DUP2 SSTORE PUSH1 0x40 DUP3 ADD MLOAD PUSH1 0x1 DUP3 ADD SSTORE PUSH1 0x60 DUP3 ADD MLOAD PUSH1 0x2 DUP3 ADD SWAP1 PUSH2 0x24DE SWAP1 DUP3 PUSH2 0x3C88 JUMP JUMPDEST POP POP POP DUP4 PUSH1 0x0 DUP1 MLOAD PUSH1 0x20 PUSH2 0x3EE7 DUP4 CODECOPY DUP2 MLOAD SWAP2 MSTORE PUSH1 0x6 PUSH1 0x40 MLOAD PUSH2 0x2500 SWAP2 SWAP1 PUSH2 0x3DCF JUMP JUMPDEST PUSH1 0x40 MLOAD DUP1 SWAP2 SUB SWAP1 LOG2 PUSH1 0x40 MLOAD PUSH1 0x1 PUSH1 0x1 PUSH1 0xA0 SHL SUB DUP5 AND SWAP1 CALLER SWAP1 DUP7 SWAP1 PUSH32 0x353D877CB0F02E37CAEBCB7E28A31233E54F70864290AF7C59F6076588D7149 SWAP1 PUSH1 0x0 SWAP1 LOG4 POP POP POP POP JUMP JUMPDEST PUSH1 0x0 PUSH2 0x2550 PUSH2 0x32D7 JUMP JUMPDEST DUP1 SLOAD SWAP1 SWAP2 POP PUSH1 0xFF PUSH1 0x1 PUSH1 0x40 SHL DUP3 DIV AND ISZERO SWAP1 PUSH8 0xFFFFFFFFFFFFFFFF AND PUSH1 0x0 DUP2 ISZERO DUP1 ISZERO PUSH2 0x2578 JUMPI POP DUP3 JUMPDEST SWAP1 POP PUSH1 0x0 DUP3 PUSH8 0xFFFFFFFFFFFFFFFF AND PUSH1 0x1 EQ DUP1 ISZERO PUSH2 0x2595 JUMPI POP ADDRESS EXTCODESIZE ISZERO JUMPDEST SWAP1 POP DUP2 ISZERO DUP1 ISZERO PUSH2 0x25A3 JUMPI POP DUP1 ISZERO JUMPDEST ISZERO PUSH2 0x25C1 JUMPI PUSH1 0x40 MLOAD PUSH4 0xF92EE8A9 PUSH1 0xE0 SHL DUP2 MSTORE PUSH1 0x4 ADD PUSH1 0x40 MLOAD DUP1 SWAP2 SUB SWAP1 REVERT JUMPDEST DUP5 SLOAD PUSH8 0xFFFFFFFFFFFFFFFF NOT AND PUSH1 0x1 OR DUP6 SSTORE DUP4 ISZERO PUSH2 0x25EB JUMPI DUP5 SLOAD PUSH1 0xFF PUSH1 0x40 SHL NOT AND PUSH1 0x1 PUSH1 0x40 SHL OR DUP6 SSTORE JUMPDEST PUSH2 0x25F3 PUSH2 0x3300 JUMP JUMPDEST PUSH2 0x25FB PUSH2 0x3300 JUMP JUMPDEST PUSH2 0x2606 PUSH1 0x0 CALLER PUSH2 0x2FFE JUMP JUMPDEST POP PUSH1 0x1 DUP1 SLOAD PUSH1 0x1 PUSH1 0x1 PUSH1 0xA0 SHL SUB NOT AND CALLER OR SWAP1 SSTORE DUP4 ISZERO PUSH2 0x265F JUMPI DUP5 SLOAD PUSH1 0xFF PUSH1 0x40 SHL NOT AND DUP6 SSTORE PUSH1 0x40 MLOAD PUSH1 0x1 DUP2 MSTORE PUSH32 0xC7F505B2F371AE2175EE4913F4499E1F2633A7B5936321EED1CDAEB6115181D2 SWAP1 PUSH1 0x20 ADD PUSH1 0x40 MLOAD DUP1 SWAP2 SUB SWAP1 LOG1 JUMPDEST POP POP POP POP POP JUMP JUMPDEST PUSH1 0x0 PUSH2 0x2671 DUP2 PUSH2 0x2FF1 JUMP JUMPDEST PUSH2 0xF5C DUP4 DUP4 PUSH2 0x30A3 JUMP JUMPDEST PUSH1 0x0 SWAP2 DUP3 MSTORE PUSH1 0x0 DUP1 MLOAD PUSH1 0x20 PUSH2 0x3F27 DUP4 CODECOPY DUP2 MLOAD SWAP2 MSTORE PUSH1 0x20 SWAP1 DUP2 MSTORE PUSH1 0x40 DUP1 DUP5 KECCAK256 PUSH1 0x1 PUSH1 0x1 PUSH1 0xA0 SHL SUB SWAP4 SWAP1 SWAP4 AND DUP5 MSTORE SWAP2 SWAP1 MSTORE SWAP1 KECCAK256 SLOAD PUSH1 0xFF AND SWAP1 JUMP JUMPDEST PUSH1 0x0 DUP3 DUP2 MSTORE PUSH1 0x2 PUSH1 0x20 MSTORE PUSH1 0x40 SWAP1 KECCAK256 PUSH1 0x3 DUP2 ADD SLOAD PUSH1 0x1 PUSH1 0xA8 SHL SWAP1 DIV PUSH1 0xFF AND PUSH2 0x26EC JUMPI PUSH1 0x40 MLOAD PUSH3 0x461BCD PUSH1 0xE5 SHL DUP2 MSTORE PUSH1 0x4 ADD PUSH2 0xE41 SWAP1 PUSH2 0x3C14 JUMP JUMPDEST PUSH1 0x3 DUP2 ADD SLOAD PUSH1 0x1 PUSH1 0x1 PUSH1 0xA0 SHL SUB AND CALLER EQ PUSH2 0x275C JUMPI PUSH1 0x40 MLOAD PUSH3 0x461BCD PUSH1 0xE5 SHL DUP2 MSTORE PUSH1 0x20 PUSH1 0x4 DUP3 ADD MSTORE PUSH1 0x2B PUSH1 0x24 DUP3 ADD MSTORE PUSH32 0x4F6E6C792063757272656E74206F776E65722063616E20757064617465207365 PUSH1 0x44 DUP3 ADD MSTORE PUSH11 0x6C6C696E67207072696365 PUSH1 0xA8 SHL PUSH1 0x64 DUP3 ADD MSTORE PUSH1 0x84 ADD PUSH2 0xE41 JUMP JUMPDEST PUSH1 0x6 DUP2 ADD DUP3 SWAP1 SSTORE PUSH1 0x40 MLOAD DUP3 DUP2 MSTORE CALLER SWAP1 DUP5 SWAP1 PUSH32 0x352687963B7C2914DEF1F529082034CB0C8F9A432EE3F60AFD889DAAE83AA96A SWAP1 PUSH1 0x20 ADD PUSH1 0x40 MLOAD DUP1 SWAP2 SUB SWAP1 LOG3 POP POP POP JUMP JUMPDEST PUSH1 0x0 DUP1 MLOAD PUSH1 0x20 PUSH2 0x3EA7 DUP4 CODECOPY DUP2 MLOAD SWAP2 MSTORE PUSH2 0x1A43 DUP2 PUSH2 0x2FF1 JUMP JUMPDEST PUSH1 0x0 PUSH2 0x27C2 DUP2 PUSH2 0x2FF1 JUMP JUMPDEST PUSH1 0x1 PUSH1 0x1 PUSH1 0xA0 SHL SUB DUP3 AND PUSH2 0x2818 JUMPI PUSH1 0x40 MLOAD PUSH3 0x461BCD PUSH1 0xE5 SHL DUP2 MSTORE PUSH1 0x20 PUSH1 0x4 DUP3 ADD MSTORE PUSH1 0x1C PUSH1 0x24 DUP3 ADD MSTORE PUSH32 0x546F6B656E20616464726573732063616E6E6F74206265207A65726F00000000 PUSH1 0x44 DUP3 ADD MSTORE PUSH1 0x64 ADD PUSH2 0xE41 JUMP JUMPDEST PUSH1 0x0 DUP1 SLOAD PUSH1 0x1 PUSH1 0x1 PUSH1 0xA0 SHL SUB NOT AND PUSH1 0x1 PUSH1 0x1 PUSH1 0xA0 SHL SUB DUP5 AND SWAP1 DUP2 OR DUP3 SSTORE PUSH1 0x40 MLOAD SWAP1 SWAP2 PUSH32 0x284BBD60459A4C88DCCEECA2CDF83CD4D5E796C4F3DFE0EFF9BAA7A06A40DAB6 SWAP2 LOG2 POP POP JUMP JUMPDEST PUSH2 0x286A DUP3 PUSH2 0xDCE JUMP JUMPDEST PUSH2 0x2671 DUP2 PUSH2 0x2FF1 JUMP JUMPDEST PUSH32 0x8EB467F061CA67F42A2D2CA4A346FC9FB645EFC0BA75056EE9F71C3A0CCC10A8 PUSH2 0x289D DUP2 PUSH2 0x2FF1 JUMP JUMPDEST PUSH1 0x0 DUP5 DUP2 MSTORE PUSH1 0x2 PUSH1 0x20 MSTORE PUSH1 0x40 SWAP1 KECCAK256 PUSH1 0x3 DUP2 ADD SLOAD PUSH1 0x1 PUSH1 0xA8 SHL SWAP1 DIV PUSH1 0xFF AND PUSH2 0x28D6 JUMPI PUSH1 0x40 MLOAD PUSH3 0x461BCD PUSH1 0xE5 SHL DUP2 MSTORE PUSH1 0x4 ADD PUSH2 0xE41 SWAP1 PUSH2 0x3C14 JUMP JUMPDEST PUSH1 0x0 DUP6 DUP2 MSTORE PUSH1 0x4 PUSH1 0x20 SWAP1 DUP2 MSTORE PUSH1 0x40 DUP1 DUP4 KECCAK256 DUP2 MLOAD PUSH1 0x60 DUP2 ADD DUP4 MSTORE DUP9 DUP2 MSTORE DUP1 DUP5 ADD DUP9 SWAP1 MSTORE TIMESTAMP SWAP3 DUP2 ADD SWAP3 SWAP1 SWAP3 MSTORE DUP1 SLOAD PUSH1 0x1 DUP2 ADD DUP3 SSTORE SWAP1 DUP5 MSTORE SWAP2 SWAP1 SWAP3 KECCAK256 DUP3 MLOAD PUSH1 0x3 SWAP1 SWAP3 MUL ADD SWAP1 DUP2 SWAP1 PUSH2 0x2924 SWAP1 DUP3 PUSH2 0x3C88 JUMP JUMPDEST POP PUSH1 0x20 DUP3 ADD MLOAD PUSH1 0x1 DUP3 ADD SWAP1 PUSH2 0x2939 SWAP1 DUP3 PUSH2 0x3C88 JUMP JUMPDEST POP PUSH1 0x40 DUP3 ADD MLOAD DUP2 PUSH1 0x2 ADD SSTORE POP POP DUP5 PUSH32 0x990ABEB86E6CFB21342F48FB558B6178010AA5E52BB9881A06312AE992328839 DUP6 DUP6 PUSH1 0x40 MLOAD PUSH2 0x2978 SWAP3 SWAP2 SWAP1 PUSH2 0x3E02 JUMP JUMPDEST PUSH1 0x40 MLOAD DUP1 SWAP2 SUB SWAP1 LOG2 POP POP POP POP POP JUMP JUMPDEST PUSH1 0x0 DUP1 MLOAD PUSH1 0x20 PUSH2 0x3EC7 DUP4 CODECOPY DUP2 MLOAD SWAP2 MSTORE PUSH2 0x299F DUP2 PUSH2 0x2FF1 JUMP JUMPDEST PUSH1 0x0 DUP3 DUP2 MSTORE PUSH1 0x2 PUSH1 0x20 MSTORE PUSH1 0x40 SWAP1 KECCAK256 PUSH1 0x3 DUP2 ADD SLOAD PUSH1 0x1 PUSH1 0x1 PUSH1 0xA0 SHL SUB AND CALLER EQ PUSH2 0x2A09 JUMPI PUSH1 0x40 MLOAD PUSH3 0x461BCD PUSH1 0xE5 SHL DUP2 MSTORE PUSH1 0x20 PUSH1 0x4 DUP3 ADD MSTORE PUSH1 0x1C PUSH1 0x24 DUP3 ADD MSTORE PUSH32 0x4F6E6C79206F776E65722063616E206D61726B20726563656976656400000000 PUSH1 0x44 DUP3 ADD MSTORE PUSH1 0x64 ADD PUSH2 0xE41 JUMP JUMPDEST PUSH1 0x4 PUSH1 0x3 DUP3 ADD SLOAD PUSH1 0x1 PUSH1 0xA0 SHL SWAP1 DIV PUSH1 0xFF AND PUSH1 0x8 DUP2 GT ISZERO PUSH2 0x2A2B JUMPI PUSH2 0x2A2B PUSH2 0x35EB JUMP JUMPDEST EQ PUSH2 0x2A94 JUMPI PUSH1 0x40 MLOAD PUSH3 0x461BCD PUSH1 0xE5 SHL DUP2 MSTORE PUSH1 0x20 PUSH1 0x4 DUP3 ADD MSTORE PUSH1 0x33 PUSH1 0x24 DUP3 ADD MSTORE PUSH32 0x4974656D206D75737420626520696E2044656C69766572656420737461746520 PUSH1 0x44 DUP3 ADD MSTORE PUSH19 0x1D1BC81B585C9AC8185CC81C9958D95A5D9959 PUSH1 0x6A SHL PUSH1 0x64 DUP3 ADD MSTORE PUSH1 0x84 ADD PUSH2 0xE41 JUMP JUMPDEST PUSH1 0x3 DUP2 DUP2 ADD DUP1 SLOAD PUSH1 0xFF PUSH1 0xA0 SHL NOT AND PUSH1 0x5 PUSH1 0xA0 SHL OR SWAP1 SSTORE PUSH1 0x0 DUP5 DUP2 MSTORE PUSH1 0x20 DUP3 DUP2 MSTORE PUSH1 0x40 DUP1 DUP4 KECCAK256 DUP2 MLOAD PUSH1 0x80 DUP2 ADD DUP4 MSTORE PUSH1 0x5 DUP2 MSTORE CALLER DUP2 DUP6 ADD MSTORE TIMESTAMP DUP2 DUP5 ADD MSTORE DUP3 MLOAD DUP1 DUP5 ADD SWAP1 SWAP4 MSTORE PUSH1 0x19 DUP4 MSTORE PUSH25 0x24BA32B6903932B1B2B4BB32B21030BA103932BA30B4B632B9 PUSH1 0x39 SHL DUP4 DUP6 ADD MSTORE PUSH1 0x60 DUP2 ADD SWAP3 SWAP1 SWAP3 MSTORE DUP1 SLOAD PUSH1 0x1 DUP2 DUP2 ADD DUP4 SSTORE SWAP2 DUP6 MSTORE SWAP3 SWAP1 SWAP4 KECCAK256 DUP2 MLOAD SWAP3 SWAP1 SWAP5 MUL SWAP1 SWAP4 ADD DUP1 SLOAD SWAP1 SWAP3 DUP4 SWAP2 PUSH1 0xFF NOT AND SWAP1 DUP4 PUSH1 0x8 DUP2 GT ISZERO PUSH2 0x2B3A JUMPI PUSH2 0x2B3A PUSH2 0x35EB JUMP JUMPDEST MUL OR SWAP1 SSTORE POP PUSH1 0x20 DUP3 ADD MLOAD DUP2 SLOAD PUSH1 0x1 PUSH1 0x1 PUSH1 0xA0 SHL SUB SWAP1 SWAP2 AND PUSH2 0x100 MUL PUSH2 0x100 PUSH1 0x1 PUSH1 0xA8 SHL SUB NOT SWAP1 SWAP2 AND OR DUP2 SSTORE PUSH1 0x40 DUP3 ADD MLOAD PUSH1 0x1 DUP3 ADD SSTORE PUSH1 0x60 DUP3 ADD MLOAD PUSH1 0x2 DUP3 ADD SWAP1 PUSH2 0x2B83 SWAP1 DUP3 PUSH2 0x3C88 JUMP JUMPDEST POP POP POP DUP3 PUSH1 0x0 DUP1 MLOAD PUSH1 0x20 PUSH2 0x3EE7 DUP4 CODECOPY DUP2 MLOAD SWAP2 MSTORE PUSH1 0x5 PUSH1 0x40 MLOAD PUSH2 0x2BA5 SWAP2 SWAP1 PUSH2 0x3E27 JUMP JUMPDEST PUSH1 0x40 MLOAD DUP1 SWAP2 SUB SWAP1 LOG2 POP POP POP JUMP JUMPDEST PUSH1 0x0 DUP3 DUP2 MSTORE PUSH1 0x2 PUSH1 0x20 MSTORE PUSH1 0x40 SWAP1 KECCAK256 PUSH1 0x3 DUP2 ADD SLOAD PUSH1 0x1 PUSH1 0xA8 SHL SWAP1 DIV PUSH1 0xFF AND PUSH2 0x2BEB JUMPI PUSH1 0x40 MLOAD PUSH3 0x461BCD PUSH1 0xE5 SHL DUP2 MSTORE PUSH1 0x4 ADD PUSH2 0xE41 SWAP1 PUSH2 0x3C14 JUMP JUMPDEST PUSH1 0x3 DUP2 ADD SLOAD PUSH1 0x1 PUSH1 0x1 PUSH1 0xA0 SHL SUB AND CALLER EQ PUSH2 0x2C58 JUMPI PUSH1 0x40 MLOAD PUSH3 0x461BCD PUSH1 0xE5 SHL DUP2 MSTORE PUSH1 0x20 PUSH1 0x4 DUP3 ADD MSTORE PUSH1 0x28 PUSH1 0x24 DUP3 ADD MSTORE PUSH32 0x4F6E6C792063757272656E74206F776E65722063616E20696E69746961746520 PUSH1 0x44 DUP3 ADD MSTORE PUSH8 0x3A3930B739B332B9 PUSH1 0xC1 SHL PUSH1 0x64 DUP3 ADD MSTORE PUSH1 0x84 ADD PUSH2 0xE41 JUMP JUMPDEST PUSH2 0x2C70 PUSH1 0x0 DUP1 MLOAD PUSH1 0x20 PUSH2 0x3E87 DUP4 CODECOPY DUP2 MLOAD SWAP2 MSTORE DUP4 PUSH2 0x267B JUMP JUMPDEST DUP1 PUSH2 0x2C8E JUMPI POP PUSH2 0x2C8E PUSH1 0x0 DUP1 MLOAD PUSH1 0x20 PUSH2 0x3EA7 DUP4 CODECOPY DUP2 MLOAD SWAP2 MSTORE DUP4 PUSH2 0x267B JUMP JUMPDEST DUP1 PUSH2 0x2CAC JUMPI POP PUSH2 0x2CAC PUSH1 0x0 DUP1 MLOAD PUSH1 0x20 PUSH2 0x3EC7 DUP4 CODECOPY DUP2 MLOAD SWAP2 MSTORE DUP4 PUSH2 0x267B JUMP JUMPDEST PUSH2 0x2CF0 JUMPI PUSH1 0x40 MLOAD PUSH3 0x461BCD PUSH1 0xE5 SHL DUP2 MSTORE PUSH1 0x20 PUSH1 0x4 DUP3 ADD MSTORE PUSH1 0x15 PUSH1 0x24 DUP3 ADD MSTORE PUSH21 0x496E76616C696420726563656976657220726F6C65 PUSH1 0x58 SHL PUSH1 0x44 DUP3 ADD MSTORE PUSH1 0x64 ADD PUSH2 0xE41 JUMP JUMPDEST PUSH1 0x0 DUP4 DUP2 MSTORE PUSH1 0x5 PUSH1 0x20 MSTORE PUSH1 0x40 SWAP1 KECCAK256 SLOAD PUSH1 0x1 PUSH1 0x1 PUSH1 0xA0 SHL SUB AND ISZERO PUSH2 0x2D65 JUMPI PUSH1 0x40 MLOAD PUSH3 0x461BCD PUSH1 0xE5 SHL DUP2 MSTORE PUSH1 0x20 PUSH1 0x4 DUP3 ADD MSTORE PUSH1 0x27 PUSH1 0x24 DUP3 ADD MSTORE PUSH32 0x4578697374696E67207472616E736665722070656E64696E6720666F72207468 PUSH1 0x44 DUP3 ADD MSTORE PUSH7 0x6973206974656D PUSH1 0xC8 SHL PUSH1 0x64 DUP3 ADD MSTORE PUSH1 0x84 ADD PUSH2 0xE41 JUMP JUMPDEST PUSH1 0x40 MLOAD DUP1 PUSH1 0x80 ADD PUSH1 0x40 MSTORE DUP1 PUSH2 0x2D77 CALLER SWAP1 JUMP JUMPDEST PUSH1 0x1 PUSH1 0x1 PUSH1 0xA0 SHL SUB SWAP1 DUP2 AND DUP3 MSTORE DUP5 DUP2 AND PUSH1 0x20 DUP1 DUP5 ADD SWAP2 SWAP1 SWAP2 MSTORE PUSH1 0x1 PUSH1 0x40 DUP1 DUP6 ADD DUP3 SWAP1 MSTORE PUSH1 0x0 PUSH1 0x60 SWAP6 DUP7 ADD DUP2 SWAP1 MSTORE DUP10 DUP2 MSTORE PUSH1 0x5 DUP5 MSTORE DUP2 SWAP1 KECCAK256 DUP7 MLOAD DUP2 SLOAD SWAP1 DUP7 AND PUSH1 0x1 PUSH1 0x1 PUSH1 0xA0 SHL SUB NOT SWAP1 SWAP2 AND OR DUP2 SSTORE SWAP3 DUP7 ADD MLOAD SWAP3 SWAP1 SWAP2 ADD DUP1 SLOAD SWAP2 DUP7 ADD MLOAD SWAP6 SWAP1 SWAP5 ADD MLOAD ISZERO ISZERO PUSH1 0x1 PUSH1 0xA8 SHL MUL PUSH1 0xFF PUSH1 0xA8 SHL NOT SWAP6 ISZERO ISZERO PUSH1 0x1 PUSH1 0xA0 SHL MUL PUSH1 0x1 PUSH1 0x1 PUSH1 0xA8 SHL SUB NOT SWAP1 SWAP3 AND SWAP3 SWAP1 SWAP4 AND SWAP2 SWAP1 SWAP2 OR OR SWAP3 SWAP1 SWAP3 AND SWAP2 SWAP1 SWAP2 OR SWAP1 SSTORE PUSH2 0x2E25 PUSH1 0x0 DUP1 MLOAD PUSH1 0x20 PUSH2 0x3E87 DUP4 CODECOPY DUP2 MLOAD SWAP2 MSTORE DUP4 PUSH2 0x267B JUMP JUMPDEST DUP1 PUSH2 0x2E43 JUMPI POP PUSH2 0x2E43 PUSH1 0x0 DUP1 MLOAD PUSH1 0x20 PUSH2 0x3EA7 DUP4 CODECOPY DUP2 MLOAD SWAP2 MSTORE DUP4 PUSH2 0x267B JUMP JUMPDEST ISZERO PUSH2 0x2E62 JUMPI PUSH1 0x3 DUP2 ADD DUP1 SLOAD PUSH1 0xFF PUSH1 0xA0 SHL NOT AND PUSH1 0x1 PUSH1 0xA0 SHL OR SWAP1 SSTORE PUSH2 0x2E95 JUMP JUMPDEST PUSH2 0x2E7A PUSH1 0x0 DUP1 MLOAD PUSH1 0x20 PUSH2 0x3EC7 DUP4 CODECOPY DUP2 MLOAD SWAP2 MSTORE DUP4 PUSH2 0x267B JUMP JUMPDEST ISZERO PUSH2 0x2E95 JUMPI PUSH1 0x3 DUP2 ADD DUP1 SLOAD PUSH1 0xFF PUSH1 0xA0 SHL NOT AND PUSH1 0x3 PUSH1 0xA0 SHL OR SWAP1 SSTORE JUMPDEST PUSH1 0x3 PUSH1 0x0 DUP5 DUP2 MSTORE PUSH1 0x20 ADD SWAP1 DUP2 MSTORE PUSH1 0x20 ADD PUSH1 0x0 KECCAK256 PUSH1 0x40 MLOAD DUP1 PUSH1 0x80 ADD PUSH1 0x40 MSTORE DUP1 DUP4 PUSH1 0x3 ADD PUSH1 0x14 SWAP1 SLOAD SWAP1 PUSH2 0x100 EXP SWAP1 DIV PUSH1 0xFF AND PUSH1 0x8 DUP2 GT ISZERO PUSH2 0x2ED6 JUMPI PUSH2 0x2ED6 PUSH2 0x35EB JUMP JUMPDEST DUP2 MSTORE PUSH1 0x20 ADD CALLER PUSH1 0x1 PUSH1 0x1 PUSH1 0xA0 SHL SUB AND DUP2 MSTORE TIMESTAMP PUSH1 0x20 DUP1 DUP4 ADD SWAP2 SWAP1 SWAP2 MSTORE PUSH1 0x40 DUP1 MLOAD DUP1 DUP3 ADD DUP3 MSTORE PUSH1 0x12 DUP2 MSTORE PUSH18 0x151C985B9CD9995C881A5B9A5D1A585D1959 PUSH1 0x72 SHL DUP2 DUP5 ADD MSTORE SWAP3 ADD SWAP2 SWAP1 SWAP2 MSTORE DUP3 SLOAD PUSH1 0x1 DUP2 DUP2 ADD DUP6 SSTORE PUSH1 0x0 SWAP5 DUP6 MSTORE SWAP2 SWAP1 SWAP4 KECCAK256 DUP3 MLOAD PUSH1 0x3 SWAP1 SWAP5 MUL ADD DUP1 SLOAD SWAP3 SWAP4 SWAP1 SWAP3 SWAP1 SWAP2 DUP4 SWAP2 PUSH1 0xFF NOT AND SWAP1 DUP4 PUSH1 0x8 DUP2 GT ISZERO PUSH2 0x2F59 JUMPI PUSH2 0x2F59 PUSH2 0x35EB JUMP JUMPDEST MUL OR SWAP1 SSTORE POP PUSH1 0x20 DUP3 ADD MLOAD DUP2 SLOAD PUSH1 0x1 PUSH1 0x1 PUSH1 0xA0 SHL SUB SWAP1 SWAP2 AND PUSH2 0x100 MUL PUSH2 0x100 PUSH1 0x1 PUSH1 0xA8 SHL SUB NOT SWAP1 SWAP2 AND OR DUP2 SSTORE PUSH1 0x40 DUP3 ADD MLOAD PUSH1 0x1 DUP3 ADD SSTORE PUSH1 0x60 DUP3 ADD MLOAD PUSH1 0x2 DUP3 ADD SWAP1 PUSH2 0x2FA2 SWAP1 DUP3 PUSH2 0x3C88 JUMP JUMPDEST POP POP POP DUP2 PUSH1 0x1 PUSH1 0x1 PUSH1 0xA0 SHL SUB AND PUSH2 0x2FB6 CALLER SWAP1 JUMP JUMPDEST PUSH1 0x1 PUSH1 0x1 PUSH1 0xA0 SHL SUB AND DUP5 PUSH32 0x342D38E01A2764DDE5384CE69DF459BF7C7CD213CF5C4531154CDFFC612D818C PUSH1 0x40 MLOAD PUSH1 0x40 MLOAD DUP1 SWAP2 SUB SWAP1 LOG4 POP POP POP JUMP JUMPDEST PUSH2 0x2FFB DUP2 CALLER PUSH2 0x3308 JUMP JUMPDEST POP JUMP JUMPDEST PUSH1 0x0 PUSH1 0x0 DUP1 MLOAD PUSH1 0x20 PUSH2 0x3F27 DUP4 CODECOPY DUP2 MLOAD SWAP2 MSTORE PUSH2 0x3019 DUP5 DUP5 PUSH2 0x267B JUMP JUMPDEST PUSH2 0x3099 JUMPI PUSH1 0x0 DUP5 DUP2 MSTORE PUSH1 0x20 DUP3 DUP2 MSTORE PUSH1 0x40 DUP1 DUP4 KECCAK256 PUSH1 0x1 PUSH1 0x1 PUSH1 0xA0 SHL SUB DUP8 AND DUP5 MSTORE SWAP1 SWAP2 MSTORE SWAP1 KECCAK256 DUP1 SLOAD PUSH1 0xFF NOT AND PUSH1 0x1 OR SWAP1 SSTORE PUSH2 0x304F CALLER SWAP1 JUMP JUMPDEST PUSH1 0x1 PUSH1 0x1 PUSH1 0xA0 SHL SUB AND DUP4 PUSH1 0x1 PUSH1 0x1 PUSH1 0xA0 SHL SUB AND DUP6 PUSH32 0x2F8788117E7EFF1D82E926EC794901D17C78024A50270940304540A733656F0D PUSH1 0x40 MLOAD PUSH1 0x40 MLOAD DUP1 SWAP2 SUB SWAP1 LOG4 PUSH1 0x1 SWAP2 POP POP PUSH2 0x8FC JUMP JUMPDEST PUSH1 0x0 SWAP2 POP POP PUSH2 0x8FC JUMP JUMPDEST PUSH1 0x0 PUSH1 0x0 DUP1 MLOAD PUSH1 0x20 PUSH2 0x3F27 DUP4 CODECOPY DUP2 MLOAD SWAP2 MSTORE PUSH2 0x30BE DUP5 DUP5 PUSH2 0x267B JUMP JUMPDEST ISZERO PUSH2 0x3099 JUMPI PUSH1 0x0 DUP5 DUP2 MSTORE PUSH1 0x20 DUP3 DUP2 MSTORE PUSH1 0x40 DUP1 DUP4 KECCAK256 PUSH1 0x1 PUSH1 0x1 PUSH1 0xA0 SHL SUB DUP8 AND DUP1 DUP6 MSTORE SWAP3 MSTORE DUP1 DUP4 KECCAK256 DUP1 SLOAD PUSH1 0xFF NOT AND SWAP1 SSTORE MLOAD CALLER SWAP3 DUP8 SWAP2 PUSH32 0xF6391F5C32D9C69D2A47EA670B442974B53935D1EDC7FD64EB21E047A839171B SWAP2 SWAP1 LOG4 PUSH1 0x1 SWAP2 POP POP PUSH2 0x8FC JUMP JUMPDEST ADDRESS PUSH1 0x1 PUSH1 0x1 PUSH1 0xA0 SHL SUB PUSH32 0x0 AND EQ DUP1 PUSH2 0x31A6 JUMPI POP PUSH32 0x0 PUSH1 0x1 PUSH1 0x1 PUSH1 0xA0 SHL SUB AND PUSH2 0x319A PUSH1 0x0 DUP1 MLOAD PUSH1 0x20 PUSH2 0x3F07 DUP4 CODECOPY DUP2 MLOAD SWAP2 MSTORE SLOAD PUSH1 0x1 PUSH1 0x1 PUSH1 0xA0 SHL SUB AND SWAP1 JUMP JUMPDEST PUSH1 0x1 PUSH1 0x1 PUSH1 0xA0 SHL SUB AND EQ ISZERO JUMPDEST ISZERO PUSH2 0x31C4 JUMPI PUSH1 0x40 MLOAD PUSH4 0x703E46DD PUSH1 0xE1 SHL DUP2 MSTORE PUSH1 0x4 ADD PUSH1 0x40 MLOAD DUP1 SWAP2 SUB SWAP1 REVERT JUMPDEST JUMP JUMPDEST PUSH1 0x0 PUSH2 0x1A27 DUP2 PUSH2 0x2FF1 JUMP JUMPDEST DUP2 PUSH1 0x1 PUSH1 0x1 PUSH1 0xA0 SHL SUB AND PUSH4 0x52D1902D PUSH1 0x40 MLOAD DUP2 PUSH4 0xFFFFFFFF AND PUSH1 0xE0 SHL DUP2 MSTORE PUSH1 0x4 ADD PUSH1 0x20 PUSH1 0x40 MLOAD DUP1 DUP4 SUB DUP2 DUP7 GAS STATICCALL SWAP3 POP POP POP DUP1 ISZERO PUSH2 0x322B JUMPI POP PUSH1 0x40 DUP1 MLOAD PUSH1 0x1F RETURNDATASIZE SWAP1 DUP2 ADD PUSH1 0x1F NOT AND DUP3 ADD SWAP1 SWAP3 MSTORE PUSH2 0x3228 SWAP2 DUP2 ADD SWAP1 PUSH2 0x3D6F JUMP JUMPDEST PUSH1 0x1 JUMPDEST PUSH2 0x3253 JUMPI PUSH1 0x40 MLOAD PUSH4 0x4C9C8CE3 PUSH1 0xE0 SHL DUP2 MSTORE PUSH1 0x1 PUSH1 0x1 PUSH1 0xA0 SHL SUB DUP4 AND PUSH1 0x4 DUP3 ADD MSTORE PUSH1 0x24 ADD PUSH2 0xE41 JUMP JUMPDEST PUSH1 0x0 DUP1 MLOAD PUSH1 0x20 PUSH2 0x3F07 DUP4 CODECOPY DUP2 MLOAD SWAP2 MSTORE DUP2 EQ PUSH2 0x3284 JUMPI PUSH1 0x40 MLOAD PUSH4 0x2A875269 PUSH1 0xE2 SHL DUP2 MSTORE PUSH1 0x4 DUP2 ADD DUP3 SWAP1 MSTORE PUSH1 0x24 ADD PUSH2 0xE41 JUMP JUMPDEST PUSH2 0xF95 DUP4 DUP4 PUSH2 0x3341 JUMP JUMPDEST ADDRESS PUSH1 0x1 PUSH1 0x1 PUSH1 0xA0 SHL SUB PUSH32 0x0 AND EQ PUSH2 0x31C4 JUMPI PUSH1 0x40 MLOAD PUSH4 0x703E46DD PUSH1 0xE1 SHL DUP2 MSTORE PUSH1 0x4 ADD PUSH1 0x40 MLOAD DUP1 SWAP2 SUB SWAP1 REVERT JUMPDEST PUSH1 0x0 DUP1 PUSH32 0xF0C57E16840DF040F15088DC2F81FE391C3923BEC73E23A9662EFC9C229C6A00 PUSH2 0x8FC JUMP JUMPDEST PUSH2 0x31C4 PUSH2 0x3397 JUMP JUMPDEST PUSH2 0x3312 DUP3 DUP3 PUSH2 0x267B JUMP JUMPDEST PUSH2 0x1A27 JUMPI PUSH1 0x40 MLOAD PUSH4 0xE2517D3F PUSH1 0xE0 SHL DUP2 MSTORE PUSH1 0x1 PUSH1 0x1 PUSH1 0xA0 SHL SUB DUP3 AND PUSH1 0x4 DUP3 ADD MSTORE PUSH1 0x24 DUP2 ADD DUP4 SWAP1 MSTORE PUSH1 0x44 ADD PUSH2 0xE41 JUMP JUMPDEST PUSH2 0x334A DUP3 PUSH2 0x33BC JUMP JUMPDEST PUSH1 0x40 MLOAD PUSH1 0x1 PUSH1 0x1 PUSH1 0xA0 SHL SUB DUP4 AND SWAP1 PUSH32 0xBC7CD75A20EE27FD9ADEBAB32041F755214DBC6BFFA90CC0225B39DA2E5C2D3B SWAP1 PUSH1 0x0 SWAP1 LOG2 DUP1 MLOAD ISZERO PUSH2 0x338F JUMPI PUSH2 0xF95 DUP3 DUP3 PUSH2 0x3421 JUMP JUMPDEST PUSH2 0x1A27 PUSH2 0x3497 JUMP JUMPDEST PUSH2 0x339F PUSH2 0x34B6 JUMP JUMPDEST PUSH2 0x31C4 JUMPI PUSH1 0x40 MLOAD PUSH4 0x1AFCD79F PUSH1 0xE3 SHL DUP2 MSTORE PUSH1 0x4 ADD PUSH1 0x40 MLOAD DUP1 SWAP2 SUB SWAP1 REVERT JUMPDEST DUP1 PUSH1 0x1 PUSH1 0x1 PUSH1 0xA0 SHL SUB AND EXTCODESIZE PUSH1 0x0 SUB PUSH2 0x33F2 JUMPI PUSH1 0x40 MLOAD PUSH4 0x4C9C8CE3 PUSH1 0xE0 SHL DUP2 MSTORE PUSH1 0x1 PUSH1 0x1 PUSH1 0xA0 SHL SUB DUP3 AND PUSH1 0x4 DUP3 ADD MSTORE PUSH1 0x24 ADD PUSH2 0xE41 JUMP JUMPDEST PUSH1 0x0 DUP1 MLOAD PUSH1 0x20 PUSH2 0x3F07 DUP4 CODECOPY DUP2 MLOAD SWAP2 MSTORE DUP1 SLOAD PUSH1 0x1 PUSH1 0x1 PUSH1 0xA0 SHL SUB NOT AND PUSH1 0x1 PUSH1 0x1 PUSH1 0xA0 SHL SUB SWAP3 SWAP1 SWAP3 AND SWAP2 SWAP1 SWAP2 OR SWAP1 SSTORE JUMP JUMPDEST PUSH1 0x60 PUSH1 0x0 DUP1 DUP5 PUSH1 0x1 PUSH1 0x1 PUSH1 0xA0 SHL SUB AND DUP5 PUSH1 0x40 MLOAD PUSH2 0x343E SWAP2 SWAP1 PUSH2 0x3E6A JUMP JUMPDEST PUSH1 0x0 PUSH1 0x40 MLOAD DUP1 DUP4 SUB DUP2 DUP6 GAS DELEGATECALL SWAP2 POP POP RETURNDATASIZE DUP1 PUSH1 0x0 DUP2 EQ PUSH2 0x3479 JUMPI PUSH1 0x40 MLOAD SWAP2 POP PUSH1 0x1F NOT PUSH1 0x3F RETURNDATASIZE ADD AND DUP3 ADD PUSH1 0x40 MSTORE RETURNDATASIZE DUP3 MSTORE RETURNDATASIZE PUSH1 0x0 PUSH1 0x20 DUP5 ADD RETURNDATACOPY PUSH2 0x347E JUMP JUMPDEST PUSH1 0x60 SWAP2 POP JUMPDEST POP SWAP2 POP SWAP2 POP PUSH2 0x348E DUP6 DUP4 DUP4 PUSH2 0x34D0 JUMP JUMPDEST SWAP6 SWAP5 POP POP POP POP POP JUMP JUMPDEST CALLVALUE ISZERO PUSH2 0x31C4 JUMPI PUSH1 0x40 MLOAD PUSH4 0xB398979F PUSH1 0xE0 SHL DUP2 MSTORE PUSH1 0x4 ADD PUSH1 0x40 MLOAD DUP1 SWAP2 SUB SWAP1 REVERT JUMPDEST PUSH1 0x0 PUSH2 0x34C0 PUSH2 0x32D7 JUMP JUMPDEST SLOAD PUSH1 0x1 PUSH1 0x40 SHL SWAP1 DIV PUSH1 0xFF AND SWAP2 SWAP1 POP JUMP JUMPDEST PUSH1 0x60 DUP3 PUSH2 0x34E5 JUMPI PUSH2 0x34E0 DUP3 PUSH2 0x352F JUMP JUMPDEST PUSH2 0x3528 JUMP JUMPDEST DUP2 MLOAD ISZERO DUP1 ISZERO PUSH2 0x34FC JUMPI POP PUSH1 0x1 PUSH1 0x1 PUSH1 0xA0 SHL SUB DUP5 AND EXTCODESIZE ISZERO JUMPDEST ISZERO PUSH2 0x3525 JUMPI PUSH1 0x40 MLOAD PUSH4 0x9996B315 PUSH1 0xE0 SHL DUP2 MSTORE PUSH1 0x1 PUSH1 0x1 PUSH1 0xA0 SHL SUB DUP6 AND PUSH1 0x4 DUP3 ADD MSTORE PUSH1 0x24 ADD PUSH2 0xE41 JUMP JUMPDEST POP DUP1 JUMPDEST SWAP4 SWAP3 POP POP POP JUMP JUMPDEST DUP1 MLOAD ISZERO PUSH2 0x353F JUMPI DUP1 MLOAD DUP1 DUP3 PUSH1 0x20 ADD REVERT JUMPDEST PUSH1 0x40 MLOAD PUSH4 0xD6BDA275 PUSH1 0xE0 SHL DUP2 MSTORE PUSH1 0x4 ADD PUSH1 0x40 MLOAD DUP1 SWAP2 SUB SWAP1 REVERT JUMPDEST PUSH1 0x0 PUSH1 0x20 DUP3 DUP5 SUB SLT ISZERO PUSH2 0x356A JUMPI PUSH1 0x0 DUP1 REVERT JUMPDEST DUP2 CALLDATALOAD PUSH1 0x1 PUSH1 0x1 PUSH1 0xE0 SHL SUB NOT DUP2 AND DUP2 EQ PUSH2 0x3528 JUMPI PUSH1 0x0 DUP1 REVERT JUMPDEST PUSH1 0x0 PUSH1 0x20 DUP3 DUP5 SUB SLT ISZERO PUSH2 0x3594 JUMPI PUSH1 0x0 DUP1 REVERT JUMPDEST POP CALLDATALOAD SWAP2 SWAP1 POP JUMP JUMPDEST PUSH1 0x0 JUMPDEST DUP4 DUP2 LT ISZERO PUSH2 0x35B6 JUMPI DUP2 DUP2 ADD MLOAD DUP4 DUP3 ADD MSTORE PUSH1 0x20 ADD PUSH2 0x359E JUMP JUMPDEST POP POP PUSH1 0x0 SWAP2 ADD MSTORE JUMP JUMPDEST PUSH1 0x0 DUP2 MLOAD DUP1 DUP5 MSTORE PUSH2 0x35D7 DUP2 PUSH1 0x20 DUP7 ADD PUSH1 0x20 DUP7 ADD PUSH2 0x359B JUMP JUMPDEST PUSH1 0x1F ADD PUSH1 0x1F NOT AND SWAP3 SWAP1 SWAP3 ADD PUSH1 0x20 ADD SWAP3 SWAP2 POP POP JUMP JUMPDEST PUSH4 0x4E487B71 PUSH1 0xE0 SHL PUSH1 0x0 MSTORE PUSH1 0x21 PUSH1 0x4 MSTORE PUSH1 0x24 PUSH1 0x0 REVERT JUMPDEST PUSH1 0x9 DUP2 LT PUSH2 0x361F JUMPI PUSH4 0x4E487B71 PUSH1 0xE0 SHL PUSH1 0x0 MSTORE PUSH1 0x21 PUSH1 0x4 MSTORE PUSH1 0x24 PUSH1 0x0 REVERT JUMPDEST SWAP1 MSTORE JUMP JUMPDEST PUSH1 0x20 DUP2 MSTORE DUP2 MLOAD PUSH1 0x20 DUP3 ADD MSTORE PUSH1 0x0 PUSH1 0x20 DUP4 ADD MLOAD PUSH2 0x120 PUSH1 0x40 DUP5 ADD MSTORE PUSH2 0x364B PUSH2 0x140 DUP5 ADD DUP3 PUSH2 0x35BF JUMP JUMPDEST SWAP1 POP PUSH1 0x40 DUP5 ADD MLOAD PUSH1 0x1F NOT DUP5 DUP4 SUB ADD PUSH1 0x60 DUP6 ADD MSTORE PUSH2 0x3668 DUP3 DUP3 PUSH2 0x35BF JUMP JUMPDEST SWAP2 POP POP PUSH1 0x60 DUP5 ADD MLOAD PUSH2 0x3685 PUSH1 0x80 DUP6 ADD DUP3 PUSH1 0x1 PUSH1 0x1 PUSH1 0xA0 SHL SUB AND SWAP1 MSTORE JUMP JUMPDEST POP PUSH1 0x80 DUP5 ADD MLOAD PUSH2 0x3698 PUSH1 0xA0 DUP6 ADD DUP3 PUSH2 0x3601 JUMP JUMPDEST POP PUSH1 0xA0 DUP5 ADD MLOAD DUP1 ISZERO ISZERO PUSH1 0xC0 DUP6 ADD MSTORE POP PUSH1 0xC0 DUP5 ADD MLOAD PUSH1 0xE0 DUP5 ADD MSTORE PUSH1 0xE0 DUP5 ADD MLOAD PUSH2 0x100 DUP5 ADD MSTORE PUSH2 0x100 DUP5 ADD MLOAD PUSH2 0x120 DUP5 ADD MSTORE DUP1 SWAP2 POP POP SWAP3 SWAP2 POP POP JUMP JUMPDEST PUSH1 0x0 DUP1 PUSH1 0x40 DUP4 DUP6 SUB SLT ISZERO PUSH2 0x36E5 JUMPI PUSH1 0x0 DUP1 REVERT JUMPDEST POP POP DUP1 CALLDATALOAD SWAP3 PUSH1 0x20 SWAP1 SWAP2 ADD CALLDATALOAD SWAP2 POP JUMP JUMPDEST PUSH1 0x60 DUP2 MSTORE PUSH1 0x0 PUSH2 0x3707 PUSH1 0x60 DUP4 ADD DUP7 PUSH2 0x35BF JUMP JUMPDEST DUP3 DUP2 SUB PUSH1 0x20 DUP5 ADD MSTORE PUSH2 0x3719 DUP2 DUP7 PUSH2 0x35BF JUMP JUMPDEST SWAP2 POP POP DUP3 PUSH1 0x40 DUP4 ADD MSTORE SWAP5 SWAP4 POP POP POP POP JUMP JUMPDEST PUSH1 0x0 PUSH1 0x20 DUP3 ADD PUSH1 0x20 DUP4 MSTORE DUP1 DUP5 MLOAD DUP1 DUP4 MSTORE PUSH1 0x40 DUP6 ADD SWAP2 POP PUSH1 0x40 DUP2 PUSH1 0x5 SHL DUP7 ADD ADD SWAP3 POP PUSH1 0x20 DUP7 ADD PUSH1 0x0 JUMPDEST DUP3 DUP2 LT ISZERO PUSH2 0x37BD JUMPI PUSH1 0x3F NOT DUP8 DUP7 SUB ADD DUP5 MSTORE DUP2 MLOAD PUSH2 0x3770 DUP7 DUP3 MLOAD PUSH2 0x3601 JUMP JUMPDEST PUSH1 0x1 DUP1 PUSH1 0xA0 SHL SUB PUSH1 0x20 DUP3 ADD MLOAD AND PUSH1 0x20 DUP8 ADD MSTORE PUSH1 0x40 DUP2 ADD MLOAD PUSH1 0x40 DUP8 ADD MSTORE PUSH1 0x60 DUP2 ADD MLOAD SWAP1 POP PUSH1 0x80 PUSH1 0x60 DUP8 ADD MSTORE PUSH2 0x37A7 PUSH1 0x80 DUP8 ADD DUP3 PUSH2 0x35BF JUMP JUMPDEST SWAP6 POP POP PUSH1 0x20 SWAP4 DUP5 ADD SWAP4 SWAP2 SWAP1 SWAP2 ADD SWAP1 PUSH1 0x1 ADD PUSH2 0x3752 JUMP JUMPDEST POP SWAP3 SWAP7 SWAP6 POP POP POP POP POP POP JUMP JUMPDEST PUSH4 0x4E487B71 PUSH1 0xE0 SHL PUSH1 0x0 MSTORE PUSH1 0x41 PUSH1 0x4 MSTORE PUSH1 0x24 PUSH1 0x0 REVERT JUMPDEST PUSH1 0x0 DUP1 PUSH8 0xFFFFFFFFFFFFFFFF DUP5 GT ISZERO PUSH2 0x37FA JUMPI PUSH2 0x37FA PUSH2 0x37C9 JUMP JUMPDEST POP PUSH1 0x40 MLOAD PUSH1 0x1F NOT PUSH1 0x1F DUP6 ADD DUP2 AND PUSH1 0x3F ADD AND DUP2 ADD DUP2 DUP2 LT PUSH8 0xFFFFFFFFFFFFFFFF DUP3 GT OR ISZERO PUSH2 0x3829 JUMPI PUSH2 0x3829 PUSH2 0x37C9 JUMP JUMPDEST PUSH1 0x40 MSTORE DUP4 DUP2 MSTORE SWAP1 POP DUP1 DUP3 DUP5 ADD DUP6 LT ISZERO PUSH2 0x3841 JUMPI PUSH1 0x0 DUP1 REVERT JUMPDEST DUP4 DUP4 PUSH1 0x20 DUP4 ADD CALLDATACOPY PUSH1 0x0 PUSH1 0x20 DUP6 DUP4 ADD ADD MSTORE POP SWAP4 SWAP3 POP POP POP JUMP JUMPDEST PUSH1 0x0 DUP3 PUSH1 0x1F DUP4 ADD SLT PUSH2 0x386A JUMPI PUSH1 0x0 DUP1 REVERT JUMPDEST PUSH2 0x3528 DUP4 DUP4 CALLDATALOAD PUSH1 0x20 DUP6 ADD PUSH2 0x37DF JUMP JUMPDEST PUSH1 0x0 DUP1 PUSH1 0x40 DUP4 DUP6 SUB SLT ISZERO PUSH2 0x388C JUMPI PUSH1 0x0 DUP1 REVERT JUMPDEST DUP3 CALLDATALOAD SWAP2 POP PUSH1 0x20 DUP4 ADD CALLDATALOAD PUSH8 0xFFFFFFFFFFFFFFFF DUP2 GT ISZERO PUSH2 0x38AA JUMPI PUSH1 0x0 DUP1 REVERT JUMPDEST PUSH2 0x38B6 DUP6 DUP3 DUP7 ADD PUSH2 0x3859 JUMP JUMPDEST SWAP2 POP POP SWAP3 POP SWAP3 SWAP1 POP JUMP JUMPDEST DUP1 CALLDATALOAD PUSH1 0x1 PUSH1 0x1 PUSH1 0xA0 SHL SUB DUP2 AND DUP2 EQ PUSH2 0x38D7 JUMPI PUSH1 0x0 DUP1 REVERT JUMPDEST SWAP2 SWAP1 POP JUMP JUMPDEST PUSH1 0x0 DUP1 PUSH1 0x40 DUP4 DUP6 SUB SLT ISZERO PUSH2 0x38EF JUMPI PUSH1 0x0 DUP1 REVERT JUMPDEST DUP3 CALLDATALOAD SWAP2 POP PUSH2 0x38FF PUSH1 0x20 DUP5 ADD PUSH2 0x38C0 JUMP JUMPDEST SWAP1 POP SWAP3 POP SWAP3 SWAP1 POP JUMP JUMPDEST PUSH1 0x0 PUSH1 0x20 DUP3 ADD PUSH1 0x20 DUP4 MSTORE DUP1 DUP5 MLOAD DUP1 DUP4 MSTORE PUSH1 0x40 DUP6 ADD SWAP2 POP PUSH1 0x40 DUP2 PUSH1 0x5 SHL DUP7 ADD ADD SWAP3 POP PUSH1 0x20 DUP7 ADD PUSH1 0x0 JUMPDEST DUP3 DUP2 LT ISZERO PUSH2 0x37BD JUMPI PUSH1 0x3F NOT DUP8 DUP7 SUB ADD DUP5 MSTORE DUP2 MLOAD DUP1 MLOAD PUSH1 0x60 DUP8 MSTORE PUSH2 0x3956 PUSH1 0x60 DUP9 ADD DUP3 PUSH2 0x35BF JUMP JUMPDEST SWAP1 POP PUSH1 0x20 DUP3 ADD MLOAD DUP8 DUP3 SUB PUSH1 0x20 DUP10 ADD MSTORE PUSH2 0x396F DUP3 DUP3 PUSH2 0x35BF JUMP JUMPDEST PUSH1 0x40 SWAP4 DUP5 ADD MLOAD SWAP9 SWAP1 SWAP4 ADD SWAP8 SWAP1 SWAP8 MSTORE POP SWAP5 POP PUSH1 0x20 SWAP4 DUP5 ADD SWAP4 SWAP2 SWAP1 SWAP2 ADD SWAP1 PUSH1 0x1 ADD PUSH2 0x3930 JUMP JUMPDEST DUP10 DUP2 MSTORE PUSH2 0x120 PUSH1 0x20 DUP3 ADD MSTORE PUSH1 0x0 PUSH2 0x39AE PUSH2 0x120 DUP4 ADD DUP12 PUSH2 0x35BF JUMP JUMPDEST DUP3 DUP2 SUB PUSH1 0x40 DUP5 ADD MSTORE PUSH2 0x39C0 DUP2 DUP12 PUSH2 0x35BF JUMP JUMPDEST PUSH1 0x1 PUSH1 0x1 PUSH1 0xA0 SHL SUB DUP11 AND PUSH1 0x60 DUP6 ADD MSTORE SWAP2 POP PUSH2 0x39E0 SWAP1 POP PUSH1 0x80 DUP4 ADD DUP9 PUSH2 0x3601 JUMP JUMPDEST SWAP5 ISZERO ISZERO PUSH1 0xA0 DUP3 ADD MSTORE PUSH1 0xC0 DUP2 ADD SWAP4 SWAP1 SWAP4 MSTORE PUSH1 0xE0 DUP4 ADD SWAP2 SWAP1 SWAP2 MSTORE PUSH2 0x100 SWAP1 SWAP2 ADD MSTORE SWAP6 SWAP5 POP POP POP POP POP JUMP JUMPDEST PUSH1 0x0 DUP1 PUSH1 0x40 DUP4 DUP6 SUB SLT ISZERO PUSH2 0x3A1B JUMPI PUSH1 0x0 DUP1 REVERT JUMPDEST PUSH2 0x3A24 DUP4 PUSH2 0x38C0 JUMP JUMPDEST SWAP2 POP PUSH1 0x20 DUP4 ADD CALLDATALOAD PUSH8 0xFFFFFFFFFFFFFFFF DUP2 GT ISZERO PUSH2 0x3A40 JUMPI PUSH1 0x0 DUP1 REVERT JUMPDEST DUP4 ADD PUSH1 0x1F DUP2 ADD DUP6 SGT PUSH2 0x3A51 JUMPI PUSH1 0x0 DUP1 REVERT JUMPDEST PUSH2 0x38B6 DUP6 DUP3 CALLDATALOAD PUSH1 0x20 DUP5 ADD PUSH2 0x37DF JUMP JUMPDEST PUSH2 0x3A6A DUP2 DUP7 PUSH2 0x3601 JUMP JUMPDEST PUSH1 0x1 DUP1 PUSH1 0xA0 SHL SUB DUP5 AND PUSH1 0x20 DUP3 ADD MSTORE DUP3 PUSH1 0x40 DUP3 ADD MSTORE PUSH1 0x80 PUSH1 0x60 DUP3 ADD MSTORE PUSH1 0x0 PUSH2 0x3A94 PUSH1 0x80 DUP4 ADD DUP5 PUSH2 0x35BF JUMP JUMPDEST SWAP7 SWAP6 POP POP POP POP POP POP JUMP JUMPDEST PUSH1 0x20 DUP2 ADD PUSH2 0x8FC DUP3 DUP5 PUSH2 0x3601 JUMP JUMPDEST PUSH1 0x0 DUP1 PUSH1 0x0 DUP1 PUSH1 0x0 DUP1 PUSH1 0xC0 DUP8 DUP10 SUB SLT ISZERO PUSH2 0x3AC5 JUMPI PUSH1 0x0 DUP1 REVERT JUMPDEST DUP7 CALLDATALOAD SWAP6 POP PUSH1 0x20 DUP8 ADD CALLDATALOAD PUSH8 0xFFFFFFFFFFFFFFFF DUP2 GT ISZERO PUSH2 0x3AE3 JUMPI PUSH1 0x0 DUP1 REVERT JUMPDEST PUSH2 0x3AEF DUP10 DUP3 DUP11 ADD PUSH2 0x3859 JUMP JUMPDEST SWAP6 POP POP PUSH1 0x40 DUP8 ADD CALLDATALOAD PUSH8 0xFFFFFFFFFFFFFFFF DUP2 GT ISZERO PUSH2 0x3B0C JUMPI PUSH1 0x0 DUP1 REVERT JUMPDEST PUSH2 0x3B18 DUP10 DUP3 DUP11 ADD PUSH2 0x3859 JUMP JUMPDEST SWAP7 SWAP10 SWAP6 SWAP9 POP SWAP6 SWAP7 PUSH1 0x60 DUP2 ADD CALLDATALOAD SWAP7 POP PUSH1 0x80 DUP2 ADD CALLDATALOAD SWAP6 PUSH1 0xA0 SWAP1 SWAP2 ADD CALLDATALOAD SWAP5 POP SWAP3 POP POP POP JUMP JUMPDEST PUSH1 0x20 DUP2 MSTORE PUSH1 0x0 PUSH2 0x3528 PUSH1 0x20 DUP4 ADD DUP5 PUSH2 0x35BF JUMP JUMPDEST PUSH1 0x0 PUSH1 0x20 DUP3 DUP5 SUB SLT ISZERO PUSH2 0x3B5F JUMPI PUSH1 0x0 DUP1 REVERT JUMPDEST PUSH2 0x3528 DUP3 PUSH2 0x38C0 JUMP JUMPDEST PUSH1 0x0 DUP1 PUSH1 0x0 PUSH1 0x60 DUP5 DUP7 SUB SLT ISZERO PUSH2 0x3B7D JUMPI PUSH1 0x0 DUP1 REVERT JUMPDEST DUP4 CALLDATALOAD SWAP3 POP PUSH1 0x20 DUP5 ADD CALLDATALOAD PUSH8 0xFFFFFFFFFFFFFFFF DUP2 GT ISZERO PUSH2 0x3B9B JUMPI PUSH1 0x0 DUP1 REVERT JUMPDEST PUSH2 0x3BA7 DUP7 DUP3 DUP8 ADD PUSH2 0x3859 JUMP JUMPDEST SWAP3 POP POP PUSH1 0x40 DUP5 ADD CALLDATALOAD PUSH8 0xFFFFFFFFFFFFFFFF DUP2 GT ISZERO PUSH2 0x3BC4 JUMPI PUSH1 0x0 DUP1 REVERT JUMPDEST PUSH2 0x3BD0 DUP7 DUP3 DUP8 ADD PUSH2 0x3859 JUMP JUMPDEST SWAP2 POP POP SWAP3 POP SWAP3 POP SWAP3 JUMP JUMPDEST PUSH1 0x1 DUP2 DUP2 SHR SWAP1 DUP3 AND DUP1 PUSH2 0x3BEE JUMPI PUSH1 0x7F DUP3 AND SWAP2 POP JUMPDEST PUSH1 0x20 DUP3 LT DUP2 SUB PUSH2 0x3C0E JUMPI PUSH4 0x4E487B71 PUSH1 0xE0 SHL PUSH1 0x0 MSTORE PUSH1 0x22 PUSH1 0x4 MSTORE PUSH1 0x24 PUSH1 0x0 REVERT JUMPDEST POP SWAP2 SWAP1 POP JUMP JUMPDEST PUSH1 0x20 DUP1 DUP3 MSTORE PUSH1 0x13 SWAP1 DUP3 ADD MSTORE PUSH19 0x125D195B48191BD95CC81B9BDD08195E1A5CDD PUSH1 0x6A SHL PUSH1 0x40 DUP3 ADD MSTORE PUSH1 0x60 ADD SWAP1 JUMP JUMPDEST PUSH1 0x1F DUP3 GT ISZERO PUSH2 0xF95 JUMPI DUP1 PUSH1 0x0 MSTORE PUSH1 0x20 PUSH1 0x0 KECCAK256 PUSH1 0x1F DUP5 ADD PUSH1 0x5 SHR DUP2 ADD PUSH1 0x20 DUP6 LT ISZERO PUSH2 0x3C68 JUMPI POP DUP1 JUMPDEST PUSH1 0x1F DUP5 ADD PUSH1 0x5 SHR DUP3 ADD SWAP2 POP JUMPDEST DUP2 DUP2 LT ISZERO PUSH2 0x265F JUMPI PUSH1 0x0 DUP2 SSTORE PUSH1 0x1 ADD PUSH2 0x3C74 JUMP JUMPDEST DUP2 MLOAD PUSH8 0xFFFFFFFFFFFFFFFF DUP2 GT ISZERO PUSH2 0x3CA2 JUMPI PUSH2 0x3CA2 PUSH2 0x37C9 JUMP JUMPDEST PUSH2 0x3CB6 DUP2 PUSH2 0x3CB0 DUP5 SLOAD PUSH2 0x3BDA JUMP JUMPDEST DUP5 PUSH2 0x3C41 JUMP JUMPDEST PUSH1 0x20 PUSH1 0x1F DUP3 GT PUSH1 0x1 DUP2 EQ PUSH2 0x3CEA JUMPI PUSH1 0x0 DUP4 ISZERO PUSH2 0x3CD2 JUMPI POP DUP5 DUP3 ADD MLOAD JUMPDEST PUSH1 0x0 NOT PUSH1 0x3 DUP6 SWAP1 SHL SHR NOT AND PUSH1 0x1 DUP5 SWAP1 SHL OR DUP5 SSTORE PUSH2 0x265F JUMP JUMPDEST PUSH1 0x0 DUP5 DUP2 MSTORE PUSH1 0x20 DUP2 KECCAK256 PUSH1 0x1F NOT DUP6 AND SWAP2 JUMPDEST DUP3 DUP2 LT ISZERO PUSH2 0x3D1A JUMPI DUP8 DUP6 ADD MLOAD DUP3 SSTORE PUSH1 0x20 SWAP5 DUP6 ADD SWAP5 PUSH1 0x1 SWAP1 SWAP3 ADD SWAP2 ADD PUSH2 0x3CFA JUMP JUMPDEST POP DUP5 DUP3 LT ISZERO PUSH2 0x3D38 JUMPI DUP7 DUP5 ADD MLOAD PUSH1 0x0 NOT PUSH1 0x3 DUP8 SWAP1 SHL PUSH1 0xF8 AND SHR NOT AND DUP2 SSTORE JUMPDEST POP POP POP POP PUSH1 0x1 SWAP1 DUP2 SHL ADD SWAP1 SSTORE POP JUMP JUMPDEST PUSH2 0x3D51 DUP2 DUP5 PUSH2 0x3601 JUMP JUMPDEST PUSH1 0x40 PUSH1 0x20 DUP3 ADD MSTORE PUSH1 0x0 PUSH2 0x3D67 PUSH1 0x40 DUP4 ADD DUP5 PUSH2 0x35BF JUMP JUMPDEST SWAP5 SWAP4 POP POP POP POP JUMP JUMPDEST PUSH1 0x0 PUSH1 0x20 DUP3 DUP5 SUB SLT ISZERO PUSH2 0x3D81 JUMPI PUSH1 0x0 DUP1 REVERT JUMPDEST POP MLOAD SWAP2 SWAP1 POP JUMP JUMPDEST PUSH1 0x0 PUSH1 0x20 DUP3 DUP5 SUB SLT ISZERO PUSH2 0x3D9A JUMPI PUSH1 0x0 DUP1 REVERT JUMPDEST DUP2 MLOAD DUP1 ISZERO ISZERO DUP2 EQ PUSH2 0x3528 JUMPI PUSH1 0x0 DUP1 REVERT JUMPDEST PUSH1 0x60 DUP2 MSTORE PUSH1 0x0 PUSH2 0x3DBD PUSH1 0x60 DUP4 ADD DUP7 PUSH2 0x35BF JUMP JUMPDEST PUSH1 0x20 DUP4 ADD SWAP5 SWAP1 SWAP5 MSTORE POP PUSH1 0x40 ADD MSTORE SWAP2 SWAP1 POP JUMP JUMPDEST PUSH2 0x3DD9 DUP2 DUP4 PUSH2 0x3601 JUMP JUMPDEST PUSH1 0x40 PUSH1 0x20 DUP3 ADD DUP2 SWAP1 MSTORE PUSH1 0x9 SWAP1 DUP3 ADD MSTORE PUSH9 0x125D195B481CDBDB19 PUSH1 0xBA SHL PUSH1 0x60 DUP3 ADD MSTORE PUSH1 0x80 ADD SWAP2 SWAP1 POP JUMP JUMPDEST PUSH1 0x40 DUP2 MSTORE PUSH1 0x0 PUSH2 0x3E15 PUSH1 0x40 DUP4 ADD DUP6 PUSH2 0x35BF JUMP JUMPDEST DUP3 DUP2 SUB PUSH1 0x20 DUP5 ADD MSTORE PUSH2 0x348E DUP2 DUP6 PUSH2 0x35BF JUMP JUMPDEST PUSH2 0x3E31 DUP2 DUP4 PUSH2 0x3601 JUMP JUMPDEST PUSH1 0x40 PUSH1 0x20 DUP3 ADD DUP2 SWAP1 MSTORE PUSH1 0x19 SWAP1 DUP3 ADD MSTORE PUSH25 0x24BA32B6903932B1B2B4BB32B21030BA103932BA30B4B632B9 PUSH1 0x39 SHL PUSH1 0x60 DUP3 ADD MSTORE PUSH1 0x80 ADD SWAP2 SWAP1 POP JUMP JUMPDEST PUSH1 0x0 DUP3 MLOAD PUSH2 0x3E7C DUP2 DUP5 PUSH1 0x20 DUP8 ADD PUSH2 0x359B JUMP JUMPDEST SWAP2 SWAP1 SWAP2 ADD SWAP3 SWAP2 POP POP JUMP INVALID 0xDD 0xAA SWAP1 0x1E 0x2F 0xE3 0xBD LOG3 SLOAD INVALID 0xE 0xDE 0x27 DUP6 ISZERO 0x2D TLOAD LT SWAP3 DUP3 0xA6 SGT INVALID MUL BLOBBASEFEE SDIV PUSH11 0x3E66C41BB3FBD454F36A7E BYTE CODESIZE DUP12 0xD6 0xFC GASPRICE 0xB1 0xD NUMBER BLOBBASEFEE LOG4 JUMPI DUP16 DUP2 BYTE 0xCB 0xBC RETURN GASPRICE 0xFB SHR PUSH10 0x7486313C2A5F906C256A TSTORE PUSH26 0x9494FCD066E1F6C077689DE1CDB65052A1624DE4BACE99BF0C75 ADD PUSH25 0xF18FE8AA79D2D17F80214B1730A14D8170D048F00E4E5B53 0xCC SHL 0xB6 CALLDATASIZE ADDMOD SWAP5 LOG1 EXTCODESIZE LOG1 LOG3 0x21 MOD PUSH8 0xC828492DB98DCA3E KECCAK256 PUSH23 0xCC3735A920A3CA505D382BBC02DD7BC7DEC4DCEEDDA775 0xE5 DUP14 0xD5 COINBASE 0xE0 DUP11 GT PUSH13 0x6C53815C0BD028192F7B626800 LOG2 PUSH5 0x6970667358 0x22 SLT KECCAK256 RETURNDATACOPY ADDRESS SWAP8 TSTORE 0xF9 0x1F SELFDESTRUCT PUSH26 0x50C9373E9A7B8854BE0740557E5F2AA793C8171E9DD5385C6473 PUSH16 0x6C634300081C00330000000000000000 "},"methodIdentifiers":{"ADMIN_ROLE()":"75b238fc","DEFAULT_ADMIN_ROLE()":"a217fddf","DISTRIBUTOR_ROLE()":"f0bd87cc","PRODUCER_ROLE()":"cb3e1fe7","RETAILER_ROLE()":"2115e7bf","TRANSPORTER_ROLE()":"4eabbe77","UPGRADE_INTERFACE_VERSION()":"ad3cb1cc","addCertificate(bytes32,string,string)":"d7787eeb","confirmTransfer(bytes32)":"36a55b38","createItem(bytes32,string,string,uint256,uint256,uint256)":"771c72fb","feeCollector()":"c415b95c","getCertificates(bytes32)":"48292cbd","getItemDetail(bytes32)":"1395f14a","getItemHistory(bytes32)":"15459471","getItemOwner(bytes32)":"8fbd1ce1","getItemState(bytes32)":"73140409","getRoleAdmin(bytes32)":"248a9ca3","grantAccess(bytes32,address)":"40554c3a","grantRole(bytes32,address)":"2f2ff15d","hasRole(bytes32,address)":"91d14854","initialize()":"8129fc1c","initiateTransfer(bytes32,address)":"ed76863d","itemCertificates(bytes32,uint256)":"14ca631b","itemHistories(bytes32,uint256)":"6a079ce2","items(bytes32)":"48f343f3","markAsReceived(bytes32)":"e78aa8d5","markAsSold(bytes32,address)":"7e84eb4b","pendingTransfers(bytes32)":"8d4ab2c0","proxiableUUID()":"52d1902d","renounceRole(bytes32,address)":"36568abe","reportDamage(bytes32,string)":"29349148","reportDamageAtDistributor(bytes32,string)":"78fd4e7e","reportLost(bytes32,string)":"52b0cb20","reportLostAtDistributor(bytes32,string)":"ad4ec787","revokeAccess(bytes32,address)":"8d53b208","revokeRole(bytes32,address)":"d547741f","setTokenContractAddress(address)":"b23d4854","supportsInterface(bytes4)":"01ffc9a7","tokenContract()":"55a373d6","updateSellingPrice(bytes32,uint256)":"9f02d3ec","upgradeToAndCall(address,bytes)":"4f1ef286"}},"storageLayout":{"storage":[{"astId":2852,"contract":"contracts/SupplyChainTracking.sol:SupplyChainTracking","label":"tokenContract","offset":0,"slot":"0","type":"t_contract(IERC20)2194"},{"astId":2854,"contract":"contracts/SupplyChainTracking.sol:SupplyChainTracking","label":"feeCollector","offset":0,"slot":"1","type":"t_address"},{"astId":2859,"contract":"contracts/SupplyChainTracking.sol:SupplyChainTracking","label":"items","offset":0,"slot":"2","type":"t_mapping(t_bytes32,t_struct(Item)2830_storage)"},{"astId":2865,"contract":"contracts/SupplyChainTracking.sol:SupplyChainTracking","label":"itemHistories","offset":0,"slot":"3","type":"t_mapping(t_bytes32,t_array(t_struct(History)2840_storage)dyn_storage)"},{"astId":2871,"contract":"contracts/SupplyChainTracking.sol:SupplyChainTracking","label":"itemCertificates","offset":0,"slot":"4","type":"t_mapping(t_bytes32,t_array(t_struct(Certificate)2810_storage)dyn_storage)"},{"astId":2876,"contract":"contracts/SupplyChainTracking.sol:SupplyChainTracking","label":"pendingTransfers","offset":0,"slot":"5","type":"t_mapping(t_bytes32,t_struct(PendingTransfer)2849_storage)"}],"types":{"t_address":{"encoding":"inplace","label":"address","numberOfBytes":"20"},"t_array(t_struct(Certificate)2810_storage)dyn_storage":{"base":"t_struct(Certificate)2810_storage","encoding":"dynamic_array","label":"struct SupplyChainTracking.Certificate[]","numberOfBytes":"32"},"t_array(t_struct(History)2840_storage)dyn_storage":{"base":"t_struct(History)2840_storage","encoding":"dynamic_array","label":"struct SupplyChainTracking.History[]","numberOfBytes":"32"},"t_bool":{"encoding":"inplace","label":"bool","numberOfBytes":"1"},"t_bytes32":{"encoding":"inplace","label":"bytes32","numberOfBytes":"32"},"t_contract(IERC20)2194":{"encoding":"inplace","label":"contract IERC20","numberOfBytes":"20"},"t_enum(State)2803":{"encoding":"inplace","label":"enum SupplyChainTracking.State","numberOfBytes":"1"},"t_mapping(t_bytes32,t_array(t_struct(Certificate)2810_storage)dyn_storage)":{"encoding":"mapping","key":"t_bytes32","label":"mapping(bytes32 => struct SupplyChainTracking.Certificate[])","numberOfBytes":"32","value":"t_array(t_struct(Certificate)2810_storage)dyn_storage"},"t_mapping(t_bytes32,t_array(t_struct(History)2840_storage)dyn_storage)":{"encoding":"mapping","key":"t_bytes32","label":"mapping(bytes32 => struct SupplyChainTracking.History[])","numberOfBytes":"32","value":"t_array(t_struct(History)2840_storage)dyn_storage"},"t_mapping(t_bytes32,t_struct(Item)2830_storage)":{"encoding":"mapping","key":"t_bytes32","label":"mapping(bytes32 => struct SupplyChainTracking.Item)","numberOfBytes":"32","value":"t_struct(Item)2830_storage"},"t_mapping(t_bytes32,t_struct(PendingTransfer)2849_storage)":{"encoding":"mapping","key":"t_bytes32","label":"mapping(bytes32 => struct SupplyChainTracking.PendingTransfer)","numberOfBytes":"32","value":"t_struct(PendingTransfer)2849_storage"},"t_string_storage":{"encoding":"bytes","label":"string","numberOfBytes":"32"},"t_struct(Certificate)2810_storage":{"encoding":"inplace","label":"struct SupplyChainTracking.Certificate","members":[{"astId":2805,"contract":"contracts/SupplyChainTracking.sol:SupplyChainTracking","label":"certName","offset":0,"slot":"0","type":"t_string_storage"},{"astId":2807,"contract":"contracts/SupplyChainTracking.sol:SupplyChainTracking","label":"certIssuer","offset":0,"slot":"1","type":"t_string_storage"},{"astId":2809,"contract":"contracts/SupplyChainTracking.sol:SupplyChainTracking","label":"issueDate","offset":0,"slot":"2","type":"t_uint256"}],"numberOfBytes":"96"},"t_struct(History)2840_storage":{"encoding":"inplace","label":"struct SupplyChainTracking.History","members":[{"astId":2833,"contract":"contracts/SupplyChainTracking.sol:SupplyChainTracking","label":"state","offset":0,"slot":"0","type":"t_enum(State)2803"},{"astId":2835,"contract":"contracts/SupplyChainTracking.sol:SupplyChainTracking","label":"actor","offset":1,"slot":"0","type":"t_address"},{"astId":2837,"contract":"contracts/SupplyChainTracking.sol:SupplyChainTracking","label":"timestamp","offset":0,"slot":"1","type":"t_uint256"},{"astId":2839,"contract":"contracts/SupplyChainTracking.sol:SupplyChainTracking","label":"note","offset":0,"slot":"2","type":"t_string_storage"}],"numberOfBytes":"96"},"t_struct(Item)2830_storage":{"encoding":"inplace","label":"struct SupplyChainTracking.Item","members":[{"astId":2812,"contract":"contracts/SupplyChainTracking.sol:SupplyChainTracking","label":"id","offset":0,"slot":"0","type":"t_bytes32"},{"astId":2814,"contract":"contracts/SupplyChainTracking.sol:SupplyChainTracking","label":"name","offset":0,"slot":"1","type":"t_string_storage"},{"astId":2816,"contract":"contracts/SupplyChainTracking.sol:SupplyChainTracking","label":"description","offset":0,"slot":"2","type":"t_string_storage"},{"astId":2818,"contract":"contracts/SupplyChainTracking.sol:SupplyChainTracking","label":"currentOwner","offset":0,"slot":"3","type":"t_address"},{"astId":2821,"contract":"contracts/SupplyChainTracking.sol:SupplyChainTracking","label":"currentState","offset":20,"slot":"3","type":"t_enum(State)2803"},{"astId":2823,"contract":"contracts/SupplyChainTracking.sol:SupplyChainTracking","label":"exists","offset":21,"slot":"3","type":"t_bool"},{"astId":2825,"contract":"contracts/SupplyChainTracking.sol:SupplyChainTracking","label":"plannedDeliveryTime","offset":0,"slot":"4","type":"t_uint256"},{"astId":2827,"contract":"contracts/SupplyChainTracking.sol:SupplyChainTracking","label":"costPrice","offset":0,"slot":"5","type":"t_uint256"},{"astId":2829,"contract":"contracts/SupplyChainTracking.sol:SupplyChainTracking","label":"sellingPrice","offset":0,"slot":"6","type":"t_uint256"}],"numberOfBytes":"224"},"t_struct(PendingTransfer)2849_storage":{"encoding":"inplace","label":"struct SupplyChainTracking.PendingTransfer","members":[{"astId":2842,"contract":"contracts/SupplyChainTracking.sol:SupplyChainTracking","label":"from","offset":0,"slot":"0","type":"t_address"},{"astId":2844,"contract":"contracts/SupplyChainTracking.sol:SupplyChainTracking","label":"to","offset":0,"slot":"1","type":"t_address"},{"astId":2846,"contract":"contracts/SupplyChainTracking.sol:SupplyChainTracking","label":"fromConfirmed","offset":20,"slot":"1","type":"t_bool"},{"astId":2848,"contract":"contracts/SupplyChainTracking.sol:SupplyChainTracking","label":"toConfirmed","offset":21,"slot":"1","type":"t_bool"}],"numberOfBytes":"64"},"t_uint256":{"encoding":"inplace","label":"uint256","numberOfBytes":"32"}}}}}}