{
  "_format": "hh-sol-artifact-1",
  "contractName": "SupplyChainTracking",
  "sourceName": "contracts/SupplyChainTracking.sol",
  "abi": [
    {
      "inputs": [],
      "name": "AccessControlBadConfirmation",
      "type": "error"
    },
    {
      "inputs": [
        {
          "internalType": "address",
          "name": "account",
          "type": "address"
        },
        {
          "internalType": "bytes32",
          "name": "neededRole",
          "type": "bytes32"
        }
      ],
      "name": "AccessControlUnauthorizedAccount",
      "type": "error"
    },
    {
      "inputs": [
        {
          "internalType": "address",
          "name": "target",
          "type": "address"
        }
      ],
      "name": "AddressEmptyCode",
      "type": "error"
    },
    {
      "inputs": [
        {
          "internalType": "address",
          "name": "implementation",
          "type": "address"
        }
      ],
      "name": "ERC1967InvalidImplementation",
      "type": "error"
    },
    {
      "inputs": [],
      "name": "ERC1967NonPayable",
      "type": "error"
    },
    {
      "inputs": [],
      "name": "FailedCall",
      "type": "error"
    },
    {
      "inputs": [],
      "name": "InvalidInitialization",
      "type": "error"
    },
    {
      "inputs": [],
      "name": "NotInitializing",
      "type": "error"
    },
    {
      "inputs": [],
      "name": "UUPSUnauthorizedCallContext",
      "type": "error"
    },
    {
      "inputs": [
        {
          "internalType": "bytes32",
          "name": "slot",
          "type": "bytes32"
        }
      ],
      "name": "UUPSUnsupportedProxiableUUID",
      "type": "error"
    },
    {
      "anonymous": false,
      "inputs": [
        {
          "indexed": true,
          "internalType": "bytes32",
          "name": "itemId",
          "type": "bytes32"
        },
        {
          "indexed": false,
          "internalType": "string",
          "name": "certName",
          "type": "string"
        },
        {
          "indexed": false,
          "internalType": "string",
          "name": "certIssuer",
          "type": "string"
        }
      ],
      "name": "CertificateAdded",
      "type": "event"
    },
    {
      "anonymous": false,
      "inputs": [
        {
          "indexed": true,
          "internalType": "address",
          "name": "collectorAddress",
          "type": "address"
        }
      ],
      "name": "FeeCollectorAddressSet",
      "type": "event"
    },
    {
      "anonymous": false,
      "inputs": [
        {
          "indexed": false,
          "internalType": "uint64",
          "name": "version",
          "type": "uint64"
        }
      ],
      "name": "Initialized",
      "type": "event"
    },
    {
      "anonymous": false,
      "inputs": [
        {
          "indexed": true,
          "internalType": "bytes32",
          "name": "itemId",
          "type": "bytes32"
        },
        {
          "indexed": false,
          "internalType": "string",
          "name": "name",
          "type": "string"
        },
        {
          "indexed": true,
          "internalType": "address",
          "name": "owner",
          "type": "address"
        },
        {
          "indexed": false,
          "internalType": "uint256",
          "name": "costPrice",
          "type": "uint256"
        },
        {
          "indexed": false,
          "internalType": "uint256",
          "name": "sellingPrice",
          "type": "uint256"
        }
      ],
      "name": "ItemCreated",
      "type": "event"
    },
    {
      "anonymous": false,
      "inputs": [
        {
          "indexed": true,
          "internalType": "bytes32",
          "name": "itemId",
          "type": "bytes32"
        },
        {
          "indexed": false,
          "internalType": "uint256",
          "name": "newSellingPrice",
          "type": "uint256"
        },
        {
          "indexed": true,
          "internalType": "address",
          "name": "updater",
          "type": "address"
        }
      ],
      "name": "ItemSellingPriceUpdated",
      "type": "event"
    },
    {
      "anonymous": false,
      "inputs": [
        {
          "indexed": true,
          "internalType": "bytes32",
          "name": "itemId",
          "type": "bytes32"
        },
        {
          "indexed": true,
          "internalType": "address",
          "name": "retailer",
          "type": "address"
        },
        {
          "indexed": true,
          "internalType": "address",
          "name": "customer",
          "type": "address"
        }
      ],
      "name": "ItemSoldToCustomer",
      "type": "event"
    },
    {
      "anonymous": false,
      "inputs": [
        {
          "indexed": true,
          "internalType": "bytes32",
          "name": "itemId",
          "type": "bytes32"
        },
        {
          "indexed": false,
          "internalType": "enum SupplyChainTracking.State",
          "name": "newState",
          "type": "uint8"
        },
        {
          "indexed": false,
          "internalType": "string",
          "name": "note",
          "type": "string"
        }
      ],
      "name": "ItemStateUpdated",
      "type": "event"
    },
    {
      "anonymous": false,
      "inputs": [
        {
          "indexed": true,
          "internalType": "bytes32",
          "name": "itemId",
          "type": "bytes32"
        },
        {
          "indexed": true,
          "internalType": "address",
          "name": "payer",
          "type": "address"
        },
        {
          "indexed": true,
          "internalType": "address",
          "name": "payee",
          "type": "address"
        },
        {
          "indexed": false,
          "internalType": "uint256",
          "name": "amount",
          "type": "uint256"
        },
        {
          "indexed": false,
          "internalType": "string",
          "name": "reason",
          "type": "string"
        }
      ],
      "name": "PaymentTransferred",
      "type": "event"
    },
    {
      "anonymous": false,
      "inputs": [
        {
          "indexed": true,
          "internalType": "bytes32",
          "name": "role",
          "type": "bytes32"
        },
        {
          "indexed": true,
          "internalType": "bytes32",
          "name": "previousAdminRole",
          "type": "bytes32"
        },
        {
          "indexed": true,
          "internalType": "bytes32",
          "name": "newAdminRole",
          "type": "bytes32"
        }
      ],
      "name": "RoleAdminChanged",
      "type": "event"
    },
    {
      "anonymous": false,
      "inputs": [
        {
          "indexed": true,
          "internalType": "bytes32",
          "name": "role",
          "type": "bytes32"
        },
        {
          "indexed": true,
          "internalType": "address",
          "name": "account",
          "type": "address"
        },
        {
          "indexed": true,
          "internalType": "address",
          "name": "sender",
          "type": "address"
        }
      ],
      "name": "RoleGranted",
      "type": "event"
    },
    {
      "anonymous": false,
      "inputs": [
        {
          "indexed": true,
          "internalType": "bytes32",
          "name": "role",
          "type": "bytes32"
        },
        {
          "indexed": true,
          "internalType": "address",
          "name": "account",
          "type": "address"
        },
        {
          "indexed": true,
          "internalType": "address",
          "name": "sender",
          "type": "address"
        }
      ],
      "name": "RoleRevoked",
      "type": "event"
    },
    {
      "anonymous": false,
      "inputs": [
        {
          "indexed": true,
          "internalType": "address",
          "name": "tokenAddress",
          "type": "address"
        }
      ],
      "name": "TokenContractAddressSet",
      "type": "event"
    },
    {
      "anonymous": false,
      "inputs": [
        {
          "indexed": true,
          "internalType": "bytes32",
          "name": "itemId",
          "type": "bytes32"
        },
        {
          "indexed": true,
          "internalType": "address",
          "name": "confirmer",
          "type": "address"
        },
        {
          "indexed": false,
          "internalType": "uint256",
          "name": "amountPaidToPreviousOwner",
          "type": "uint256"
        }
      ],
      "name": "TransferConfirmed",
      "type": "event"
    },
    {
      "anonymous": false,
      "inputs": [
        {
          "indexed": true,
          "internalType": "bytes32",
          "name": "itemId",
          "type": "bytes32"
        },
        {
          "indexed": true,
          "internalType": "address",
          "name": "from",
          "type": "address"
        },
        {
          "indexed": true,
          "internalType": "address",
          "name": "to",
          "type": "address"
        }
      ],
      "name": "TransferInitiated",
      "type": "event"
    },
    {
      "anonymous": false,
      "inputs": [
        {
          "indexed": true,
          "internalType": "address",
          "name": "implementation",
          "type": "address"
        }
      ],
      "name": "Upgraded",
      "type": "event"
    },
    {
      "inputs": [],
      "name": "ADMIN_ROLE",
      "outputs": [
        {
          "internalType": "bytes32",
          "name": "",
          "type": "bytes32"
        }
      ],
      "stateMutability": "view",
      "type": "function"
    },
    {
      "inputs": [],
      "name": "CUSTOMER_ROLE",
      "outputs": [
        {
          "internalType": "bytes32",
          "name": "",
          "type": "bytes32"
        }
      ],
      "stateMutability": "view",
      "type": "function"
    },
    {
      "inputs": [],
      "name": "DEFAULT_ADMIN_ROLE",
      "outputs": [
        {
          "internalType": "bytes32",
          "name": "",
          "type": "bytes32"
        }
      ],
      "stateMutability": "view",
      "type": "function"
    },
    {
      "inputs": [],
      "name": "DISTRIBUTOR_ROLE",
      "outputs": [
        {
          "internalType": "bytes32",
          "name": "",
          "type": "bytes32"
        }
      ],
      "stateMutability": "view",
      "type": "function"
    },
    {
      "inputs": [],
      "name": "PRODUCER_ROLE",
      "outputs": [
        {
          "internalType": "bytes32",
          "name": "",
          "type": "bytes32"
        }
      ],
      "stateMutability": "view",
      "type": "function"
    },
    {
      "inputs": [],
      "name": "RETAILER_ROLE",
      "outputs": [
        {
          "internalType": "bytes32",
          "name": "",
          "type": "bytes32"
        }
      ],
      "stateMutability": "view",
      "type": "function"
    },
    {
      "inputs": [],
      "name": "TRANSPORTER_ROLE",
      "outputs": [
        {
          "internalType": "bytes32",
          "name": "",
          "type": "bytes32"
        }
      ],
      "stateMutability": "view",
      "type": "function"
    },
    {
      "inputs": [],
      "name": "UPGRADE_INTERFACE_VERSION",
      "outputs": [
        {
          "internalType": "string",
          "name": "",
          "type": "string"
        }
      ],
      "stateMutability": "view",
      "type": "function"
    },
    {
      "inputs": [
        {
          "internalType": "bytes32",
          "name": "_itemId",
          "type": "bytes32"
        },
        {
          "internalType": "string",
          "name": "_certName",
          "type": "string"
        },
        {
          "internalType": "string",
          "name": "_certIssuer",
          "type": "string"
        }
      ],
      "name": "addCertificate",
      "outputs": [],
      "stateMutability": "nonpayable",
      "type": "function"
    },
    {
      "inputs": [
        {
          "internalType": "bytes32",
          "name": "_itemId",
          "type": "bytes32"
        }
      ],
      "name": "confirmTransfer",
      "outputs": [],
      "stateMutability": "nonpayable",
      "type": "function"
    },
    {
      "inputs": [
        {
          "internalType": "bytes32",
          "name": "_itemId",
          "type": "bytes32"
        },
        {
          "internalType": "string",
          "name": "_name",
          "type": "string"
        },
        {
          "internalType": "string",
          "name": "_description",
          "type": "string"
        },
        {
          "internalType": "uint256",
          "name": "_plannedDeliveryTime",
          "type": "uint256"
        },
        {
          "internalType": "uint256",
          "name": "_costPrice",
          "type": "uint256"
        },
        {
          "internalType": "uint256",
          "name": "_sellingPrice",
          "type": "uint256"
        },
        {
          "internalType": "string",
          "name": "_originalItemId",
          "type": "string"
        }
      ],
      "name": "createItem",
      "outputs": [],
      "stateMutability": "nonpayable",
      "type": "function"
    },
    {
      "inputs": [
        {
          "internalType": "bytes32",
          "name": "_itemId",
          "type": "bytes32"
        }
      ],
      "name": "customerBuyItem",
      "outputs": [],
      "stateMutability": "nonpayable",
      "type": "function"
    },
    {
      "inputs": [],
      "name": "feeCollector",
      "outputs": [
        {
          "internalType": "address",
          "name": "",
          "type": "address"
        }
      ],
      "stateMutability": "view",
      "type": "function"
    },
    {
      "inputs": [],
      "name": "getAllItemIds",
      "outputs": [
        {
          "internalType": "bytes32[]",
          "name": "",
          "type": "bytes32[]"
        }
      ],
      "stateMutability": "view",
      "type": "function"
    },
    {
      "inputs": [
        {
          "internalType": "bytes32",
          "name": "_itemId",
          "type": "bytes32"
        }
      ],
      "name": "getCertificates",
      "outputs": [
        {
          "components": [
            {
              "internalType": "string",
              "name": "certName",
              "type": "string"
            },
            {
              "internalType": "string",
              "name": "certIssuer",
              "type": "string"
            },
            {
              "internalType": "uint256",
              "name": "issueDate",
              "type": "uint256"
            }
          ],
          "internalType": "struct SupplyChainTracking.Certificate[]",
          "name": "",
          "type": "tuple[]"
        }
      ],
      "stateMutability": "view",
      "type": "function"
    },
    {
      "inputs": [
        {
          "internalType": "bytes32",
          "name": "_itemId",
          "type": "bytes32"
        }
      ],
      "name": "getItemDetail",
      "outputs": [
        {
          "components": [
            {
              "internalType": "bytes32",
              "name": "id",
              "type": "bytes32"
            },
            {
              "internalType": "string",
              "name": "name",
              "type": "string"
            },
            {
              "internalType": "string",
              "name": "description",
              "type": "string"
            },
            {
              "internalType": "address",
              "name": "currentOwner",
              "type": "address"
            },
            {
              "internalType": "enum SupplyChainTracking.State",
              "name": "currentState",
              "type": "uint8"
            },
            {
              "internalType": "bool",
              "name": "exists",
              "type": "bool"
            },
            {
              "internalType": "uint256",
              "name": "plannedDeliveryTime",
              "type": "uint256"
            },
            {
              "internalType": "uint256",
              "name": "costPrice",
              "type": "uint256"
            },
            {
              "internalType": "uint256",
              "name": "sellingPrice",
              "type": "uint256"
            },
            {
              "internalType": "string",
              "name": "itemIdString",
              "type": "string"
            }
          ],
          "internalType": "struct SupplyChainTracking.Item",
          "name": "",
          "type": "tuple"
        }
      ],
      "stateMutability": "view",
      "type": "function"
    },
    {
      "inputs": [
        {
          "internalType": "bytes32",
          "name": "_itemId",
          "type": "bytes32"
        }
      ],
      "name": "getItemHistory",
      "outputs": [
        {
          "components": [
            {
              "internalType": "enum SupplyChainTracking.State",
              "name": "state",
              "type": "uint8"
            },
            {
              "internalType": "address",
              "name": "actor",
              "type": "address"
            },
            {
              "internalType": "uint256",
              "name": "timestamp",
              "type": "uint256"
            },
            {
              "internalType": "string",
              "name": "note",
              "type": "string"
            }
          ],
          "internalType": "struct SupplyChainTracking.History[]",
          "name": "",
          "type": "tuple[]"
        }
      ],
      "stateMutability": "view",
      "type": "function"
    },
    {
      "inputs": [
        {
          "internalType": "bytes32",
          "name": "_itemId",
          "type": "bytes32"
        }
      ],
      "name": "getItemOwner",
      "outputs": [
        {
          "internalType": "address",
          "name": "",
          "type": "address"
        }
      ],
      "stateMutability": "view",
      "type": "function"
    },
    {
      "inputs": [
        {
          "internalType": "bytes32",
          "name": "_itemId",
          "type": "bytes32"
        }
      ],
      "name": "getItemState",
      "outputs": [
        {
          "internalType": "enum SupplyChainTracking.State",
          "name": "",
          "type": "uint8"
        }
      ],
      "stateMutability": "view",
      "type": "function"
    },
    {
      "inputs": [
        {
          "internalType": "bytes32",
          "name": "role",
          "type": "bytes32"
        }
      ],
      "name": "getRoleAdmin",
      "outputs": [
        {
          "internalType": "bytes32",
          "name": "",
          "type": "bytes32"
        }
      ],
      "stateMutability": "view",
      "type": "function"
    },
    {
      "inputs": [
        {
          "internalType": "bytes32",
          "name": "role",
          "type": "bytes32"
        },
        {
          "internalType": "address",
          "name": "account",
          "type": "address"
        }
      ],
      "name": "grantAccess",
      "outputs": [],
      "stateMutability": "nonpayable",
      "type": "function"
    },
    {
      "inputs": [
        {
          "internalType": "bytes32",
          "name": "role",
          "type": "bytes32"
        },
        {
          "internalType": "address",
          "name": "account",
          "type": "address"
        }
      ],
      "name": "grantRole",
      "outputs": [],
      "stateMutability": "nonpayable",
      "type": "function"
    },
    {
      "inputs": [
        {
          "internalType": "bytes32",
          "name": "role",
          "type": "bytes32"
        },
        {
          "internalType": "address",
          "name": "account",
          "type": "address"
        }
      ],
      "name": "hasRole",
      "outputs": [
        {
          "internalType": "bool",
          "name": "",
          "type": "bool"
        }
      ],
      "stateMutability": "view",
      "type": "function"
    },
    {
      "inputs": [],
      "name": "initialize",
      "outputs": [],
      "stateMutability": "nonpayable",
      "type": "function"
    },
    {
      "inputs": [
        {
          "internalType": "bytes32",
          "name": "_itemId",
          "type": "bytes32"
        },
        {
          "internalType": "address",
          "name": "_to",
          "type": "address"
        }
      ],
      "name": "initiateTransfer",
      "outputs": [],
      "stateMutability": "nonpayable",
      "type": "function"
    },
    {
      "inputs": [
        {
          "internalType": "bytes32",
          "name": "",
          "type": "bytes32"
        },
        {
          "internalType": "uint256",
          "name": "",
          "type": "uint256"
        }
      ],
      "name": "itemCertificates",
      "outputs": [
        {
          "internalType": "string",
          "name": "certName",
          "type": "string"
        },
        {
          "internalType": "string",
          "name": "certIssuer",
          "type": "string"
        },
        {
          "internalType": "uint256",
          "name": "issueDate",
          "type": "uint256"
        }
      ],
      "stateMutability": "view",
      "type": "function"
    },
    {
      "inputs": [
        {
          "internalType": "bytes32",
          "name": "",
          "type": "bytes32"
        },
        {
          "internalType": "uint256",
          "name": "",
          "type": "uint256"
        }
      ],
      "name": "itemHistories",
      "outputs": [
        {
          "internalType": "enum SupplyChainTracking.State",
          "name": "state",
          "type": "uint8"
        },
        {
          "internalType": "address",
          "name": "actor",
          "type": "address"
        },
        {
          "internalType": "uint256",
          "name": "timestamp",
          "type": "uint256"
        },
        {
          "internalType": "string",
          "name": "note",
          "type": "string"
        }
      ],
      "stateMutability": "view",
      "type": "function"
    },
    {
      "inputs": [
        {
          "internalType": "bytes32",
          "name": "",
          "type": "bytes32"
        }
      ],
      "name": "items",
      "outputs": [
        {
          "internalType": "bytes32",
          "name": "id",
          "type": "bytes32"
        },
        {
          "internalType": "string",
          "name": "name",
          "type": "string"
        },
        {
          "internalType": "string",
          "name": "description",
          "type": "string"
        },
        {
          "internalType": "address",
          "name": "currentOwner",
          "type": "address"
        },
        {
          "internalType": "enum SupplyChainTracking.State",
          "name": "currentState",
          "type": "uint8"
        },
        {
          "internalType": "bool",
          "name": "exists",
          "type": "bool"
        },
        {
          "internalType": "uint256",
          "name": "plannedDeliveryTime",
          "type": "uint256"
        },
        {
          "internalType": "uint256",
          "name": "costPrice",
          "type": "uint256"
        },
        {
          "internalType": "uint256",
          "name": "sellingPrice",
          "type": "uint256"
        },
        {
          "internalType": "string",
          "name": "itemIdString",
          "type": "string"
        }
      ],
      "stateMutability": "view",
      "type": "function"
    },
    {
      "inputs": [
        {
          "internalType": "bytes32",
          "name": "",
          "type": "bytes32"
        }
      ],
      "name": "pendingTransfers",
      "outputs": [
        {
          "internalType": "address",
          "name": "from",
          "type": "address"
        },
        {
          "internalType": "address",
          "name": "to",
          "type": "address"
        },
        {
          "internalType": "bool",
          "name": "fromConfirmed",
          "type": "bool"
        },
        {
          "internalType": "bool",
          "name": "toConfirmed",
          "type": "bool"
        }
      ],
      "stateMutability": "view",
      "type": "function"
    },
    {
      "inputs": [],
      "name": "proxiableUUID",
      "outputs": [
        {
          "internalType": "bytes32",
          "name": "",
          "type": "bytes32"
        }
      ],
      "stateMutability": "view",
      "type": "function"
    },
    {
      "inputs": [
        {
          "internalType": "bytes32",
          "name": "role",
          "type": "bytes32"
        },
        {
          "internalType": "address",
          "name": "callerConfirmation",
          "type": "address"
        }
      ],
      "name": "renounceRole",
      "outputs": [],
      "stateMutability": "nonpayable",
      "type": "function"
    },
    {
      "inputs": [
        {
          "internalType": "bytes32",
          "name": "_itemId",
          "type": "bytes32"
        },
        {
          "internalType": "string",
          "name": "_reason",
          "type": "string"
        }
      ],
      "name": "reportDamage",
      "outputs": [],
      "stateMutability": "nonpayable",
      "type": "function"
    },
    {
      "inputs": [
        {
          "internalType": "bytes32",
          "name": "_itemId",
          "type": "bytes32"
        },
        {
          "internalType": "string",
          "name": "_reason",
          "type": "string"
        }
      ],
      "name": "reportLost",
      "outputs": [],
      "stateMutability": "nonpayable",
      "type": "function"
    },
    {
      "inputs": [
        {
          "internalType": "bytes32",
          "name": "role",
          "type": "bytes32"
        },
        {
          "internalType": "address",
          "name": "account",
          "type": "address"
        }
      ],
      "name": "revokeAccess",
      "outputs": [],
      "stateMutability": "nonpayable",
      "type": "function"
    },
    {
      "inputs": [
        {
          "internalType": "bytes32",
          "name": "role",
          "type": "bytes32"
        },
        {
          "internalType": "address",
          "name": "account",
          "type": "address"
        }
      ],
      "name": "revokeRole",
      "outputs": [],
      "stateMutability": "nonpayable",
      "type": "function"
    },
    {
      "inputs": [
        {
          "internalType": "address",
          "name": "_collectorAddress",
          "type": "address"
        }
      ],
      "name": "setFeeCollectorAddress",
      "outputs": [],
      "stateMutability": "nonpayable",
      "type": "function"
    },
    {
      "inputs": [
        {
          "internalType": "address",
          "name": "_tokenAddress",
          "type": "address"
        }
      ],
      "name": "setTokenContractAddress",
      "outputs": [],
      "stateMutability": "nonpayable",
      "type": "function"
    },
    {
      "inputs": [
        {
          "internalType": "bytes4",
          "name": "interfaceId",
          "type": "bytes4"
        }
      ],
      "name": "supportsInterface",
      "outputs": [
        {
          "internalType": "bool",
          "name": "",
          "type": "bool"
        }
      ],
      "stateMutability": "view",
      "type": "function"
    },
    {
      "inputs": [],
      "name": "tokenContract",
      "outputs": [
        {
          "internalType": "contract IERC20",
          "name": "",
          "type": "address"
        }
      ],
      "stateMutability": "view",
      "type": "function"
    },
    {
      "inputs": [
        {
          "internalType": "bytes32",
          "name": "_itemId",
          "type": "bytes32"
        },
        {
          "internalType": "uint256",
          "name": "_newSellingPrice",
          "type": "uint256"
        }
      ],
      "name": "updateSellingPrice",
      "outputs": [],
      "stateMutability": "nonpayable",
      "type": "function"
    },
    {
      "inputs": [
        {
          "internalType": "address",
          "name": "newImplementation",
          "type": "address"
        },
        {
          "internalType": "bytes",
          "name": "data",
          "type": "bytes"
        }
      ],
      "name": "upgradeToAndCall",
      "outputs": [],
      "stateMutability": "payable",
      "type": "function"
    }
  ],
  "bytecode": "0x60a060405230608052348015601357600080fd5b50608051614dd961003d6000396000818161395e015281816139870152613acd0152614dd96000f3fe6080604052600436106102465760003560e01c80636a079ce21161013957806391d14854116100b6578063c415b95c1161007a578063c415b95c1461080c578063cb3e1fe71461082c578063d547741f1461084e578063d7787eeb1461086e578063ed76863d1461088e578063f0bd87cc146108ae57600080fd5b806391d14854146107595780639f02d3ec14610779578063a217fddf14610799578063ad3cb1cc146107ae578063b23d4854146107ec57600080fd5b80637d6ba5b3116100fd5780637d6ba5b3146106415780638129fc1c146106615780638d4ab2c0146106765780638d53b208146107005780638fbd1ce11461072057600080fd5b80636a079ce21461055457806370f378f414610584578063729dfe40146105a457806373140409146105c657806375b238fc1461060d57600080fd5b806336568abe116101c75780634eabbe771161018b5780634eabbe77146104b25780634f1ef286146104d457806352b0cb20146104e757806352d1902d1461050757806355a373d61461051c57600080fd5b806336568abe146103ef57806336a55b381461040f57806340554c3a1461042f57806348292cbd1461044f57806348f343f31461047c57600080fd5b8063204d79231161020e578063204d79231461032b5780632115e7bf1461036d578063248a9ca31461038f57806329349148146103af5780632f2ff15d146103cf57600080fd5b806301ffc9a71461024b5780630494f3f3146102805780631395f14a146102a257806314ca631b146102cf57806315459471146102fe575b600080fd5b34801561025757600080fd5b5061026b61026636600461406f565b6108d0565b60405190151581526020015b60405180910390f35b34801561028c57600080fd5b506102a061029b366004614099565b610907565b005b3480156102ae57600080fd5b506102c26102bd366004614099565b610dd7565b604051610277919061413a565b3480156102db57600080fd5b506102ef6102ea3660046141fc565b61108d565b6040516102779392919061421e565b34801561030a57600080fd5b5061031e610319366004614099565b6111e4565b6040516102779190614254565b34801561033757600080fd5b5061035f7f288a15c4a15d470e4cd9cad2f113b91206b520c26dbd3dd74627f0c057baa19c81565b604051908152602001610277565b34801561037957600080fd5b5061035f600080516020614d1b83398151915281565b34801561039b57600080fd5b5061035f6103aa366004614099565b611337565b3480156103bb57600080fd5b506102a06103ca3660046143a1565b611359565b3480156103db57600080fd5b506102a06103ea366004614403565b6115a9565b3480156103fb57600080fd5b506102a061040a366004614403565b6115cb565b34801561041b57600080fd5b506102a061042a366004614099565b611603565b34801561043b57600080fd5b506102a061044a366004614403565b611d46565b34801561045b57600080fd5b5061046f61046a366004614099565b611d51565b604051610277919061442f565b34801561048857600080fd5b5061049c610497366004614099565b611ee6565b6040516102779a999897969594939291906144ba565b3480156104be57600080fd5b5061035f600080516020614cdb83398151915281565b6102a06104e2366004614544565b6120e2565b3480156104f357600080fd5b506102a06105023660046143a1565b612101565b34801561051357600080fd5b5061035f612348565b34801561052857600080fd5b5060005461053c906001600160a01b031681565b6040516001600160a01b039091168152602001610277565b34801561056057600080fd5b5061057461056f3660046141fc565b612365565b604051610277949392919061459b565b34801561059057600080fd5b506102a061059f3660046145d9565b612444565b3480156105b057600080fd5b506105b9612a1c565b6040516102779190614691565b3480156105d257600080fd5b506106006105e1366004614099565b600090815260026020526040902060030154600160a01b900460ff1690565b60405161027791906146d4565b34801561061957600080fd5b5061035f7fa49807205ce4d355092ef5a8a18f56e8913cf4a201fbe287825b095693c2177581565b34801561064d57600080fd5b506102a061065c3660046146e2565b612a74565b34801561066d57600080fd5b506102a0612b2c565b34801561068257600080fd5b506106cd610691366004614099565b600560205260009081526040902080546001909101546001600160a01b039182169181169060ff600160a01b8204811691600160a81b90041684565b604080516001600160a01b0395861681529490931660208501529015159183019190915215156060820152608001610277565b34801561070c57600080fd5b506102a061071b366004614403565b612c4a565b34801561072c57600080fd5b5061053c61073b366004614099565b6000908152600260205260409020600301546001600160a01b031690565b34801561076557600080fd5b5061026b610774366004614403565b612c5f565b34801561078557600080fd5b506102a06107943660046141fc565b612c97565b3480156107a557600080fd5b5061035f600081565b3480156107ba57600080fd5b506107df604051806040016040528060058152602001640352e302e360dc1b81525081565b60405161027791906146fd565b3480156107f857600080fd5b506102a06108073660046146e2565b613017565b34801561081857600080fd5b5060015461053c906001600160a01b031681565b34801561083857600080fd5b5061035f600080516020614cbb83398151915281565b34801561085a57600080fd5b506102a0610869366004614403565b6130c1565b34801561087a57600080fd5b506102a0610889366004614710565b6130d3565b34801561089a57600080fd5b506102a06108a9366004614403565b6133d1565b3480156108ba57600080fd5b5061035f600080516020614cfb83398151915281565b60006001600160e01b03198216637965db0b60e01b148061090157506301ffc9a760e01b6001600160e01b03198316145b92915050565b60008181526002602052604090206003810154600160a81b900460ff166109495760405162461bcd60e51b815260040161094090614780565b60405180910390fd5b60066003820154600160a01b900460ff16600981111561096b5761096b614102565b146109ea5760405162461bcd60e51b815260206004820152604360248201527f4974656d206d75737420626520696e2052454345495645445f41545f5245544160448201527f494c455220737461746520746f20626520626f7567687420627920637573746f60648201526236b2b960e91b608482015260a401610940565b60038101546001600160a01b0316610a10600080516020614d1b83398151915282612c5f565b610a5c5760405162461bcd60e51b815260206004820152601f60248201527f43757272656e74206f776e6572206973206e6f7420612052657461696c6572006044820152606401610940565b600682015415610c65576000546001600160a01b0316610a8e5760405162461bcd60e51b8152600401610940906147ad565b600080546001600160a01b031663dd62ed3e336040516001600160e01b031960e084901b1681526001600160a01b039091166004820152306024820152604401602060405180830381865afa158015610aeb573d6000803e3d6000fd5b505050506040513d601f19601f82011682018060405250810190610b0f91906147e4565b90508260060154811015610b355760405162461bcd60e51b8152600401610940906147fd565b600080546001600160a01b03166323b872dd3360068701546040516001600160e01b031960e085901b1681526001600160a01b039283166004820152918716602483015260448201526064016020604051808303816000875af1158015610ba0573d6000803e3d6000fd5b505050506040513d601f19601f82011682018060405250810190610bc4919061484b565b905080610be35760405162461bcd60e51b81526004016109409061486d565b6001600160a01b038316336001600160a01b0316867f9688cb9d5126d389af6cc829498ad77cffd361f01a6e97e9c404812e076399878760060154604051610c5a9181526040602082018190526015908201527424ba32b69029b0b632903a379021bab9ba37b6b2b960591b606082015260800190565b60405180910390a450505b600382810180546001600160a81b03191633908117600760a01b179091556000858152602083815260408083208151608081018352600781528084019590955242858301528151808301909252601582527424ba32b69039b7b632103a379031bab9ba37b6b2b960591b828401526060850191909152805460018181018355918452919092208351919094029093018054929390929091839160ff191690836009811115610d1557610d15614102565b0217905550602082015181546001600160a01b0390911661010002610100600160a81b03199091161781556040820151600182015560608201516002820190610d5e9082614931565b505050827f0c75017800f18fe8aa79d2d17f80214b1730a14d8170d048f00e4e5b53cc1bb66007604051610d9291906149ef565b60405180910390a260405133906001600160a01b0383169085907f0353d877cb0f02e37caebcb7e28a31233e54f70864290af7c59f6076588d714990600090a4505050565b604080516101408101825260008082526060602083018190529282018390528282018190526080820181905260a0820181905260c0820181905260e08201819052610100820152610120810191909152600260008381526020019081526020016000206040518061014001604052908160008201548152602001600182018054610e60906148b0565b80601f0160208091040260200160405190810160405280929190818152602001828054610e8c906148b0565b8015610ed95780601f10610eae57610100808354040283529160200191610ed9565b820191906000526020600020905b815481529060010190602001808311610ebc57829003601f168201915b50505050508152602001600282018054610ef2906148b0565b80601f0160208091040260200160405190810160405280929190818152602001828054610f1e906148b0565b8015610f6b5780601f10610f4057610100808354040283529160200191610f6b565b820191906000526020600020905b815481529060010190602001808311610f4e57829003601f168201915b505050918352505060038201546001600160a01b0381166020830152604090910190600160a01b900460ff166009811115610fa857610fa8614102565b6009811115610fb957610fb9614102565b81526003820154600160a81b900460ff161515602082015260048201546040820152600582015460608201526006820154608082015260078201805460a090920191611004906148b0565b80601f0160208091040260200160405190810160405280929190818152602001828054611030906148b0565b801561107d5780601f106110525761010080835404028352916020019161107d565b820191906000526020600020905b81548152906001019060200180831161106057829003601f168201915b5050505050815250509050919050565b600460205281600052604060002081815481106110a957600080fd5b9060005260206000209060030201600091509150508060000180546110cd906148b0565b80601f01602080910402602001604051908101604052809291908181526020018280546110f9906148b0565b80156111465780601f1061111b57610100808354040283529160200191611146565b820191906000526020600020905b81548152906001019060200180831161112957829003601f168201915b50505050509080600101805461115b906148b0565b80601f0160208091040260200160405190810160405280929190818152602001828054611187906148b0565b80156111d45780601f106111a9576101008083540402835291602001916111d4565b820191906000526020600020905b8154815290600101906020018083116111b757829003601f168201915b5050505050908060020154905083565b606060036000838152602001908152602001600020805480602002602001604051908101604052809291908181526020016000905b8282101561132c576000848152602090206040805160808101909152600384029091018054829060ff16600981111561125457611254614102565b600981111561126557611265614102565b8152815461010090046001600160a01b031660208201526001820154604082015260028201805460609092019161129b906148b0565b80601f01602080910402602001604051908101604052809291908181526020018280546112c7906148b0565b80156113145780601f106112e957610100808354040283529160200191611314565b820191906000526020600020905b8154815290600101906020018083116112f757829003601f168201915b50505050508152505081526020019060010190611219565b505050509050919050565b6000908152600080516020614d84833981519152602052604090206001015490565b611371600080516020614cdb83398151915233612c5f565b8061138f575061138f600080516020614cfb83398151915233612c5f565b6114015760405162461bcd60e51b815260206004820152603a60248201527f43616c6c6572206d757374206265205472616e73706f72746572206f7220446960448201527f737472696275746f7220746f207265706f72742064616d6167650000000000006064820152608401610940565b60008281526002602052604090206003810154600160a81b900460ff1661143a5760405162461bcd60e51b815260040161094090614780565b60038101546001600160a01b031633146114a25760405162461bcd60e51b8152602060048201526024808201527f4f6e6c792063757272656e74206f776e65722063616e207265706f72742064616044820152636d61676560e01b6064820152608401610940565b6003818101805460ff60a01b1916600160a31b17905560008481526020828152604080832081516080810183526008815233818501524292810192909252606082018790528054600181810183559185529290932081519290940290930180549092839160ff19169083600981111561151d5761151d614102565b0217905550602082015181546001600160a01b0390911661010002610100600160a81b031990911617815560408201516001820155606082015160028201906115669082614931565b505050827f0c75017800f18fe8aa79d2d17f80214b1730a14d8170d048f00e4e5b53cc1bb660088460405161159c929190614a2e565b60405180910390a2505050565b6115b282611337565b6115bb81613825565b6115c58383613832565b50505050565b6001600160a01b03811633146115f45760405163334bd91960e11b815260040160405180910390fd5b6115fe82826138d7565b505050565b600081815260056020908152604080832060029092529091206003810154600160a81b900460ff166116475760405162461bcd60e51b815260040161094090614780565b60018201546001600160a01b031633146116ae5760405162461bcd60e51b815260206004820152602260248201527f4f6e6c792072656365697665722063616e20636f6e6669726d207472616e736660448201526132b960f11b6064820152608401610940565b6001820154600160a01b900460ff166117155760405162461bcd60e51b815260206004820152602360248201527f53656e646572206d75737420696e697469617465207472616e736665722066696044820152621c9cdd60ea1b6064820152608401610940565b6001820154600160a81b900460ff16156117805760405162461bcd60e51b815260206004820152602660248201527f5472616e7366657220616c726561647920636f6e6669726d656420627920726560448201526531b2b4bb32b960d11b6064820152608401610940565b611798600080516020614cdb83398151915233612c5f565b806117b657506117b6600080516020614cfb83398151915233612c5f565b806117d457506117d4600080516020614d1b83398151915233612c5f565b6118205760405162461bcd60e51b815260206004820152601d60248201527f496e76616c696420636f6e6669726d207472616e7366657220726f6c650000006044820152606401610940565b600681015460009015611a35576000546001600160a01b03166118555760405162461bcd60e51b8152600401610940906147ad565b600080546001600160a01b031663dd62ed3e336040516001600160e01b031960e084901b1681526001600160a01b039091166004820152306024820152604401602060405180830381865afa1580156118b2573d6000803e3d6000fd5b505050506040513d601f19601f820116820180604052508101906118d691906147e4565b905082600601548110156118fc5760405162461bcd60e51b8152600401610940906147fd565b600080546001600160a01b03166323b872dd338754600688015460405160e085901b6001600160e01b03191681526001600160a01b03938416600482015292909116602483015260448201526064016020604051808303816000875af115801561196a573d6000803e3d6000fd5b505050506040513d601f19601f8201168201806040525081019061198e919061484b565b9050806119ad5760405162461bcd60e51b81526004016109409061486d565b600684015485549093506001600160a01b0316336001600160a01b0316877f9688cb9d5126d389af6cc829498ad77cffd361f01a6e97e9c404812e076399878760060154604051611a2a918152604060208201819052601290820152714974656d2053656c6c696e6720507269636560701b606082015260800190565b60405180910390a450505b60018301805460ff60a81b1916600160a81b179055611a513390565b6003830180546001600160a01b0319166001600160a01b039290921691909117905560408051808201909152600e81526d24ba32b6903932b1b2b4bb32b21760911b6020820152611ab0600080516020614cdb83398151915233612c5f565b15611ae95760038301805460ff60a01b1916600160a11b17905560408051606081019091526029808252614d5b60208301399050611bbd565b611b01600080516020614cfb83398151915233612c5f565b15611b55575060038201805460ff60a01b1916600160a21b17905560408051808201909152601d81527f4974656d207265636569766564206174204469737472696275746f722e0000006020820152611bbd565b611b6d600080516020614d1b83398151915233612c5f565b15611bbd575060038201805460ff60a01b1916600360a11b17905560408051808201909152601a81527f4974656d2072656365697665642061742052657461696c65722e00000000000060208201525b8260040154421115611bec5780604051602001611bda9190614a56565b60405160208183030381529060405290505b6003600086815260200190815260200160002060405180608001604052808560030160149054906101000a900460ff166009811115611c2d57611c2d614102565b815233602080830191909152426040830152606090910184905282546001808201855560009485529190932082516003909402018054929390929091839160ff191690836009811115611c8257611c82614102565b0217905550602082015181546001600160a01b0390911661010002610100600160a81b03199091161781556040820151600182015560608201516002820190611ccb9082614931565b505050600085815260056020526040902080546001600160a01b031916815560010180546001600160b01b0319169055336001600160a01b0316857f088c474e55a390f3d615704787d6b2fb7f0f3c31d954fa34f812d542226715ab84604051611d3791815260200190565b60405180910390a35050505050565b60006115bb81613825565b606060046000838152602001908152602001600020805480602002602001604051908101604052809291908181526020016000905b8282101561132c5783829060005260206000209060030201604051806060016040529081600082018054611db9906148b0565b80601f0160208091040260200160405190810160405280929190818152602001828054611de5906148b0565b8015611e325780601f10611e0757610100808354040283529160200191611e32565b820191906000526020600020905b815481529060010190602001808311611e1557829003601f168201915b50505050508152602001600182018054611e4b906148b0565b80601f0160208091040260200160405190810160405280929190818152602001828054611e77906148b0565b8015611ec45780601f10611e9957610100808354040283529160200191611ec4565b820191906000526020600020905b815481529060010190602001808311611ea757829003601f168201915b5050505050815260200160028201548152505081526020019060010190611d86565b60026020526000908152604090208054600182018054919291611f08906148b0565b80601f0160208091040260200160405190810160405280929190818152602001828054611f34906148b0565b8015611f815780601f10611f5657610100808354040283529160200191611f81565b820191906000526020600020905b815481529060010190602001808311611f6457829003601f168201915b505050505090806002018054611f96906148b0565b80601f0160208091040260200160405190810160405280929190818152602001828054611fc2906148b0565b801561200f5780601f10611fe45761010080835404028352916020019161200f565b820191906000526020600020905b815481529060010190602001808311611ff257829003601f168201915b50505050600383015460048401546005850154600686015460078701805496976001600160a01b0386169760ff600160a01b880481169850600160a81b9097049096169590919061205f906148b0565b80601f016020809104026020016040519081016040528092919081815260200182805461208b906148b0565b80156120d85780601f106120ad576101008083540402835291602001916120d8565b820191906000526020600020905b8154815290600101906020018083116120bb57829003601f168201915b505050505090508a565b6120ea613953565b6120f3826139fa565b6120fd8282613a05565b5050565b612119600080516020614cdb83398151915233612c5f565b806121375750612137600080516020614cfb83398151915233612c5f565b6121a95760405162461bcd60e51b815260206004820152603860248201527f43616c6c6572206d757374206265205472616e73706f72746572206f7220446960448201527f737472696275746f7220746f207265706f7274206c6f737400000000000000006064820152608401610940565b60008281526002602052604090206003810154600160a81b900460ff166121e25760405162461bcd60e51b815260040161094090614780565b60038101546001600160a01b031633146122495760405162461bcd60e51b815260206004820152602260248201527f4f6e6c792063757272656e74206f776e65722063616e207265706f7274206c6f6044820152611cdd60f21b6064820152608401610940565b6003818101805460ff60a01b1916600960a01b17905560008481526020828152604080832081516080810183526009808252338286015242938201939093526060810188905281546001818101845592865293909420845193909502909401805493949093849260ff19909116919084908111156122c9576122c9614102565b0217905550602082015181546001600160a01b0390911661010002610100600160a81b031990911617815560408201516001820155606082015160028201906123129082614931565b505050827f0c75017800f18fe8aa79d2d17f80214b1730a14d8170d048f00e4e5b53cc1bb660098460405161159c929190614a2e565b6000612352613ac2565b50600080516020614d3b83398151915290565b6003602052816000526040600020818154811061238157600080fd5b600091825260209091206003909102018054600182015460028301805460ff841696506101009093046001600160a01b031694509092916123c1906148b0565b80601f01602080910402602001604051908101604052809291908181526020018280546123ed906148b0565b801561243a5780601f1061240f5761010080835404028352916020019161243a565b820191906000526020600020905b81548152906001019060200180831161241d57829003601f168201915b5050505050905084565b600080516020614cbb83398151915261245c81613825565b600088815260026020526040902060030154600160a81b900460ff16156124bb5760405162461bcd60e51b81526020600482015260136024820152724974656d20616c72656164792065786973747360681b6044820152606401610940565b6000546001600160a01b03166124e35760405162461bcd60e51b8152600401610940906147ad565b6001546001600160a01b031661253b5760405162461bcd60e51b815260206004820152601d60248201527f46656520636f6c6c6563746f722061646472657373206e6f74207365740000006044820152606401610940565b831561277f57600080546001600160a01b031663dd62ed3e336040516001600160e01b031960e084901b1681526001600160a01b039091166004820152306024820152604401602060405180830381865afa15801561259e573d6000803e3d6000fd5b505050506040513d601f19601f820116820180604052508101906125c291906147e4565b9050848110156126285760405162461bcd60e51b815260206004820152602b60248201527f496e73756666696369656e7420746f6b656e20616c6c6f77616e636520666f7260448201526a20636f737420707269636560a81b6064820152608401610940565b600080546001600160a01b03166323b872dd3360015460405160e084901b6001600160e01b03191681526001600160a01b03928316600482015291166024820152604481018990526064016020604051808303816000875af1158015612692573d6000803e3d6000fd5b505050506040513d601f19601f820116820180604052508101906126b6919061484b565b9050806127055760405162461bcd60e51b815260206004820181905260248201527f436f737420707269636520746f6b656e207472616e73666572206661696c65646044820152606401610940565b6001546001600160a01b0316336001600160a01b03168b7f9688cb9d5126d389af6cc829498ad77cffd361f01a6e97e9c404812e0763998789604051612774918152604060208201819052600f908201526e4974656d20436f737420507269636560881b606082015260800190565b60405180910390a450505b6040518061014001604052808981526020018881526020018781526020016127a43390565b6001600160a01b03168152602001600081526001602080830182905260408084018a9052606084018990526080840188905260a090930186905260008c815260028252929092208351815591830151908201906128019082614931565b50604082015160028201906128169082614931565b5060608201516003820180546001600160a01b039092166001600160a01b03198316811782556080850151926001600160a81b03191617600160a01b83600981111561286457612864614102565b021790555060a0820151600382018054911515600160a81b0260ff60a81b1990921691909117905560c0820151600482015560e08201516005820155610100820151600682015561012082015160078201906128c09082614931565b50505060008881526003602081815260408084208151608081018352858152338185015242818401528251808401909352600c83526b125d195b4818dc99585d195960a21b83850152606081019290925280546001808201835591865292909420815192909302909201805492939092839160ff199091169083600981111561294b5761294b614102565b0217905550602082015181546001600160a01b0390911661010002610100600160a81b031990911617815560408201516001820155606082015160028201906129949082614931565b5050600680546001810182556000919091527ff652222313e28459528d920b65115c16c04f3efc82aaedc97be59f3f377c0d3f0189905550336001600160a01b0316887fb807465cfb39005ec617112ed4e6a3cbf71bd2cd6e1aba7f831594df4f3784aa898787604051612a0a93929190614a8c565b60405180910390a35050505050505050565b60606006805480602002602001604051908101604052809291908181526020018280548015612a6a57602002820191906000526020600020905b815481526020019060010190808311612a56575b5050505050905090565b6000612a7f81613825565b6001600160a01b038216612ae15760405162461bcd60e51b8152602060048201526024808201527f46656520636f6c6c6563746f7220616464726573732063616e6e6f74206265206044820152637a65726f60e01b6064820152608401610940565b600180546001600160a01b0319166001600160a01b0384169081179091556040517f6372e15ca741f2dbd0d10e1936f5f225a9904ad9ca5e0e173287dad04ee6cefc90600090a25050565b6000612b36613b0b565b805490915060ff600160401b82041615906001600160401b0316600081158015612b5d5750825b90506000826001600160401b03166001148015612b795750303b155b905081158015612b87575080155b15612ba55760405163f92ee8a960e01b815260040160405180910390fd5b845467ffffffffffffffff191660011785558315612bcf57845460ff60401b1916600160401b1785555b612bd7613b34565b612bdf613b34565b612bea600033613832565b50600180546001600160a01b031916331790558315612c4357845460ff60401b19168555604051600181527fc7f505b2f371ae2175ee4913f4499e1f2633a7b5936321eed1cdaeb6115181d29060200160405180910390a15b5050505050565b6000612c5581613825565b6115c583836138d7565b6000918252600080516020614d84833981519152602090815260408084206001600160a01b0393909316845291905290205460ff1690565b60008281526002602052604090206003810154600160a81b900460ff16612cd05760405162461bcd60e51b815260040161094090614780565b60038101546001600160a01b03163314612d405760405162461bcd60e51b815260206004820152602b60248201527f4f6e6c792063757272656e74206f776e65722063616e2075706461746520736560448201526a6c6c696e6720707269636560a81b6064820152608401610940565b612d58600080516020614cbb83398151915233612c5f565b80612d765750612d76600080516020614cfb83398151915233612c5f565b80612d945750612d94600080516020614d1b83398151915233612c5f565b612de05760405162461bcd60e51b815260206004820152601860248201527f43616c6c6572206973206e6f7420617574686f72697a656400000000000000006044820152606401610940565b60006003820154600160a01b900460ff166009811115612e0257612e02614102565b1480612e2d575060046003820154600160a01b900460ff166009811115612e2b57612e2b614102565b145b80612e57575060066003820154600160a01b900460ff166009811115612e5557612e55614102565b145b612ec15760405162461bcd60e51b815260206004820152603560248201527f4974656d206d75737420626520696e20612076616c696420737461746520746f604482015274207570646174652073656c6c696e6720707269636560581b6064820152608401610940565b60068101805490839055604051838152339085907f352687963b7c2914def1f529082034cb0c8f9a432ee3f60afd889daae83aa96a9060200160405180910390a36003600085815260200190815260200160002060405180608001604052808460030160149054906101000a900460ff166009811115612f4357612f43614102565b8152336020820152426040820152606001612f5d84613b3c565b612f6687613b3c565b604051602001612f77929190614ab1565b60408051601f198184030181529190529052815460018181018455600093845260209093208251600390920201805492939092839160ff1990911690836009811115612fc557612fc5614102565b0217905550602082015181546001600160a01b0390911661010002610100600160a81b0319909116178155604082015160018201556060820151600282019061300e9082614931565b50505050505050565b600061302281613825565b6001600160a01b0382166130785760405162461bcd60e51b815260206004820152601c60248201527f546f6b656e20616464726573732063616e6e6f74206265207a65726f000000006044820152606401610940565b600080546001600160a01b0319166001600160a01b038416908117825560405190917f284bbd60459a4c88dcceeca2cdf83cd4d5e796c4f3dfe0eff9baa7a06a40dab691a25050565b6130ca82611337565b612c5581613825565b600080516020614cbb8339815191526130eb81613825565b60008481526002602052604090206003810154600160a81b900460ff166131245760405162461bcd60e51b815260040161094090614780565b60038101546001600160a01b0316331461318f5760405162461bcd60e51b815260206004820152602660248201527f4f6e6c792063757272656e74206f776e65722063616e2061646420636572746960448201526566696361746560d01b6064820152608401610940565b60006003820154600160a01b900460ff1660098111156131b1576131b1614102565b146132185760405162461bcd60e51b815260206004820152603160248201527f4974656d206d75737420626520696e2050726f647563656420737461746520746044820152706f2061646420636572746966696361746560781b6064820152608401610940565b60008581526004602090815260408083208151606081018352888152808401889052429281019290925280546001810182559084529190922082516003909202019081906132669082614931565b506020820151600182019061327b9082614931565b50604082015181600201555050847f990abeb86e6cfb21342f48fb558b6178010aa5e52bb9881a06312ae99232883985856040516132ba929190614b19565b60405180910390a26003600086815260200190815260200160002060405180608001604052808360030160149054906101000a900460ff16600981111561330357613303614102565b8152602001336001600160a01b031681526020014281526020018686604051602001613330929190614b3e565b60408051601f198184030181529190529052815460018181018455600093845260209093208251600390920201805492939092839160ff199091169083600981111561337e5761337e614102565b0217905550602082015181546001600160a01b0390911661010002610100600160a81b031990911617815560408201516001820155606082015160028201906133c79082614931565b5050505050505050565b60008281526002602052604090206003810154600160a81b900460ff1661340a5760405162461bcd60e51b815260040161094090614780565b60038101546001600160a01b031633146134775760405162461bcd60e51b815260206004820152602860248201527f4f6e6c792063757272656e74206f776e65722063616e20696e697469617465206044820152673a3930b739b332b960c11b6064820152608401610940565b61348f600080516020614cdb83398151915283612c5f565b806134ad57506134ad600080516020614cfb83398151915283612c5f565b806134cb57506134cb600080516020614d1b83398151915283612c5f565b61350f5760405162461bcd60e51b8152602060048201526015602482015274496e76616c696420726563656976657220726f6c6560581b6044820152606401610940565b6000838152600560205260409020546001600160a01b0316156135845760405162461bcd60e51b815260206004820152602760248201527f4578697374696e67207472616e736665722070656e64696e6720666f722074686044820152666973206974656d60c81b6064820152608401610940565b60405180608001604052806135963390565b6001600160a01b039081168252848116602080840191909152600160408085018290526000606095860181905289815260058452819020865181549086166001600160a01b0319909116178155928601519290910180549186015195909401511515600160a81b0260ff60a81b19951515600160a01b026001600160a81b031990921692909316919091171792909216919091179055613644600080516020614cdb83398151915283612c5f565b1561366b576003810180546001919060ff60a01b1916600160a01b835b02179055506136d4565b613683600080516020614cfb83398151915283612c5f565b156136a1576003818101805460ff60a01b1916600160a01b83613661565b6136b9600080516020614d1b83398151915283612c5f565b156136d45760038101805460ff60a01b1916600560a01b1790555b6003600084815260200190815260200160002060405180608001604052808360030160149054906101000a900460ff16600981111561371557613715614102565b815233602082015242604082015260600161372f85613c47565b60405160200161373f9190614b9c565b60408051601f198184030181529190529052815460018181018455600093845260209093208251600390920201805492939092839160ff199091169083600981111561378d5761378d614102565b0217905550602082015181546001600160a01b0390911661010002610100600160a81b031990911617815560408201516001820155606082015160028201906137d69082614931565b505050816001600160a01b03166137ea3390565b6001600160a01b0316847f342d38e01a2764dde5384ce69df459bf7c7cd213cf5c4531154cdffc612d818c60405160405180910390a4505050565b61382f8133613e1f565b50565b6000600080516020614d8483398151915261384d8484612c5f565b6138cd576000848152602082815260408083206001600160a01b03871684529091529020805460ff191660011790556138833390565b6001600160a01b0316836001600160a01b0316857f2f8788117e7eff1d82e926ec794901d17c78024a50270940304540a733656f0d60405160405180910390a46001915050610901565b6000915050610901565b6000600080516020614d848339815191526138f28484612c5f565b156138cd576000848152602082815260408083206001600160a01b0387168085529252808320805460ff1916905551339287917ff6391f5c32d9c69d2a47ea670b442974b53935d1edc7fd64eb21e047a839171b9190a46001915050610901565b306001600160a01b037f00000000000000000000000000000000000000000000000000000000000000001614806139da57507f00000000000000000000000000000000000000000000000000000000000000006001600160a01b03166139ce600080516020614d3b833981519152546001600160a01b031690565b6001600160a01b031614155b156139f85760405163703e46dd60e11b815260040160405180910390fd5b565b60006120fd81613825565b816001600160a01b03166352d1902d6040518163ffffffff1660e01b8152600401602060405180830381865afa925050508015613a5f575060408051601f3d908101601f19168201909252613a5c918101906147e4565b60015b613a8757604051634c9c8ce360e01b81526001600160a01b0383166004820152602401610940565b600080516020614d3b8339815191528114613ab857604051632a87526960e21b815260048101829052602401610940565b6115fe8383613e58565b306001600160a01b037f000000000000000000000000000000000000000000000000000000000000000016146139f85760405163703e46dd60e11b815260040160405180910390fd5b6000807ff0c57e16840df040f15088dc2f81fe391c3923bec73e23a9662efc9c229c6a00610901565b6139f8613eae565b606081600003613b635750506040805180820190915260018152600360fc1b602082015290565b8160005b8115613b8d5780613b7781614bf0565b9150613b869050600a83614c1f565b9150613b67565b6000816001600160401b03811115613ba757613ba76142f3565b6040519080825280601f01601f191660200182016040528015613bd1576020820181803683370190505b508593509050815b8315613c3e57613bea600a85614c33565b613bf5906030614c47565b60f81b82613c0283614c5a565b92508281518110613c1557613c15614c71565b60200101906001600160f81b031916908160001a905350613c37600a85614c1f565b9350613bd9565b50949350505050565b604080518082018252601081526f181899199a1a9b1b9c1cb0b131b232b360811b60208201528151602a80825260608281019094526001600160a01b0385169291600091602082018180368337019050509050600360fc1b81600081518110613cb257613cb2614c71565b60200101906001600160f81b031916908160001a905350600f60fb1b81600181518110613ce157613ce1614c71565b60200101906001600160f81b031916908160001a90535060005b6014811015613c3e5782600485613d1384600c614c47565b60208110613d2357613d23614c71565b1a60f81b6001600160f81b031916901c60f81c60ff1681518110613d4957613d49614c71565b01602001516001600160f81b03191682613d64836002614c87565b613d6f906002614c47565b81518110613d7f57613d7f614c71565b60200101906001600160f81b031916908160001a9053508284613da383600c614c47565b60208110613db357613db3614c71565b825191901a600f16908110613dca57613dca614c71565b01602001516001600160f81b03191682613de5836002614c87565b613df0906003614c47565b81518110613e0057613e00614c71565b60200101906001600160f81b031916908160001a905350600101613cfb565b613e298282612c5f565b6120fd5760405163e2517d3f60e01b81526001600160a01b038216600482015260248101839052604401610940565b613e6182613ed3565b6040516001600160a01b038316907fbc7cd75a20ee27fd9adebab32041f755214dbc6bffa90cc0225b39da2e5c2d3b90600090a2805115613ea6576115fe8282613f38565b6120fd613fae565b613eb6613fcd565b6139f857604051631afcd79f60e31b815260040160405180910390fd5b806001600160a01b03163b600003613f0957604051634c9c8ce360e01b81526001600160a01b0382166004820152602401610940565b600080516020614d3b83398151915280546001600160a01b0319166001600160a01b0392909216919091179055565b6060600080846001600160a01b031684604051613f559190614c9e565b600060405180830381855af49150503d8060008114613f90576040519150601f19603f3d011682016040523d82523d6000602084013e613f95565b606091505b5091509150613fa5858383613fe7565b95945050505050565b34156139f85760405163b398979f60e01b815260040160405180910390fd5b6000613fd7613b0b565b54600160401b900460ff16919050565b606082613ffc57613ff782614046565b61403f565b815115801561401357506001600160a01b0384163b155b1561403c57604051639996b31560e01b81526001600160a01b0385166004820152602401610940565b50805b9392505050565b8051156140565780518082602001fd5b60405163d6bda27560e01b815260040160405180910390fd5b60006020828403121561408157600080fd5b81356001600160e01b03198116811461403f57600080fd5b6000602082840312156140ab57600080fd5b5035919050565b60005b838110156140cd5781810151838201526020016140b5565b50506000910152565b600081518084526140ee8160208601602086016140b2565b601f01601f19169290920160200192915050565b634e487b7160e01b600052602160045260246000fd5b600a811061413657634e487b7160e01b600052602160045260246000fd5b9052565b60208152815160208201526000602083015161014060408401526141626101608401826140d6565b90506040840151601f1984830301606085015261417f82826140d6565b915050606084015161419c60808501826001600160a01b03169052565b5060808401516141af60a0850182614118565b5060a084015180151560c08501525060c084015160e084015260e0840151610100840152610100840151610120840152610120840151601f1984830301610140850152613fa582826140d6565b6000806040838503121561420f57600080fd5b50508035926020909101359150565b60608152600061423160608301866140d6565b828103602084015261424381866140d6565b915050826040830152949350505050565b6000602082016020835280845180835260408501915060408160051b86010192506020860160005b828110156142e757603f19878603018452815161429a868251614118565b60018060a01b0360208201511660208701526040810151604087015260608101519050608060608701526142d160808701826140d6565b955050602093840193919091019060010161427c565b50929695505050505050565b634e487b7160e01b600052604160045260246000fd5b6000806001600160401b03841115614323576143236142f3565b50604051601f19601f85018116603f011681018181106001600160401b0382111715614351576143516142f3565b60405283815290508082840185101561436957600080fd5b83836020830137600060208583010152509392505050565b600082601f83011261439257600080fd5b61403f83833560208501614309565b600080604083850312156143b457600080fd5b8235915060208301356001600160401b038111156143d157600080fd5b6143dd85828601614381565b9150509250929050565b80356001600160a01b03811681146143fe57600080fd5b919050565b6000806040838503121561441657600080fd5b82359150614426602084016143e7565b90509250929050565b6000602082016020835280845180835260408501915060408160051b86010192506020860160005b828110156142e757603f19878603018452815180516060875261447d60608801826140d6565b90506020820151878203602089015261449682826140d6565b60409384015198909301979097525094506020938401939190910190600101614457565b8a8152610140602082015260006144d561014083018c6140d6565b82810360408401526144e7818c6140d6565b6001600160a01b038b1660608501529050614505608084018a614118565b87151560a08401528660c08401528560e08401528461010084015282810361012084015261453381856140d6565b9d9c50505050505050505050505050565b6000806040838503121561455757600080fd5b614560836143e7565b915060208301356001600160401b0381111561457b57600080fd5b8301601f8101851361458c57600080fd5b6143dd85823560208401614309565b6145a58186614118565b60018060a01b03841660208201528260408201526080606082015260006145cf60808301846140d6565b9695505050505050565b600080600080600080600060e0888a0312156145f457600080fd5b8735965060208801356001600160401b0381111561461157600080fd5b61461d8a828b01614381565b96505060408801356001600160401b0381111561463957600080fd5b6146458a828b01614381565b955050606088013593506080880135925060a0880135915060c08801356001600160401b0381111561467657600080fd5b6146828a828b01614381565b91505092959891949750929550565b602080825282518282018190526000918401906040840190835b818110156146c95783518352602093840193909201916001016146ab565b509095945050505050565b602081016109018284614118565b6000602082840312156146f457600080fd5b61403f826143e7565b60208152600061403f60208301846140d6565b60008060006060848603121561472557600080fd5b8335925060208401356001600160401b0381111561474257600080fd5b61474e86828701614381565b92505060408401356001600160401b0381111561476a57600080fd5b61477686828701614381565b9150509250925092565b602080825260139082015272125d195b48191bd95cc81b9bdd08195e1a5cdd606a1b604082015260600190565b6020808252601e908201527f546f6b656e20636f6e74726163742061646472657373206e6f74207365740000604082015260600190565b6000602082840312156147f657600080fd5b5051919050565b6020808252602e908201527f496e73756666696369656e7420746f6b656e20616c6c6f77616e636520666f7260408201526d2073656c6c696e6720707269636560901b606082015260800190565b60006020828403121561485d57600080fd5b8151801515811461403f57600080fd5b60208082526023908201527f53656c6c696e6720707269636520746f6b656e207472616e73666572206661696040820152621b195960ea1b606082015260800190565b600181811c908216806148c457607f821691505b6020821081036148e457634e487b7160e01b600052602260045260246000fd5b50919050565b601f8211156115fe57806000526020600020601f840160051c810160208510156149115750805b601f840160051c820191505b81811015612c43576000815560010161491d565b81516001600160401b0381111561494a5761494a6142f3565b61495e8161495884546148b0565b846148ea565b6020601f821160018114614992576000831561497a5750848201515b600019600385901b1c1916600184901b178455612c43565b600084815260208120601f198516915b828110156149c257878501518255602094850194600190920191016149a2565b50848210156149e05786840151600019600387901b60f8161c191681555b50505050600190811b01905550565b6149f98183614118565b6040602082018190526015908201527424ba32b69039b7b632103a379031bab9ba37b6b2b960591b6060820152608001919050565b614a388184614118565b604060208201526000614a4e60408301846140d6565b949350505050565b60008251614a688184602087016140b2565b71202844656c697665726564206c617465212960701b920191825250601201919050565b606081526000614a9f60608301866140d6565b60208301949094525060400152919050565b7f53656c6c696e6720707269636520757064617465642066726f6d200000000000815260008351614ae981601b8501602088016140b2565b630103a37960e51b601b918401918201528351614b0d81601f8401602088016140b2565b01601f01949350505050565b604081526000614b2c60408301856140d6565b8281036020840152613fa581856140d6565b72021b2b93a34b334b1b0ba329030b23232b21d1606d1b815260008351614b6c8160138501602088016140b2565b63010313c960e51b6013918401918201528351614b908160178401602088016140b2565b01601701949350505050565b7502a3930b739b332b91034b734ba34b0ba32b2103a37960551b815260008251614bcd8160168501602087016140b2565b9190910160160192915050565b634e487b7160e01b600052601160045260246000fd5b600060018201614c0257614c02614bda565b5060010190565b634e487b7160e01b600052601260045260246000fd5b600082614c2e57614c2e614c09565b500490565b600082614c4257614c42614c09565b500690565b8082018082111561090157610901614bda565b600081614c6957614c69614bda565b506000190190565b634e487b7160e01b600052603260045260246000fd5b808202811582820484141761090157610901614bda565b60008251614cb08184602087016140b2565b919091019291505056fe8eb467f061ca67f42a2d2ca4a346fc9fb645efc0ba75056ee9f71c3a0ccc10a8ddaa901e2fe3bda354fe0ede2785152d5c109282a613fe024a056a3e66c41bb3fbd454f36a7e1a388bd6fc3ab10d434aa4578f811acbbcf33afb1c697486313c2a5f906c256a5d799494fcd066e1f6c077689de1cdb65052a1624de4bace99bf360894a13ba1a3210667c828492db98dca3e2076cc3735a920a3ca505d382bbc4974656d207265636569766564206279205472616e73706f7274657220666f72207472616e7369742e02dd7bc7dec4dceedda775e58dd541e08a116c6c53815c0bd028192f7b626800a2646970667358221220dbe94b04c4403b95c8b216a35dae7b8f19f36b195ec7bfe80e15ff559ea259c864736f6c634300081c0033",
  "linkReferences": {},
  "deployedLinkReferences": {}
}