{
  "_format": "hh-sol-artifact-1",
  "contractName": "SupplyChainTracking",
  "sourceName": "contracts/SupplyChainTracking.sol",
  "abi": [
    {
      "inputs": [],
      "name": "AccessControlBadConfirmation",
      "type": "error"
    },
    {
      "inputs": [
        {
          "internalType": "address",
          "name": "account",
          "type": "address"
        },
        {
          "internalType": "bytes32",
          "name": "neededRole",
          "type": "bytes32"
        }
      ],
      "name": "AccessControlUnauthorizedAccount",
      "type": "error"
    },
    {
      "inputs": [
        {
          "internalType": "address",
          "name": "target",
          "type": "address"
        }
      ],
      "name": "AddressEmptyCode",
      "type": "error"
    },
    {
      "inputs": [
        {
          "internalType": "address",
          "name": "implementation",
          "type": "address"
        }
      ],
      "name": "ERC1967InvalidImplementation",
      "type": "error"
    },
    {
      "inputs": [],
      "name": "ERC1967NonPayable",
      "type": "error"
    },
    {
      "inputs": [],
      "name": "FailedCall",
      "type": "error"
    },
    {
      "inputs": [],
      "name": "InvalidInitialization",
      "type": "error"
    },
    {
      "inputs": [],
      "name": "NotInitializing",
      "type": "error"
    },
    {
      "inputs": [],
      "name": "UUPSUnauthorizedCallContext",
      "type": "error"
    },
    {
      "inputs": [
        {
          "internalType": "bytes32",
          "name": "slot",
          "type": "bytes32"
        }
      ],
      "name": "UUPSUnsupportedProxiableUUID",
      "type": "error"
    },
    {
      "anonymous": false,
      "inputs": [
        {
          "indexed": true,
          "internalType": "bytes32",
          "name": "itemId",
          "type": "bytes32"
        },
        {
          "indexed": false,
          "internalType": "string",
          "name": "certName",
          "type": "string"
        },
        {
          "indexed": false,
          "internalType": "string",
          "name": "certIssuer",
          "type": "string"
        }
      ],
      "name": "CertificateAdded",
      "type": "event"
    },
    {
      "anonymous": false,
      "inputs": [
        {
          "indexed": true,
          "internalType": "address",
          "name": "collectorAddress",
          "type": "address"
        }
      ],
      "name": "FeeCollectorAddressSet",
      "type": "event"
    },
    {
      "anonymous": false,
      "inputs": [
        {
          "indexed": false,
          "internalType": "uint64",
          "name": "version",
          "type": "uint64"
        }
      ],
      "name": "Initialized",
      "type": "event"
    },
    {
      "anonymous": false,
      "inputs": [
        {
          "indexed": true,
          "internalType": "bytes32",
          "name": "itemId",
          "type": "bytes32"
        },
        {
          "indexed": false,
          "internalType": "string",
          "name": "name",
          "type": "string"
        },
        {
          "indexed": true,
          "internalType": "address",
          "name": "owner",
          "type": "address"
        },
        {
          "indexed": false,
          "internalType": "uint256",
          "name": "costPrice",
          "type": "uint256"
        },
        {
          "indexed": false,
          "internalType": "uint256",
          "name": "sellingPrice",
          "type": "uint256"
        }
      ],
      "name": "ItemCreated",
      "type": "event"
    },
    {
      "anonymous": false,
      "inputs": [
        {
          "indexed": true,
          "internalType": "bytes32",
          "name": "itemId",
          "type": "bytes32"
        },
        {
          "indexed": false,
          "internalType": "uint256",
          "name": "newSellingPrice",
          "type": "uint256"
        },
        {
          "indexed": true,
          "internalType": "address",
          "name": "updater",
          "type": "address"
        }
      ],
      "name": "ItemSellingPriceUpdated",
      "type": "event"
    },
    {
      "anonymous": false,
      "inputs": [
        {
          "indexed": true,
          "internalType": "bytes32",
          "name": "itemId",
          "type": "bytes32"
        },
        {
          "indexed": true,
          "internalType": "address",
          "name": "retailer",
          "type": "address"
        },
        {
          "indexed": true,
          "internalType": "address",
          "name": "customer",
          "type": "address"
        }
      ],
      "name": "ItemSoldToCustomer",
      "type": "event"
    },
    {
      "anonymous": false,
      "inputs": [
        {
          "indexed": true,
          "internalType": "bytes32",
          "name": "itemId",
          "type": "bytes32"
        },
        {
          "indexed": false,
          "internalType": "enum SupplyChainTracking.State",
          "name": "newState",
          "type": "uint8"
        },
        {
          "indexed": false,
          "internalType": "string",
          "name": "note",
          "type": "string"
        }
      ],
      "name": "ItemStateUpdated",
      "type": "event"
    },
    {
      "anonymous": false,
      "inputs": [
        {
          "indexed": true,
          "internalType": "bytes32",
          "name": "itemId",
          "type": "bytes32"
        },
        {
          "indexed": true,
          "internalType": "address",
          "name": "payer",
          "type": "address"
        },
        {
          "indexed": true,
          "internalType": "address",
          "name": "payee",
          "type": "address"
        },
        {
          "indexed": false,
          "internalType": "uint256",
          "name": "amount",
          "type": "uint256"
        },
        {
          "indexed": false,
          "internalType": "string",
          "name": "reason",
          "type": "string"
        }
      ],
      "name": "PaymentTransferred",
      "type": "event"
    },
    {
      "anonymous": false,
      "inputs": [
        {
          "indexed": true,
          "internalType": "bytes32",
          "name": "role",
          "type": "bytes32"
        },
        {
          "indexed": true,
          "internalType": "bytes32",
          "name": "previousAdminRole",
          "type": "bytes32"
        },
        {
          "indexed": true,
          "internalType": "bytes32",
          "name": "newAdminRole",
          "type": "bytes32"
        }
      ],
      "name": "RoleAdminChanged",
      "type": "event"
    },
    {
      "anonymous": false,
      "inputs": [
        {
          "indexed": true,
          "internalType": "bytes32",
          "name": "role",
          "type": "bytes32"
        },
        {
          "indexed": true,
          "internalType": "address",
          "name": "account",
          "type": "address"
        },
        {
          "indexed": true,
          "internalType": "address",
          "name": "sender",
          "type": "address"
        }
      ],
      "name": "RoleGranted",
      "type": "event"
    },
    {
      "anonymous": false,
      "inputs": [
        {
          "indexed": true,
          "internalType": "bytes32",
          "name": "role",
          "type": "bytes32"
        },
        {
          "indexed": true,
          "internalType": "address",
          "name": "account",
          "type": "address"
        },
        {
          "indexed": true,
          "internalType": "address",
          "name": "sender",
          "type": "address"
        }
      ],
      "name": "RoleRevoked",
      "type": "event"
    },
    {
      "anonymous": false,
      "inputs": [
        {
          "indexed": true,
          "internalType": "address",
          "name": "tokenAddress",
          "type": "address"
        }
      ],
      "name": "TokenContractAddressSet",
      "type": "event"
    },
    {
      "anonymous": false,
      "inputs": [
        {
          "indexed": true,
          "internalType": "bytes32",
          "name": "itemId",
          "type": "bytes32"
        },
        {
          "indexed": true,
          "internalType": "address",
          "name": "confirmer",
          "type": "address"
        },
        {
          "indexed": false,
          "internalType": "uint256",
          "name": "amountPaidToPreviousOwner",
          "type": "uint256"
        }
      ],
      "name": "TransferConfirmed",
      "type": "event"
    },
    {
      "anonymous": false,
      "inputs": [
        {
          "indexed": true,
          "internalType": "bytes32",
          "name": "itemId",
          "type": "bytes32"
        },
        {
          "indexed": true,
          "internalType": "address",
          "name": "from",
          "type": "address"
        },
        {
          "indexed": true,
          "internalType": "address",
          "name": "to",
          "type": "address"
        }
      ],
      "name": "TransferInitiated",
      "type": "event"
    },
    {
      "anonymous": false,
      "inputs": [
        {
          "indexed": true,
          "internalType": "address",
          "name": "implementation",
          "type": "address"
        }
      ],
      "name": "Upgraded",
      "type": "event"
    },
    {
      "inputs": [],
      "name": "ADMIN_ROLE",
      "outputs": [
        {
          "internalType": "bytes32",
          "name": "",
          "type": "bytes32"
        }
      ],
      "stateMutability": "view",
      "type": "function"
    },
    {
      "inputs": [],
      "name": "DEFAULT_ADMIN_ROLE",
      "outputs": [
        {
          "internalType": "bytes32",
          "name": "",
          "type": "bytes32"
        }
      ],
      "stateMutability": "view",
      "type": "function"
    },
    {
      "inputs": [],
      "name": "DISTRIBUTOR_ROLE",
      "outputs": [
        {
          "internalType": "bytes32",
          "name": "",
          "type": "bytes32"
        }
      ],
      "stateMutability": "view",
      "type": "function"
    },
    {
      "inputs": [],
      "name": "PRODUCER_ROLE",
      "outputs": [
        {
          "internalType": "bytes32",
          "name": "",
          "type": "bytes32"
        }
      ],
      "stateMutability": "view",
      "type": "function"
    },
    {
      "inputs": [],
      "name": "RETAILER_ROLE",
      "outputs": [
        {
          "internalType": "bytes32",
          "name": "",
          "type": "bytes32"
        }
      ],
      "stateMutability": "view",
      "type": "function"
    },
    {
      "inputs": [],
      "name": "TRANSPORTER_ROLE",
      "outputs": [
        {
          "internalType": "bytes32",
          "name": "",
          "type": "bytes32"
        }
      ],
      "stateMutability": "view",
      "type": "function"
    },
    {
      "inputs": [],
      "name": "UPGRADE_INTERFACE_VERSION",
      "outputs": [
        {
          "internalType": "string",
          "name": "",
          "type": "string"
        }
      ],
      "stateMutability": "view",
      "type": "function"
    },
    {
      "inputs": [
        {
          "internalType": "bytes32",
          "name": "_itemId",
          "type": "bytes32"
        },
        {
          "internalType": "string",
          "name": "_certName",
          "type": "string"
        },
        {
          "internalType": "string",
          "name": "_certIssuer",
          "type": "string"
        }
      ],
      "name": "addCertificate",
      "outputs": [],
      "stateMutability": "nonpayable",
      "type": "function"
    },
    {
      "inputs": [
        {
          "internalType": "bytes32",
          "name": "_itemId",
          "type": "bytes32"
        }
      ],
      "name": "confirmTransfer",
      "outputs": [],
      "stateMutability": "nonpayable",
      "type": "function"
    },
    {
      "inputs": [
        {
          "internalType": "bytes32",
          "name": "_itemId",
          "type": "bytes32"
        },
        {
          "internalType": "string",
          "name": "_name",
          "type": "string"
        },
        {
          "internalType": "string",
          "name": "_description",
          "type": "string"
        },
        {
          "internalType": "uint256",
          "name": "_plannedDeliveryTime",
          "type": "uint256"
        },
        {
          "internalType": "uint256",
          "name": "_costPrice",
          "type": "uint256"
        },
        {
          "internalType": "uint256",
          "name": "_sellingPrice",
          "type": "uint256"
        },
        {
          "internalType": "string",
          "name": "_originalItemId",
          "type": "string"
        }
      ],
      "name": "createItem",
      "outputs": [],
      "stateMutability": "nonpayable",
      "type": "function"
    },
    {
      "inputs": [],
      "name": "feeCollector",
      "outputs": [
        {
          "internalType": "address",
          "name": "",
          "type": "address"
        }
      ],
      "stateMutability": "view",
      "type": "function"
    },
    {
      "inputs": [],
      "name": "getAllItemIds",
      "outputs": [
        {
          "internalType": "bytes32[]",
          "name": "",
          "type": "bytes32[]"
        }
      ],
      "stateMutability": "view",
      "type": "function"
    },
    {
      "inputs": [
        {
          "internalType": "bytes32",
          "name": "_itemId",
          "type": "bytes32"
        }
      ],
      "name": "getCertificates",
      "outputs": [
        {
          "components": [
            {
              "internalType": "string",
              "name": "certName",
              "type": "string"
            },
            {
              "internalType": "string",
              "name": "certIssuer",
              "type": "string"
            },
            {
              "internalType": "uint256",
              "name": "issueDate",
              "type": "uint256"
            }
          ],
          "internalType": "struct SupplyChainTracking.Certificate[]",
          "name": "",
          "type": "tuple[]"
        }
      ],
      "stateMutability": "view",
      "type": "function"
    },
    {
      "inputs": [
        {
          "internalType": "bytes32",
          "name": "_itemId",
          "type": "bytes32"
        }
      ],
      "name": "getItemDetail",
      "outputs": [
        {
          "components": [
            {
              "internalType": "bytes32",
              "name": "id",
              "type": "bytes32"
            },
            {
              "internalType": "string",
              "name": "name",
              "type": "string"
            },
            {
              "internalType": "string",
              "name": "description",
              "type": "string"
            },
            {
              "internalType": "address",
              "name": "currentOwner",
              "type": "address"
            },
            {
              "internalType": "enum SupplyChainTracking.State",
              "name": "currentState",
              "type": "uint8"
            },
            {
              "internalType": "bool",
              "name": "exists",
              "type": "bool"
            },
            {
              "internalType": "uint256",
              "name": "plannedDeliveryTime",
              "type": "uint256"
            },
            {
              "internalType": "uint256",
              "name": "costPrice",
              "type": "uint256"
            },
            {
              "internalType": "uint256",
              "name": "sellingPrice",
              "type": "uint256"
            },
            {
              "internalType": "string",
              "name": "itemIdString",
              "type": "string"
            }
          ],
          "internalType": "struct SupplyChainTracking.Item",
          "name": "",
          "type": "tuple"
        }
      ],
      "stateMutability": "view",
      "type": "function"
    },
    {
      "inputs": [
        {
          "internalType": "bytes32",
          "name": "_itemId",
          "type": "bytes32"
        }
      ],
      "name": "getItemHistory",
      "outputs": [
        {
          "components": [
            {
              "internalType": "enum SupplyChainTracking.State",
              "name": "state",
              "type": "uint8"
            },
            {
              "internalType": "address",
              "name": "actor",
              "type": "address"
            },
            {
              "internalType": "uint256",
              "name": "timestamp",
              "type": "uint256"
            },
            {
              "internalType": "string",
              "name": "note",
              "type": "string"
            }
          ],
          "internalType": "struct SupplyChainTracking.History[]",
          "name": "",
          "type": "tuple[]"
        }
      ],
      "stateMutability": "view",
      "type": "function"
    },
    {
      "inputs": [
        {
          "internalType": "bytes32",
          "name": "_itemId",
          "type": "bytes32"
        }
      ],
      "name": "getItemOwner",
      "outputs": [
        {
          "internalType": "address",
          "name": "",
          "type": "address"
        }
      ],
      "stateMutability": "view",
      "type": "function"
    },
    {
      "inputs": [
        {
          "internalType": "bytes32",
          "name": "_itemId",
          "type": "bytes32"
        }
      ],
      "name": "getItemState",
      "outputs": [
        {
          "internalType": "enum SupplyChainTracking.State",
          "name": "",
          "type": "uint8"
        }
      ],
      "stateMutability": "view",
      "type": "function"
    },
    {
      "inputs": [
        {
          "internalType": "bytes32",
          "name": "role",
          "type": "bytes32"
        }
      ],
      "name": "getRoleAdmin",
      "outputs": [
        {
          "internalType": "bytes32",
          "name": "",
          "type": "bytes32"
        }
      ],
      "stateMutability": "view",
      "type": "function"
    },
    {
      "inputs": [
        {
          "internalType": "bytes32",
          "name": "role",
          "type": "bytes32"
        },
        {
          "internalType": "address",
          "name": "account",
          "type": "address"
        }
      ],
      "name": "grantAccess",
      "outputs": [],
      "stateMutability": "nonpayable",
      "type": "function"
    },
    {
      "inputs": [
        {
          "internalType": "bytes32",
          "name": "role",
          "type": "bytes32"
        },
        {
          "internalType": "address",
          "name": "account",
          "type": "address"
        }
      ],
      "name": "grantRole",
      "outputs": [],
      "stateMutability": "nonpayable",
      "type": "function"
    },
    {
      "inputs": [
        {
          "internalType": "bytes32",
          "name": "role",
          "type": "bytes32"
        },
        {
          "internalType": "address",
          "name": "account",
          "type": "address"
        }
      ],
      "name": "hasRole",
      "outputs": [
        {
          "internalType": "bool",
          "name": "",
          "type": "bool"
        }
      ],
      "stateMutability": "view",
      "type": "function"
    },
    {
      "inputs": [],
      "name": "initialize",
      "outputs": [],
      "stateMutability": "nonpayable",
      "type": "function"
    },
    {
      "inputs": [
        {
          "internalType": "bytes32",
          "name": "_itemId",
          "type": "bytes32"
        },
        {
          "internalType": "address",
          "name": "_to",
          "type": "address"
        }
      ],
      "name": "initiateTransfer",
      "outputs": [],
      "stateMutability": "nonpayable",
      "type": "function"
    },
    {
      "inputs": [
        {
          "internalType": "bytes32",
          "name": "",
          "type": "bytes32"
        },
        {
          "internalType": "uint256",
          "name": "",
          "type": "uint256"
        }
      ],
      "name": "itemCertificates",
      "outputs": [
        {
          "internalType": "string",
          "name": "certName",
          "type": "string"
        },
        {
          "internalType": "string",
          "name": "certIssuer",
          "type": "string"
        },
        {
          "internalType": "uint256",
          "name": "issueDate",
          "type": "uint256"
        }
      ],
      "stateMutability": "view",
      "type": "function"
    },
    {
      "inputs": [
        {
          "internalType": "bytes32",
          "name": "",
          "type": "bytes32"
        },
        {
          "internalType": "uint256",
          "name": "",
          "type": "uint256"
        }
      ],
      "name": "itemHistories",
      "outputs": [
        {
          "internalType": "enum SupplyChainTracking.State",
          "name": "state",
          "type": "uint8"
        },
        {
          "internalType": "address",
          "name": "actor",
          "type": "address"
        },
        {
          "internalType": "uint256",
          "name": "timestamp",
          "type": "uint256"
        },
        {
          "internalType": "string",
          "name": "note",
          "type": "string"
        }
      ],
      "stateMutability": "view",
      "type": "function"
    },
    {
      "inputs": [
        {
          "internalType": "bytes32",
          "name": "",
          "type": "bytes32"
        }
      ],
      "name": "items",
      "outputs": [
        {
          "internalType": "bytes32",
          "name": "id",
          "type": "bytes32"
        },
        {
          "internalType": "string",
          "name": "name",
          "type": "string"
        },
        {
          "internalType": "string",
          "name": "description",
          "type": "string"
        },
        {
          "internalType": "address",
          "name": "currentOwner",
          "type": "address"
        },
        {
          "internalType": "enum SupplyChainTracking.State",
          "name": "currentState",
          "type": "uint8"
        },
        {
          "internalType": "bool",
          "name": "exists",
          "type": "bool"
        },
        {
          "internalType": "uint256",
          "name": "plannedDeliveryTime",
          "type": "uint256"
        },
        {
          "internalType": "uint256",
          "name": "costPrice",
          "type": "uint256"
        },
        {
          "internalType": "uint256",
          "name": "sellingPrice",
          "type": "uint256"
        },
        {
          "internalType": "string",
          "name": "itemIdString",
          "type": "string"
        }
      ],
      "stateMutability": "view",
      "type": "function"
    },
    {
      "inputs": [
        {
          "internalType": "bytes32",
          "name": "_itemId",
          "type": "bytes32"
        }
      ],
      "name": "markAsReceived",
      "outputs": [],
      "stateMutability": "nonpayable",
      "type": "function"
    },
    {
      "inputs": [
        {
          "internalType": "bytes32",
          "name": "_itemId",
          "type": "bytes32"
        },
        {
          "internalType": "address",
          "name": "_customerAddress",
          "type": "address"
        }
      ],
      "name": "markAsSold",
      "outputs": [],
      "stateMutability": "nonpayable",
      "type": "function"
    },
    {
      "inputs": [
        {
          "internalType": "bytes32",
          "name": "",
          "type": "bytes32"
        }
      ],
      "name": "pendingTransfers",
      "outputs": [
        {
          "internalType": "address",
          "name": "from",
          "type": "address"
        },
        {
          "internalType": "address",
          "name": "to",
          "type": "address"
        },
        {
          "internalType": "bool",
          "name": "fromConfirmed",
          "type": "bool"
        },
        {
          "internalType": "bool",
          "name": "toConfirmed",
          "type": "bool"
        }
      ],
      "stateMutability": "view",
      "type": "function"
    },
    {
      "inputs": [],
      "name": "proxiableUUID",
      "outputs": [
        {
          "internalType": "bytes32",
          "name": "",
          "type": "bytes32"
        }
      ],
      "stateMutability": "view",
      "type": "function"
    },
    {
      "inputs": [
        {
          "internalType": "bytes32",
          "name": "role",
          "type": "bytes32"
        },
        {
          "internalType": "address",
          "name": "callerConfirmation",
          "type": "address"
        }
      ],
      "name": "renounceRole",
      "outputs": [],
      "stateMutability": "nonpayable",
      "type": "function"
    },
    {
      "inputs": [
        {
          "internalType": "bytes32",
          "name": "_itemId",
          "type": "bytes32"
        },
        {
          "internalType": "string",
          "name": "_reason",
          "type": "string"
        }
      ],
      "name": "reportDamage",
      "outputs": [],
      "stateMutability": "nonpayable",
      "type": "function"
    },
    {
      "inputs": [
        {
          "internalType": "bytes32",
          "name": "_itemId",
          "type": "bytes32"
        },
        {
          "internalType": "string",
          "name": "_reason",
          "type": "string"
        }
      ],
      "name": "reportDamageAtDistributor",
      "outputs": [],
      "stateMutability": "nonpayable",
      "type": "function"
    },
    {
      "inputs": [
        {
          "internalType": "bytes32",
          "name": "_itemId",
          "type": "bytes32"
        },
        {
          "internalType": "string",
          "name": "_reason",
          "type": "string"
        }
      ],
      "name": "reportLost",
      "outputs": [],
      "stateMutability": "nonpayable",
      "type": "function"
    },
    {
      "inputs": [
        {
          "internalType": "bytes32",
          "name": "_itemId",
          "type": "bytes32"
        },
        {
          "internalType": "string",
          "name": "_reason",
          "type": "string"
        }
      ],
      "name": "reportLostAtDistributor",
      "outputs": [],
      "stateMutability": "nonpayable",
      "type": "function"
    },
    {
      "inputs": [
        {
          "internalType": "bytes32",
          "name": "role",
          "type": "bytes32"
        },
        {
          "internalType": "address",
          "name": "account",
          "type": "address"
        }
      ],
      "name": "revokeAccess",
      "outputs": [],
      "stateMutability": "nonpayable",
      "type": "function"
    },
    {
      "inputs": [
        {
          "internalType": "bytes32",
          "name": "role",
          "type": "bytes32"
        },
        {
          "internalType": "address",
          "name": "account",
          "type": "address"
        }
      ],
      "name": "revokeRole",
      "outputs": [],
      "stateMutability": "nonpayable",
      "type": "function"
    },
    {
      "inputs": [
        {
          "internalType": "address",
          "name": "_tokenAddress",
          "type": "address"
        }
      ],
      "name": "setTokenContractAddress",
      "outputs": [],
      "stateMutability": "nonpayable",
      "type": "function"
    },
    {
      "inputs": [
        {
          "internalType": "bytes4",
          "name": "interfaceId",
          "type": "bytes4"
        }
      ],
      "name": "supportsInterface",
      "outputs": [
        {
          "internalType": "bool",
          "name": "",
          "type": "bool"
        }
      ],
      "stateMutability": "view",
      "type": "function"
    },
    {
      "inputs": [],
      "name": "tokenContract",
      "outputs": [
        {
          "internalType": "contract IERC20",
          "name": "",
          "type": "address"
        }
      ],
      "stateMutability": "view",
      "type": "function"
    },
    {
      "inputs": [
        {
          "internalType": "bytes32",
          "name": "_itemId",
          "type": "bytes32"
        },
        {
          "internalType": "uint256",
          "name": "_newSellingPrice",
          "type": "uint256"
        }
      ],
      "name": "updateSellingPrice",
      "outputs": [],
      "stateMutability": "nonpayable",
      "type": "function"
    },
    {
      "inputs": [
        {
          "internalType": "address",
          "name": "newImplementation",
          "type": "address"
        },
        {
          "internalType": "bytes",
          "name": "data",
          "type": "bytes"
        }
      ],
      "name": "upgradeToAndCall",
      "outputs": [],
      "stateMutability": "payable",
      "type": "function"
    }
  ],
  "bytecode": "0x60a060405230608052348015601357600080fd5b5060805161421061003d600039600081816133260152818161334f015261349501526142106000f3fe6080604052600436106102515760003560e01c80637314040911610139578063a217fddf116100b6578063cb3e1fe71161007a578063cb3e1fe714610823578063d547741f14610857578063d7787eeb14610877578063e78aa8d514610897578063ed76863d146108b7578063f0bd87cc146108d757600080fd5b8063a217fddf14610770578063ad3cb1cc14610785578063ad4ec787146107c3578063b23d4854146107e3578063c415b95c1461080357600080fd5b80638d4ab2c0116100fd5780638d4ab2c01461064d5780638d53b208146106d75780638fbd1ce1146106f757806391d14854146107305780639f02d3ec1461075057600080fd5b8063731404091461057d57806375b238fc146105c457806378fd4e7e146105f85780637e84eb4b146106185780638129fc1c1461063857600080fd5b806340554c3a116101d257806352b0cb201161019657806352b0cb201461049e57806352d1902d146104be57806355a373d6146104d35780636a079ce21461050b57806370f378f41461053b578063729dfe401461055b57600080fd5b806340554c3a146103e657806348292cbd1461040657806348f343f3146104335780634eabbe77146104695780634f1ef2861461048b57600080fd5b8063248a9ca311610219578063248a9ca31461034457806329349148146103645780632f2ff15d1461038657806336568abe146103a657806336a55b38146103c657600080fd5b806301ffc9a7146102565780631395f14a1461028b57806314ca631b146102b857806315459471146102e75780632115e7bf14610314575b600080fd5b34801561026257600080fd5b50610276610271366004613754565b6108f9565b60405190151581526020015b60405180910390f35b34801561029757600080fd5b506102ab6102a636600461377e565b610930565b604051610282919061381f565b3480156102c457600080fd5b506102d86102d33660046138e1565b610be6565b60405161028293929190613903565b3480156102f357600080fd5b5061030761030236600461377e565b610d3d565b6040516102829190613939565b34801561032057600080fd5b5061033660008051602061415b83398151915281565b604051908152602001610282565b34801561035057600080fd5b5061033661035f36600461377e565b610e90565b34801561037057600080fd5b5061038461037f366004613a88565b610eb2565b005b34801561039257600080fd5b506103846103a1366004613aeb565b611002565b3480156103b257600080fd5b506103846103c1366004613aeb565b611024565b3480156103d257600080fd5b506103846103e136600461377e565b61105c565b3480156103f257600080fd5b50610384610401366004613aeb565b6117c3565b34801561041257600080fd5b5061042661042136600461377e565b6117ce565b6040516102829190613b17565b34801561043f57600080fd5b5061045361044e36600461377e565b611963565b6040516102829a99989796959493929190613ba2565b34801561047557600080fd5b5061033660008051602061411b83398151915281565b610384610499366004613c2c565b611b5f565b3480156104aa57600080fd5b506103846104b9366004613a88565b611b7e565b3480156104ca57600080fd5b50610336611cbc565b3480156104df57600080fd5b506000546104f3906001600160a01b031681565b6040516001600160a01b039091168152602001610282565b34801561051757600080fd5b5061052b6105263660046138e1565b611cd9565b6040516102829493929190613c84565b34801561054757600080fd5b50610384610556366004613cc2565b611db8565b34801561056757600080fd5b506105706123d2565b6040516102829190613d7d565b34801561058957600080fd5b506105b761059836600461377e565b600090815260026020526040902060030154600160a01b900460ff1690565b6040516102829190613dc0565b3480156105d057600080fd5b506103367fa49807205ce4d355092ef5a8a18f56e8913cf4a201fbe287825b095693c2177581565b34801561060457600080fd5b50610384610613366004613a88565b61242a565b34801561062457600080fd5b50610384610633366004613aeb565b612442565b34801561064457600080fd5b50610384612742565b34801561065957600080fd5b506106a461066836600461377e565b600560205260009081526040902080546001909101546001600160a01b039182169181169060ff600160a01b8204811691600160a81b90041684565b604080516001600160a01b0395861681529490931660208501529015159183019190915215156060820152608001610282565b3480156106e357600080fd5b506103846106f2366004613aeb565b612862565b34801561070357600080fd5b506104f361071236600461377e565b6000908152600260205260409020600301546001600160a01b031690565b34801561073c57600080fd5b5061027661074b366004613aeb565b612877565b34801561075c57600080fd5b5061038461076b3660046138e1565b6128af565b34801561077c57600080fd5b50610336600081565b34801561079157600080fd5b506107b6604051806040016040528060058152602001640352e302e360dc1b81525081565b6040516102829190613dce565b3480156107cf57600080fd5b506103846107de366004613a88565b61299b565b3480156107ef57600080fd5b506103846107fe366004613de1565b6129b3565b34801561080f57600080fd5b506001546104f3906001600160a01b031681565b34801561082f57600080fd5b506103367f8eb467f061ca67f42a2d2ca4a346fc9fb645efc0ba75056ee9f71c3a0ccc10a881565b34801561086357600080fd5b50610384610872366004613aeb565b612a5d565b34801561088357600080fd5b50610384610892366004613dfc565b612a6f565b3480156108a357600080fd5b506103846108b236600461377e565b612b83565b3480156108c357600080fd5b506103846108d2366004613aeb565b612dae565b3480156108e357600080fd5b5061033660008051602061413b83398151915281565b60006001600160e01b03198216637965db0b60e01b148061092a57506301ffc9a760e01b6001600160e01b03198316145b92915050565b604080516101408101825260008082526060602083018190529282018390528282018190526080820181905260a0820181905260c0820181905260e082018190526101008201526101208101919091526002600083815260200190815260200160002060405180610140016040529081600082015481526020016001820180546109b990613e6e565b80601f01602080910402602001604051908101604052809291908181526020018280546109e590613e6e565b8015610a325780601f10610a0757610100808354040283529160200191610a32565b820191906000526020600020905b815481529060010190602001808311610a1557829003601f168201915b50505050508152602001600282018054610a4b90613e6e565b80601f0160208091040260200160405190810160405280929190818152602001828054610a7790613e6e565b8015610ac45780601f10610a9957610100808354040283529160200191610ac4565b820191906000526020600020905b815481529060010190602001808311610aa757829003601f168201915b505050918352505060038201546001600160a01b0381166020830152604090910190600160a01b900460ff166008811115610b0157610b016137e7565b6008811115610b1257610b126137e7565b81526003820154600160a81b900460ff161515602082015260048201546040820152600582015460608201526006820154608082015260078201805460a090920191610b5d90613e6e565b80601f0160208091040260200160405190810160405280929190818152602001828054610b8990613e6e565b8015610bd65780601f10610bab57610100808354040283529160200191610bd6565b820191906000526020600020905b815481529060010190602001808311610bb957829003601f168201915b5050505050815250509050919050565b60046020528160005260406000208181548110610c0257600080fd5b906000526020600020906003020160009150915050806000018054610c2690613e6e565b80601f0160208091040260200160405190810160405280929190818152602001828054610c5290613e6e565b8015610c9f5780601f10610c7457610100808354040283529160200191610c9f565b820191906000526020600020905b815481529060010190602001808311610c8257829003601f168201915b505050505090806001018054610cb490613e6e565b80601f0160208091040260200160405190810160405280929190818152602001828054610ce090613e6e565b8015610d2d5780601f10610d0257610100808354040283529160200191610d2d565b820191906000526020600020905b815481529060010190602001808311610d1057829003601f168201915b5050505050908060020154905083565b606060036000838152602001908152602001600020805480602002602001604051908101604052809291908181526020016000905b82821015610e85576000848152602090206040805160808101909152600384029091018054829060ff166008811115610dad57610dad6137e7565b6008811115610dbe57610dbe6137e7565b8152815461010090046001600160a01b0316602082015260018201546040820152600282018054606090920191610df490613e6e565b80601f0160208091040260200160405190810160405280929190818152602001828054610e2090613e6e565b8015610e6d5780601f10610e4257610100808354040283529160200191610e6d565b820191906000526020600020905b815481529060010190602001808311610e5057829003601f168201915b50505050508152505081526020019060010190610d72565b505050509050919050565b60009081526000805160206141bb833981519152602052604090206001015490565b60008051602061411b833981519152610eca816131ed565b60008381526002602052604090206003810154600160a81b900460ff16610f0c5760405162461bcd60e51b8152600401610f0390613ea8565b60405180910390fd5b6003818101805460ff60a01b1916600760a01b17905560008581526020828152604080832081516080810183526007815233818501524292810192909252606082018890528054600181810183559185529290932081519290940290930180549092839160ff191690836008811115610f8757610f876137e7565b0217905550602082015181546001600160a01b0390911661010002610100600160a81b03199091161781556040820151600182015560608201516002820190610fd09082613f1c565b5050508360008051602061417b833981519152600785604051610ff4929190613fdb565b60405180910390a250505050565b61100b82610e90565b611014816131ed565b61101e83836131fa565b50505050565b6001600160a01b038116331461104d5760405163334bd91960e11b815260040160405180910390fd5b611057828261329f565b505050565b600081815260056020908152604080832060029092529091206003810154600160a81b900460ff166110a05760405162461bcd60e51b8152600401610f0390613ea8565b60018201546001600160a01b031633146111075760405162461bcd60e51b815260206004820152602260248201527f4f6e6c792072656365697665722063616e20636f6e6669726d207472616e736660448201526132b960f11b6064820152608401610f03565b6001820154600160a01b900460ff1661116e5760405162461bcd60e51b815260206004820152602360248201527f53656e646572206d75737420696e697469617465207472616e736665722066696044820152621c9cdd60ea1b6064820152608401610f03565b6001820154600160a81b900460ff16156111d95760405162461bcd60e51b815260206004820152602660248201527f5472616e7366657220616c726561647920636f6e6669726d656420627920726560448201526531b2b4bb32b960d11b6064820152608401610f03565b6006810154600090156114a1576000546001600160a01b031661123e5760405162461bcd60e51b815260206004820152601e60248201527f546f6b656e20636f6e74726163742061646472657373206e6f742073657400006044820152606401610f03565b600080546001600160a01b031663dd62ed3e336040516001600160e01b031960e084901b1681526001600160a01b039091166004820152306024820152604401602060405180830381865afa15801561129b573d6000803e3d6000fd5b505050506040513d601f19601f820116820180604052508101906112bf9190614003565b9050826006015481101561132c5760405162461bcd60e51b815260206004820152602e60248201527f496e73756666696369656e7420746f6b656e20616c6c6f77616e636520666f7260448201526d2073656c6c696e6720707269636560901b6064820152608401610f03565b600080546001600160a01b03166323b872dd338754600688015460405160e085901b6001600160e01b03191681526001600160a01b03938416600482015292909116602483015260448201526064016020604051808303816000875af115801561139a573d6000803e3d6000fd5b505050506040513d601f19601f820116820180604052508101906113be919061401c565b9050806114195760405162461bcd60e51b815260206004820152602360248201527f53656c6c696e6720707269636520746f6b656e207472616e73666572206661696044820152621b195960ea1b6064820152608401610f03565b600684015485549093506001600160a01b0316336001600160a01b0316877f9688cb9d5126d389af6cc829498ad77cffd361f01a6e97e9c404812e076399878760060154604051611496918152604060208201819052601290820152714974656d2053656c6c696e6720507269636560701b606082015260800190565b60405180910390a450505b60018301805460ff60a81b1916600160a81b1790556114bd3390565b6003830180546001600160a01b0319166001600160a01b03929092169190911790556114f760008051602061411b83398151915233612877565b1561151e576003820180546001919060ff60a01b1916600160a01b835b021790555061160d565b61153660008051602061413b83398151915233612877565b15611557576003820180546002919060ff60a01b1916600160a01b83611514565b61156f60008051602061415b83398151915233612877565b15611590576003820180546004919060ff60a01b1916600160a01b83611514565b60405162461bcd60e51b815260206004820152604660248201527f436f6e6669726d657220646f6573206e6f74206861766520612076616c69642060448201527f7061727469636970616e7420726f6c6520696e2074686973207472616e73666560648201526507220737465760d41b608482015260a401610f03565b60408051808201909152601181527044656c697665726564206f6e2074696d6560781b60208201526004830154421115611669575060408051808201909152600f81526e44656c697665726564206c6174652160881b60208201525b6003600086815260200190815260200160002060405180608001604052808560030160149054906101000a900460ff1660088111156116aa576116aa6137e7565b815233602080830191909152426040830152606090910184905282546001808201855560009485529190932082516003909402018054929390929091839160ff1916908360088111156116ff576116ff6137e7565b0217905550602082015181546001600160a01b0390911661010002610100600160a81b031990911617815560408201516001820155606082015160028201906117489082613f1c565b505050600085815260056020526040902080546001600160a01b031916815560010180546001600160b01b0319169055336001600160a01b0316857f088c474e55a390f3d615704787d6b2fb7f0f3c31d954fa34f812d542226715ab846040516117b491815260200190565b60405180910390a35050505050565b6000611014816131ed565b606060046000838152602001908152602001600020805480602002602001604051908101604052809291908181526020016000905b82821015610e85578382906000526020600020906003020160405180606001604052908160008201805461183690613e6e565b80601f016020809104026020016040519081016040528092919081815260200182805461186290613e6e565b80156118af5780601f10611884576101008083540402835291602001916118af565b820191906000526020600020905b81548152906001019060200180831161189257829003601f168201915b505050505081526020016001820180546118c890613e6e565b80601f01602080910402602001604051908101604052809291908181526020018280546118f490613e6e565b80156119415780601f1061191657610100808354040283529160200191611941565b820191906000526020600020905b81548152906001019060200180831161192457829003601f168201915b5050505050815260200160028201548152505081526020019060010190611803565b6002602052600090815260409020805460018201805491929161198590613e6e565b80601f01602080910402602001604051908101604052809291908181526020018280546119b190613e6e565b80156119fe5780601f106119d3576101008083540402835291602001916119fe565b820191906000526020600020905b8154815290600101906020018083116119e157829003601f168201915b505050505090806002018054611a1390613e6e565b80601f0160208091040260200160405190810160405280929190818152602001828054611a3f90613e6e565b8015611a8c5780601f10611a6157610100808354040283529160200191611a8c565b820191906000526020600020905b815481529060010190602001808311611a6f57829003601f168201915b50505050600383015460048401546005850154600686015460078701805496976001600160a01b0386169760ff600160a01b880481169850600160a81b90970490961695909190611adc90613e6e565b80601f0160208091040260200160405190810160405280929190818152602001828054611b0890613e6e565b8015611b555780601f10611b2a57610100808354040283529160200191611b55565b820191906000526020600020905b815481529060010190602001808311611b3857829003601f168201915b505050505090508a565b611b6761331b565b611b70826133c2565b611b7a82826133cd565b5050565b60008051602061411b833981519152611b96816131ed565b60008381526002602052604090206003810154600160a81b900460ff16611bcf5760405162461bcd60e51b8152600401610f0390613ea8565b6003818101805460ff60a01b1916600160a31b17905560008581526020828152604080832081516080810183526008808252338286015242938201939093526060810189905281546001818101845592865293909420845193909502909401805493949093849260ff1990911691908490811115611c4f57611c4f6137e7565b0217905550602082015181546001600160a01b0390911661010002610100600160a81b03199091161781556040820151600182015560608201516002820190611c989082613f1c565b5050508360008051602061417b833981519152600885604051610ff4929190613fdb565b6000611cc661348a565b5060008051602061419b83398151915290565b60036020528160005260406000208181548110611cf557600080fd5b600091825260209091206003909102018054600182015460028301805460ff841696506101009093046001600160a01b03169450909291611d3590613e6e565b80601f0160208091040260200160405190810160405280929190818152602001828054611d6190613e6e565b8015611dae5780601f10611d8357610100808354040283529160200191611dae565b820191906000526020600020905b815481529060010190602001808311611d9157829003601f168201915b5050505050905084565b7f8eb467f061ca67f42a2d2ca4a346fc9fb645efc0ba75056ee9f71c3a0ccc10a8611de2816131ed565b600088815260026020526040902060030154600160a81b900460ff1615611e415760405162461bcd60e51b81526020600482015260136024820152724974656d20616c72656164792065786973747360681b6044820152606401610f03565b6000546001600160a01b0316611e995760405162461bcd60e51b815260206004820152601e60248201527f546f6b656e20636f6e74726163742061646472657373206e6f742073657400006044820152606401610f03565b6001546001600160a01b0316611ef15760405162461bcd60e51b815260206004820152601d60248201527f46656520636f6c6c6563746f722061646472657373206e6f74207365740000006044820152606401610f03565b831561213557600080546001600160a01b031663dd62ed3e336040516001600160e01b031960e084901b1681526001600160a01b039091166004820152306024820152604401602060405180830381865afa158015611f54573d6000803e3d6000fd5b505050506040513d601f19601f82011682018060405250810190611f789190614003565b905084811015611fde5760405162461bcd60e51b815260206004820152602b60248201527f496e73756666696369656e7420746f6b656e20616c6c6f77616e636520666f7260448201526a20636f737420707269636560a81b6064820152608401610f03565b600080546001600160a01b03166323b872dd3360015460405160e084901b6001600160e01b03191681526001600160a01b03928316600482015291166024820152604481018990526064016020604051808303816000875af1158015612048573d6000803e3d6000fd5b505050506040513d601f19601f8201168201806040525081019061206c919061401c565b9050806120bb5760405162461bcd60e51b815260206004820181905260248201527f436f737420707269636520746f6b656e207472616e73666572206661696c65646044820152606401610f03565b6001546001600160a01b0316336001600160a01b03168b7f9688cb9d5126d389af6cc829498ad77cffd361f01a6e97e9c404812e076399878960405161212a918152604060208201819052600f908201526e4974656d20436f737420507269636560881b606082015260800190565b60405180910390a450505b60405180610140016040528089815260200188815260200187815260200161215a3390565b6001600160a01b03168152602001600081526001602080830182905260408084018a9052606084018990526080840188905260a090930186905260008c815260028252929092208351815591830151908201906121b79082613f1c565b50604082015160028201906121cc9082613f1c565b5060608201516003820180546001600160a01b039092166001600160a01b03198316811782556080850151926001600160a81b03191617600160a01b83600881111561221a5761221a6137e7565b021790555060a0820151600382018054911515600160a81b0260ff60a81b1990921691909117905560c0820151600482015560e08201516005820155610100820151600682015561012082015160078201906122769082613f1c565b50505060008881526003602081815260408084208151608081018352858152338185015242818401528251808401909352600c83526b125d195b4818dc99585d195960a21b83850152606081019290925280546001808201835591865292909420815192909302909201805492939092839160ff1990911690836008811115612301576123016137e7565b0217905550602082015181546001600160a01b0390911661010002610100600160a81b0319909116178155604082015160018201556060820151600282019061234a9082613f1c565b5050600680546001810182556000919091527ff652222313e28459528d920b65115c16c04f3efc82aaedc97be59f3f377c0d3f0189905550336001600160a01b0316887fb807465cfb39005ec617112ed4e6a3cbf71bd2cd6e1aba7f831594df4f3784aa8987876040516123c09392919061403e565b60405180910390a35050505050505050565b6060600680548060200260200160405190810160405280929190818152602001828054801561242057602002820191906000526020600020905b81548152602001906001019080831161240c575b5050505050905090565b60008051602061413b833981519152610eca816131ed565b60008051602061415b83398151915261245a816131ed565b60008381526002602052604090206003810154600160a81b900460ff166124935760405162461bcd60e51b8152600401610f0390613ea8565b60038101546001600160a01b031633146125035760405162461bcd60e51b815260206004820152602b60248201527f4f6e6c792063757272656e74206f776e6572202852657461696c65722920636160448201526a1b881b585c9ac81cdbdb1960aa1b6064820152608401610f03565b6001600160a01b0383166125595760405162461bcd60e51b815260206004820152601f60248201527f437573746f6d657220616464726573732063616e6e6f74206265207a65726f006044820152606401610f03565b60056003820154600160a01b900460ff16600881111561257b5761257b6137e7565b146125df5760405162461bcd60e51b815260206004820152602e60248201527f4974656d206d75737420626520696e205265636569766564207374617465207460448201526d1bc81b585c9ac8185cc81cdbdb1960921b6064820152608401610f03565b60038181018054600360a11b6001600160a81b03199091166001600160a01b03871617179055600085815260208281526040808320815160808101835260068152338185015242818401528251808401909352601583527424ba32b69039b7b632103a379031bab9ba37b6b2b960591b8385015260608101929092528054600181810183559185529290932081519290940290930180549092839160ff191690836008811115612691576126916137e7565b0217905550602082015181546001600160a01b0390911661010002610100600160a81b031990911617815560408201516001820155606082015160028201906126da9082613f1c565b5050508360008051602061417b83398151915260066040516126fc9190614063565b60405180910390a26040516001600160a01b03841690339086907f0353d877cb0f02e37caebcb7e28a31233e54f70864290af7c59f6076588d714990600090a450505050565b600061274c6134d3565b805490915060ff600160401b820416159067ffffffffffffffff166000811580156127745750825b905060008267ffffffffffffffff1660011480156127915750303b155b90508115801561279f575080155b156127bd5760405163f92ee8a960e01b815260040160405180910390fd5b845467ffffffffffffffff1916600117855583156127e757845460ff60401b1916600160401b1785555b6127ef6134fc565b6127f76134fc565b6128026000336131fa565b50600180546001600160a01b03191633179055831561285b57845460ff60401b19168555604051600181527fc7f505b2f371ae2175ee4913f4499e1f2633a7b5936321eed1cdaeb6115181d29060200160405180910390a15b5050505050565b600061286d816131ed565b61101e838361329f565b60009182526000805160206141bb833981519152602090815260408084206001600160a01b0393909316845291905290205460ff1690565b60008281526002602052604090206003810154600160a81b900460ff166128e85760405162461bcd60e51b8152600401610f0390613ea8565b60038101546001600160a01b031633146129585760405162461bcd60e51b815260206004820152602b60248201527f4f6e6c792063757272656e74206f776e65722063616e2075706461746520736560448201526a6c6c696e6720707269636560a81b6064820152608401610f03565b60068101829055604051828152339084907f352687963b7c2914def1f529082034cb0c8f9a432ee3f60afd889daae83aa96a9060200160405180910390a3505050565b60008051602061413b833981519152611b96816131ed565b60006129be816131ed565b6001600160a01b038216612a145760405162461bcd60e51b815260206004820152601c60248201527f546f6b656e20616464726573732063616e6e6f74206265207a65726f000000006044820152606401610f03565b600080546001600160a01b0319166001600160a01b038416908117825560405190917f284bbd60459a4c88dcceeca2cdf83cd4d5e796c4f3dfe0eff9baa7a06a40dab691a25050565b612a6682610e90565b61286d816131ed565b7f8eb467f061ca67f42a2d2ca4a346fc9fb645efc0ba75056ee9f71c3a0ccc10a8612a99816131ed565b60008481526002602052604090206003810154600160a81b900460ff16612ad25760405162461bcd60e51b8152600401610f0390613ea8565b6000858152600460209081526040808320815160608101835288815280840188905242928101929092528054600181018255908452919092208251600390920201908190612b209082613f1c565b5060208201516001820190612b359082613f1c565b50604082015181600201555050847f990abeb86e6cfb21342f48fb558b6178010aa5e52bb9881a06312ae9923288398585604051612b74929190614096565b60405180910390a25050505050565b60008051602061415b833981519152612b9b816131ed565b600082815260026020526040902060038101546001600160a01b03163314612c055760405162461bcd60e51b815260206004820152601c60248201527f4f6e6c79206f776e65722063616e206d61726b207265636569766564000000006044820152606401610f03565b60046003820154600160a01b900460ff166008811115612c2757612c276137e7565b14612c905760405162461bcd60e51b815260206004820152603360248201527f4974656d206d75737420626520696e2044656c697665726564207374617465206044820152721d1bc81b585c9ac8185cc81c9958d95a5d9959606a1b6064820152608401610f03565b6003818101805460ff60a01b1916600560a01b179055600084815260208281526040808320815160808101835260058152338185015242818401528251808401909352601983527824ba32b6903932b1b2b4bb32b21030ba103932ba30b4b632b960391b8385015260608101929092528054600181810183559185529290932081519290940290930180549092839160ff191690836008811115612d3657612d366137e7565b0217905550602082015181546001600160a01b0390911661010002610100600160a81b03199091161781556040820151600182015560608201516002820190612d7f9082613f1c565b5050508260008051602061417b8339815191526005604051612da191906140bb565b60405180910390a2505050565b60008281526002602052604090206003810154600160a81b900460ff16612de75760405162461bcd60e51b8152600401610f0390613ea8565b60038101546001600160a01b03163314612e545760405162461bcd60e51b815260206004820152602860248201527f4f6e6c792063757272656e74206f776e65722063616e20696e697469617465206044820152673a3930b739b332b960c11b6064820152608401610f03565b612e6c60008051602061411b83398151915283612877565b80612e8a5750612e8a60008051602061413b83398151915283612877565b80612ea85750612ea860008051602061415b83398151915283612877565b612eec5760405162461bcd60e51b8152602060048201526015602482015274496e76616c696420726563656976657220726f6c6560581b6044820152606401610f03565b6000838152600560205260409020546001600160a01b031615612f615760405162461bcd60e51b815260206004820152602760248201527f4578697374696e67207472616e736665722070656e64696e6720666f722074686044820152666973206974656d60c81b6064820152608401610f03565b6040518060800160405280612f733390565b6001600160a01b039081168252848116602080840191909152600160408085018290526000606095860181905289815260058452819020865181549086166001600160a01b0319909116178155928601519290910180549186015195909401511515600160a81b0260ff60a81b19951515600160a01b026001600160a81b03199092169290931691909117179290921691909117905561302160008051602061411b83398151915283612877565b8061303f575061303f60008051602061413b83398151915283612877565b1561305e5760038101805460ff60a01b1916600160a01b179055613091565b61307660008051602061415b83398151915283612877565b156130915760038101805460ff60a01b1916600360a01b1790555b6003600084815260200190815260200160002060405180608001604052808360030160149054906101000a900460ff1660088111156130d2576130d26137e7565b8152602001336001600160a01b03168152426020808301919091526040805180820182526012815271151c985b9cd9995c881a5b9a5d1a585d195960721b8184015292019190915282546001818101855560009485529190932082516003909402018054929390929091839160ff191690836008811115613155576131556137e7565b0217905550602082015181546001600160a01b0390911661010002610100600160a81b0319909116178155604082015160018201556060820151600282019061319e9082613f1c565b505050816001600160a01b03166131b23390565b6001600160a01b0316847f342d38e01a2764dde5384ce69df459bf7c7cd213cf5c4531154cdffc612d818c60405160405180910390a4505050565b6131f78133613504565b50565b60006000805160206141bb8339815191526132158484612877565b613295576000848152602082815260408083206001600160a01b03871684529091529020805460ff1916600117905561324b3390565b6001600160a01b0316836001600160a01b0316857f2f8788117e7eff1d82e926ec794901d17c78024a50270940304540a733656f0d60405160405180910390a4600191505061092a565b600091505061092a565b60006000805160206141bb8339815191526132ba8484612877565b15613295576000848152602082815260408083206001600160a01b0387168085529252808320805460ff1916905551339287917ff6391f5c32d9c69d2a47ea670b442974b53935d1edc7fd64eb21e047a839171b9190a4600191505061092a565b306001600160a01b037f00000000000000000000000000000000000000000000000000000000000000001614806133a257507f00000000000000000000000000000000000000000000000000000000000000006001600160a01b031661339660008051602061419b833981519152546001600160a01b031690565b6001600160a01b031614155b156133c05760405163703e46dd60e11b815260040160405180910390fd5b565b6000611b7a816131ed565b816001600160a01b03166352d1902d6040518163ffffffff1660e01b8152600401602060405180830381865afa925050508015613427575060408051601f3d908101601f1916820190925261342491810190614003565b60015b61344f57604051634c9c8ce360e01b81526001600160a01b0383166004820152602401610f03565b60008051602061419b833981519152811461348057604051632a87526960e21b815260048101829052602401610f03565b611057838361353d565b306001600160a01b037f000000000000000000000000000000000000000000000000000000000000000016146133c05760405163703e46dd60e11b815260040160405180910390fd5b6000807ff0c57e16840df040f15088dc2f81fe391c3923bec73e23a9662efc9c229c6a0061092a565b6133c0613593565b61350e8282612877565b611b7a5760405163e2517d3f60e01b81526001600160a01b038216600482015260248101839052604401610f03565b613546826135b8565b6040516001600160a01b038316907fbc7cd75a20ee27fd9adebab32041f755214dbc6bffa90cc0225b39da2e5c2d3b90600090a280511561358b57611057828261361d565b611b7a613693565b61359b6136b2565b6133c057604051631afcd79f60e31b815260040160405180910390fd5b806001600160a01b03163b6000036135ee57604051634c9c8ce360e01b81526001600160a01b0382166004820152602401610f03565b60008051602061419b83398151915280546001600160a01b0319166001600160a01b0392909216919091179055565b6060600080846001600160a01b03168460405161363a91906140fe565b600060405180830381855af49150503d8060008114613675576040519150601f19603f3d011682016040523d82523d6000602084013e61367a565b606091505b509150915061368a8583836136cc565b95945050505050565b34156133c05760405163b398979f60e01b815260040160405180910390fd5b60006136bc6134d3565b54600160401b900460ff16919050565b6060826136e1576136dc8261372b565b613724565b81511580156136f857506001600160a01b0384163b155b1561372157604051639996b31560e01b81526001600160a01b0385166004820152602401610f03565b50805b9392505050565b80511561373b5780518082602001fd5b60405163d6bda27560e01b815260040160405180910390fd5b60006020828403121561376657600080fd5b81356001600160e01b03198116811461372457600080fd5b60006020828403121561379057600080fd5b5035919050565b60005b838110156137b257818101518382015260200161379a565b50506000910152565b600081518084526137d3816020860160208601613797565b601f01601f19169290920160200192915050565b634e487b7160e01b600052602160045260246000fd5b6009811061381b57634e487b7160e01b600052602160045260246000fd5b9052565b60208152815160208201526000602083015161014060408401526138476101608401826137bb565b90506040840151601f1984830301606085015261386482826137bb565b915050606084015161388160808501826001600160a01b03169052565b50608084015161389460a08501826137fd565b5060a084015180151560c08501525060c084015160e084015260e0840151610100840152610100840151610120840152610120840151601f198483030161014085015261368a82826137bb565b600080604083850312156138f457600080fd5b50508035926020909101359150565b60608152600061391660608301866137bb565b828103602084015261392881866137bb565b915050826040830152949350505050565b6000602082016020835280845180835260408501915060408160051b86010192506020860160005b828110156139cc57603f19878603018452815161397f8682516137fd565b60018060a01b0360208201511660208701526040810151604087015260608101519050608060608701526139b660808701826137bb565b9550506020938401939190910190600101613961565b50929695505050505050565b634e487b7160e01b600052604160045260246000fd5b60008067ffffffffffffffff841115613a0957613a096139d8565b50604051601f19601f85018116603f0116810181811067ffffffffffffffff82111715613a3857613a386139d8565b604052838152905080828401851015613a5057600080fd5b83836020830137600060208583010152509392505050565b600082601f830112613a7957600080fd5b613724838335602085016139ee565b60008060408385031215613a9b57600080fd5b82359150602083013567ffffffffffffffff811115613ab957600080fd5b613ac585828601613a68565b9150509250929050565b80356001600160a01b0381168114613ae657600080fd5b919050565b60008060408385031215613afe57600080fd5b82359150613b0e60208401613acf565b90509250929050565b6000602082016020835280845180835260408501915060408160051b86010192506020860160005b828110156139cc57603f198786030184528151805160608752613b6560608801826137bb565b905060208201518782036020890152613b7e82826137bb565b60409384015198909301979097525094506020938401939190910190600101613b3f565b8a815261014060208201526000613bbd61014083018c6137bb565b8281036040840152613bcf818c6137bb565b6001600160a01b038b1660608501529050613bed608084018a6137fd565b87151560a08401528660c08401528560e084015284610100840152828103610120840152613c1b81856137bb565b9d9c50505050505050505050505050565b60008060408385031215613c3f57600080fd5b613c4883613acf565b9150602083013567ffffffffffffffff811115613c6457600080fd5b8301601f81018513613c7557600080fd5b613ac5858235602084016139ee565b613c8e81866137fd565b60018060a01b0384166020820152826040820152608060608201526000613cb860808301846137bb565b9695505050505050565b600080600080600080600060e0888a031215613cdd57600080fd5b87359650602088013567ffffffffffffffff811115613cfb57600080fd5b613d078a828b01613a68565b965050604088013567ffffffffffffffff811115613d2457600080fd5b613d308a828b01613a68565b955050606088013593506080880135925060a0880135915060c088013567ffffffffffffffff811115613d6257600080fd5b613d6e8a828b01613a68565b91505092959891949750929550565b602080825282518282018190526000918401906040840190835b81811015613db5578351835260209384019390920191600101613d97565b509095945050505050565b6020810161092a82846137fd565b60208152600061372460208301846137bb565b600060208284031215613df357600080fd5b61372482613acf565b600080600060608486031215613e1157600080fd5b83359250602084013567ffffffffffffffff811115613e2f57600080fd5b613e3b86828701613a68565b925050604084013567ffffffffffffffff811115613e5857600080fd5b613e6486828701613a68565b9150509250925092565b600181811c90821680613e8257607f821691505b602082108103613ea257634e487b7160e01b600052602260045260246000fd5b50919050565b602080825260139082015272125d195b48191bd95cc81b9bdd08195e1a5cdd606a1b604082015260600190565b601f82111561105757806000526020600020601f840160051c81016020851015613efc5750805b601f840160051c820191505b8181101561285b5760008155600101613f08565b815167ffffffffffffffff811115613f3657613f366139d8565b613f4a81613f448454613e6e565b84613ed5565b6020601f821160018114613f7e5760008315613f665750848201515b600019600385901b1c1916600184901b17845561285b565b600084815260208120601f198516915b82811015613fae5787850151825560209485019460019092019101613f8e565b5084821015613fcc5786840151600019600387901b60f8161c191681555b50505050600190811b01905550565b613fe581846137fd565b604060208201526000613ffb60408301846137bb565b949350505050565b60006020828403121561401557600080fd5b5051919050565b60006020828403121561402e57600080fd5b8151801515811461372457600080fd5b60608152600061405160608301866137bb565b60208301949094525060400152919050565b61406d81836137fd565b60406020820181905260099082015268125d195b481cdbdb1960ba1b6060820152608001919050565b6040815260006140a960408301856137bb565b828103602084015261368a81856137bb565b6140c581836137fd565b6040602082018190526019908201527824ba32b6903932b1b2b4bb32b21030ba103932ba30b4b632b960391b6060820152608001919050565b60008251614110818460208701613797565b919091019291505056feddaa901e2fe3bda354fe0ede2785152d5c109282a613fe024a056a3e66c41bb3fbd454f36a7e1a388bd6fc3ab10d434aa4578f811acbbcf33afb1c697486313c2a5f906c256a5d799494fcd066e1f6c077689de1cdb65052a1624de4bace99bf0c75017800f18fe8aa79d2d17f80214b1730a14d8170d048f00e4e5b53cc1bb6360894a13ba1a3210667c828492db98dca3e2076cc3735a920a3ca505d382bbc02dd7bc7dec4dceedda775e58dd541e08a116c6c53815c0bd028192f7b626800a2646970667358221220d0af46cda3fadf0fea1554a1a2196348a5c0491818639e370fc40e632a4500fd64736f6c634300081c0033",
  "linkReferences": {},
  "deployedLinkReferences": {}
}