{
  "_format": "hh-sol-artifact-1",
  "contractName": "SupplyChainTracking",
  "sourceName": "contracts/SupplyChainTracking.sol",
  "abi": [
    {
      "inputs": [],
      "name": "AccessControlBadConfirmation",
      "type": "error"
    },
    {
      "inputs": [
        {
          "internalType": "address",
          "name": "account",
          "type": "address"
        },
        {
          "internalType": "bytes32",
          "name": "neededRole",
          "type": "bytes32"
        }
      ],
      "name": "AccessControlUnauthorizedAccount",
      "type": "error"
    },
    {
      "inputs": [
        {
          "internalType": "address",
          "name": "target",
          "type": "address"
        }
      ],
      "name": "AddressEmptyCode",
      "type": "error"
    },
    {
      "inputs": [
        {
          "internalType": "address",
          "name": "implementation",
          "type": "address"
        }
      ],
      "name": "ERC1967InvalidImplementation",
      "type": "error"
    },
    {
      "inputs": [],
      "name": "ERC1967NonPayable",
      "type": "error"
    },
    {
      "inputs": [],
      "name": "FailedCall",
      "type": "error"
    },
    {
      "inputs": [],
      "name": "InvalidInitialization",
      "type": "error"
    },
    {
      "inputs": [],
      "name": "NotInitializing",
      "type": "error"
    },
    {
      "inputs": [],
      "name": "UUPSUnauthorizedCallContext",
      "type": "error"
    },
    {
      "inputs": [
        {
          "internalType": "bytes32",
          "name": "slot",
          "type": "bytes32"
        }
      ],
      "name": "UUPSUnsupportedProxiableUUID",
      "type": "error"
    },
    {
      "anonymous": false,
      "inputs": [
        {
          "indexed": true,
          "internalType": "bytes32",
          "name": "itemId",
          "type": "bytes32"
        },
        {
          "indexed": false,
          "internalType": "string",
          "name": "certName",
          "type": "string"
        },
        {
          "indexed": false,
          "internalType": "string",
          "name": "certIssuer",
          "type": "string"
        }
      ],
      "name": "CertificateAdded",
      "type": "event"
    },
    {
      "anonymous": false,
      "inputs": [
        {
          "indexed": true,
          "internalType": "address",
          "name": "collectorAddress",
          "type": "address"
        }
      ],
      "name": "FeeCollectorAddressSet",
      "type": "event"
    },
    {
      "anonymous": false,
      "inputs": [
        {
          "indexed": false,
          "internalType": "uint64",
          "name": "version",
          "type": "uint64"
        }
      ],
      "name": "Initialized",
      "type": "event"
    },
    {
      "anonymous": false,
      "inputs": [
        {
          "indexed": true,
          "internalType": "bytes32",
          "name": "itemId",
          "type": "bytes32"
        },
        {
          "indexed": false,
          "internalType": "string",
          "name": "name",
          "type": "string"
        },
        {
          "indexed": true,
          "internalType": "address",
          "name": "owner",
          "type": "address"
        },
        {
          "indexed": false,
          "internalType": "uint256",
          "name": "costPrice",
          "type": "uint256"
        },
        {
          "indexed": false,
          "internalType": "uint256",
          "name": "sellingPrice",
          "type": "uint256"
        }
      ],
      "name": "ItemCreated",
      "type": "event"
    },
    {
      "anonymous": false,
      "inputs": [
        {
          "indexed": true,
          "internalType": "bytes32",
          "name": "itemId",
          "type": "bytes32"
        },
        {
          "indexed": false,
          "internalType": "uint256",
          "name": "newSellingPrice",
          "type": "uint256"
        },
        {
          "indexed": true,
          "internalType": "address",
          "name": "updater",
          "type": "address"
        }
      ],
      "name": "ItemSellingPriceUpdated",
      "type": "event"
    },
    {
      "anonymous": false,
      "inputs": [
        {
          "indexed": true,
          "internalType": "bytes32",
          "name": "itemId",
          "type": "bytes32"
        },
        {
          "indexed": true,
          "internalType": "address",
          "name": "retailer",
          "type": "address"
        },
        {
          "indexed": true,
          "internalType": "address",
          "name": "customer",
          "type": "address"
        }
      ],
      "name": "ItemSoldToCustomer",
      "type": "event"
    },
    {
      "anonymous": false,
      "inputs": [
        {
          "indexed": true,
          "internalType": "bytes32",
          "name": "itemId",
          "type": "bytes32"
        },
        {
          "indexed": false,
          "internalType": "enum SupplyChainTracking.State",
          "name": "newState",
          "type": "uint8"
        },
        {
          "indexed": false,
          "internalType": "string",
          "name": "note",
          "type": "string"
        }
      ],
      "name": "ItemStateUpdated",
      "type": "event"
    },
    {
      "anonymous": false,
      "inputs": [
        {
          "indexed": true,
          "internalType": "bytes32",
          "name": "itemId",
          "type": "bytes32"
        },
        {
          "indexed": true,
          "internalType": "address",
          "name": "payer",
          "type": "address"
        },
        {
          "indexed": true,
          "internalType": "address",
          "name": "payee",
          "type": "address"
        },
        {
          "indexed": false,
          "internalType": "uint256",
          "name": "amount",
          "type": "uint256"
        },
        {
          "indexed": false,
          "internalType": "string",
          "name": "reason",
          "type": "string"
        }
      ],
      "name": "PaymentTransferred",
      "type": "event"
    },
    {
      "anonymous": false,
      "inputs": [
        {
          "indexed": true,
          "internalType": "bytes32",
          "name": "role",
          "type": "bytes32"
        },
        {
          "indexed": true,
          "internalType": "bytes32",
          "name": "previousAdminRole",
          "type": "bytes32"
        },
        {
          "indexed": true,
          "internalType": "bytes32",
          "name": "newAdminRole",
          "type": "bytes32"
        }
      ],
      "name": "RoleAdminChanged",
      "type": "event"
    },
    {
      "anonymous": false,
      "inputs": [
        {
          "indexed": true,
          "internalType": "bytes32",
          "name": "role",
          "type": "bytes32"
        },
        {
          "indexed": true,
          "internalType": "address",
          "name": "account",
          "type": "address"
        },
        {
          "indexed": true,
          "internalType": "address",
          "name": "sender",
          "type": "address"
        }
      ],
      "name": "RoleGranted",
      "type": "event"
    },
    {
      "anonymous": false,
      "inputs": [
        {
          "indexed": true,
          "internalType": "bytes32",
          "name": "role",
          "type": "bytes32"
        },
        {
          "indexed": true,
          "internalType": "address",
          "name": "account",
          "type": "address"
        },
        {
          "indexed": true,
          "internalType": "address",
          "name": "sender",
          "type": "address"
        }
      ],
      "name": "RoleRevoked",
      "type": "event"
    },
    {
      "anonymous": false,
      "inputs": [
        {
          "indexed": true,
          "internalType": "address",
          "name": "tokenAddress",
          "type": "address"
        }
      ],
      "name": "TokenContractAddressSet",
      "type": "event"
    },
    {
      "anonymous": false,
      "inputs": [
        {
          "indexed": true,
          "internalType": "bytes32",
          "name": "itemId",
          "type": "bytes32"
        },
        {
          "indexed": true,
          "internalType": "address",
          "name": "confirmer",
          "type": "address"
        },
        {
          "indexed": false,
          "internalType": "uint256",
          "name": "amountPaidToPreviousOwner",
          "type": "uint256"
        }
      ],
      "name": "TransferConfirmed",
      "type": "event"
    },
    {
      "anonymous": false,
      "inputs": [
        {
          "indexed": true,
          "internalType": "bytes32",
          "name": "itemId",
          "type": "bytes32"
        },
        {
          "indexed": true,
          "internalType": "address",
          "name": "from",
          "type": "address"
        },
        {
          "indexed": true,
          "internalType": "address",
          "name": "to",
          "type": "address"
        }
      ],
      "name": "TransferInitiated",
      "type": "event"
    },
    {
      "anonymous": false,
      "inputs": [
        {
          "indexed": true,
          "internalType": "address",
          "name": "implementation",
          "type": "address"
        }
      ],
      "name": "Upgraded",
      "type": "event"
    },
    {
      "inputs": [],
      "name": "ADMIN_ROLE",
      "outputs": [
        {
          "internalType": "bytes32",
          "name": "",
          "type": "bytes32"
        }
      ],
      "stateMutability": "view",
      "type": "function"
    },
    {
      "inputs": [],
      "name": "CUSTOMER_ROLE",
      "outputs": [
        {
          "internalType": "bytes32",
          "name": "",
          "type": "bytes32"
        }
      ],
      "stateMutability": "view",
      "type": "function"
    },
    {
      "inputs": [],
      "name": "DEFAULT_ADMIN_ROLE",
      "outputs": [
        {
          "internalType": "bytes32",
          "name": "",
          "type": "bytes32"
        }
      ],
      "stateMutability": "view",
      "type": "function"
    },
    {
      "inputs": [],
      "name": "DISTRIBUTOR_ROLE",
      "outputs": [
        {
          "internalType": "bytes32",
          "name": "",
          "type": "bytes32"
        }
      ],
      "stateMutability": "view",
      "type": "function"
    },
    {
      "inputs": [],
      "name": "PRODUCER_ROLE",
      "outputs": [
        {
          "internalType": "bytes32",
          "name": "",
          "type": "bytes32"
        }
      ],
      "stateMutability": "view",
      "type": "function"
    },
    {
      "inputs": [],
      "name": "RETAILER_ROLE",
      "outputs": [
        {
          "internalType": "bytes32",
          "name": "",
          "type": "bytes32"
        }
      ],
      "stateMutability": "view",
      "type": "function"
    },
    {
      "inputs": [],
      "name": "TRANSPORTER_ROLE",
      "outputs": [
        {
          "internalType": "bytes32",
          "name": "",
          "type": "bytes32"
        }
      ],
      "stateMutability": "view",
      "type": "function"
    },
    {
      "inputs": [],
      "name": "UPGRADE_INTERFACE_VERSION",
      "outputs": [
        {
          "internalType": "string",
          "name": "",
          "type": "string"
        }
      ],
      "stateMutability": "view",
      "type": "function"
    },
    {
      "inputs": [
        {
          "internalType": "bytes32",
          "name": "_itemId",
          "type": "bytes32"
        },
        {
          "internalType": "string",
          "name": "_certName",
          "type": "string"
        },
        {
          "internalType": "string",
          "name": "_certIssuer",
          "type": "string"
        }
      ],
      "name": "addCertificate",
      "outputs": [],
      "stateMutability": "nonpayable",
      "type": "function"
    },
    {
      "inputs": [
        {
          "internalType": "bytes32",
          "name": "_itemId",
          "type": "bytes32"
        }
      ],
      "name": "confirmTransfer",
      "outputs": [],
      "stateMutability": "nonpayable",
      "type": "function"
    },
    {
      "inputs": [
        {
          "internalType": "bytes32",
          "name": "_itemId",
          "type": "bytes32"
        },
        {
          "internalType": "string",
          "name": "_name",
          "type": "string"
        },
        {
          "internalType": "string",
          "name": "_description",
          "type": "string"
        },
        {
          "internalType": "uint256",
          "name": "_plannedDeliveryTime",
          "type": "uint256"
        },
        {
          "internalType": "uint256",
          "name": "_costPrice",
          "type": "uint256"
        },
        {
          "internalType": "uint256",
          "name": "_sellingPrice",
          "type": "uint256"
        },
        {
          "internalType": "string",
          "name": "_originalItemId",
          "type": "string"
        }
      ],
      "name": "createItem",
      "outputs": [],
      "stateMutability": "nonpayable",
      "type": "function"
    },
    {
      "inputs": [
        {
          "internalType": "bytes32",
          "name": "_itemId",
          "type": "bytes32"
        }
      ],
      "name": "customerBuyItem",
      "outputs": [],
      "stateMutability": "nonpayable",
      "type": "function"
    },
    {
      "inputs": [],
      "name": "feeCollector",
      "outputs": [
        {
          "internalType": "address",
          "name": "",
          "type": "address"
        }
      ],
      "stateMutability": "view",
      "type": "function"
    },
    {
      "inputs": [],
      "name": "getAllItemIds",
      "outputs": [
        {
          "internalType": "bytes32[]",
          "name": "",
          "type": "bytes32[]"
        }
      ],
      "stateMutability": "view",
      "type": "function"
    },
    {
      "inputs": [
        {
          "internalType": "bytes32",
          "name": "_itemId",
          "type": "bytes32"
        }
      ],
      "name": "getCertificates",
      "outputs": [
        {
          "components": [
            {
              "internalType": "string",
              "name": "certName",
              "type": "string"
            },
            {
              "internalType": "string",
              "name": "certIssuer",
              "type": "string"
            },
            {
              "internalType": "uint256",
              "name": "issueDate",
              "type": "uint256"
            }
          ],
          "internalType": "struct SupplyChainTracking.Certificate[]",
          "name": "",
          "type": "tuple[]"
        }
      ],
      "stateMutability": "view",
      "type": "function"
    },
    {
      "inputs": [
        {
          "internalType": "bytes32",
          "name": "_itemId",
          "type": "bytes32"
        }
      ],
      "name": "getItemDetail",
      "outputs": [
        {
          "components": [
            {
              "internalType": "bytes32",
              "name": "id",
              "type": "bytes32"
            },
            {
              "internalType": "string",
              "name": "name",
              "type": "string"
            },
            {
              "internalType": "string",
              "name": "description",
              "type": "string"
            },
            {
              "internalType": "address",
              "name": "currentOwner",
              "type": "address"
            },
            {
              "internalType": "enum SupplyChainTracking.State",
              "name": "currentState",
              "type": "uint8"
            },
            {
              "internalType": "bool",
              "name": "exists",
              "type": "bool"
            },
            {
              "internalType": "uint256",
              "name": "plannedDeliveryTime",
              "type": "uint256"
            },
            {
              "internalType": "uint256",
              "name": "costPrice",
              "type": "uint256"
            },
            {
              "internalType": "uint256",
              "name": "sellingPrice",
              "type": "uint256"
            },
            {
              "internalType": "string",
              "name": "itemIdString",
              "type": "string"
            }
          ],
          "internalType": "struct SupplyChainTracking.Item",
          "name": "",
          "type": "tuple"
        }
      ],
      "stateMutability": "view",
      "type": "function"
    },
    {
      "inputs": [
        {
          "internalType": "bytes32",
          "name": "_itemId",
          "type": "bytes32"
        }
      ],
      "name": "getItemHistory",
      "outputs": [
        {
          "components": [
            {
              "internalType": "enum SupplyChainTracking.State",
              "name": "state",
              "type": "uint8"
            },
            {
              "internalType": "address",
              "name": "actor",
              "type": "address"
            },
            {
              "internalType": "uint256",
              "name": "timestamp",
              "type": "uint256"
            },
            {
              "internalType": "string",
              "name": "note",
              "type": "string"
            }
          ],
          "internalType": "struct SupplyChainTracking.History[]",
          "name": "",
          "type": "tuple[]"
        }
      ],
      "stateMutability": "view",
      "type": "function"
    },
    {
      "inputs": [
        {
          "internalType": "bytes32",
          "name": "_itemId",
          "type": "bytes32"
        }
      ],
      "name": "getItemOwner",
      "outputs": [
        {
          "internalType": "address",
          "name": "",
          "type": "address"
        }
      ],
      "stateMutability": "view",
      "type": "function"
    },
    {
      "inputs": [
        {
          "internalType": "bytes32",
          "name": "_itemId",
          "type": "bytes32"
        }
      ],
      "name": "getItemState",
      "outputs": [
        {
          "internalType": "enum SupplyChainTracking.State",
          "name": "",
          "type": "uint8"
        }
      ],
      "stateMutability": "view",
      "type": "function"
    },
    {
      "inputs": [
        {
          "internalType": "bytes32",
          "name": "role",
          "type": "bytes32"
        }
      ],
      "name": "getRoleAdmin",
      "outputs": [
        {
          "internalType": "bytes32",
          "name": "",
          "type": "bytes32"
        }
      ],
      "stateMutability": "view",
      "type": "function"
    },
    {
      "inputs": [
        {
          "internalType": "bytes32",
          "name": "role",
          "type": "bytes32"
        },
        {
          "internalType": "address",
          "name": "account",
          "type": "address"
        }
      ],
      "name": "grantAccess",
      "outputs": [],
      "stateMutability": "nonpayable",
      "type": "function"
    },
    {
      "inputs": [
        {
          "internalType": "bytes32",
          "name": "role",
          "type": "bytes32"
        },
        {
          "internalType": "address",
          "name": "account",
          "type": "address"
        }
      ],
      "name": "grantRole",
      "outputs": [],
      "stateMutability": "nonpayable",
      "type": "function"
    },
    {
      "inputs": [
        {
          "internalType": "bytes32",
          "name": "role",
          "type": "bytes32"
        },
        {
          "internalType": "address",
          "name": "account",
          "type": "address"
        }
      ],
      "name": "hasRole",
      "outputs": [
        {
          "internalType": "bool",
          "name": "",
          "type": "bool"
        }
      ],
      "stateMutability": "view",
      "type": "function"
    },
    {
      "inputs": [],
      "name": "initialize",
      "outputs": [],
      "stateMutability": "nonpayable",
      "type": "function"
    },
    {
      "inputs": [
        {
          "internalType": "bytes32",
          "name": "_itemId",
          "type": "bytes32"
        },
        {
          "internalType": "address",
          "name": "_to",
          "type": "address"
        }
      ],
      "name": "initiateTransfer",
      "outputs": [],
      "stateMutability": "nonpayable",
      "type": "function"
    },
    {
      "inputs": [
        {
          "internalType": "bytes32",
          "name": "",
          "type": "bytes32"
        },
        {
          "internalType": "uint256",
          "name": "",
          "type": "uint256"
        }
      ],
      "name": "itemCertificates",
      "outputs": [
        {
          "internalType": "string",
          "name": "certName",
          "type": "string"
        },
        {
          "internalType": "string",
          "name": "certIssuer",
          "type": "string"
        },
        {
          "internalType": "uint256",
          "name": "issueDate",
          "type": "uint256"
        }
      ],
      "stateMutability": "view",
      "type": "function"
    },
    {
      "inputs": [
        {
          "internalType": "bytes32",
          "name": "",
          "type": "bytes32"
        },
        {
          "internalType": "uint256",
          "name": "",
          "type": "uint256"
        }
      ],
      "name": "itemHistories",
      "outputs": [
        {
          "internalType": "enum SupplyChainTracking.State",
          "name": "state",
          "type": "uint8"
        },
        {
          "internalType": "address",
          "name": "actor",
          "type": "address"
        },
        {
          "internalType": "uint256",
          "name": "timestamp",
          "type": "uint256"
        },
        {
          "internalType": "string",
          "name": "note",
          "type": "string"
        }
      ],
      "stateMutability": "view",
      "type": "function"
    },
    {
      "inputs": [
        {
          "internalType": "bytes32",
          "name": "",
          "type": "bytes32"
        }
      ],
      "name": "items",
      "outputs": [
        {
          "internalType": "bytes32",
          "name": "id",
          "type": "bytes32"
        },
        {
          "internalType": "string",
          "name": "name",
          "type": "string"
        },
        {
          "internalType": "string",
          "name": "description",
          "type": "string"
        },
        {
          "internalType": "address",
          "name": "currentOwner",
          "type": "address"
        },
        {
          "internalType": "enum SupplyChainTracking.State",
          "name": "currentState",
          "type": "uint8"
        },
        {
          "internalType": "bool",
          "name": "exists",
          "type": "bool"
        },
        {
          "internalType": "uint256",
          "name": "plannedDeliveryTime",
          "type": "uint256"
        },
        {
          "internalType": "uint256",
          "name": "costPrice",
          "type": "uint256"
        },
        {
          "internalType": "uint256",
          "name": "sellingPrice",
          "type": "uint256"
        },
        {
          "internalType": "string",
          "name": "itemIdString",
          "type": "string"
        }
      ],
      "stateMutability": "view",
      "type": "function"
    },
    {
      "inputs": [
        {
          "internalType": "bytes32",
          "name": "",
          "type": "bytes32"
        }
      ],
      "name": "pendingTransfers",
      "outputs": [
        {
          "internalType": "address",
          "name": "from",
          "type": "address"
        },
        {
          "internalType": "address",
          "name": "to",
          "type": "address"
        },
        {
          "internalType": "bool",
          "name": "fromConfirmed",
          "type": "bool"
        },
        {
          "internalType": "bool",
          "name": "toConfirmed",
          "type": "bool"
        }
      ],
      "stateMutability": "view",
      "type": "function"
    },
    {
      "inputs": [],
      "name": "proxiableUUID",
      "outputs": [
        {
          "internalType": "bytes32",
          "name": "",
          "type": "bytes32"
        }
      ],
      "stateMutability": "view",
      "type": "function"
    },
    {
      "inputs": [
        {
          "internalType": "bytes32",
          "name": "role",
          "type": "bytes32"
        },
        {
          "internalType": "address",
          "name": "callerConfirmation",
          "type": "address"
        }
      ],
      "name": "renounceRole",
      "outputs": [],
      "stateMutability": "nonpayable",
      "type": "function"
    },
    {
      "inputs": [
        {
          "internalType": "bytes32",
          "name": "_itemId",
          "type": "bytes32"
        },
        {
          "internalType": "string",
          "name": "_reason",
          "type": "string"
        }
      ],
      "name": "reportDamage",
      "outputs": [],
      "stateMutability": "nonpayable",
      "type": "function"
    },
    {
      "inputs": [
        {
          "internalType": "bytes32",
          "name": "_itemId",
          "type": "bytes32"
        },
        {
          "internalType": "string",
          "name": "_reason",
          "type": "string"
        }
      ],
      "name": "reportLost",
      "outputs": [],
      "stateMutability": "nonpayable",
      "type": "function"
    },
    {
      "inputs": [
        {
          "internalType": "bytes32",
          "name": "role",
          "type": "bytes32"
        },
        {
          "internalType": "address",
          "name": "account",
          "type": "address"
        }
      ],
      "name": "revokeAccess",
      "outputs": [],
      "stateMutability": "nonpayable",
      "type": "function"
    },
    {
      "inputs": [
        {
          "internalType": "bytes32",
          "name": "role",
          "type": "bytes32"
        },
        {
          "internalType": "address",
          "name": "account",
          "type": "address"
        }
      ],
      "name": "revokeRole",
      "outputs": [],
      "stateMutability": "nonpayable",
      "type": "function"
    },
    {
      "inputs": [
        {
          "internalType": "address",
          "name": "_collectorAddress",
          "type": "address"
        }
      ],
      "name": "setFeeCollectorAddress",
      "outputs": [],
      "stateMutability": "nonpayable",
      "type": "function"
    },
    {
      "inputs": [
        {
          "internalType": "address",
          "name": "_tokenAddress",
          "type": "address"
        }
      ],
      "name": "setTokenContractAddress",
      "outputs": [],
      "stateMutability": "nonpayable",
      "type": "function"
    },
    {
      "inputs": [
        {
          "internalType": "bytes4",
          "name": "interfaceId",
          "type": "bytes4"
        }
      ],
      "name": "supportsInterface",
      "outputs": [
        {
          "internalType": "bool",
          "name": "",
          "type": "bool"
        }
      ],
      "stateMutability": "view",
      "type": "function"
    },
    {
      "inputs": [],
      "name": "tokenContract",
      "outputs": [
        {
          "internalType": "contract IERC20",
          "name": "",
          "type": "address"
        }
      ],
      "stateMutability": "view",
      "type": "function"
    },
    {
      "inputs": [
        {
          "internalType": "bytes32",
          "name": "_itemId",
          "type": "bytes32"
        },
        {
          "internalType": "uint256",
          "name": "_newSellingPrice",
          "type": "uint256"
        }
      ],
      "name": "updateSellingPrice",
      "outputs": [],
      "stateMutability": "nonpayable",
      "type": "function"
    },
    {
      "inputs": [
        {
          "internalType": "address",
          "name": "newImplementation",
          "type": "address"
        },
        {
          "internalType": "bytes",
          "name": "data",
          "type": "bytes"
        }
      ],
      "name": "upgradeToAndCall",
      "outputs": [],
      "stateMutability": "payable",
      "type": "function"
    }
  ],
  "bytecode": "0x60a060405230608052348015601357600080fd5b50608051614e0461003d60003960008181613989015281816139b20152613af80152614e046000f3fe6080604052600436106102465760003560e01c80636a079ce21161013957806391d14854116100b6578063c415b95c1161007a578063c415b95c1461080c578063cb3e1fe71461082c578063d547741f1461084e578063d7787eeb1461086e578063ed76863d1461088e578063f0bd87cc146108ae57600080fd5b806391d14854146107595780639f02d3ec14610779578063a217fddf14610799578063ad3cb1cc146107ae578063b23d4854146107ec57600080fd5b80637d6ba5b3116100fd5780637d6ba5b3146106415780638129fc1c146106615780638d4ab2c0146106765780638d53b208146107005780638fbd1ce11461072057600080fd5b80636a079ce21461055457806370f378f414610584578063729dfe40146105a457806373140409146105c657806375b238fc1461060d57600080fd5b806336568abe116101c75780634eabbe771161018b5780634eabbe77146104b25780634f1ef286146104d457806352b0cb20146104e757806352d1902d1461050757806355a373d61461051c57600080fd5b806336568abe146103ef57806336a55b381461040f57806340554c3a1461042f57806348292cbd1461044f57806348f343f31461047c57600080fd5b8063204d79231161020e578063204d79231461032b5780632115e7bf1461036d578063248a9ca31461038f57806329349148146103af5780632f2ff15d146103cf57600080fd5b806301ffc9a71461024b5780630494f3f3146102805780631395f14a146102a257806314ca631b146102cf57806315459471146102fe575b600080fd5b34801561025757600080fd5b5061026b61026636600461409a565b6108d0565b60405190151581526020015b60405180910390f35b34801561028c57600080fd5b506102a061029b3660046140c4565b610907565b005b3480156102ae57600080fd5b506102c26102bd3660046140c4565b610e02565b6040516102779190614165565b3480156102db57600080fd5b506102ef6102ea366004614227565b6110b8565b60405161027793929190614249565b34801561030a57600080fd5b5061031e6103193660046140c4565b61120f565b604051610277919061427f565b34801561033757600080fd5b5061035f7f288a15c4a15d470e4cd9cad2f113b91206b520c26dbd3dd74627f0c057baa19c81565b604051908152602001610277565b34801561037957600080fd5b5061035f600080516020614d4683398151915281565b34801561039b57600080fd5b5061035f6103aa3660046140c4565b611362565b3480156103bb57600080fd5b506102a06103ca3660046143cc565b611384565b3480156103db57600080fd5b506102a06103ea36600461442e565b6115d4565b3480156103fb57600080fd5b506102a061040a36600461442e565b6115f6565b34801561041b57600080fd5b506102a061042a3660046140c4565b61162e565b34801561043b57600080fd5b506102a061044a36600461442e565b611d71565b34801561045b57600080fd5b5061046f61046a3660046140c4565b611d7c565b604051610277919061445a565b34801561048857600080fd5b5061049c6104973660046140c4565b611f11565b6040516102779a999897969594939291906144e5565b3480156104be57600080fd5b5061035f600080516020614d0683398151915281565b6102a06104e236600461456f565b61210d565b3480156104f357600080fd5b506102a06105023660046143cc565b61212c565b34801561051357600080fd5b5061035f612373565b34801561052857600080fd5b5060005461053c906001600160a01b031681565b6040516001600160a01b039091168152602001610277565b34801561056057600080fd5b5061057461056f366004614227565b612390565b60405161027794939291906145c6565b34801561059057600080fd5b506102a061059f366004614604565b61246f565b3480156105b057600080fd5b506105b9612a47565b60405161027791906146bc565b3480156105d257600080fd5b506106006105e13660046140c4565b600090815260026020526040902060030154600160a01b900460ff1690565b60405161027791906146ff565b34801561061957600080fd5b5061035f7fa49807205ce4d355092ef5a8a18f56e8913cf4a201fbe287825b095693c2177581565b34801561064d57600080fd5b506102a061065c36600461470d565b612a9f565b34801561066d57600080fd5b506102a0612b57565b34801561068257600080fd5b506106cd6106913660046140c4565b600560205260009081526040902080546001909101546001600160a01b039182169181169060ff600160a01b8204811691600160a81b90041684565b604080516001600160a01b0395861681529490931660208501529015159183019190915215156060820152608001610277565b34801561070c57600080fd5b506102a061071b36600461442e565b612c75565b34801561072c57600080fd5b5061053c61073b3660046140c4565b6000908152600260205260409020600301546001600160a01b031690565b34801561076557600080fd5b5061026b61077436600461442e565b612c8a565b34801561078557600080fd5b506102a0610794366004614227565b612cc2565b3480156107a557600080fd5b5061035f600081565b3480156107ba57600080fd5b506107df604051806040016040528060058152602001640352e302e360dc1b81525081565b6040516102779190614728565b3480156107f857600080fd5b506102a061080736600461470d565b613042565b34801561081857600080fd5b5060015461053c906001600160a01b031681565b34801561083857600080fd5b5061035f600080516020614ce683398151915281565b34801561085a57600080fd5b506102a061086936600461442e565b6130ec565b34801561087a57600080fd5b506102a061088936600461473b565b6130fe565b34801561089a57600080fd5b506102a06108a936600461442e565b6133fc565b3480156108ba57600080fd5b5061035f600080516020614d2683398151915281565b60006001600160e01b03198216637965db0b60e01b148061090157506301ffc9a760e01b6001600160e01b03198316145b92915050565b7f288a15c4a15d470e4cd9cad2f113b91206b520c26dbd3dd74627f0c057baa19c61093181613850565b60008281526002602052604090206003810154600160a81b900460ff166109735760405162461bcd60e51b815260040161096a906147ab565b60405180910390fd5b60066003820154600160a01b900460ff1660098111156109955761099561412d565b14610a145760405162461bcd60e51b815260206004820152604360248201527f4974656d206d75737420626520696e2052454345495645445f41545f5245544160448201527f494c455220737461746520746f20626520626f7567687420627920637573746f60648201526236b2b960e91b608482015260a40161096a565b60038101546001600160a01b0316610a3a600080516020614d4683398151915282612c8a565b610a865760405162461bcd60e51b815260206004820152601f60248201527f43757272656e74206f776e6572206973206e6f7420612052657461696c657200604482015260640161096a565b600682015415610c8f576000546001600160a01b0316610ab85760405162461bcd60e51b815260040161096a906147d8565b600080546001600160a01b031663dd62ed3e336040516001600160e01b031960e084901b1681526001600160a01b039091166004820152306024820152604401602060405180830381865afa158015610b15573d6000803e3d6000fd5b505050506040513d601f19601f82011682018060405250810190610b39919061480f565b90508260060154811015610b5f5760405162461bcd60e51b815260040161096a90614828565b600080546001600160a01b03166323b872dd3360068701546040516001600160e01b031960e085901b1681526001600160a01b039283166004820152918716602483015260448201526064016020604051808303816000875af1158015610bca573d6000803e3d6000fd5b505050506040513d601f19601f82011682018060405250810190610bee9190614876565b905080610c0d5760405162461bcd60e51b815260040161096a90614898565b6001600160a01b038316336001600160a01b0316877f9688cb9d5126d389af6cc829498ad77cffd361f01a6e97e9c404812e076399878760060154604051610c849181526040602082018190526015908201527424ba32b69029b0b632903a379021bab9ba37b6b2b960591b606082015260800190565b60405180910390a450505b600382810180546001600160a81b03191633908117600760a01b179091556000868152602083815260408083208151608081018352600781528084019590955242858301528151808301909252601582527424ba32b69039b7b632103a379031bab9ba37b6b2b960591b828401526060850191909152805460018181018355918452919092208351919094029093018054929390929091839160ff191690836009811115610d3f57610d3f61412d565b0217905550602082015181546001600160a01b0390911661010002610100600160a81b03199091161781556040820151600182015560608201516002820190610d88908261495c565b505050837f0c75017800f18fe8aa79d2d17f80214b1730a14d8170d048f00e4e5b53cc1bb66007604051610dbc9190614a1a565b60405180910390a260405133906001600160a01b0383169086907f0353d877cb0f02e37caebcb7e28a31233e54f70864290af7c59f6076588d714990600090a450505050565b604080516101408101825260008082526060602083018190529282018390528282018190526080820181905260a0820181905260c0820181905260e08201819052610100820152610120810191909152600260008381526020019081526020016000206040518061014001604052908160008201548152602001600182018054610e8b906148db565b80601f0160208091040260200160405190810160405280929190818152602001828054610eb7906148db565b8015610f045780601f10610ed957610100808354040283529160200191610f04565b820191906000526020600020905b815481529060010190602001808311610ee757829003601f168201915b50505050508152602001600282018054610f1d906148db565b80601f0160208091040260200160405190810160405280929190818152602001828054610f49906148db565b8015610f965780601f10610f6b57610100808354040283529160200191610f96565b820191906000526020600020905b815481529060010190602001808311610f7957829003601f168201915b505050918352505060038201546001600160a01b0381166020830152604090910190600160a01b900460ff166009811115610fd357610fd361412d565b6009811115610fe457610fe461412d565b81526003820154600160a81b900460ff161515602082015260048201546040820152600582015460608201526006820154608082015260078201805460a09092019161102f906148db565b80601f016020809104026020016040519081016040528092919081815260200182805461105b906148db565b80156110a85780601f1061107d576101008083540402835291602001916110a8565b820191906000526020600020905b81548152906001019060200180831161108b57829003601f168201915b5050505050815250509050919050565b600460205281600052604060002081815481106110d457600080fd5b9060005260206000209060030201600091509150508060000180546110f8906148db565b80601f0160208091040260200160405190810160405280929190818152602001828054611124906148db565b80156111715780601f1061114657610100808354040283529160200191611171565b820191906000526020600020905b81548152906001019060200180831161115457829003601f168201915b505050505090806001018054611186906148db565b80601f01602080910402602001604051908101604052809291908181526020018280546111b2906148db565b80156111ff5780601f106111d4576101008083540402835291602001916111ff565b820191906000526020600020905b8154815290600101906020018083116111e257829003601f168201915b5050505050908060020154905083565b606060036000838152602001908152602001600020805480602002602001604051908101604052809291908181526020016000905b82821015611357576000848152602090206040805160808101909152600384029091018054829060ff16600981111561127f5761127f61412d565b60098111156112905761129061412d565b8152815461010090046001600160a01b03166020820152600182015460408201526002820180546060909201916112c6906148db565b80601f01602080910402602001604051908101604052809291908181526020018280546112f2906148db565b801561133f5780601f106113145761010080835404028352916020019161133f565b820191906000526020600020905b81548152906001019060200180831161132257829003601f168201915b50505050508152505081526020019060010190611244565b505050509050919050565b6000908152600080516020614daf833981519152602052604090206001015490565b61139c600080516020614d0683398151915233612c8a565b806113ba57506113ba600080516020614d2683398151915233612c8a565b61142c5760405162461bcd60e51b815260206004820152603a60248201527f43616c6c6572206d757374206265205472616e73706f72746572206f7220446960448201527f737472696275746f7220746f207265706f72742064616d616765000000000000606482015260840161096a565b60008281526002602052604090206003810154600160a81b900460ff166114655760405162461bcd60e51b815260040161096a906147ab565b60038101546001600160a01b031633146114cd5760405162461bcd60e51b8152602060048201526024808201527f4f6e6c792063757272656e74206f776e65722063616e207265706f72742064616044820152636d61676560e01b606482015260840161096a565b6003818101805460ff60a01b1916600160a31b17905560008481526020828152604080832081516080810183526008815233818501524292810192909252606082018790528054600181810183559185529290932081519290940290930180549092839160ff1916908360098111156115485761154861412d565b0217905550602082015181546001600160a01b0390911661010002610100600160a81b03199091161781556040820151600182015560608201516002820190611591908261495c565b505050827f0c75017800f18fe8aa79d2d17f80214b1730a14d8170d048f00e4e5b53cc1bb66008846040516115c7929190614a59565b60405180910390a2505050565b6115dd82611362565b6115e681613850565b6115f0838361385d565b50505050565b6001600160a01b038116331461161f5760405163334bd91960e11b815260040160405180910390fd5b6116298282613902565b505050565b600081815260056020908152604080832060029092529091206003810154600160a81b900460ff166116725760405162461bcd60e51b815260040161096a906147ab565b60018201546001600160a01b031633146116d95760405162461bcd60e51b815260206004820152602260248201527f4f6e6c792072656365697665722063616e20636f6e6669726d207472616e736660448201526132b960f11b606482015260840161096a565b6001820154600160a01b900460ff166117405760405162461bcd60e51b815260206004820152602360248201527f53656e646572206d75737420696e697469617465207472616e736665722066696044820152621c9cdd60ea1b606482015260840161096a565b6001820154600160a81b900460ff16156117ab5760405162461bcd60e51b815260206004820152602660248201527f5472616e7366657220616c726561647920636f6e6669726d656420627920726560448201526531b2b4bb32b960d11b606482015260840161096a565b6117c3600080516020614d0683398151915233612c8a565b806117e157506117e1600080516020614d2683398151915233612c8a565b806117ff57506117ff600080516020614d4683398151915233612c8a565b61184b5760405162461bcd60e51b815260206004820152601d60248201527f496e76616c696420636f6e6669726d207472616e7366657220726f6c65000000604482015260640161096a565b600681015460009015611a60576000546001600160a01b03166118805760405162461bcd60e51b815260040161096a906147d8565b600080546001600160a01b031663dd62ed3e336040516001600160e01b031960e084901b1681526001600160a01b039091166004820152306024820152604401602060405180830381865afa1580156118dd573d6000803e3d6000fd5b505050506040513d601f19601f82011682018060405250810190611901919061480f565b905082600601548110156119275760405162461bcd60e51b815260040161096a90614828565b600080546001600160a01b03166323b872dd338754600688015460405160e085901b6001600160e01b03191681526001600160a01b03938416600482015292909116602483015260448201526064016020604051808303816000875af1158015611995573d6000803e3d6000fd5b505050506040513d601f19601f820116820180604052508101906119b99190614876565b9050806119d85760405162461bcd60e51b815260040161096a90614898565b600684015485549093506001600160a01b0316336001600160a01b0316877f9688cb9d5126d389af6cc829498ad77cffd361f01a6e97e9c404812e076399878760060154604051611a55918152604060208201819052601290820152714974656d2053656c6c696e6720507269636560701b606082015260800190565b60405180910390a450505b60018301805460ff60a81b1916600160a81b179055611a7c3390565b6003830180546001600160a01b0319166001600160a01b039290921691909117905560408051808201909152600e81526d24ba32b6903932b1b2b4bb32b21760911b6020820152611adb600080516020614d0683398151915233612c8a565b15611b145760038301805460ff60a01b1916600160a11b17905560408051606081019091526029808252614d8660208301399050611be8565b611b2c600080516020614d2683398151915233612c8a565b15611b80575060038201805460ff60a01b1916600160a21b17905560408051808201909152601d81527f4974656d207265636569766564206174204469737472696275746f722e0000006020820152611be8565b611b98600080516020614d4683398151915233612c8a565b15611be8575060038201805460ff60a01b1916600360a11b17905560408051808201909152601a81527f4974656d2072656365697665642061742052657461696c65722e00000000000060208201525b8260040154421115611c175780604051602001611c059190614a81565b60405160208183030381529060405290505b6003600086815260200190815260200160002060405180608001604052808560030160149054906101000a900460ff166009811115611c5857611c5861412d565b815233602080830191909152426040830152606090910184905282546001808201855560009485529190932082516003909402018054929390929091839160ff191690836009811115611cad57611cad61412d565b0217905550602082015181546001600160a01b0390911661010002610100600160a81b03199091161781556040820151600182015560608201516002820190611cf6908261495c565b505050600085815260056020526040902080546001600160a01b031916815560010180546001600160b01b0319169055336001600160a01b0316857f088c474e55a390f3d615704787d6b2fb7f0f3c31d954fa34f812d542226715ab84604051611d6291815260200190565b60405180910390a35050505050565b60006115e681613850565b606060046000838152602001908152602001600020805480602002602001604051908101604052809291908181526020016000905b828210156113575783829060005260206000209060030201604051806060016040529081600082018054611de4906148db565b80601f0160208091040260200160405190810160405280929190818152602001828054611e10906148db565b8015611e5d5780601f10611e3257610100808354040283529160200191611e5d565b820191906000526020600020905b815481529060010190602001808311611e4057829003601f168201915b50505050508152602001600182018054611e76906148db565b80601f0160208091040260200160405190810160405280929190818152602001828054611ea2906148db565b8015611eef5780601f10611ec457610100808354040283529160200191611eef565b820191906000526020600020905b815481529060010190602001808311611ed257829003601f168201915b5050505050815260200160028201548152505081526020019060010190611db1565b60026020526000908152604090208054600182018054919291611f33906148db565b80601f0160208091040260200160405190810160405280929190818152602001828054611f5f906148db565b8015611fac5780601f10611f8157610100808354040283529160200191611fac565b820191906000526020600020905b815481529060010190602001808311611f8f57829003601f168201915b505050505090806002018054611fc1906148db565b80601f0160208091040260200160405190810160405280929190818152602001828054611fed906148db565b801561203a5780601f1061200f5761010080835404028352916020019161203a565b820191906000526020600020905b81548152906001019060200180831161201d57829003601f168201915b50505050600383015460048401546005850154600686015460078701805496976001600160a01b0386169760ff600160a01b880481169850600160a81b9097049096169590919061208a906148db565b80601f01602080910402602001604051908101604052809291908181526020018280546120b6906148db565b80156121035780601f106120d857610100808354040283529160200191612103565b820191906000526020600020905b8154815290600101906020018083116120e657829003601f168201915b505050505090508a565b61211561397e565b61211e82613a25565b6121288282613a30565b5050565b612144600080516020614d0683398151915233612c8a565b806121625750612162600080516020614d2683398151915233612c8a565b6121d45760405162461bcd60e51b815260206004820152603860248201527f43616c6c6572206d757374206265205472616e73706f72746572206f7220446960448201527f737472696275746f7220746f207265706f7274206c6f73740000000000000000606482015260840161096a565b60008281526002602052604090206003810154600160a81b900460ff1661220d5760405162461bcd60e51b815260040161096a906147ab565b60038101546001600160a01b031633146122745760405162461bcd60e51b815260206004820152602260248201527f4f6e6c792063757272656e74206f776e65722063616e207265706f7274206c6f6044820152611cdd60f21b606482015260840161096a565b6003818101805460ff60a01b1916600960a01b17905560008481526020828152604080832081516080810183526009808252338286015242938201939093526060810188905281546001818101845592865293909420845193909502909401805493949093849260ff19909116919084908111156122f4576122f461412d565b0217905550602082015181546001600160a01b0390911661010002610100600160a81b0319909116178155604082015160018201556060820151600282019061233d908261495c565b505050827f0c75017800f18fe8aa79d2d17f80214b1730a14d8170d048f00e4e5b53cc1bb66009846040516115c7929190614a59565b600061237d613aed565b50600080516020614d6683398151915290565b600360205281600052604060002081815481106123ac57600080fd5b600091825260209091206003909102018054600182015460028301805460ff841696506101009093046001600160a01b031694509092916123ec906148db565b80601f0160208091040260200160405190810160405280929190818152602001828054612418906148db565b80156124655780601f1061243a57610100808354040283529160200191612465565b820191906000526020600020905b81548152906001019060200180831161244857829003601f168201915b5050505050905084565b600080516020614ce683398151915261248781613850565b600088815260026020526040902060030154600160a81b900460ff16156124e65760405162461bcd60e51b81526020600482015260136024820152724974656d20616c72656164792065786973747360681b604482015260640161096a565b6000546001600160a01b031661250e5760405162461bcd60e51b815260040161096a906147d8565b6001546001600160a01b03166125665760405162461bcd60e51b815260206004820152601d60248201527f46656520636f6c6c6563746f722061646472657373206e6f7420736574000000604482015260640161096a565b83156127aa57600080546001600160a01b031663dd62ed3e336040516001600160e01b031960e084901b1681526001600160a01b039091166004820152306024820152604401602060405180830381865afa1580156125c9573d6000803e3d6000fd5b505050506040513d601f19601f820116820180604052508101906125ed919061480f565b9050848110156126535760405162461bcd60e51b815260206004820152602b60248201527f496e73756666696369656e7420746f6b656e20616c6c6f77616e636520666f7260448201526a20636f737420707269636560a81b606482015260840161096a565b600080546001600160a01b03166323b872dd3360015460405160e084901b6001600160e01b03191681526001600160a01b03928316600482015291166024820152604481018990526064016020604051808303816000875af11580156126bd573d6000803e3d6000fd5b505050506040513d601f19601f820116820180604052508101906126e19190614876565b9050806127305760405162461bcd60e51b815260206004820181905260248201527f436f737420707269636520746f6b656e207472616e73666572206661696c6564604482015260640161096a565b6001546001600160a01b0316336001600160a01b03168b7f9688cb9d5126d389af6cc829498ad77cffd361f01a6e97e9c404812e076399878960405161279f918152604060208201819052600f908201526e4974656d20436f737420507269636560881b606082015260800190565b60405180910390a450505b6040518061014001604052808981526020018881526020018781526020016127cf3390565b6001600160a01b03168152602001600081526001602080830182905260408084018a9052606084018990526080840188905260a090930186905260008c8152600282529290922083518155918301519082019061282c908261495c565b5060408201516002820190612841908261495c565b5060608201516003820180546001600160a01b039092166001600160a01b03198316811782556080850151926001600160a81b03191617600160a01b83600981111561288f5761288f61412d565b021790555060a0820151600382018054911515600160a81b0260ff60a81b1990921691909117905560c0820151600482015560e08201516005820155610100820151600682015561012082015160078201906128eb908261495c565b50505060008881526003602081815260408084208151608081018352858152338185015242818401528251808401909352600c83526b125d195b4818dc99585d195960a21b83850152606081019290925280546001808201835591865292909420815192909302909201805492939092839160ff19909116908360098111156129765761297661412d565b0217905550602082015181546001600160a01b0390911661010002610100600160a81b031990911617815560408201516001820155606082015160028201906129bf908261495c565b5050600680546001810182556000919091527ff652222313e28459528d920b65115c16c04f3efc82aaedc97be59f3f377c0d3f0189905550336001600160a01b0316887fb807465cfb39005ec617112ed4e6a3cbf71bd2cd6e1aba7f831594df4f3784aa898787604051612a3593929190614ab7565b60405180910390a35050505050505050565b60606006805480602002602001604051908101604052809291908181526020018280548015612a9557602002820191906000526020600020905b815481526020019060010190808311612a81575b5050505050905090565b6000612aaa81613850565b6001600160a01b038216612b0c5760405162461bcd60e51b8152602060048201526024808201527f46656520636f6c6c6563746f7220616464726573732063616e6e6f74206265206044820152637a65726f60e01b606482015260840161096a565b600180546001600160a01b0319166001600160a01b0384169081179091556040517f6372e15ca741f2dbd0d10e1936f5f225a9904ad9ca5e0e173287dad04ee6cefc90600090a25050565b6000612b61613b36565b805490915060ff600160401b82041615906001600160401b0316600081158015612b885750825b90506000826001600160401b03166001148015612ba45750303b155b905081158015612bb2575080155b15612bd05760405163f92ee8a960e01b815260040160405180910390fd5b845467ffffffffffffffff191660011785558315612bfa57845460ff60401b1916600160401b1785555b612c02613b5f565b612c0a613b5f565b612c1560003361385d565b50600180546001600160a01b031916331790558315612c6e57845460ff60401b19168555604051600181527fc7f505b2f371ae2175ee4913f4499e1f2633a7b5936321eed1cdaeb6115181d29060200160405180910390a15b5050505050565b6000612c8081613850565b6115f08383613902565b6000918252600080516020614daf833981519152602090815260408084206001600160a01b0393909316845291905290205460ff1690565b60008281526002602052604090206003810154600160a81b900460ff16612cfb5760405162461bcd60e51b815260040161096a906147ab565b60038101546001600160a01b03163314612d6b5760405162461bcd60e51b815260206004820152602b60248201527f4f6e6c792063757272656e74206f776e65722063616e2075706461746520736560448201526a6c6c696e6720707269636560a81b606482015260840161096a565b612d83600080516020614ce683398151915233612c8a565b80612da15750612da1600080516020614d2683398151915233612c8a565b80612dbf5750612dbf600080516020614d4683398151915233612c8a565b612e0b5760405162461bcd60e51b815260206004820152601860248201527f43616c6c6572206973206e6f7420617574686f72697a65640000000000000000604482015260640161096a565b60006003820154600160a01b900460ff166009811115612e2d57612e2d61412d565b1480612e58575060046003820154600160a01b900460ff166009811115612e5657612e5661412d565b145b80612e82575060066003820154600160a01b900460ff166009811115612e8057612e8061412d565b145b612eec5760405162461bcd60e51b815260206004820152603560248201527f4974656d206d75737420626520696e20612076616c696420737461746520746f604482015274207570646174652073656c6c696e6720707269636560581b606482015260840161096a565b60068101805490839055604051838152339085907f352687963b7c2914def1f529082034cb0c8f9a432ee3f60afd889daae83aa96a9060200160405180910390a36003600085815260200190815260200160002060405180608001604052808460030160149054906101000a900460ff166009811115612f6e57612f6e61412d565b8152336020820152426040820152606001612f8884613b67565b612f9187613b67565b604051602001612fa2929190614adc565b60408051601f198184030181529190529052815460018181018455600093845260209093208251600390920201805492939092839160ff1990911690836009811115612ff057612ff061412d565b0217905550602082015181546001600160a01b0390911661010002610100600160a81b03199091161781556040820151600182015560608201516002820190613039908261495c565b50505050505050565b600061304d81613850565b6001600160a01b0382166130a35760405162461bcd60e51b815260206004820152601c60248201527f546f6b656e20616464726573732063616e6e6f74206265207a65726f00000000604482015260640161096a565b600080546001600160a01b0319166001600160a01b038416908117825560405190917f284bbd60459a4c88dcceeca2cdf83cd4d5e796c4f3dfe0eff9baa7a06a40dab691a25050565b6130f582611362565b612c8081613850565b600080516020614ce683398151915261311681613850565b60008481526002602052604090206003810154600160a81b900460ff1661314f5760405162461bcd60e51b815260040161096a906147ab565b60038101546001600160a01b031633146131ba5760405162461bcd60e51b815260206004820152602660248201527f4f6e6c792063757272656e74206f776e65722063616e2061646420636572746960448201526566696361746560d01b606482015260840161096a565b60006003820154600160a01b900460ff1660098111156131dc576131dc61412d565b146132435760405162461bcd60e51b815260206004820152603160248201527f4974656d206d75737420626520696e2050726f647563656420737461746520746044820152706f2061646420636572746966696361746560781b606482015260840161096a565b6000858152600460209081526040808320815160608101835288815280840188905242928101929092528054600181018255908452919092208251600390920201908190613291908261495c565b50602082015160018201906132a6908261495c565b50604082015181600201555050847f990abeb86e6cfb21342f48fb558b6178010aa5e52bb9881a06312ae99232883985856040516132e5929190614b44565b60405180910390a26003600086815260200190815260200160002060405180608001604052808360030160149054906101000a900460ff16600981111561332e5761332e61412d565b8152602001336001600160a01b03168152602001428152602001868660405160200161335b929190614b69565b60408051601f198184030181529190529052815460018181018455600093845260209093208251600390920201805492939092839160ff19909116908360098111156133a9576133a961412d565b0217905550602082015181546001600160a01b0390911661010002610100600160a81b031990911617815560408201516001820155606082015160028201906133f2908261495c565b5050505050505050565b60008281526002602052604090206003810154600160a81b900460ff166134355760405162461bcd60e51b815260040161096a906147ab565b60038101546001600160a01b031633146134a25760405162461bcd60e51b815260206004820152602860248201527f4f6e6c792063757272656e74206f776e65722063616e20696e697469617465206044820152673a3930b739b332b960c11b606482015260840161096a565b6134ba600080516020614d0683398151915283612c8a565b806134d857506134d8600080516020614d2683398151915283612c8a565b806134f657506134f6600080516020614d4683398151915283612c8a565b61353a5760405162461bcd60e51b8152602060048201526015602482015274496e76616c696420726563656976657220726f6c6560581b604482015260640161096a565b6000838152600560205260409020546001600160a01b0316156135af5760405162461bcd60e51b815260206004820152602760248201527f4578697374696e67207472616e736665722070656e64696e6720666f722074686044820152666973206974656d60c81b606482015260840161096a565b60405180608001604052806135c13390565b6001600160a01b039081168252848116602080840191909152600160408085018290526000606095860181905289815260058452819020865181549086166001600160a01b0319909116178155928601519290910180549186015195909401511515600160a81b0260ff60a81b19951515600160a01b026001600160a81b03199092169290931691909117179290921691909117905561366f600080516020614d0683398151915283612c8a565b15613696576003810180546001919060ff60a01b1916600160a01b835b02179055506136ff565b6136ae600080516020614d2683398151915283612c8a565b156136cc576003818101805460ff60a01b1916600160a01b8361368c565b6136e4600080516020614d4683398151915283612c8a565b156136ff5760038101805460ff60a01b1916600560a01b1790555b6003600084815260200190815260200160002060405180608001604052808360030160149054906101000a900460ff1660098111156137405761374061412d565b815233602082015242604082015260600161375a85613c72565b60405160200161376a9190614bc7565b60408051601f198184030181529190529052815460018181018455600093845260209093208251600390920201805492939092839160ff19909116908360098111156137b8576137b861412d565b0217905550602082015181546001600160a01b0390911661010002610100600160a81b03199091161781556040820151600182015560608201516002820190613801908261495c565b505050816001600160a01b03166138153390565b6001600160a01b0316847f342d38e01a2764dde5384ce69df459bf7c7cd213cf5c4531154cdffc612d818c60405160405180910390a4505050565b61385a8133613e4a565b50565b6000600080516020614daf8339815191526138788484612c8a565b6138f8576000848152602082815260408083206001600160a01b03871684529091529020805460ff191660011790556138ae3390565b6001600160a01b0316836001600160a01b0316857f2f8788117e7eff1d82e926ec794901d17c78024a50270940304540a733656f0d60405160405180910390a46001915050610901565b6000915050610901565b6000600080516020614daf83398151915261391d8484612c8a565b156138f8576000848152602082815260408083206001600160a01b0387168085529252808320805460ff1916905551339287917ff6391f5c32d9c69d2a47ea670b442974b53935d1edc7fd64eb21e047a839171b9190a46001915050610901565b306001600160a01b037f0000000000000000000000000000000000000000000000000000000000000000161480613a0557507f00000000000000000000000000000000000000000000000000000000000000006001600160a01b03166139f9600080516020614d66833981519152546001600160a01b031690565b6001600160a01b031614155b15613a235760405163703e46dd60e11b815260040160405180910390fd5b565b600061212881613850565b816001600160a01b03166352d1902d6040518163ffffffff1660e01b8152600401602060405180830381865afa925050508015613a8a575060408051601f3d908101601f19168201909252613a879181019061480f565b60015b613ab257604051634c9c8ce360e01b81526001600160a01b038316600482015260240161096a565b600080516020614d668339815191528114613ae357604051632a87526960e21b81526004810182905260240161096a565b6116298383613e83565b306001600160a01b037f00000000000000000000000000000000000000000000000000000000000000001614613a235760405163703e46dd60e11b815260040160405180910390fd5b6000807ff0c57e16840df040f15088dc2f81fe391c3923bec73e23a9662efc9c229c6a00610901565b613a23613ed9565b606081600003613b8e5750506040805180820190915260018152600360fc1b602082015290565b8160005b8115613bb85780613ba281614c1b565b9150613bb19050600a83614c4a565b9150613b92565b6000816001600160401b03811115613bd257613bd261431e565b6040519080825280601f01601f191660200182016040528015613bfc576020820181803683370190505b508593509050815b8315613c6957613c15600a85614c5e565b613c20906030614c72565b60f81b82613c2d83614c85565b92508281518110613c4057613c40614c9c565b60200101906001600160f81b031916908160001a905350613c62600a85614c4a565b9350613c04565b50949350505050565b604080518082018252601081526f181899199a1a9b1b9c1cb0b131b232b360811b60208201528151602a80825260608281019094526001600160a01b0385169291600091602082018180368337019050509050600360fc1b81600081518110613cdd57613cdd614c9c565b60200101906001600160f81b031916908160001a905350600f60fb1b81600181518110613d0c57613d0c614c9c565b60200101906001600160f81b031916908160001a90535060005b6014811015613c695782600485613d3e84600c614c72565b60208110613d4e57613d4e614c9c565b1a60f81b6001600160f81b031916901c60f81c60ff1681518110613d7457613d74614c9c565b01602001516001600160f81b03191682613d8f836002614cb2565b613d9a906002614c72565b81518110613daa57613daa614c9c565b60200101906001600160f81b031916908160001a9053508284613dce83600c614c72565b60208110613dde57613dde614c9c565b825191901a600f16908110613df557613df5614c9c565b01602001516001600160f81b03191682613e10836002614cb2565b613e1b906003614c72565b81518110613e2b57613e2b614c9c565b60200101906001600160f81b031916908160001a905350600101613d26565b613e548282612c8a565b6121285760405163e2517d3f60e01b81526001600160a01b03821660048201526024810183905260440161096a565b613e8c82613efe565b6040516001600160a01b038316907fbc7cd75a20ee27fd9adebab32041f755214dbc6bffa90cc0225b39da2e5c2d3b90600090a2805115613ed1576116298282613f63565b612128613fd9565b613ee1613ff8565b613a2357604051631afcd79f60e31b815260040160405180910390fd5b806001600160a01b03163b600003613f3457604051634c9c8ce360e01b81526001600160a01b038216600482015260240161096a565b600080516020614d6683398151915280546001600160a01b0319166001600160a01b0392909216919091179055565b6060600080846001600160a01b031684604051613f809190614cc9565b600060405180830381855af49150503d8060008114613fbb576040519150601f19603f3d011682016040523d82523d6000602084013e613fc0565b606091505b5091509150613fd0858383614012565b95945050505050565b3415613a235760405163b398979f60e01b815260040160405180910390fd5b6000614002613b36565b54600160401b900460ff16919050565b6060826140275761402282614071565b61406a565b815115801561403e57506001600160a01b0384163b155b1561406757604051639996b31560e01b81526001600160a01b038516600482015260240161096a565b50805b9392505050565b8051156140815780518082602001fd5b60405163d6bda27560e01b815260040160405180910390fd5b6000602082840312156140ac57600080fd5b81356001600160e01b03198116811461406a57600080fd5b6000602082840312156140d657600080fd5b5035919050565b60005b838110156140f85781810151838201526020016140e0565b50506000910152565b600081518084526141198160208601602086016140dd565b601f01601f19169290920160200192915050565b634e487b7160e01b600052602160045260246000fd5b600a811061416157634e487b7160e01b600052602160045260246000fd5b9052565b602081528151602082015260006020830151610140604084015261418d610160840182614101565b90506040840151601f198483030160608501526141aa8282614101565b91505060608401516141c760808501826001600160a01b03169052565b5060808401516141da60a0850182614143565b5060a084015180151560c08501525060c084015160e084015260e0840151610100840152610100840151610120840152610120840151601f1984830301610140850152613fd08282614101565b6000806040838503121561423a57600080fd5b50508035926020909101359150565b60608152600061425c6060830186614101565b828103602084015261426e8186614101565b915050826040830152949350505050565b6000602082016020835280845180835260408501915060408160051b86010192506020860160005b8281101561431257603f1987860301845281516142c5868251614143565b60018060a01b0360208201511660208701526040810151604087015260608101519050608060608701526142fc6080870182614101565b95505060209384019391909101906001016142a7565b50929695505050505050565b634e487b7160e01b600052604160045260246000fd5b6000806001600160401b0384111561434e5761434e61431e565b50604051601f19601f85018116603f011681018181106001600160401b038211171561437c5761437c61431e565b60405283815290508082840185101561439457600080fd5b83836020830137600060208583010152509392505050565b600082601f8301126143bd57600080fd5b61406a83833560208501614334565b600080604083850312156143df57600080fd5b8235915060208301356001600160401b038111156143fc57600080fd5b614408858286016143ac565b9150509250929050565b80356001600160a01b038116811461442957600080fd5b919050565b6000806040838503121561444157600080fd5b8235915061445160208401614412565b90509250929050565b6000602082016020835280845180835260408501915060408160051b86010192506020860160005b8281101561431257603f1987860301845281518051606087526144a86060880182614101565b9050602082015187820360208901526144c18282614101565b60409384015198909301979097525094506020938401939190910190600101614482565b8a81526101406020820152600061450061014083018c614101565b8281036040840152614512818c614101565b6001600160a01b038b1660608501529050614530608084018a614143565b87151560a08401528660c08401528560e08401528461010084015282810361012084015261455e8185614101565b9d9c50505050505050505050505050565b6000806040838503121561458257600080fd5b61458b83614412565b915060208301356001600160401b038111156145a657600080fd5b8301601f810185136145b757600080fd5b61440885823560208401614334565b6145d08186614143565b60018060a01b03841660208201528260408201526080606082015260006145fa6080830184614101565b9695505050505050565b600080600080600080600060e0888a03121561461f57600080fd5b8735965060208801356001600160401b0381111561463c57600080fd5b6146488a828b016143ac565b96505060408801356001600160401b0381111561466457600080fd5b6146708a828b016143ac565b955050606088013593506080880135925060a0880135915060c08801356001600160401b038111156146a157600080fd5b6146ad8a828b016143ac565b91505092959891949750929550565b602080825282518282018190526000918401906040840190835b818110156146f45783518352602093840193909201916001016146d6565b509095945050505050565b602081016109018284614143565b60006020828403121561471f57600080fd5b61406a82614412565b60208152600061406a6020830184614101565b60008060006060848603121561475057600080fd5b8335925060208401356001600160401b0381111561476d57600080fd5b614779868287016143ac565b92505060408401356001600160401b0381111561479557600080fd5b6147a1868287016143ac565b9150509250925092565b602080825260139082015272125d195b48191bd95cc81b9bdd08195e1a5cdd606a1b604082015260600190565b6020808252601e908201527f546f6b656e20636f6e74726163742061646472657373206e6f74207365740000604082015260600190565b60006020828403121561482157600080fd5b5051919050565b6020808252602e908201527f496e73756666696369656e7420746f6b656e20616c6c6f77616e636520666f7260408201526d2073656c6c696e6720707269636560901b606082015260800190565b60006020828403121561488857600080fd5b8151801515811461406a57600080fd5b60208082526023908201527f53656c6c696e6720707269636520746f6b656e207472616e73666572206661696040820152621b195960ea1b606082015260800190565b600181811c908216806148ef57607f821691505b60208210810361490f57634e487b7160e01b600052602260045260246000fd5b50919050565b601f82111561162957806000526020600020601f840160051c8101602085101561493c5750805b601f840160051c820191505b81811015612c6e5760008155600101614948565b81516001600160401b038111156149755761497561431e565b6149898161498384546148db565b84614915565b6020601f8211600181146149bd57600083156149a55750848201515b600019600385901b1c1916600184901b178455612c6e565b600084815260208120601f198516915b828110156149ed57878501518255602094850194600190920191016149cd565b5084821015614a0b5786840151600019600387901b60f8161c191681555b50505050600190811b01905550565b614a248183614143565b6040602082018190526015908201527424ba32b69039b7b632103a379031bab9ba37b6b2b960591b6060820152608001919050565b614a638184614143565b604060208201526000614a796040830184614101565b949350505050565b60008251614a938184602087016140dd565b71202844656c697665726564206c617465212960701b920191825250601201919050565b606081526000614aca6060830186614101565b60208301949094525060400152919050565b7f53656c6c696e6720707269636520757064617465642066726f6d200000000000815260008351614b1481601b8501602088016140dd565b630103a37960e51b601b918401918201528351614b3881601f8401602088016140dd565b01601f01949350505050565b604081526000614b576040830185614101565b8281036020840152613fd08185614101565b72021b2b93a34b334b1b0ba329030b23232b21d1606d1b815260008351614b978160138501602088016140dd565b63010313c960e51b6013918401918201528351614bbb8160178401602088016140dd565b01601701949350505050565b7502a3930b739b332b91034b734ba34b0ba32b2103a37960551b815260008251614bf88160168501602087016140dd565b9190910160160192915050565b634e487b7160e01b600052601160045260246000fd5b600060018201614c2d57614c2d614c05565b5060010190565b634e487b7160e01b600052601260045260246000fd5b600082614c5957614c59614c34565b500490565b600082614c6d57614c6d614c34565b500690565b8082018082111561090157610901614c05565b600081614c9457614c94614c05565b506000190190565b634e487b7160e01b600052603260045260246000fd5b808202811582820484141761090157610901614c05565b60008251614cdb8184602087016140dd565b919091019291505056fe8eb467f061ca67f42a2d2ca4a346fc9fb645efc0ba75056ee9f71c3a0ccc10a8ddaa901e2fe3bda354fe0ede2785152d5c109282a613fe024a056a3e66c41bb3fbd454f36a7e1a388bd6fc3ab10d434aa4578f811acbbcf33afb1c697486313c2a5f906c256a5d799494fcd066e1f6c077689de1cdb65052a1624de4bace99bf360894a13ba1a3210667c828492db98dca3e2076cc3735a920a3ca505d382bbc4974656d207265636569766564206279205472616e73706f7274657220666f72207472616e7369742e02dd7bc7dec4dceedda775e58dd541e08a116c6c53815c0bd028192f7b626800a2646970667358221220813073c1e9ed72367bf9845561faad5407a914479ae252478c910e6648534bcf64736f6c634300081c0033",
  "linkReferences": {},
  "deployedLinkReferences": {}
}