{
  "_format": "hh-sol-artifact-1",
  "contractName": "SupplyChainTracking",
  "sourceName": "contracts/SupplyChainTracking.sol",
  "abi": [
    {
      "inputs": [],
      "name": "AccessControlBadConfirmation",
      "type": "error"
    },
    {
      "inputs": [
        {
          "internalType": "address",
          "name": "account",
          "type": "address"
        },
        {
          "internalType": "bytes32",
          "name": "neededRole",
          "type": "bytes32"
        }
      ],
      "name": "AccessControlUnauthorizedAccount",
      "type": "error"
    },
    {
      "inputs": [
        {
          "internalType": "address",
          "name": "target",
          "type": "address"
        }
      ],
      "name": "AddressEmptyCode",
      "type": "error"
    },
    {
      "inputs": [
        {
          "internalType": "address",
          "name": "implementation",
          "type": "address"
        }
      ],
      "name": "ERC1967InvalidImplementation",
      "type": "error"
    },
    {
      "inputs": [],
      "name": "ERC1967NonPayable",
      "type": "error"
    },
    {
      "inputs": [],
      "name": "FailedCall",
      "type": "error"
    },
    {
      "inputs": [],
      "name": "InvalidInitialization",
      "type": "error"
    },
    {
      "inputs": [],
      "name": "NotInitializing",
      "type": "error"
    },
    {
      "inputs": [],
      "name": "UUPSUnauthorizedCallContext",
      "type": "error"
    },
    {
      "inputs": [
        {
          "internalType": "bytes32",
          "name": "slot",
          "type": "bytes32"
        }
      ],
      "name": "UUPSUnsupportedProxiableUUID",
      "type": "error"
    },
    {
      "anonymous": false,
      "inputs": [
        {
          "indexed": true,
          "internalType": "bytes32",
          "name": "itemId",
          "type": "bytes32"
        },
        {
          "indexed": false,
          "internalType": "string",
          "name": "certName",
          "type": "string"
        },
        {
          "indexed": false,
          "internalType": "string",
          "name": "certIssuer",
          "type": "string"
        }
      ],
      "name": "CertificateAdded",
      "type": "event"
    },
    {
      "anonymous": false,
      "inputs": [
        {
          "indexed": true,
          "internalType": "address",
          "name": "collectorAddress",
          "type": "address"
        }
      ],
      "name": "FeeCollectorAddressSet",
      "type": "event"
    },
    {
      "anonymous": false,
      "inputs": [
        {
          "indexed": false,
          "internalType": "uint64",
          "name": "version",
          "type": "uint64"
        }
      ],
      "name": "Initialized",
      "type": "event"
    },
    {
      "anonymous": false,
      "inputs": [
        {
          "indexed": true,
          "internalType": "bytes32",
          "name": "itemId",
          "type": "bytes32"
        },
        {
          "indexed": false,
          "internalType": "string",
          "name": "name",
          "type": "string"
        },
        {
          "indexed": true,
          "internalType": "address",
          "name": "owner",
          "type": "address"
        },
        {
          "indexed": false,
          "internalType": "uint256",
          "name": "costPrice",
          "type": "uint256"
        },
        {
          "indexed": false,
          "internalType": "uint256",
          "name": "sellingPrice",
          "type": "uint256"
        }
      ],
      "name": "ItemCreated",
      "type": "event"
    },
    {
      "anonymous": false,
      "inputs": [
        {
          "indexed": true,
          "internalType": "bytes32",
          "name": "itemId",
          "type": "bytes32"
        },
        {
          "indexed": false,
          "internalType": "uint256",
          "name": "newSellingPrice",
          "type": "uint256"
        },
        {
          "indexed": true,
          "internalType": "address",
          "name": "updater",
          "type": "address"
        }
      ],
      "name": "ItemSellingPriceUpdated",
      "type": "event"
    },
    {
      "anonymous": false,
      "inputs": [
        {
          "indexed": true,
          "internalType": "bytes32",
          "name": "itemId",
          "type": "bytes32"
        },
        {
          "indexed": true,
          "internalType": "address",
          "name": "retailer",
          "type": "address"
        },
        {
          "indexed": true,
          "internalType": "address",
          "name": "customer",
          "type": "address"
        }
      ],
      "name": "ItemSoldToCustomer",
      "type": "event"
    },
    {
      "anonymous": false,
      "inputs": [
        {
          "indexed": true,
          "internalType": "bytes32",
          "name": "itemId",
          "type": "bytes32"
        },
        {
          "indexed": false,
          "internalType": "enum SupplyChainTracking.State",
          "name": "newState",
          "type": "uint8"
        },
        {
          "indexed": false,
          "internalType": "string",
          "name": "note",
          "type": "string"
        }
      ],
      "name": "ItemStateUpdated",
      "type": "event"
    },
    {
      "anonymous": false,
      "inputs": [
        {
          "indexed": true,
          "internalType": "bytes32",
          "name": "itemId",
          "type": "bytes32"
        },
        {
          "indexed": true,
          "internalType": "address",
          "name": "payer",
          "type": "address"
        },
        {
          "indexed": true,
          "internalType": "address",
          "name": "payee",
          "type": "address"
        },
        {
          "indexed": false,
          "internalType": "uint256",
          "name": "amount",
          "type": "uint256"
        },
        {
          "indexed": false,
          "internalType": "string",
          "name": "reason",
          "type": "string"
        }
      ],
      "name": "PaymentTransferred",
      "type": "event"
    },
    {
      "anonymous": false,
      "inputs": [
        {
          "indexed": true,
          "internalType": "bytes32",
          "name": "role",
          "type": "bytes32"
        },
        {
          "indexed": true,
          "internalType": "bytes32",
          "name": "previousAdminRole",
          "type": "bytes32"
        },
        {
          "indexed": true,
          "internalType": "bytes32",
          "name": "newAdminRole",
          "type": "bytes32"
        }
      ],
      "name": "RoleAdminChanged",
      "type": "event"
    },
    {
      "anonymous": false,
      "inputs": [
        {
          "indexed": true,
          "internalType": "bytes32",
          "name": "role",
          "type": "bytes32"
        },
        {
          "indexed": true,
          "internalType": "address",
          "name": "account",
          "type": "address"
        },
        {
          "indexed": true,
          "internalType": "address",
          "name": "sender",
          "type": "address"
        }
      ],
      "name": "RoleGranted",
      "type": "event"
    },
    {
      "anonymous": false,
      "inputs": [
        {
          "indexed": true,
          "internalType": "bytes32",
          "name": "role",
          "type": "bytes32"
        },
        {
          "indexed": true,
          "internalType": "address",
          "name": "account",
          "type": "address"
        },
        {
          "indexed": true,
          "internalType": "address",
          "name": "sender",
          "type": "address"
        }
      ],
      "name": "RoleRevoked",
      "type": "event"
    },
    {
      "anonymous": false,
      "inputs": [
        {
          "indexed": true,
          "internalType": "address",
          "name": "tokenAddress",
          "type": "address"
        }
      ],
      "name": "TokenContractAddressSet",
      "type": "event"
    },
    {
      "anonymous": false,
      "inputs": [
        {
          "indexed": true,
          "internalType": "bytes32",
          "name": "itemId",
          "type": "bytes32"
        },
        {
          "indexed": true,
          "internalType": "address",
          "name": "confirmer",
          "type": "address"
        },
        {
          "indexed": false,
          "internalType": "uint256",
          "name": "amountPaidToPreviousOwner",
          "type": "uint256"
        }
      ],
      "name": "TransferConfirmed",
      "type": "event"
    },
    {
      "anonymous": false,
      "inputs": [
        {
          "indexed": true,
          "internalType": "bytes32",
          "name": "itemId",
          "type": "bytes32"
        },
        {
          "indexed": true,
          "internalType": "address",
          "name": "from",
          "type": "address"
        },
        {
          "indexed": true,
          "internalType": "address",
          "name": "to",
          "type": "address"
        }
      ],
      "name": "TransferInitiated",
      "type": "event"
    },
    {
      "anonymous": false,
      "inputs": [
        {
          "indexed": true,
          "internalType": "address",
          "name": "implementation",
          "type": "address"
        }
      ],
      "name": "Upgraded",
      "type": "event"
    },
    {
      "inputs": [],
      "name": "ADMIN_ROLE",
      "outputs": [
        {
          "internalType": "bytes32",
          "name": "",
          "type": "bytes32"
        }
      ],
      "stateMutability": "view",
      "type": "function"
    },
    {
      "inputs": [],
      "name": "DEFAULT_ADMIN_ROLE",
      "outputs": [
        {
          "internalType": "bytes32",
          "name": "",
          "type": "bytes32"
        }
      ],
      "stateMutability": "view",
      "type": "function"
    },
    {
      "inputs": [],
      "name": "DISTRIBUTOR_ROLE",
      "outputs": [
        {
          "internalType": "bytes32",
          "name": "",
          "type": "bytes32"
        }
      ],
      "stateMutability": "view",
      "type": "function"
    },
    {
      "inputs": [],
      "name": "PRODUCER_ROLE",
      "outputs": [
        {
          "internalType": "bytes32",
          "name": "",
          "type": "bytes32"
        }
      ],
      "stateMutability": "view",
      "type": "function"
    },
    {
      "inputs": [],
      "name": "RETAILER_ROLE",
      "outputs": [
        {
          "internalType": "bytes32",
          "name": "",
          "type": "bytes32"
        }
      ],
      "stateMutability": "view",
      "type": "function"
    },
    {
      "inputs": [],
      "name": "TRANSPORTER_ROLE",
      "outputs": [
        {
          "internalType": "bytes32",
          "name": "",
          "type": "bytes32"
        }
      ],
      "stateMutability": "view",
      "type": "function"
    },
    {
      "inputs": [],
      "name": "UPGRADE_INTERFACE_VERSION",
      "outputs": [
        {
          "internalType": "string",
          "name": "",
          "type": "string"
        }
      ],
      "stateMutability": "view",
      "type": "function"
    },
    {
      "inputs": [
        {
          "internalType": "bytes32",
          "name": "_itemId",
          "type": "bytes32"
        },
        {
          "internalType": "string",
          "name": "_certName",
          "type": "string"
        },
        {
          "internalType": "string",
          "name": "_certIssuer",
          "type": "string"
        }
      ],
      "name": "addCertificate",
      "outputs": [],
      "stateMutability": "nonpayable",
      "type": "function"
    },
    {
      "inputs": [
        {
          "internalType": "bytes32",
          "name": "_itemId",
          "type": "bytes32"
        }
      ],
      "name": "confirmTransfer",
      "outputs": [],
      "stateMutability": "nonpayable",
      "type": "function"
    },
    {
      "inputs": [
        {
          "internalType": "bytes32",
          "name": "_itemId",
          "type": "bytes32"
        },
        {
          "internalType": "string",
          "name": "_name",
          "type": "string"
        },
        {
          "internalType": "string",
          "name": "_description",
          "type": "string"
        },
        {
          "internalType": "uint256",
          "name": "_plannedDeliveryTime",
          "type": "uint256"
        },
        {
          "internalType": "uint256",
          "name": "_costPrice",
          "type": "uint256"
        },
        {
          "internalType": "uint256",
          "name": "_sellingPrice",
          "type": "uint256"
        },
        {
          "internalType": "string",
          "name": "_originalItemId",
          "type": "string"
        }
      ],
      "name": "createItem",
      "outputs": [],
      "stateMutability": "nonpayable",
      "type": "function"
    },
    {
      "inputs": [],
      "name": "feeCollector",
      "outputs": [
        {
          "internalType": "address",
          "name": "",
          "type": "address"
        }
      ],
      "stateMutability": "view",
      "type": "function"
    },
    {
      "inputs": [],
      "name": "getAllItemIds",
      "outputs": [
        {
          "internalType": "bytes32[]",
          "name": "",
          "type": "bytes32[]"
        }
      ],
      "stateMutability": "view",
      "type": "function"
    },
    {
      "inputs": [
        {
          "internalType": "bytes32",
          "name": "_itemId",
          "type": "bytes32"
        }
      ],
      "name": "getCertificates",
      "outputs": [
        {
          "components": [
            {
              "internalType": "string",
              "name": "certName",
              "type": "string"
            },
            {
              "internalType": "string",
              "name": "certIssuer",
              "type": "string"
            },
            {
              "internalType": "uint256",
              "name": "issueDate",
              "type": "uint256"
            }
          ],
          "internalType": "struct SupplyChainTracking.Certificate[]",
          "name": "",
          "type": "tuple[]"
        }
      ],
      "stateMutability": "view",
      "type": "function"
    },
    {
      "inputs": [
        {
          "internalType": "bytes32",
          "name": "_itemId",
          "type": "bytes32"
        }
      ],
      "name": "getItemDetail",
      "outputs": [
        {
          "components": [
            {
              "internalType": "bytes32",
              "name": "id",
              "type": "bytes32"
            },
            {
              "internalType": "string",
              "name": "name",
              "type": "string"
            },
            {
              "internalType": "string",
              "name": "description",
              "type": "string"
            },
            {
              "internalType": "address",
              "name": "currentOwner",
              "type": "address"
            },
            {
              "internalType": "enum SupplyChainTracking.State",
              "name": "currentState",
              "type": "uint8"
            },
            {
              "internalType": "bool",
              "name": "exists",
              "type": "bool"
            },
            {
              "internalType": "uint256",
              "name": "plannedDeliveryTime",
              "type": "uint256"
            },
            {
              "internalType": "uint256",
              "name": "costPrice",
              "type": "uint256"
            },
            {
              "internalType": "uint256",
              "name": "sellingPrice",
              "type": "uint256"
            },
            {
              "internalType": "string",
              "name": "itemIdString",
              "type": "string"
            }
          ],
          "internalType": "struct SupplyChainTracking.Item",
          "name": "",
          "type": "tuple"
        }
      ],
      "stateMutability": "view",
      "type": "function"
    },
    {
      "inputs": [
        {
          "internalType": "bytes32",
          "name": "_itemId",
          "type": "bytes32"
        }
      ],
      "name": "getItemHistory",
      "outputs": [
        {
          "components": [
            {
              "internalType": "enum SupplyChainTracking.State",
              "name": "state",
              "type": "uint8"
            },
            {
              "internalType": "address",
              "name": "actor",
              "type": "address"
            },
            {
              "internalType": "uint256",
              "name": "timestamp",
              "type": "uint256"
            },
            {
              "internalType": "string",
              "name": "note",
              "type": "string"
            }
          ],
          "internalType": "struct SupplyChainTracking.History[]",
          "name": "",
          "type": "tuple[]"
        }
      ],
      "stateMutability": "view",
      "type": "function"
    },
    {
      "inputs": [
        {
          "internalType": "bytes32",
          "name": "_itemId",
          "type": "bytes32"
        }
      ],
      "name": "getItemOwner",
      "outputs": [
        {
          "internalType": "address",
          "name": "",
          "type": "address"
        }
      ],
      "stateMutability": "view",
      "type": "function"
    },
    {
      "inputs": [
        {
          "internalType": "bytes32",
          "name": "_itemId",
          "type": "bytes32"
        }
      ],
      "name": "getItemState",
      "outputs": [
        {
          "internalType": "enum SupplyChainTracking.State",
          "name": "",
          "type": "uint8"
        }
      ],
      "stateMutability": "view",
      "type": "function"
    },
    {
      "inputs": [
        {
          "internalType": "bytes32",
          "name": "role",
          "type": "bytes32"
        }
      ],
      "name": "getRoleAdmin",
      "outputs": [
        {
          "internalType": "bytes32",
          "name": "",
          "type": "bytes32"
        }
      ],
      "stateMutability": "view",
      "type": "function"
    },
    {
      "inputs": [
        {
          "internalType": "bytes32",
          "name": "role",
          "type": "bytes32"
        },
        {
          "internalType": "address",
          "name": "account",
          "type": "address"
        }
      ],
      "name": "grantAccess",
      "outputs": [],
      "stateMutability": "nonpayable",
      "type": "function"
    },
    {
      "inputs": [
        {
          "internalType": "bytes32",
          "name": "role",
          "type": "bytes32"
        },
        {
          "internalType": "address",
          "name": "account",
          "type": "address"
        }
      ],
      "name": "grantRole",
      "outputs": [],
      "stateMutability": "nonpayable",
      "type": "function"
    },
    {
      "inputs": [
        {
          "internalType": "bytes32",
          "name": "role",
          "type": "bytes32"
        },
        {
          "internalType": "address",
          "name": "account",
          "type": "address"
        }
      ],
      "name": "hasRole",
      "outputs": [
        {
          "internalType": "bool",
          "name": "",
          "type": "bool"
        }
      ],
      "stateMutability": "view",
      "type": "function"
    },
    {
      "inputs": [],
      "name": "initialize",
      "outputs": [],
      "stateMutability": "nonpayable",
      "type": "function"
    },
    {
      "inputs": [
        {
          "internalType": "bytes32",
          "name": "_itemId",
          "type": "bytes32"
        },
        {
          "internalType": "address",
          "name": "_to",
          "type": "address"
        }
      ],
      "name": "initiateTransfer",
      "outputs": [],
      "stateMutability": "nonpayable",
      "type": "function"
    },
    {
      "inputs": [
        {
          "internalType": "bytes32",
          "name": "",
          "type": "bytes32"
        },
        {
          "internalType": "uint256",
          "name": "",
          "type": "uint256"
        }
      ],
      "name": "itemCertificates",
      "outputs": [
        {
          "internalType": "string",
          "name": "certName",
          "type": "string"
        },
        {
          "internalType": "string",
          "name": "certIssuer",
          "type": "string"
        },
        {
          "internalType": "uint256",
          "name": "issueDate",
          "type": "uint256"
        }
      ],
      "stateMutability": "view",
      "type": "function"
    },
    {
      "inputs": [
        {
          "internalType": "bytes32",
          "name": "",
          "type": "bytes32"
        },
        {
          "internalType": "uint256",
          "name": "",
          "type": "uint256"
        }
      ],
      "name": "itemHistories",
      "outputs": [
        {
          "internalType": "enum SupplyChainTracking.State",
          "name": "state",
          "type": "uint8"
        },
        {
          "internalType": "address",
          "name": "actor",
          "type": "address"
        },
        {
          "internalType": "uint256",
          "name": "timestamp",
          "type": "uint256"
        },
        {
          "internalType": "string",
          "name": "note",
          "type": "string"
        }
      ],
      "stateMutability": "view",
      "type": "function"
    },
    {
      "inputs": [
        {
          "internalType": "bytes32",
          "name": "",
          "type": "bytes32"
        }
      ],
      "name": "items",
      "outputs": [
        {
          "internalType": "bytes32",
          "name": "id",
          "type": "bytes32"
        },
        {
          "internalType": "string",
          "name": "name",
          "type": "string"
        },
        {
          "internalType": "string",
          "name": "description",
          "type": "string"
        },
        {
          "internalType": "address",
          "name": "currentOwner",
          "type": "address"
        },
        {
          "internalType": "enum SupplyChainTracking.State",
          "name": "currentState",
          "type": "uint8"
        },
        {
          "internalType": "bool",
          "name": "exists",
          "type": "bool"
        },
        {
          "internalType": "uint256",
          "name": "plannedDeliveryTime",
          "type": "uint256"
        },
        {
          "internalType": "uint256",
          "name": "costPrice",
          "type": "uint256"
        },
        {
          "internalType": "uint256",
          "name": "sellingPrice",
          "type": "uint256"
        },
        {
          "internalType": "string",
          "name": "itemIdString",
          "type": "string"
        }
      ],
      "stateMutability": "view",
      "type": "function"
    },
    {
      "inputs": [
        {
          "internalType": "bytes32",
          "name": "_itemId",
          "type": "bytes32"
        },
        {
          "internalType": "address",
          "name": "_customerAddress",
          "type": "address"
        }
      ],
      "name": "markAsSold",
      "outputs": [],
      "stateMutability": "nonpayable",
      "type": "function"
    },
    {
      "inputs": [
        {
          "internalType": "bytes32",
          "name": "",
          "type": "bytes32"
        }
      ],
      "name": "pendingTransfers",
      "outputs": [
        {
          "internalType": "address",
          "name": "from",
          "type": "address"
        },
        {
          "internalType": "address",
          "name": "to",
          "type": "address"
        },
        {
          "internalType": "bool",
          "name": "fromConfirmed",
          "type": "bool"
        },
        {
          "internalType": "bool",
          "name": "toConfirmed",
          "type": "bool"
        }
      ],
      "stateMutability": "view",
      "type": "function"
    },
    {
      "inputs": [],
      "name": "proxiableUUID",
      "outputs": [
        {
          "internalType": "bytes32",
          "name": "",
          "type": "bytes32"
        }
      ],
      "stateMutability": "view",
      "type": "function"
    },
    {
      "inputs": [
        {
          "internalType": "bytes32",
          "name": "role",
          "type": "bytes32"
        },
        {
          "internalType": "address",
          "name": "callerConfirmation",
          "type": "address"
        }
      ],
      "name": "renounceRole",
      "outputs": [],
      "stateMutability": "nonpayable",
      "type": "function"
    },
    {
      "inputs": [
        {
          "internalType": "bytes32",
          "name": "_itemId",
          "type": "bytes32"
        },
        {
          "internalType": "string",
          "name": "_reason",
          "type": "string"
        }
      ],
      "name": "reportDamage",
      "outputs": [],
      "stateMutability": "nonpayable",
      "type": "function"
    },
    {
      "inputs": [
        {
          "internalType": "bytes32",
          "name": "_itemId",
          "type": "bytes32"
        },
        {
          "internalType": "string",
          "name": "_reason",
          "type": "string"
        }
      ],
      "name": "reportLost",
      "outputs": [],
      "stateMutability": "nonpayable",
      "type": "function"
    },
    {
      "inputs": [
        {
          "internalType": "bytes32",
          "name": "role",
          "type": "bytes32"
        },
        {
          "internalType": "address",
          "name": "account",
          "type": "address"
        }
      ],
      "name": "revokeAccess",
      "outputs": [],
      "stateMutability": "nonpayable",
      "type": "function"
    },
    {
      "inputs": [
        {
          "internalType": "bytes32",
          "name": "role",
          "type": "bytes32"
        },
        {
          "internalType": "address",
          "name": "account",
          "type": "address"
        }
      ],
      "name": "revokeRole",
      "outputs": [],
      "stateMutability": "nonpayable",
      "type": "function"
    },
    {
      "inputs": [
        {
          "internalType": "address",
          "name": "_collectorAddress",
          "type": "address"
        }
      ],
      "name": "setFeeCollectorAddress",
      "outputs": [],
      "stateMutability": "nonpayable",
      "type": "function"
    },
    {
      "inputs": [
        {
          "internalType": "address",
          "name": "_tokenAddress",
          "type": "address"
        }
      ],
      "name": "setTokenContractAddress",
      "outputs": [],
      "stateMutability": "nonpayable",
      "type": "function"
    },
    {
      "inputs": [
        {
          "internalType": "bytes4",
          "name": "interfaceId",
          "type": "bytes4"
        }
      ],
      "name": "supportsInterface",
      "outputs": [
        {
          "internalType": "bool",
          "name": "",
          "type": "bool"
        }
      ],
      "stateMutability": "view",
      "type": "function"
    },
    {
      "inputs": [],
      "name": "tokenContract",
      "outputs": [
        {
          "internalType": "contract IERC20",
          "name": "",
          "type": "address"
        }
      ],
      "stateMutability": "view",
      "type": "function"
    },
    {
      "inputs": [
        {
          "internalType": "bytes32",
          "name": "_itemId",
          "type": "bytes32"
        },
        {
          "internalType": "uint256",
          "name": "_newSellingPrice",
          "type": "uint256"
        }
      ],
      "name": "updateSellingPrice",
      "outputs": [],
      "stateMutability": "nonpayable",
      "type": "function"
    },
    {
      "inputs": [
        {
          "internalType": "address",
          "name": "newImplementation",
          "type": "address"
        },
        {
          "internalType": "bytes",
          "name": "data",
          "type": "bytes"
        }
      ],
      "name": "upgradeToAndCall",
      "outputs": [],
      "stateMutability": "payable",
      "type": "function"
    }
  ],
  "bytecode": "0x60a060405230608052348015601357600080fd5b50608051614bff61003d600039600081816138580152818161388101526139c70152614bff6000f3fe60806040526004361061023b5760003560e01c8063729dfe401161012e5780639f02d3ec116100ab578063cb3e1fe71161006f578063cb3e1fe7146107ed578063d547741f1461080f578063d7787eeb1461082f578063ed76863d1461084f578063f0bd87cc1461086f57600080fd5b80639f02d3ec1461073a578063a217fddf1461075a578063ad3cb1cc1461076f578063b23d4854146107ad578063c415b95c146107cd57600080fd5b80638129fc1c116100f25780638129fc1c146106225780638d4ab2c0146106375780638d53b208146106c15780638fbd1ce1146106e157806391d148541461071a57600080fd5b8063729dfe4014610545578063731404091461056757806375b238fc146105ae5780637d6ba5b3146105e25780637e84eb4b1461060257600080fd5b806340554c3a116101bc57806352b0cb201161018057806352b0cb201461048857806352d1902d146104a857806355a373d6146104bd5780636a079ce2146104f557806370f378f41461052557600080fd5b806340554c3a146103d057806348292cbd146103f057806348f343f31461041d5780634eabbe77146104535780634f1ef2861461047557600080fd5b8063248a9ca311610203578063248a9ca31461032e578063293491481461034e5780632f2ff15d1461037057806336568abe1461039057806336a55b38146103b057600080fd5b806301ffc9a7146102405780631395f14a1461027557806314ca631b146102a257806315459471146102d15780632115e7bf146102fe575b600080fd5b34801561024c57600080fd5b5061026061025b366004613f69565b610891565b60405190151581526020015b60405180910390f35b34801561028157600080fd5b50610295610290366004613f93565b6108c8565b60405161026c9190614034565b3480156102ae57600080fd5b506102c26102bd3660046140f6565b610b7e565b60405161026c93929190614118565b3480156102dd57600080fd5b506102f16102ec366004613f93565b610cd5565b60405161026c919061414e565b34801561030a57600080fd5b50610320600080516020614b4183398151915281565b60405190815260200161026c565b34801561033a57600080fd5b50610320610349366004613f93565b610e28565b34801561035a57600080fd5b5061036e61036936600461429b565b610e4a565b005b34801561037c57600080fd5b5061036e61038b3660046142fd565b61109f565b34801561039c57600080fd5b5061036e6103ab3660046142fd565b6110c1565b3480156103bc57600080fd5b5061036e6103cb366004613f93565b6110f9565b3480156103dc57600080fd5b5061036e6103eb3660046142fd565b6118ef565b3480156103fc57600080fd5b5061041061040b366004613f93565b6118fa565b60405161026c9190614329565b34801561042957600080fd5b5061043d610438366004613f93565b611a8f565b60405161026c9a999897969594939291906143b4565b34801561045f57600080fd5b50610320600080516020614b0183398151915281565b61036e61048336600461443e565b611c8b565b34801561049457600080fd5b5061036e6104a336600461429b565b611caa565b3480156104b457600080fd5b50610320611ef1565b3480156104c957600080fd5b506000546104dd906001600160a01b031681565b6040516001600160a01b03909116815260200161026c565b34801561050157600080fd5b506105156105103660046140f6565b611f0e565b60405161026c9493929190614495565b34801561053157600080fd5b5061036e6105403660046144d3565b611fed565b34801561055157600080fd5b5061055a6125f5565b60405161026c919061458b565b34801561057357600080fd5b506105a1610582366004613f93565b600090815260026020526040902060030154600160a01b900460ff1690565b60405161026c91906145ce565b3480156105ba57600080fd5b506103207fa49807205ce4d355092ef5a8a18f56e8913cf4a201fbe287825b095693c2177581565b3480156105ee57600080fd5b5061036e6105fd3660046145dc565b61264d565b34801561060e57600080fd5b5061036e61061d3660046142fd565b612705565b34801561062e57600080fd5b5061036e612a26565b34801561064357600080fd5b5061068e610652366004613f93565b600560205260009081526040902080546001909101546001600160a01b039182169181169060ff600160a01b8204811691600160a81b90041684565b604080516001600160a01b039586168152949093166020850152901515918301919091521515606082015260800161026c565b3480156106cd57600080fd5b5061036e6106dc3660046142fd565b612b44565b3480156106ed57600080fd5b506104dd6106fc366004613f93565b6000908152600260205260409020600301546001600160a01b031690565b34801561072657600080fd5b506102606107353660046142fd565b612b59565b34801561074657600080fd5b5061036e6107553660046140f6565b612b91565b34801561076657600080fd5b50610320600081565b34801561077b57600080fd5b506107a0604051806040016040528060058152602001640352e302e360dc1b81525081565b60405161026c91906145f7565b3480156107b957600080fd5b5061036e6107c83660046145dc565b612f11565b3480156107d957600080fd5b506001546104dd906001600160a01b031681565b3480156107f957600080fd5b50610320600080516020614ae183398151915281565b34801561081b57600080fd5b5061036e61082a3660046142fd565b612fbb565b34801561083b57600080fd5b5061036e61084a36600461460a565b612fcd565b34801561085b57600080fd5b5061036e61086a3660046142fd565b6132cb565b34801561087b57600080fd5b50610320600080516020614b2183398151915281565b60006001600160e01b03198216637965db0b60e01b14806108c257506301ffc9a760e01b6001600160e01b03198316145b92915050565b604080516101408101825260008082526060602083018190529282018390528282018190526080820181905260a0820181905260c0820181905260e082018190526101008201526101208101919091526002600083815260200190815260200160002060405180610140016040529081600082015481526020016001820180546109519061467a565b80601f016020809104026020016040519081016040528092919081815260200182805461097d9061467a565b80156109ca5780601f1061099f576101008083540402835291602001916109ca565b820191906000526020600020905b8154815290600101906020018083116109ad57829003601f168201915b505050505081526020016002820180546109e39061467a565b80601f0160208091040260200160405190810160405280929190818152602001828054610a0f9061467a565b8015610a5c5780601f10610a3157610100808354040283529160200191610a5c565b820191906000526020600020905b815481529060010190602001808311610a3f57829003601f168201915b505050918352505060038201546001600160a01b0381166020830152604090910190600160a01b900460ff166009811115610a9957610a99613ffc565b6009811115610aaa57610aaa613ffc565b81526003820154600160a81b900460ff161515602082015260048201546040820152600582015460608201526006820154608082015260078201805460a090920191610af59061467a565b80601f0160208091040260200160405190810160405280929190818152602001828054610b219061467a565b8015610b6e5780601f10610b4357610100808354040283529160200191610b6e565b820191906000526020600020905b815481529060010190602001808311610b5157829003601f168201915b5050505050815250509050919050565b60046020528160005260406000208181548110610b9a57600080fd5b906000526020600020906003020160009150915050806000018054610bbe9061467a565b80601f0160208091040260200160405190810160405280929190818152602001828054610bea9061467a565b8015610c375780601f10610c0c57610100808354040283529160200191610c37565b820191906000526020600020905b815481529060010190602001808311610c1a57829003601f168201915b505050505090806001018054610c4c9061467a565b80601f0160208091040260200160405190810160405280929190818152602001828054610c789061467a565b8015610cc55780601f10610c9a57610100808354040283529160200191610cc5565b820191906000526020600020905b815481529060010190602001808311610ca857829003601f168201915b5050505050908060020154905083565b606060036000838152602001908152602001600020805480602002602001604051908101604052809291908181526020016000905b82821015610e1d576000848152602090206040805160808101909152600384029091018054829060ff166009811115610d4557610d45613ffc565b6009811115610d5657610d56613ffc565b8152815461010090046001600160a01b0316602082015260018201546040820152600282018054606090920191610d8c9061467a565b80601f0160208091040260200160405190810160405280929190818152602001828054610db89061467a565b8015610e055780601f10610dda57610100808354040283529160200191610e05565b820191906000526020600020905b815481529060010190602001808311610de857829003601f168201915b50505050508152505081526020019060010190610d0a565b505050509050919050565b6000908152600080516020614baa833981519152602052604090206001015490565b610e62600080516020614b0183398151915233612b59565b80610e805750610e80600080516020614b2183398151915233612b59565b610ef75760405162461bcd60e51b815260206004820152603a60248201527f43616c6c6572206d757374206265205472616e73706f72746572206f7220446960448201527f737472696275746f7220746f207265706f72742064616d61676500000000000060648201526084015b60405180910390fd5b60008281526002602052604090206003810154600160a81b900460ff16610f305760405162461bcd60e51b8152600401610eee906146b4565b60038101546001600160a01b03163314610f985760405162461bcd60e51b8152602060048201526024808201527f4f6e6c792063757272656e74206f776e65722063616e207265706f72742064616044820152636d61676560e01b6064820152608401610eee565b6003818101805460ff60a01b1916600160a31b17905560008481526020828152604080832081516080810183526008815233818501524292810192909252606082018790528054600181810183559185529290932081519290940290930180549092839160ff19169083600981111561101357611013613ffc565b0217905550602082015181546001600160a01b0390911661010002610100600160a81b0319909116178155604082015160018201556060820151600282019061105c9082614728565b505050827f0c75017800f18fe8aa79d2d17f80214b1730a14d8170d048f00e4e5b53cc1bb66008846040516110929291906147e6565b60405180910390a2505050565b6110a882610e28565b6110b18161371f565b6110bb838361372c565b50505050565b6001600160a01b03811633146110ea5760405163334bd91960e11b815260040160405180910390fd5b6110f482826137d1565b505050565b600081815260056020908152604080832060029092529091206003810154600160a81b900460ff1661113d5760405162461bcd60e51b8152600401610eee906146b4565b60018201546001600160a01b031633146111a45760405162461bcd60e51b815260206004820152602260248201527f4f6e6c792072656365697665722063616e20636f6e6669726d207472616e736660448201526132b960f11b6064820152608401610eee565b6001820154600160a01b900460ff1661120b5760405162461bcd60e51b815260206004820152602360248201527f53656e646572206d75737420696e697469617465207472616e736665722066696044820152621c9cdd60ea1b6064820152608401610eee565b6001820154600160a81b900460ff16156112765760405162461bcd60e51b815260206004820152602660248201527f5472616e7366657220616c726561647920636f6e6669726d656420627920726560448201526531b2b4bb32b960d11b6064820152608401610eee565b61128e600080516020614b0183398151915233612b59565b806112ac57506112ac600080516020614b2183398151915233612b59565b806112ca57506112ca600080516020614b4183398151915233612b59565b6113165760405162461bcd60e51b815260206004820152601d60248201527f496e76616c696420636f6e6669726d207472616e7366657220726f6c650000006044820152606401610eee565b6006810154600090156115de576000546001600160a01b031661137b5760405162461bcd60e51b815260206004820152601e60248201527f546f6b656e20636f6e74726163742061646472657373206e6f742073657400006044820152606401610eee565b600080546001600160a01b031663dd62ed3e336040516001600160e01b031960e084901b1681526001600160a01b039091166004820152306024820152604401602060405180830381865afa1580156113d8573d6000803e3d6000fd5b505050506040513d601f19601f820116820180604052508101906113fc919061480e565b905082600601548110156114695760405162461bcd60e51b815260206004820152602e60248201527f496e73756666696369656e7420746f6b656e20616c6c6f77616e636520666f7260448201526d2073656c6c696e6720707269636560901b6064820152608401610eee565b600080546001600160a01b03166323b872dd338754600688015460405160e085901b6001600160e01b03191681526001600160a01b03938416600482015292909116602483015260448201526064016020604051808303816000875af11580156114d7573d6000803e3d6000fd5b505050506040513d601f19601f820116820180604052508101906114fb9190614827565b9050806115565760405162461bcd60e51b815260206004820152602360248201527f53656c6c696e6720707269636520746f6b656e207472616e73666572206661696044820152621b195960ea1b6064820152608401610eee565b600684015485549093506001600160a01b0316336001600160a01b0316877f9688cb9d5126d389af6cc829498ad77cffd361f01a6e97e9c404812e0763998787600601546040516115d3918152604060208201819052601290820152714974656d2053656c6c696e6720507269636560701b606082015260800190565b60405180910390a450505b60018301805460ff60a81b1916600160a81b1790556115fa3390565b6003830180546001600160a01b0319166001600160a01b039290921691909117905560408051808201909152600e81526d24ba32b6903932b1b2b4bb32b21760911b6020820152611659600080516020614b0183398151915233612b59565b156116925760038301805460ff60a01b1916600160a11b17905560408051606081019091526029808252614b8160208301399050611766565b6116aa600080516020614b2183398151915233612b59565b156116fe575060038201805460ff60a01b1916600160a21b17905560408051808201909152601d81527f4974656d207265636569766564206174204469737472696275746f722e0000006020820152611766565b611716600080516020614b4183398151915233612b59565b15611766575060038201805460ff60a01b1916600360a11b17905560408051808201909152601a81527f4974656d2072656365697665642061742052657461696c65722e00000000000060208201525b826004015442111561179557806040516020016117839190614849565b60405160208183030381529060405290505b6003600086815260200190815260200160002060405180608001604052808560030160149054906101000a900460ff1660098111156117d6576117d6613ffc565b815233602080830191909152426040830152606090910184905282546001808201855560009485529190932082516003909402018054929390929091839160ff19169083600981111561182b5761182b613ffc565b0217905550602082015181546001600160a01b0390911661010002610100600160a81b031990911617815560408201516001820155606082015160028201906118749082614728565b505050600085815260056020526040902080546001600160a01b031916815560010180546001600160b01b0319169055336001600160a01b0316857f088c474e55a390f3d615704787d6b2fb7f0f3c31d954fa34f812d542226715ab846040516118e091815260200190565b60405180910390a35050505050565b60006110b18161371f565b606060046000838152602001908152602001600020805480602002602001604051908101604052809291908181526020016000905b82821015610e1d57838290600052602060002090600302016040518060600160405290816000820180546119629061467a565b80601f016020809104026020016040519081016040528092919081815260200182805461198e9061467a565b80156119db5780601f106119b0576101008083540402835291602001916119db565b820191906000526020600020905b8154815290600101906020018083116119be57829003601f168201915b505050505081526020016001820180546119f49061467a565b80601f0160208091040260200160405190810160405280929190818152602001828054611a209061467a565b8015611a6d5780601f10611a4257610100808354040283529160200191611a6d565b820191906000526020600020905b815481529060010190602001808311611a5057829003601f168201915b505050505081526020016002820154815250508152602001906001019061192f565b60026020526000908152604090208054600182018054919291611ab19061467a565b80601f0160208091040260200160405190810160405280929190818152602001828054611add9061467a565b8015611b2a5780601f10611aff57610100808354040283529160200191611b2a565b820191906000526020600020905b815481529060010190602001808311611b0d57829003601f168201915b505050505090806002018054611b3f9061467a565b80601f0160208091040260200160405190810160405280929190818152602001828054611b6b9061467a565b8015611bb85780601f10611b8d57610100808354040283529160200191611bb8565b820191906000526020600020905b815481529060010190602001808311611b9b57829003601f168201915b50505050600383015460048401546005850154600686015460078701805496976001600160a01b0386169760ff600160a01b880481169850600160a81b90970490961695909190611c089061467a565b80601f0160208091040260200160405190810160405280929190818152602001828054611c349061467a565b8015611c815780601f10611c5657610100808354040283529160200191611c81565b820191906000526020600020905b815481529060010190602001808311611c6457829003601f168201915b505050505090508a565b611c9361384d565b611c9c826138f4565b611ca682826138ff565b5050565b611cc2600080516020614b0183398151915233612b59565b80611ce05750611ce0600080516020614b2183398151915233612b59565b611d525760405162461bcd60e51b815260206004820152603860248201527f43616c6c6572206d757374206265205472616e73706f72746572206f7220446960448201527f737472696275746f7220746f207265706f7274206c6f737400000000000000006064820152608401610eee565b60008281526002602052604090206003810154600160a81b900460ff16611d8b5760405162461bcd60e51b8152600401610eee906146b4565b60038101546001600160a01b03163314611df25760405162461bcd60e51b815260206004820152602260248201527f4f6e6c792063757272656e74206f776e65722063616e207265706f7274206c6f6044820152611cdd60f21b6064820152608401610eee565b6003818101805460ff60a01b1916600960a01b17905560008481526020828152604080832081516080810183526009808252338286015242938201939093526060810188905281546001818101845592865293909420845193909502909401805493949093849260ff1990911691908490811115611e7257611e72613ffc565b0217905550602082015181546001600160a01b0390911661010002610100600160a81b03199091161781556040820151600182015560608201516002820190611ebb9082614728565b505050827f0c75017800f18fe8aa79d2d17f80214b1730a14d8170d048f00e4e5b53cc1bb66009846040516110929291906147e6565b6000611efb6139bc565b50600080516020614b6183398151915290565b60036020528160005260406000208181548110611f2a57600080fd5b600091825260209091206003909102018054600182015460028301805460ff841696506101009093046001600160a01b03169450909291611f6a9061467a565b80601f0160208091040260200160405190810160405280929190818152602001828054611f969061467a565b8015611fe35780601f10611fb857610100808354040283529160200191611fe3565b820191906000526020600020905b815481529060010190602001808311611fc657829003601f168201915b5050505050905084565b600080516020614ae18339815191526120058161371f565b600088815260026020526040902060030154600160a81b900460ff16156120645760405162461bcd60e51b81526020600482015260136024820152724974656d20616c72656164792065786973747360681b6044820152606401610eee565b6000546001600160a01b03166120bc5760405162461bcd60e51b815260206004820152601e60248201527f546f6b656e20636f6e74726163742061646472657373206e6f742073657400006044820152606401610eee565b6001546001600160a01b03166121145760405162461bcd60e51b815260206004820152601d60248201527f46656520636f6c6c6563746f722061646472657373206e6f74207365740000006044820152606401610eee565b831561235857600080546001600160a01b031663dd62ed3e336040516001600160e01b031960e084901b1681526001600160a01b039091166004820152306024820152604401602060405180830381865afa158015612177573d6000803e3d6000fd5b505050506040513d601f19601f8201168201806040525081019061219b919061480e565b9050848110156122015760405162461bcd60e51b815260206004820152602b60248201527f496e73756666696369656e7420746f6b656e20616c6c6f77616e636520666f7260448201526a20636f737420707269636560a81b6064820152608401610eee565b600080546001600160a01b03166323b872dd3360015460405160e084901b6001600160e01b03191681526001600160a01b03928316600482015291166024820152604481018990526064016020604051808303816000875af115801561226b573d6000803e3d6000fd5b505050506040513d601f19601f8201168201806040525081019061228f9190614827565b9050806122de5760405162461bcd60e51b815260206004820181905260248201527f436f737420707269636520746f6b656e207472616e73666572206661696c65646044820152606401610eee565b6001546001600160a01b0316336001600160a01b03168b7f9688cb9d5126d389af6cc829498ad77cffd361f01a6e97e9c404812e076399878960405161234d918152604060208201819052600f908201526e4974656d20436f737420507269636560881b606082015260800190565b60405180910390a450505b60405180610140016040528089815260200188815260200187815260200161237d3390565b6001600160a01b03168152602001600081526001602080830182905260408084018a9052606084018990526080840188905260a090930186905260008c815260028252929092208351815591830151908201906123da9082614728565b50604082015160028201906123ef9082614728565b5060608201516003820180546001600160a01b039092166001600160a01b03198316811782556080850151926001600160a81b03191617600160a01b83600981111561243d5761243d613ffc565b021790555060a0820151600382018054911515600160a81b0260ff60a81b1990921691909117905560c0820151600482015560e08201516005820155610100820151600682015561012082015160078201906124999082614728565b50505060008881526003602081815260408084208151608081018352858152338185015242818401528251808401909352600c83526b125d195b4818dc99585d195960a21b83850152606081019290925280546001808201835591865292909420815192909302909201805492939092839160ff199091169083600981111561252457612524613ffc565b0217905550602082015181546001600160a01b0390911661010002610100600160a81b0319909116178155604082015160018201556060820151600282019061256d9082614728565b5050600680546001810182556000919091527ff652222313e28459528d920b65115c16c04f3efc82aaedc97be59f3f377c0d3f0189905550336001600160a01b0316887fb807465cfb39005ec617112ed4e6a3cbf71bd2cd6e1aba7f831594df4f3784aa8987876040516125e39392919061487f565b60405180910390a35050505050505050565b6060600680548060200260200160405190810160405280929190818152602001828054801561264357602002820191906000526020600020905b81548152602001906001019080831161262f575b5050505050905090565b60006126588161371f565b6001600160a01b0382166126ba5760405162461bcd60e51b8152602060048201526024808201527f46656520636f6c6c6563746f7220616464726573732063616e6e6f74206265206044820152637a65726f60e01b6064820152608401610eee565b600180546001600160a01b0319166001600160a01b0384169081179091556040517f6372e15ca741f2dbd0d10e1936f5f225a9904ad9ca5e0e173287dad04ee6cefc90600090a25050565b600080516020614b4183398151915261271d8161371f565b60008381526002602052604090206003810154600160a81b900460ff166127565760405162461bcd60e51b8152600401610eee906146b4565b60038101546001600160a01b031633146127c65760405162461bcd60e51b815260206004820152602b60248201527f4f6e6c792063757272656e74206f776e6572202852657461696c65722920636160448201526a1b881b585c9ac81cdbdb1960aa1b6064820152608401610eee565b6001600160a01b03831661281c5760405162461bcd60e51b815260206004820152601f60248201527f437573746f6d657220616464726573732063616e6e6f74206265207a65726f006044820152606401610eee565b60066003820154600160a01b900460ff16600981111561283e5761283e613ffc565b146128b15760405162461bcd60e51b815260206004820152603860248201527f4974656d206d75737420626520696e205265636569766564417452657461696c60448201527f657220737461746520746f206d61726b20617320736f6c6400000000000000006064820152608401610eee565b60038181018054600760a01b6001600160a81b03199091166001600160a01b03871617179055600085815260208281526040808320815160808101835260078152338185015242818401528251808401909352601583527424ba32b69039b7b632103a379031bab9ba37b6b2b960591b8385015260608101929092528054600181810183559185529290932081519290940290930180549092839160ff19169083600981111561296357612963613ffc565b0217905550602082015181546001600160a01b0390911661010002610100600160a81b031990911617815560408201516001820155606082015160028201906129ac9082614728565b505050837f0c75017800f18fe8aa79d2d17f80214b1730a14d8170d048f00e4e5b53cc1bb660076040516129e091906148a4565b60405180910390a26040516001600160a01b03841690339086907f0353d877cb0f02e37caebcb7e28a31233e54f70864290af7c59f6076588d714990600090a450505050565b6000612a30613a05565b805490915060ff600160401b82041615906001600160401b0316600081158015612a575750825b90506000826001600160401b03166001148015612a735750303b155b905081158015612a81575080155b15612a9f5760405163f92ee8a960e01b815260040160405180910390fd5b845467ffffffffffffffff191660011785558315612ac957845460ff60401b1916600160401b1785555b612ad1613a2e565b612ad9613a2e565b612ae460003361372c565b50600180546001600160a01b031916331790558315612b3d57845460ff60401b19168555604051600181527fc7f505b2f371ae2175ee4913f4499e1f2633a7b5936321eed1cdaeb6115181d29060200160405180910390a15b5050505050565b6000612b4f8161371f565b6110bb83836137d1565b6000918252600080516020614baa833981519152602090815260408084206001600160a01b0393909316845291905290205460ff1690565b60008281526002602052604090206003810154600160a81b900460ff16612bca5760405162461bcd60e51b8152600401610eee906146b4565b60038101546001600160a01b03163314612c3a5760405162461bcd60e51b815260206004820152602b60248201527f4f6e6c792063757272656e74206f776e65722063616e2075706461746520736560448201526a6c6c696e6720707269636560a81b6064820152608401610eee565b612c52600080516020614ae183398151915233612b59565b80612c705750612c70600080516020614b2183398151915233612b59565b80612c8e5750612c8e600080516020614b4183398151915233612b59565b612cda5760405162461bcd60e51b815260206004820152601860248201527f43616c6c6572206973206e6f7420617574686f72697a656400000000000000006044820152606401610eee565b60006003820154600160a01b900460ff166009811115612cfc57612cfc613ffc565b1480612d27575060046003820154600160a01b900460ff166009811115612d2557612d25613ffc565b145b80612d51575060066003820154600160a01b900460ff166009811115612d4f57612d4f613ffc565b145b612dbb5760405162461bcd60e51b815260206004820152603560248201527f4974656d206d75737420626520696e20612076616c696420737461746520746f604482015274207570646174652073656c6c696e6720707269636560581b6064820152608401610eee565b60068101805490839055604051838152339085907f352687963b7c2914def1f529082034cb0c8f9a432ee3f60afd889daae83aa96a9060200160405180910390a36003600085815260200190815260200160002060405180608001604052808460030160149054906101000a900460ff166009811115612e3d57612e3d613ffc565b8152336020820152426040820152606001612e5784613a36565b612e6087613a36565b604051602001612e719291906148d7565b60408051601f198184030181529190529052815460018181018455600093845260209093208251600390920201805492939092839160ff1990911690836009811115612ebf57612ebf613ffc565b0217905550602082015181546001600160a01b0390911661010002610100600160a81b03199091161781556040820151600182015560608201516002820190612f089082614728565b50505050505050565b6000612f1c8161371f565b6001600160a01b038216612f725760405162461bcd60e51b815260206004820152601c60248201527f546f6b656e20616464726573732063616e6e6f74206265207a65726f000000006044820152606401610eee565b600080546001600160a01b0319166001600160a01b038416908117825560405190917f284bbd60459a4c88dcceeca2cdf83cd4d5e796c4f3dfe0eff9baa7a06a40dab691a25050565b612fc482610e28565b612b4f8161371f565b600080516020614ae1833981519152612fe58161371f565b60008481526002602052604090206003810154600160a81b900460ff1661301e5760405162461bcd60e51b8152600401610eee906146b4565b60038101546001600160a01b031633146130895760405162461bcd60e51b815260206004820152602660248201527f4f6e6c792063757272656e74206f776e65722063616e2061646420636572746960448201526566696361746560d01b6064820152608401610eee565b60006003820154600160a01b900460ff1660098111156130ab576130ab613ffc565b146131125760405162461bcd60e51b815260206004820152603160248201527f4974656d206d75737420626520696e2050726f647563656420737461746520746044820152706f2061646420636572746966696361746560781b6064820152608401610eee565b60008581526004602090815260408083208151606081018352888152808401889052429281019290925280546001810182559084529190922082516003909202019081906131609082614728565b50602082015160018201906131759082614728565b50604082015181600201555050847f990abeb86e6cfb21342f48fb558b6178010aa5e52bb9881a06312ae99232883985856040516131b492919061493f565b60405180910390a26003600086815260200190815260200160002060405180608001604052808360030160149054906101000a900460ff1660098111156131fd576131fd613ffc565b8152602001336001600160a01b03168152602001428152602001868660405160200161322a929190614964565b60408051601f198184030181529190529052815460018181018455600093845260209093208251600390920201805492939092839160ff199091169083600981111561327857613278613ffc565b0217905550602082015181546001600160a01b0390911661010002610100600160a81b031990911617815560408201516001820155606082015160028201906132c19082614728565b5050505050505050565b60008281526002602052604090206003810154600160a81b900460ff166133045760405162461bcd60e51b8152600401610eee906146b4565b60038101546001600160a01b031633146133715760405162461bcd60e51b815260206004820152602860248201527f4f6e6c792063757272656e74206f776e65722063616e20696e697469617465206044820152673a3930b739b332b960c11b6064820152608401610eee565b613389600080516020614b0183398151915283612b59565b806133a757506133a7600080516020614b2183398151915283612b59565b806133c557506133c5600080516020614b4183398151915283612b59565b6134095760405162461bcd60e51b8152602060048201526015602482015274496e76616c696420726563656976657220726f6c6560581b6044820152606401610eee565b6000838152600560205260409020546001600160a01b03161561347e5760405162461bcd60e51b815260206004820152602760248201527f4578697374696e67207472616e736665722070656e64696e6720666f722074686044820152666973206974656d60c81b6064820152608401610eee565b60405180608001604052806134903390565b6001600160a01b039081168252848116602080840191909152600160408085018290526000606095860181905289815260058452819020865181549086166001600160a01b0319909116178155928601519290910180549186015195909401511515600160a81b0260ff60a81b19951515600160a01b026001600160a81b03199092169290931691909117179290921691909117905561353e600080516020614b0183398151915283612b59565b15613565576003810180546001919060ff60a01b1916600160a01b835b02179055506135ce565b61357d600080516020614b2183398151915283612b59565b1561359b576003818101805460ff60a01b1916600160a01b8361355b565b6135b3600080516020614b4183398151915283612b59565b156135ce5760038101805460ff60a01b1916600560a01b1790555b6003600084815260200190815260200160002060405180608001604052808360030160149054906101000a900460ff16600981111561360f5761360f613ffc565b815233602082015242604082015260600161362985613b41565b60405160200161363991906149c2565b60408051601f198184030181529190529052815460018181018455600093845260209093208251600390920201805492939092839160ff199091169083600981111561368757613687613ffc565b0217905550602082015181546001600160a01b0390911661010002610100600160a81b031990911617815560408201516001820155606082015160028201906136d09082614728565b505050816001600160a01b03166136e43390565b6001600160a01b0316847f342d38e01a2764dde5384ce69df459bf7c7cd213cf5c4531154cdffc612d818c60405160405180910390a4505050565b6137298133613d19565b50565b6000600080516020614baa8339815191526137478484612b59565b6137c7576000848152602082815260408083206001600160a01b03871684529091529020805460ff1916600117905561377d3390565b6001600160a01b0316836001600160a01b0316857f2f8788117e7eff1d82e926ec794901d17c78024a50270940304540a733656f0d60405160405180910390a460019150506108c2565b60009150506108c2565b6000600080516020614baa8339815191526137ec8484612b59565b156137c7576000848152602082815260408083206001600160a01b0387168085529252808320805460ff1916905551339287917ff6391f5c32d9c69d2a47ea670b442974b53935d1edc7fd64eb21e047a839171b9190a460019150506108c2565b306001600160a01b037f00000000000000000000000000000000000000000000000000000000000000001614806138d457507f00000000000000000000000000000000000000000000000000000000000000006001600160a01b03166138c8600080516020614b61833981519152546001600160a01b031690565b6001600160a01b031614155b156138f25760405163703e46dd60e11b815260040160405180910390fd5b565b6000611ca68161371f565b816001600160a01b03166352d1902d6040518163ffffffff1660e01b8152600401602060405180830381865afa925050508015613959575060408051601f3d908101601f191682019092526139569181019061480e565b60015b61398157604051634c9c8ce360e01b81526001600160a01b0383166004820152602401610eee565b600080516020614b6183398151915281146139b257604051632a87526960e21b815260048101829052602401610eee565b6110f48383613d52565b306001600160a01b037f000000000000000000000000000000000000000000000000000000000000000016146138f25760405163703e46dd60e11b815260040160405180910390fd5b6000807ff0c57e16840df040f15088dc2f81fe391c3923bec73e23a9662efc9c229c6a006108c2565b6138f2613da8565b606081600003613a5d5750506040805180820190915260018152600360fc1b602082015290565b8160005b8115613a875780613a7181614a16565b9150613a809050600a83614a45565b9150613a61565b6000816001600160401b03811115613aa157613aa16141ed565b6040519080825280601f01601f191660200182016040528015613acb576020820181803683370190505b508593509050815b8315613b3857613ae4600a85614a59565b613aef906030614a6d565b60f81b82613afc83614a80565b92508281518110613b0f57613b0f614a97565b60200101906001600160f81b031916908160001a905350613b31600a85614a45565b9350613ad3565b50949350505050565b604080518082018252601081526f181899199a1a9b1b9c1cb0b131b232b360811b60208201528151602a80825260608281019094526001600160a01b0385169291600091602082018180368337019050509050600360fc1b81600081518110613bac57613bac614a97565b60200101906001600160f81b031916908160001a905350600f60fb1b81600181518110613bdb57613bdb614a97565b60200101906001600160f81b031916908160001a90535060005b6014811015613b385782600485613c0d84600c614a6d565b60208110613c1d57613c1d614a97565b1a60f81b6001600160f81b031916901c60f81c60ff1681518110613c4357613c43614a97565b01602001516001600160f81b03191682613c5e836002614aad565b613c69906002614a6d565b81518110613c7957613c79614a97565b60200101906001600160f81b031916908160001a9053508284613c9d83600c614a6d565b60208110613cad57613cad614a97565b825191901a600f16908110613cc457613cc4614a97565b01602001516001600160f81b03191682613cdf836002614aad565b613cea906003614a6d565b81518110613cfa57613cfa614a97565b60200101906001600160f81b031916908160001a905350600101613bf5565b613d238282612b59565b611ca65760405163e2517d3f60e01b81526001600160a01b038216600482015260248101839052604401610eee565b613d5b82613dcd565b6040516001600160a01b038316907fbc7cd75a20ee27fd9adebab32041f755214dbc6bffa90cc0225b39da2e5c2d3b90600090a2805115613da0576110f48282613e32565b611ca6613ea8565b613db0613ec7565b6138f257604051631afcd79f60e31b815260040160405180910390fd5b806001600160a01b03163b600003613e0357604051634c9c8ce360e01b81526001600160a01b0382166004820152602401610eee565b600080516020614b6183398151915280546001600160a01b0319166001600160a01b0392909216919091179055565b6060600080846001600160a01b031684604051613e4f9190614ac4565b600060405180830381855af49150503d8060008114613e8a576040519150601f19603f3d011682016040523d82523d6000602084013e613e8f565b606091505b5091509150613e9f858383613ee1565b95945050505050565b34156138f25760405163b398979f60e01b815260040160405180910390fd5b6000613ed1613a05565b54600160401b900460ff16919050565b606082613ef657613ef182613f40565b613f39565b8151158015613f0d57506001600160a01b0384163b155b15613f3657604051639996b31560e01b81526001600160a01b0385166004820152602401610eee565b50805b9392505050565b805115613f505780518082602001fd5b60405163d6bda27560e01b815260040160405180910390fd5b600060208284031215613f7b57600080fd5b81356001600160e01b031981168114613f3957600080fd5b600060208284031215613fa557600080fd5b5035919050565b60005b83811015613fc7578181015183820152602001613faf565b50506000910152565b60008151808452613fe8816020860160208601613fac565b601f01601f19169290920160200192915050565b634e487b7160e01b600052602160045260246000fd5b600a811061403057634e487b7160e01b600052602160045260246000fd5b9052565b602081528151602082015260006020830151610140604084015261405c610160840182613fd0565b90506040840151601f198483030160608501526140798282613fd0565b915050606084015161409660808501826001600160a01b03169052565b5060808401516140a960a0850182614012565b5060a084015180151560c08501525060c084015160e084015260e0840151610100840152610100840151610120840152610120840151601f1984830301610140850152613e9f8282613fd0565b6000806040838503121561410957600080fd5b50508035926020909101359150565b60608152600061412b6060830186613fd0565b828103602084015261413d8186613fd0565b915050826040830152949350505050565b6000602082016020835280845180835260408501915060408160051b86010192506020860160005b828110156141e157603f198786030184528151614194868251614012565b60018060a01b0360208201511660208701526040810151604087015260608101519050608060608701526141cb6080870182613fd0565b9550506020938401939190910190600101614176565b50929695505050505050565b634e487b7160e01b600052604160045260246000fd5b6000806001600160401b0384111561421d5761421d6141ed565b50604051601f19601f85018116603f011681018181106001600160401b038211171561424b5761424b6141ed565b60405283815290508082840185101561426357600080fd5b83836020830137600060208583010152509392505050565b600082601f83011261428c57600080fd5b613f3983833560208501614203565b600080604083850312156142ae57600080fd5b8235915060208301356001600160401b038111156142cb57600080fd5b6142d78582860161427b565b9150509250929050565b80356001600160a01b03811681146142f857600080fd5b919050565b6000806040838503121561431057600080fd5b82359150614320602084016142e1565b90509250929050565b6000602082016020835280845180835260408501915060408160051b86010192506020860160005b828110156141e157603f1987860301845281518051606087526143776060880182613fd0565b9050602082015187820360208901526143908282613fd0565b60409384015198909301979097525094506020938401939190910190600101614351565b8a8152610140602082015260006143cf61014083018c613fd0565b82810360408401526143e1818c613fd0565b6001600160a01b038b16606085015290506143ff608084018a614012565b87151560a08401528660c08401528560e08401528461010084015282810361012084015261442d8185613fd0565b9d9c50505050505050505050505050565b6000806040838503121561445157600080fd5b61445a836142e1565b915060208301356001600160401b0381111561447557600080fd5b8301601f8101851361448657600080fd5b6142d785823560208401614203565b61449f8186614012565b60018060a01b03841660208201528260408201526080606082015260006144c96080830184613fd0565b9695505050505050565b600080600080600080600060e0888a0312156144ee57600080fd5b8735965060208801356001600160401b0381111561450b57600080fd5b6145178a828b0161427b565b96505060408801356001600160401b0381111561453357600080fd5b61453f8a828b0161427b565b955050606088013593506080880135925060a0880135915060c08801356001600160401b0381111561457057600080fd5b61457c8a828b0161427b565b91505092959891949750929550565b602080825282518282018190526000918401906040840190835b818110156145c35783518352602093840193909201916001016145a5565b509095945050505050565b602081016108c28284614012565b6000602082840312156145ee57600080fd5b613f39826142e1565b602081526000613f396020830184613fd0565b60008060006060848603121561461f57600080fd5b8335925060208401356001600160401b0381111561463c57600080fd5b6146488682870161427b565b92505060408401356001600160401b0381111561466457600080fd5b6146708682870161427b565b9150509250925092565b600181811c9082168061468e57607f821691505b6020821081036146ae57634e487b7160e01b600052602260045260246000fd5b50919050565b602080825260139082015272125d195b48191bd95cc81b9bdd08195e1a5cdd606a1b604082015260600190565b601f8211156110f457806000526020600020601f840160051c810160208510156147085750805b601f840160051c820191505b81811015612b3d5760008155600101614714565b81516001600160401b03811115614741576147416141ed565b6147558161474f845461467a565b846146e1565b6020601f82116001811461478957600083156147715750848201515b600019600385901b1c1916600184901b178455612b3d565b600084815260208120601f198516915b828110156147b95787850151825560209485019460019092019101614799565b50848210156147d75786840151600019600387901b60f8161c191681555b50505050600190811b01905550565b6147f08184614012565b6040602082015260006148066040830184613fd0565b949350505050565b60006020828403121561482057600080fd5b5051919050565b60006020828403121561483957600080fd5b81518015158114613f3957600080fd5b6000825161485b818460208701613fac565b71202844656c697665726564206c617465212960701b920191825250601201919050565b6060815260006148926060830186613fd0565b60208301949094525060400152919050565b6148ae8183614012565b60406020820181905260099082015268125d195b481cdbdb1960ba1b6060820152608001919050565b7f53656c6c696e6720707269636520757064617465642066726f6d20000000000081526000835161490f81601b850160208801613fac565b630103a37960e51b601b91840191820152835161493381601f840160208801613fac565b01601f01949350505050565b6040815260006149526040830185613fd0565b8281036020840152613e9f8185613fd0565b72021b2b93a34b334b1b0ba329030b23232b21d1606d1b815260008351614992816013850160208801613fac565b63010313c960e51b60139184019182015283516149b6816017840160208801613fac565b01601701949350505050565b7502a3930b739b332b91034b734ba34b0ba32b2103a37960551b8152600082516149f3816016850160208701613fac565b9190910160160192915050565b634e487b7160e01b600052601160045260246000fd5b600060018201614a2857614a28614a00565b5060010190565b634e487b7160e01b600052601260045260246000fd5b600082614a5457614a54614a2f565b500490565b600082614a6857614a68614a2f565b500690565b808201808211156108c2576108c2614a00565b600081614a8f57614a8f614a00565b506000190190565b634e487b7160e01b600052603260045260246000fd5b80820281158282048414176108c2576108c2614a00565b60008251614ad6818460208701613fac565b919091019291505056fe8eb467f061ca67f42a2d2ca4a346fc9fb645efc0ba75056ee9f71c3a0ccc10a8ddaa901e2fe3bda354fe0ede2785152d5c109282a613fe024a056a3e66c41bb3fbd454f36a7e1a388bd6fc3ab10d434aa4578f811acbbcf33afb1c697486313c2a5f906c256a5d799494fcd066e1f6c077689de1cdb65052a1624de4bace99bf360894a13ba1a3210667c828492db98dca3e2076cc3735a920a3ca505d382bbc4974656d207265636569766564206279205472616e73706f7274657220666f72207472616e7369742e02dd7bc7dec4dceedda775e58dd541e08a116c6c53815c0bd028192f7b626800a2646970667358221220ae036dbad976cc0dc02c3a501e5ec3f35d131a8302b3ee1acde62760587451b864736f6c634300081c0033",
  "linkReferences": {},
  "deployedLinkReferences": {}
}